{
	"CrowdFunding.sol": {
		"CrowdFunding": {
			"abi": [
				{
					"inputs": [
						{
							"internalType": "uint256",
							"name": "_target",
							"type": "uint256"
						},
						{
							"internalType": "uint256",
							"name": "_deadline",
							"type": "uint256"
						}
					],
					"stateMutability": "nonpayable",
					"type": "constructor"
				},
				{
					"inputs": [
						{
							"internalType": "address",
							"name": "",
							"type": "address"
						}
					],
					"name": "contributors",
					"outputs": [
						{
							"internalType": "uint256",
							"name": "",
							"type": "uint256"
						}
					],
					"stateMutability": "view",
					"type": "function"
				},
				{
					"inputs": [],
					"name": "deadline",
					"outputs": [
						{
							"internalType": "uint256",
							"name": "",
							"type": "uint256"
						}
					],
					"stateMutability": "view",
					"type": "function"
				},
				{
					"inputs": [],
					"name": "getContractBalance",
					"outputs": [
						{
							"internalType": "uint256",
							"name": "",
							"type": "uint256"
						}
					],
					"stateMutability": "view",
					"type": "function"
				},
				{
					"inputs": [],
					"name": "manager",
					"outputs": [
						{
							"internalType": "address",
							"name": "",
							"type": "address"
						}
					],
					"stateMutability": "view",
					"type": "function"
				},
				{
					"inputs": [],
					"name": "minimumContribution",
					"outputs": [
						{
							"internalType": "uint256",
							"name": "",
							"type": "uint256"
						}
					],
					"stateMutability": "view",
					"type": "function"
				},
				{
					"inputs": [],
					"name": "noOfContributors",
					"outputs": [
						{
							"internalType": "uint256",
							"name": "",
							"type": "uint256"
						}
					],
					"stateMutability": "view",
					"type": "function"
				},
				{
					"inputs": [],
					"name": "raisedAmount",
					"outputs": [
						{
							"internalType": "uint256",
							"name": "",
							"type": "uint256"
						}
					],
					"stateMutability": "view",
					"type": "function"
				},
				{
					"inputs": [],
					"name": "refund",
					"outputs": [],
					"stateMutability": "nonpayable",
					"type": "function"
				},
				{
					"inputs": [],
					"name": "sendEth",
					"outputs": [],
					"stateMutability": "payable",
					"type": "function"
				},
				{
					"inputs": [],
					"name": "target",
					"outputs": [
						{
							"internalType": "uint256",
							"name": "",
							"type": "uint256"
						}
					],
					"stateMutability": "view",
					"type": "function"
				}
			],
			"devdoc": {
				"kind": "dev",
				"methods": {},
				"version": 1
			},
			"evm": {
				"assembly": "    /* \"CrowdFunding.sol\":77:1142  contract CrowdFunding {\r... */\n  mstore(0x40, 0x80)\n    /* \"CrowdFunding.sol\":342:530  constructor(uint _target, uint _deadline){\r... */\n  callvalue\n  dup1\n  iszero\n  tag_1\n  jumpi\n  0x00\n  dup1\n  revert\ntag_1:\n  pop\n  mload(0x40)\n  sub(codesize, bytecodeSize)\n  dup1\n  bytecodeSize\n  dup4\n  codecopy\n  dup2\n  dup2\n  add\n  0x40\n  mstore\n  dup2\n  add\n  swap1\n  tag_2\n  swap2\n  swap1\n  tag_3\n  jump\t// in\ntag_2:\n    /* \"CrowdFunding.sol\":401:408  _target */\n  dup2\n    /* \"CrowdFunding.sol\":394:400  target */\n  0x04\n    /* \"CrowdFunding.sol\":394:408  target=_target */\n  dup2\n  swap1\n  sstore\n  pop\n    /* \"CrowdFunding.sol\":444:453  _deadline */\n  dup1\n    /* \"CrowdFunding.sol\":428:443  block.timestamp */\n  timestamp\n    /* \"CrowdFunding.sol\":428:453  block.timestamp+_deadline */\n  tag_6\n  swap2\n  swap1\n  tag_7\n  jump\t// in\ntag_6:\n    /* \"CrowdFunding.sol\":419:427  deadline */\n  0x03\n    /* \"CrowdFunding.sol\":419:453  deadline=block.timestamp+_deadline */\n  dup2\n  swap1\n  sstore\n  pop\n    /* \"CrowdFunding.sol\":485:492  100 wei */\n  0x64\n    /* \"CrowdFunding.sol\":464:483  minimumContribution */\n  0x02\n    /* \"CrowdFunding.sol\":464:492  minimumContribution= 100 wei */\n  dup2\n  swap1\n  sstore\n  pop\n    /* \"CrowdFunding.sol\":512:522  msg.sender */\n  caller\n    /* \"CrowdFunding.sol\":503:510  manager */\n  0x01\n  0x00\n    /* \"CrowdFunding.sol\":503:522  manager= msg.sender */\n  0x0100\n  exp\n  dup2\n  sload\n  dup2\n  0xffffffffffffffffffffffffffffffffffffffff\n  mul\n  not\n  and\n  swap1\n  dup4\n  0xffffffffffffffffffffffffffffffffffffffff\n  and\n  mul\n  or\n  swap1\n  sstore\n  pop\n    /* \"CrowdFunding.sol\":342:530  constructor(uint _target, uint _deadline){\r... */\n  pop\n  pop\n    /* \"CrowdFunding.sol\":77:1142  contract CrowdFunding {\r... */\n  jump(tag_8)\n    /* \"#utility.yul\":7:150   */\ntag_10:\n    /* \"#utility.yul\":64:69   */\n  0x00\n    /* \"#utility.yul\":95:101   */\n  dup2\n    /* \"#utility.yul\":89:102   */\n  mload\n    /* \"#utility.yul\":80:102   */\n  swap1\n  pop\n    /* \"#utility.yul\":111:144   */\n  tag_12\n    /* \"#utility.yul\":138:143   */\n  dup2\n    /* \"#utility.yul\":111:144   */\n  tag_13\n  jump\t// in\ntag_12:\n    /* \"#utility.yul\":7:150   */\n  swap3\n  swap2\n  pop\n  pop\n  jump\t// out\n    /* \"#utility.yul\":156:663   */\ntag_3:\n    /* \"#utility.yul\":235:241   */\n  0x00\n    /* \"#utility.yul\":243:249   */\n  dup1\n    /* \"#utility.yul\":292:294   */\n  0x40\n    /* \"#utility.yul\":280:289   */\n  dup4\n    /* \"#utility.yul\":271:278   */\n  dup6\n    /* \"#utility.yul\":267:290   */\n  sub\n    /* \"#utility.yul\":263:295   */\n  slt\n    /* \"#utility.yul\":260:379   */\n  iszero\n  tag_15\n  jumpi\n    /* \"#utility.yul\":298:377   */\n  tag_16\n  tag_17\n  jump\t// in\ntag_16:\n    /* \"#utility.yul\":260:379   */\ntag_15:\n    /* \"#utility.yul\":418:419   */\n  0x00\n    /* \"#utility.yul\":443:507   */\n  tag_18\n    /* \"#utility.yul\":499:506   */\n  dup6\n    /* \"#utility.yul\":490:496   */\n  dup3\n    /* \"#utility.yul\":479:488   */\n  dup7\n    /* \"#utility.yul\":475:497   */\n  add\n    /* \"#utility.yul\":443:507   */\n  tag_10\n  jump\t// in\ntag_18:\n    /* \"#utility.yul\":433:507   */\n  swap3\n  pop\n    /* \"#utility.yul\":389:517   */\n  pop\n    /* \"#utility.yul\":556:558   */\n  0x20\n    /* \"#utility.yul\":582:646   */\n  tag_19\n    /* \"#utility.yul\":638:645   */\n  dup6\n    /* \"#utility.yul\":629:635   */\n  dup3\n    /* \"#utility.yul\":618:627   */\n  dup7\n    /* \"#utility.yul\":614:636   */\n  add\n    /* \"#utility.yul\":582:646   */\n  tag_10\n  jump\t// in\ntag_19:\n    /* \"#utility.yul\":572:646   */\n  swap2\n  pop\n    /* \"#utility.yul\":527:656   */\n  pop\n    /* \"#utility.yul\":156:663   */\n  swap3\n  pop\n  swap3\n  swap1\n  pop\n  jump\t// out\n    /* \"#utility.yul\":750:1055   */\ntag_7:\n    /* \"#utility.yul\":790:793   */\n  0x00\n    /* \"#utility.yul\":809:829   */\n  tag_23\n    /* \"#utility.yul\":827:828   */\n  dup3\n    /* \"#utility.yul\":809:829   */\n  tag_24\n  jump\t// in\ntag_23:\n    /* \"#utility.yul\":804:829   */\n  swap2\n  pop\n    /* \"#utility.yul\":843:863   */\n  tag_25\n    /* \"#utility.yul\":861:862   */\n  dup4\n    /* \"#utility.yul\":843:863   */\n  tag_24\n  jump\t// in\ntag_25:\n    /* \"#utility.yul\":838:863   */\n  swap3\n  pop\n    /* \"#utility.yul\":997:998   */\n  dup3\n    /* \"#utility.yul\":929:995   */\n  0xffffffffffffffffffffffffffffffffffffffffffffffffffffffffffffffff\n    /* \"#utility.yul\":925:999   */\n  sub\n    /* \"#utility.yul\":922:923   */\n  dup3\n    /* \"#utility.yul\":919:1000   */\n  gt\n    /* \"#utility.yul\":916:1023   */\n  iszero\n  tag_26\n  jumpi\n    /* \"#utility.yul\":1003:1021   */\n  tag_27\n  tag_28\n  jump\t// in\ntag_27:\n    /* \"#utility.yul\":916:1023   */\ntag_26:\n    /* \"#utility.yul\":1047:1048   */\n  dup3\n    /* \"#utility.yul\":1044:1045   */\n  dup3\n    /* \"#utility.yul\":1040:1049   */\n  add\n    /* \"#utility.yul\":1033:1049   */\n  swap1\n  pop\n    /* \"#utility.yul\":750:1055   */\n  swap3\n  swap2\n  pop\n  pop\n  jump\t// out\n    /* \"#utility.yul\":1061:1138   */\ntag_24:\n    /* \"#utility.yul\":1098:1105   */\n  0x00\n    /* \"#utility.yul\":1127:1132   */\n  dup2\n    /* \"#utility.yul\":1116:1132   */\n  swap1\n  pop\n    /* \"#utility.yul\":1061:1138   */\n  swap2\n  swap1\n  pop\n  jump\t// out\n    /* \"#utility.yul\":1144:1324   */\ntag_28:\n    /* \"#utility.yul\":1192:1269   */\n  0x4e487b7100000000000000000000000000000000000000000000000000000000\n    /* \"#utility.yul\":1189:1190   */\n  0x00\n    /* \"#utility.yul\":1182:1270   */\n  mstore\n    /* \"#utility.yul\":1289:1293   */\n  0x11\n    /* \"#utility.yul\":1286:1287   */\n  0x04\n    /* \"#utility.yul\":1279:1294   */\n  mstore\n    /* \"#utility.yul\":1313:1317   */\n  0x24\n    /* \"#utility.yul\":1310:1311   */\n  0x00\n    /* \"#utility.yul\":1303:1318   */\n  revert\n    /* \"#utility.yul\":1453:1570   */\ntag_17:\n    /* \"#utility.yul\":1562:1563   */\n  0x00\n    /* \"#utility.yul\":1559:1560   */\n  dup1\n    /* \"#utility.yul\":1552:1564   */\n  revert\n    /* \"#utility.yul\":1576:1698   */\ntag_13:\n    /* \"#utility.yul\":1649:1673   */\n  tag_35\n    /* \"#utility.yul\":1667:1672   */\n  dup2\n    /* \"#utility.yul\":1649:1673   */\n  tag_24\n  jump\t// in\ntag_35:\n    /* \"#utility.yul\":1642:1647   */\n  dup2\n    /* \"#utility.yul\":1639:1674   */\n  eq\n    /* \"#utility.yul\":1629:1692   */\n  tag_36\n  jumpi\n    /* \"#utility.yul\":1688:1689   */\n  0x00\n    /* \"#utility.yul\":1685:1686   */\n  dup1\n    /* \"#utility.yul\":1678:1690   */\n  revert\n    /* \"#utility.yul\":1629:1692   */\ntag_36:\n    /* \"#utility.yul\":1576:1698   */\n  pop\n  jump\t// out\n    /* \"CrowdFunding.sol\":77:1142  contract CrowdFunding {\r... */\ntag_8:\n  dataSize(sub_0)\n  dup1\n  dataOffset(sub_0)\n  0x00\n  codecopy\n  0x00\n  return\nstop\n\nsub_0: assembly {\n        /* \"CrowdFunding.sol\":77:1142  contract CrowdFunding {\r... */\n      mstore(0x40, 0x80)\n      jumpi(tag_1, lt(calldatasize, 0x04))\n      shr(0xe0, calldataload(0x00))\n      dup1\n      0x590e1ae3\n      gt\n      tag_12\n      jumpi\n      dup1\n      0x590e1ae3\n      eq\n      tag_7\n      jumpi\n      dup1\n      0x6f9fb98a\n      eq\n      tag_8\n      jumpi\n      dup1\n      0x937e09b1\n      eq\n      tag_9\n      jumpi\n      dup1\n      0xc59ee1dc\n      eq\n      tag_10\n      jumpi\n      dup1\n      0xd4b83992\n      eq\n      tag_11\n      jumpi\n      jump(tag_1)\n    tag_12:\n      dup1\n      0x06e99fef\n      eq\n      tag_2\n      jumpi\n      dup1\n      0x1f6d4942\n      eq\n      tag_3\n      jumpi\n      dup1\n      0x29dcb0cf\n      eq\n      tag_4\n      jumpi\n      dup1\n      0x481c6a75\n      eq\n      tag_5\n      jumpi\n      dup1\n      0x4e260f6f\n      eq\n      tag_6\n      jumpi\n    tag_1:\n      0x00\n      dup1\n      revert\n        /* \"CrowdFunding.sol\":538:916  function sendEth() public payable{\r... */\n    tag_2:\n      tag_13\n      tag_14\n      jump\t// in\n    tag_13:\n      stop\n        /* \"CrowdFunding.sol\":106:148  mapping(address=>uint) public contributors */\n    tag_3:\n      callvalue\n      dup1\n      iszero\n      tag_15\n      jumpi\n      0x00\n      dup1\n      revert\n    tag_15:\n      pop\n      tag_16\n      0x04\n      dup1\n      calldatasize\n      sub\n      dup2\n      add\n      swap1\n      tag_17\n      swap2\n      swap1\n      tag_18\n      jump\t// in\n    tag_17:\n      tag_19\n      jump\t// in\n    tag_16:\n      mload(0x40)\n      tag_20\n      swap2\n      swap1\n      tag_21\n      jump\t// in\n    tag_20:\n      mload(0x40)\n      dup1\n      swap2\n      sub\n      swap1\n      return\n        /* \"CrowdFunding.sol\":222:242  uint public deadline */\n    tag_4:\n      callvalue\n      dup1\n      iszero\n      tag_22\n      jumpi\n      0x00\n      dup1\n      revert\n    tag_22:\n      pop\n      tag_23\n      tag_24\n      jump\t// in\n    tag_23:\n      mload(0x40)\n      tag_25\n      swap2\n      swap1\n      tag_21\n      jump\t// in\n    tag_25:\n      mload(0x40)\n      dup1\n      swap2\n      sub\n      swap1\n      return\n        /* \"CrowdFunding.sol\":155:177  address public manager */\n    tag_5:\n      callvalue\n      dup1\n      iszero\n      tag_26\n      jumpi\n      0x00\n      dup1\n      revert\n    tag_26:\n      pop\n      tag_27\n      tag_28\n      jump\t// in\n    tag_27:\n      mload(0x40)\n      tag_29\n      swap2\n      swap1\n      tag_30\n      jump\t// in\n    tag_29:\n      mload(0x40)\n      dup1\n      swap2\n      sub\n      swap1\n      return\n        /* \"CrowdFunding.sol\":305:333  uint public noOfContributors */\n    tag_6:\n      callvalue\n      dup1\n      iszero\n      tag_31\n      jumpi\n      0x00\n      dup1\n      revert\n    tag_31:\n      pop\n      tag_32\n      tag_33\n      jump\t// in\n    tag_32:\n      mload(0x40)\n      tag_34\n      swap2\n      swap1\n      tag_21\n      jump\t// in\n    tag_34:\n      mload(0x40)\n      dup1\n      swap2\n      sub\n      swap1\n      return\n        /* \"CrowdFunding.sol\":1035:1139  function refund() public {\r... */\n    tag_7:\n      callvalue\n      dup1\n      iszero\n      tag_35\n      jumpi\n      0x00\n      dup1\n      revert\n    tag_35:\n      pop\n      tag_36\n      tag_37\n      jump\t// in\n    tag_36:\n      stop\n        /* \"CrowdFunding.sol\":924:1027  function getContractBalance() public view returns(uint){\r... */\n    tag_8:\n      callvalue\n      dup1\n      iszero\n      tag_38\n      jumpi\n      0x00\n      dup1\n      revert\n    tag_38:\n      pop\n      tag_39\n      tag_40\n      jump\t// in\n    tag_39:\n      mload(0x40)\n      tag_41\n      swap2\n      swap1\n      tag_21\n      jump\t// in\n    tag_41:\n      mload(0x40)\n      dup1\n      swap2\n      sub\n      swap1\n      return\n        /* \"CrowdFunding.sol\":184:215  uint public minimumContribution */\n    tag_9:\n      callvalue\n      dup1\n      iszero\n      tag_42\n      jumpi\n      0x00\n      dup1\n      revert\n    tag_42:\n      pop\n      tag_43\n      tag_44\n      jump\t// in\n    tag_43:\n      mload(0x40)\n      tag_45\n      swap2\n      swap1\n      tag_21\n      jump\t// in\n    tag_45:\n      mload(0x40)\n      dup1\n      swap2\n      sub\n      swap1\n      return\n        /* \"CrowdFunding.sol\":274:298  uint public raisedAmount */\n    tag_10:\n      callvalue\n      dup1\n      iszero\n      tag_46\n      jumpi\n      0x00\n      dup1\n      revert\n    tag_46:\n      pop\n      tag_47\n      tag_48\n      jump\t// in\n    tag_47:\n      mload(0x40)\n      tag_49\n      swap2\n      swap1\n      tag_21\n      jump\t// in\n    tag_49:\n      mload(0x40)\n      dup1\n      swap2\n      sub\n      swap1\n      return\n        /* \"CrowdFunding.sol\":249:267  uint public target */\n    tag_11:\n      callvalue\n      dup1\n      iszero\n      tag_50\n      jumpi\n      0x00\n      dup1\n      revert\n    tag_50:\n      pop\n      tag_51\n      tag_52\n      jump\t// in\n    tag_51:\n      mload(0x40)\n      tag_53\n      swap2\n      swap1\n      tag_21\n      jump\t// in\n    tag_53:\n      mload(0x40)\n      dup1\n      swap2\n      sub\n      swap1\n      return\n        /* \"CrowdFunding.sol\":538:916  function sendEth() public payable{\r... */\n    tag_14:\n        /* \"CrowdFunding.sol\":608:616  deadline */\n      sload(0x03)\n        /* \"CrowdFunding.sol\":590:605  block.timestamp */\n      timestamp\n        /* \"CrowdFunding.sol\":590:616  block.timestamp < deadline */\n      lt\n        /* \"CrowdFunding.sol\":582:650  require(block.timestamp < deadline, \"Deadline has already reached!\") */\n      tag_55\n      jumpi\n      mload(0x40)\n      0x08c379a000000000000000000000000000000000000000000000000000000000\n      dup2\n      mstore\n      0x04\n      add\n      tag_56\n      swap1\n      tag_57\n      jump\t// in\n    tag_56:\n      mload(0x40)\n      dup1\n      swap2\n      sub\n      swap1\n      revert\n    tag_55:\n        /* \"CrowdFunding.sol\":682:701  minimumContribution */\n      sload(0x02)\n        /* \"CrowdFunding.sol\":669:678  msg.value */\n      callvalue\n        /* \"CrowdFunding.sol\":669:701  msg.value >= minimumContribution */\n      lt\n      iszero\n        /* \"CrowdFunding.sol\":661:738  require(msg.value >= minimumContribution, \"Minimum contribution is not met.\") */\n      tag_58\n      jumpi\n      mload(0x40)\n      0x08c379a000000000000000000000000000000000000000000000000000000000\n      dup2\n      mstore\n      0x04\n      add\n      tag_59\n      swap1\n      tag_60\n      jump\t// in\n    tag_59:\n      mload(0x40)\n      dup1\n      swap2\n      sub\n      swap1\n      revert\n    tag_58:\n        /* \"CrowdFunding.sol\":782:783  0 */\n      0x00\n        /* \"CrowdFunding.sol\":754:766  contributors */\n      dup1\n        /* \"CrowdFunding.sol\":754:778  contributors[msg.sender] */\n      0x00\n        /* \"CrowdFunding.sol\":767:777  msg.sender */\n      caller\n        /* \"CrowdFunding.sol\":754:778  contributors[msg.sender] */\n      0xffffffffffffffffffffffffffffffffffffffff\n      and\n      0xffffffffffffffffffffffffffffffffffffffff\n      and\n      dup2\n      mstore\n      0x20\n      add\n      swap1\n      dup2\n      mstore\n      0x20\n      add\n      0x00\n      keccak256\n      sload\n        /* \"CrowdFunding.sol\":754:783  contributors[msg.sender] == 0 */\n      eq\n        /* \"CrowdFunding.sol\":751:829  if(contributors[msg.sender] == 0){\r... */\n      iszero\n      tag_61\n      jumpi\n        /* \"CrowdFunding.sol\":799:815  noOfContributors */\n      0x06\n      0x00\n        /* \"CrowdFunding.sol\":799:817  noOfContributors++ */\n      dup2\n      sload\n      dup1\n      swap3\n      swap2\n      swap1\n      tag_62\n      swap1\n      tag_63\n      jump\t// in\n    tag_62:\n      swap2\n      swap1\n      pop\n      sstore\n      pop\n        /* \"CrowdFunding.sol\":751:829  if(contributors[msg.sender] == 0){\r... */\n    tag_61:\n        /* \"CrowdFunding.sol\":865:874  msg.value */\n      callvalue\n        /* \"CrowdFunding.sol\":839:851  contributors */\n      0x00\n        /* \"CrowdFunding.sol\":839:863  contributors[msg.sender] */\n      dup1\n        /* \"CrowdFunding.sol\":852:862  msg.sender */\n      caller\n        /* \"CrowdFunding.sol\":839:863  contributors[msg.sender] */\n      0xffffffffffffffffffffffffffffffffffffffff\n      and\n      0xffffffffffffffffffffffffffffffffffffffff\n      and\n      dup2\n      mstore\n      0x20\n      add\n      swap1\n      dup2\n      mstore\n      0x20\n      add\n      0x00\n      keccak256\n      0x00\n        /* \"CrowdFunding.sol\":839:874  contributors[msg.sender]+=msg.value */\n      dup3\n      dup3\n      sload\n      tag_64\n      swap2\n      swap1\n      tag_65\n      jump\t// in\n    tag_64:\n      swap3\n      pop\n      pop\n      dup2\n      swap1\n      sstore\n      pop\n        /* \"CrowdFunding.sol\":899:908  msg.value */\n      callvalue\n        /* \"CrowdFunding.sol\":885:897  raisedAmount */\n      0x05\n      0x00\n        /* \"CrowdFunding.sol\":885:908  raisedAmount+=msg.value */\n      dup3\n      dup3\n      sload\n      tag_66\n      swap2\n      swap1\n      tag_65\n      jump\t// in\n    tag_66:\n      swap3\n      pop\n      pop\n      dup2\n      swap1\n      sstore\n      pop\n        /* \"CrowdFunding.sol\":538:916  function sendEth() public payable{\r... */\n      jump\t// out\n        /* \"CrowdFunding.sol\":106:148  mapping(address=>uint) public contributors */\n    tag_19:\n      mstore(0x20, 0x00)\n      dup1\n      0x00\n      mstore\n      keccak256(0x00, 0x40)\n      0x00\n      swap2\n      pop\n      swap1\n      pop\n      sload\n      dup2\n      jump\t// out\n        /* \"CrowdFunding.sol\":222:242  uint public deadline */\n    tag_24:\n      sload(0x03)\n      dup2\n      jump\t// out\n        /* \"CrowdFunding.sol\":155:177  address public manager */\n    tag_28:\n      0x01\n      0x00\n      swap1\n      sload\n      swap1\n      0x0100\n      exp\n      swap1\n      div\n      0xffffffffffffffffffffffffffffffffffffffff\n      and\n      dup2\n      jump\t// out\n        /* \"CrowdFunding.sol\":305:333  uint public noOfContributors */\n    tag_33:\n      sload(0x06)\n      dup2\n      jump\t// out\n        /* \"CrowdFunding.sol\":1035:1139  function refund() public {\r... */\n    tag_37:\n        /* \"CrowdFunding.sol\":1095:1103  deadline */\n      sload(0x03)\n        /* \"CrowdFunding.sol\":1079:1094  block.timestamp */\n      timestamp\n        /* \"CrowdFunding.sol\":1079:1103  block.timestamp>deadline */\n      gt\n        /* \"CrowdFunding.sol\":1079:1126  block.timestamp>deadline && raisedAmount<target */\n      dup1\n      iszero\n      tag_68\n      jumpi\n      pop\n        /* \"CrowdFunding.sol\":1120:1126  target */\n      sload(0x04)\n        /* \"CrowdFunding.sol\":1107:1119  raisedAmount */\n      sload(0x05)\n        /* \"CrowdFunding.sol\":1107:1126  raisedAmount<target */\n      lt\n        /* \"CrowdFunding.sol\":1079:1126  block.timestamp>deadline && raisedAmount<target */\n    tag_68:\n        /* \"CrowdFunding.sol\":1071:1131  require(block.timestamp>deadline && raisedAmount<target, \"\") */\n      tag_69\n      jumpi\n      mload(0x40)\n      0x08c379a000000000000000000000000000000000000000000000000000000000\n      dup2\n      mstore\n      0x04\n      add\n      tag_70\n      swap1\n      tag_71\n      jump\t// in\n    tag_70:\n      mload(0x40)\n      dup1\n      swap2\n      sub\n      swap1\n      revert\n    tag_69:\n        /* \"CrowdFunding.sol\":1035:1139  function refund() public {\r... */\n      jump\t// out\n        /* \"CrowdFunding.sol\":924:1027  function getContractBalance() public view returns(uint){\r... */\n    tag_40:\n        /* \"CrowdFunding.sol\":974:978  uint */\n      0x00\n        /* \"CrowdFunding.sol\":997:1018  address(this).balance */\n      selfbalance\n        /* \"CrowdFunding.sol\":990:1018  return address(this).balance */\n      swap1\n      pop\n        /* \"CrowdFunding.sol\":924:1027  function getContractBalance() public view returns(uint){\r... */\n      swap1\n      jump\t// out\n        /* \"CrowdFunding.sol\":184:215  uint public minimumContribution */\n    tag_44:\n      sload(0x02)\n      dup2\n      jump\t// out\n        /* \"CrowdFunding.sol\":274:298  uint public raisedAmount */\n    tag_48:\n      sload(0x05)\n      dup2\n      jump\t// out\n        /* \"CrowdFunding.sol\":249:267  uint public target */\n    tag_52:\n      sload(0x04)\n      dup2\n      jump\t// out\n        /* \"#utility.yul\":7:146   */\n    tag_74:\n        /* \"#utility.yul\":53:58   */\n      0x00\n        /* \"#utility.yul\":91:97   */\n      dup2\n        /* \"#utility.yul\":78:98   */\n      calldataload\n        /* \"#utility.yul\":69:98   */\n      swap1\n      pop\n        /* \"#utility.yul\":107:140   */\n      tag_76\n        /* \"#utility.yul\":134:139   */\n      dup2\n        /* \"#utility.yul\":107:140   */\n      tag_77\n      jump\t// in\n    tag_76:\n        /* \"#utility.yul\":7:146   */\n      swap3\n      swap2\n      pop\n      pop\n      jump\t// out\n        /* \"#utility.yul\":152:481   */\n    tag_18:\n        /* \"#utility.yul\":211:217   */\n      0x00\n        /* \"#utility.yul\":260:262   */\n      0x20\n        /* \"#utility.yul\":248:257   */\n      dup3\n        /* \"#utility.yul\":239:246   */\n      dup5\n        /* \"#utility.yul\":235:258   */\n      sub\n        /* \"#utility.yul\":231:263   */\n      slt\n        /* \"#utility.yul\":228:347   */\n      iszero\n      tag_79\n      jumpi\n        /* \"#utility.yul\":266:345   */\n      tag_80\n      tag_81\n      jump\t// in\n    tag_80:\n        /* \"#utility.yul\":228:347   */\n    tag_79:\n        /* \"#utility.yul\":386:387   */\n      0x00\n        /* \"#utility.yul\":411:464   */\n      tag_82\n        /* \"#utility.yul\":456:463   */\n      dup5\n        /* \"#utility.yul\":447:453   */\n      dup3\n        /* \"#utility.yul\":436:445   */\n      dup6\n        /* \"#utility.yul\":432:454   */\n      add\n        /* \"#utility.yul\":411:464   */\n      tag_74\n      jump\t// in\n    tag_82:\n        /* \"#utility.yul\":401:464   */\n      swap2\n      pop\n        /* \"#utility.yul\":357:474   */\n      pop\n        /* \"#utility.yul\":152:481   */\n      swap3\n      swap2\n      pop\n      pop\n      jump\t// out\n        /* \"#utility.yul\":487:605   */\n    tag_83:\n        /* \"#utility.yul\":574:598   */\n      tag_85\n        /* \"#utility.yul\":592:597   */\n      dup2\n        /* \"#utility.yul\":574:598   */\n      tag_86\n      jump\t// in\n    tag_85:\n        /* \"#utility.yul\":569:572   */\n      dup3\n        /* \"#utility.yul\":562:599   */\n      mstore\n        /* \"#utility.yul\":487:605   */\n      pop\n      pop\n      jump\t// out\n        /* \"#utility.yul\":611:977   */\n    tag_87:\n        /* \"#utility.yul\":753:756   */\n      0x00\n        /* \"#utility.yul\":774:841   */\n      tag_89\n        /* \"#utility.yul\":838:840   */\n      0x20\n        /* \"#utility.yul\":833:836   */\n      dup4\n        /* \"#utility.yul\":774:841   */\n      tag_90\n      jump\t// in\n    tag_89:\n        /* \"#utility.yul\":767:841   */\n      swap2\n      pop\n        /* \"#utility.yul\":850:943   */\n      tag_91\n        /* \"#utility.yul\":939:942   */\n      dup3\n        /* \"#utility.yul\":850:943   */\n      tag_92\n      jump\t// in\n    tag_91:\n        /* \"#utility.yul\":968:970   */\n      0x20\n        /* \"#utility.yul\":963:966   */\n      dup3\n        /* \"#utility.yul\":959:971   */\n      add\n        /* \"#utility.yul\":952:971   */\n      swap1\n      pop\n        /* \"#utility.yul\":611:977   */\n      swap2\n      swap1\n      pop\n      jump\t// out\n        /* \"#utility.yul\":983:1347   */\n    tag_93:\n        /* \"#utility.yul\":1125:1128   */\n      0x00\n        /* \"#utility.yul\":1146:1212   */\n      tag_95\n        /* \"#utility.yul\":1210:1211   */\n      0x00\n        /* \"#utility.yul\":1205:1208   */\n      dup4\n        /* \"#utility.yul\":1146:1212   */\n      tag_90\n      jump\t// in\n    tag_95:\n        /* \"#utility.yul\":1139:1212   */\n      swap2\n      pop\n        /* \"#utility.yul\":1221:1314   */\n      tag_96\n        /* \"#utility.yul\":1310:1313   */\n      dup3\n        /* \"#utility.yul\":1221:1314   */\n      tag_97\n      jump\t// in\n    tag_96:\n        /* \"#utility.yul\":1339:1340   */\n      0x00\n        /* \"#utility.yul\":1334:1337   */\n      dup3\n        /* \"#utility.yul\":1330:1341   */\n      add\n        /* \"#utility.yul\":1323:1341   */\n      swap1\n      pop\n        /* \"#utility.yul\":983:1347   */\n      swap2\n      swap1\n      pop\n      jump\t// out\n        /* \"#utility.yul\":1353:1719   */\n    tag_98:\n        /* \"#utility.yul\":1495:1498   */\n      0x00\n        /* \"#utility.yul\":1516:1583   */\n      tag_100\n        /* \"#utility.yul\":1580:1582   */\n      0x1d\n        /* \"#utility.yul\":1575:1578   */\n      dup4\n        /* \"#utility.yul\":1516:1583   */\n      tag_90\n      jump\t// in\n    tag_100:\n        /* \"#utility.yul\":1509:1583   */\n      swap2\n      pop\n        /* \"#utility.yul\":1592:1685   */\n      tag_101\n        /* \"#utility.yul\":1681:1684   */\n      dup3\n        /* \"#utility.yul\":1592:1685   */\n      tag_102\n      jump\t// in\n    tag_101:\n        /* \"#utility.yul\":1710:1712   */\n      0x20\n        /* \"#utility.yul\":1705:1708   */\n      dup3\n        /* \"#utility.yul\":1701:1713   */\n      add\n        /* \"#utility.yul\":1694:1713   */\n      swap1\n      pop\n        /* \"#utility.yul\":1353:1719   */\n      swap2\n      swap1\n      pop\n      jump\t// out\n        /* \"#utility.yul\":1725:1843   */\n    tag_103:\n        /* \"#utility.yul\":1812:1836   */\n      tag_105\n        /* \"#utility.yul\":1830:1835   */\n      dup2\n        /* \"#utility.yul\":1812:1836   */\n      tag_106\n      jump\t// in\n    tag_105:\n        /* \"#utility.yul\":1807:1810   */\n      dup3\n        /* \"#utility.yul\":1800:1837   */\n      mstore\n        /* \"#utility.yul\":1725:1843   */\n      pop\n      pop\n      jump\t// out\n        /* \"#utility.yul\":1849:2071   */\n    tag_30:\n        /* \"#utility.yul\":1942:1946   */\n      0x00\n        /* \"#utility.yul\":1980:1982   */\n      0x20\n        /* \"#utility.yul\":1969:1978   */\n      dup3\n        /* \"#utility.yul\":1965:1983   */\n      add\n        /* \"#utility.yul\":1957:1983   */\n      swap1\n      pop\n        /* \"#utility.yul\":1993:2064   */\n      tag_108\n        /* \"#utility.yul\":2061:2062   */\n      0x00\n        /* \"#utility.yul\":2050:2059   */\n      dup4\n        /* \"#utility.yul\":2046:2063   */\n      add\n        /* \"#utility.yul\":2037:2043   */\n      dup5\n        /* \"#utility.yul\":1993:2064   */\n      tag_83\n      jump\t// in\n    tag_108:\n        /* \"#utility.yul\":1849:2071   */\n      swap3\n      swap2\n      pop\n      pop\n      jump\t// out\n        /* \"#utility.yul\":2077:2496   */\n    tag_60:\n        /* \"#utility.yul\":2243:2247   */\n      0x00\n        /* \"#utility.yul\":2281:2283   */\n      0x20\n        /* \"#utility.yul\":2270:2279   */\n      dup3\n        /* \"#utility.yul\":2266:2284   */\n      add\n        /* \"#utility.yul\":2258:2284   */\n      swap1\n      pop\n        /* \"#utility.yul\":2330:2339   */\n      dup2\n        /* \"#utility.yul\":2324:2328   */\n      dup2\n        /* \"#utility.yul\":2320:2340   */\n      sub\n        /* \"#utility.yul\":2316:2317   */\n      0x00\n        /* \"#utility.yul\":2305:2314   */\n      dup4\n        /* \"#utility.yul\":2301:2318   */\n      add\n        /* \"#utility.yul\":2294:2341   */\n      mstore\n        /* \"#utility.yul\":2358:2489   */\n      tag_110\n        /* \"#utility.yul\":2484:2488   */\n      dup2\n        /* \"#utility.yul\":2358:2489   */\n      tag_87\n      jump\t// in\n    tag_110:\n        /* \"#utility.yul\":2350:2489   */\n      swap1\n      pop\n        /* \"#utility.yul\":2077:2496   */\n      swap2\n      swap1\n      pop\n      jump\t// out\n        /* \"#utility.yul\":2502:2921   */\n    tag_71:\n        /* \"#utility.yul\":2668:2672   */\n      0x00\n        /* \"#utility.yul\":2706:2708   */\n      0x20\n        /* \"#utility.yul\":2695:2704   */\n      dup3\n        /* \"#utility.yul\":2691:2709   */\n      add\n        /* \"#utility.yul\":2683:2709   */\n      swap1\n      pop\n        /* \"#utility.yul\":2755:2764   */\n      dup2\n        /* \"#utility.yul\":2749:2753   */\n      dup2\n        /* \"#utility.yul\":2745:2765   */\n      sub\n        /* \"#utility.yul\":2741:2742   */\n      0x00\n        /* \"#utility.yul\":2730:2739   */\n      dup4\n        /* \"#utility.yul\":2726:2743   */\n      add\n        /* \"#utility.yul\":2719:2766   */\n      mstore\n        /* \"#utility.yul\":2783:2914   */\n      tag_112\n        /* \"#utility.yul\":2909:2913   */\n      dup2\n        /* \"#utility.yul\":2783:2914   */\n      tag_93\n      jump\t// in\n    tag_112:\n        /* \"#utility.yul\":2775:2914   */\n      swap1\n      pop\n        /* \"#utility.yul\":2502:2921   */\n      swap2\n      swap1\n      pop\n      jump\t// out\n        /* \"#utility.yul\":2927:3346   */\n    tag_57:\n        /* \"#utility.yul\":3093:3097   */\n      0x00\n        /* \"#utility.yul\":3131:3133   */\n      0x20\n        /* \"#utility.yul\":3120:3129   */\n      dup3\n        /* \"#utility.yul\":3116:3134   */\n      add\n        /* \"#utility.yul\":3108:3134   */\n      swap1\n      pop\n        /* \"#utility.yul\":3180:3189   */\n      dup2\n        /* \"#utility.yul\":3174:3178   */\n      dup2\n        /* \"#utility.yul\":3170:3190   */\n      sub\n        /* \"#utility.yul\":3166:3167   */\n      0x00\n        /* \"#utility.yul\":3155:3164   */\n      dup4\n        /* \"#utility.yul\":3151:3168   */\n      add\n        /* \"#utility.yul\":3144:3191   */\n      mstore\n        /* \"#utility.yul\":3208:3339   */\n      tag_114\n        /* \"#utility.yul\":3334:3338   */\n      dup2\n        /* \"#utility.yul\":3208:3339   */\n      tag_98\n      jump\t// in\n    tag_114:\n        /* \"#utility.yul\":3200:3339   */\n      swap1\n      pop\n        /* \"#utility.yul\":2927:3346   */\n      swap2\n      swap1\n      pop\n      jump\t// out\n        /* \"#utility.yul\":3352:3574   */\n    tag_21:\n        /* \"#utility.yul\":3445:3449   */\n      0x00\n        /* \"#utility.yul\":3483:3485   */\n      0x20\n        /* \"#utility.yul\":3472:3481   */\n      dup3\n        /* \"#utility.yul\":3468:3486   */\n      add\n        /* \"#utility.yul\":3460:3486   */\n      swap1\n      pop\n        /* \"#utility.yul\":3496:3567   */\n      tag_116\n        /* \"#utility.yul\":3564:3565   */\n      0x00\n        /* \"#utility.yul\":3553:3562   */\n      dup4\n        /* \"#utility.yul\":3549:3566   */\n      add\n        /* \"#utility.yul\":3540:3546   */\n      dup5\n        /* \"#utility.yul\":3496:3567   */\n      tag_103\n      jump\t// in\n    tag_116:\n        /* \"#utility.yul\":3352:3574   */\n      swap3\n      swap2\n      pop\n      pop\n      jump\t// out\n        /* \"#utility.yul\":3661:3830   */\n    tag_90:\n        /* \"#utility.yul\":3745:3756   */\n      0x00\n        /* \"#utility.yul\":3779:3785   */\n      dup3\n        /* \"#utility.yul\":3774:3777   */\n      dup3\n        /* \"#utility.yul\":3767:3786   */\n      mstore\n        /* \"#utility.yul\":3819:3823   */\n      0x20\n        /* \"#utility.yul\":3814:3817   */\n      dup3\n        /* \"#utility.yul\":3810:3824   */\n      add\n        /* \"#utility.yul\":3795:3824   */\n      swap1\n      pop\n        /* \"#utility.yul\":3661:3830   */\n      swap3\n      swap2\n      pop\n      pop\n      jump\t// out\n        /* \"#utility.yul\":3836:4141   */\n    tag_65:\n        /* \"#utility.yul\":3876:3879   */\n      0x00\n        /* \"#utility.yul\":3895:3915   */\n      tag_121\n        /* \"#utility.yul\":3913:3914   */\n      dup3\n        /* \"#utility.yul\":3895:3915   */\n      tag_106\n      jump\t// in\n    tag_121:\n        /* \"#utility.yul\":3890:3915   */\n      swap2\n      pop\n        /* \"#utility.yul\":3929:3949   */\n      tag_122\n        /* \"#utility.yul\":3947:3948   */\n      dup4\n        /* \"#utility.yul\":3929:3949   */\n      tag_106\n      jump\t// in\n    tag_122:\n        /* \"#utility.yul\":3924:3949   */\n      swap3\n      pop\n        /* \"#utility.yul\":4083:4084   */\n      dup3\n        /* \"#utility.yul\":4015:4081   */\n      0xffffffffffffffffffffffffffffffffffffffffffffffffffffffffffffffff\n        /* \"#utility.yul\":4011:4085   */\n      sub\n        /* \"#utility.yul\":4008:4009   */\n      dup3\n        /* \"#utility.yul\":4005:4086   */\n      gt\n        /* \"#utility.yul\":4002:4109   */\n      iszero\n      tag_123\n      jumpi\n        /* \"#utility.yul\":4089:4107   */\n      tag_124\n      tag_125\n      jump\t// in\n    tag_124:\n        /* \"#utility.yul\":4002:4109   */\n    tag_123:\n        /* \"#utility.yul\":4133:4134   */\n      dup3\n        /* \"#utility.yul\":4130:4131   */\n      dup3\n        /* \"#utility.yul\":4126:4135   */\n      add\n        /* \"#utility.yul\":4119:4135   */\n      swap1\n      pop\n        /* \"#utility.yul\":3836:4141   */\n      swap3\n      swap2\n      pop\n      pop\n      jump\t// out\n        /* \"#utility.yul\":4147:4243   */\n    tag_86:\n        /* \"#utility.yul\":4184:4191   */\n      0x00\n        /* \"#utility.yul\":4213:4237   */\n      tag_127\n        /* \"#utility.yul\":4231:4236   */\n      dup3\n        /* \"#utility.yul\":4213:4237   */\n      tag_128\n      jump\t// in\n    tag_127:\n        /* \"#utility.yul\":4202:4237   */\n      swap1\n      pop\n        /* \"#utility.yul\":4147:4243   */\n      swap2\n      swap1\n      pop\n      jump\t// out\n        /* \"#utility.yul\":4249:4375   */\n    tag_128:\n        /* \"#utility.yul\":4286:4293   */\n      0x00\n        /* \"#utility.yul\":4326:4368   */\n      0xffffffffffffffffffffffffffffffffffffffff\n        /* \"#utility.yul\":4319:4324   */\n      dup3\n        /* \"#utility.yul\":4315:4369   */\n      and\n        /* \"#utility.yul\":4304:4369   */\n      swap1\n      pop\n        /* \"#utility.yul\":4249:4375   */\n      swap2\n      swap1\n      pop\n      jump\t// out\n        /* \"#utility.yul\":4381:4458   */\n    tag_106:\n        /* \"#utility.yul\":4418:4425   */\n      0x00\n        /* \"#utility.yul\":4447:4452   */\n      dup2\n        /* \"#utility.yul\":4436:4452   */\n      swap1\n      pop\n        /* \"#utility.yul\":4381:4458   */\n      swap2\n      swap1\n      pop\n      jump\t// out\n        /* \"#utility.yul\":4464:4697   */\n    tag_63:\n        /* \"#utility.yul\":4503:4506   */\n      0x00\n        /* \"#utility.yul\":4526:4550   */\n      tag_132\n        /* \"#utility.yul\":4544:4549   */\n      dup3\n        /* \"#utility.yul\":4526:4550   */\n      tag_106\n      jump\t// in\n    tag_132:\n        /* \"#utility.yul\":4517:4550   */\n      swap2\n      pop\n        /* \"#utility.yul\":4572:4638   */\n      0xffffffffffffffffffffffffffffffffffffffffffffffffffffffffffffffff\n        /* \"#utility.yul\":4565:4570   */\n      dup3\n        /* \"#utility.yul\":4562:4639   */\n      eq\n        /* \"#utility.yul\":4559:4662   */\n      iszero\n      tag_133\n      jumpi\n        /* \"#utility.yul\":4642:4660   */\n      tag_134\n      tag_125\n      jump\t// in\n    tag_134:\n        /* \"#utility.yul\":4559:4662   */\n    tag_133:\n        /* \"#utility.yul\":4689:4690   */\n      0x01\n        /* \"#utility.yul\":4682:4687   */\n      dup3\n        /* \"#utility.yul\":4678:4691   */\n      add\n        /* \"#utility.yul\":4671:4691   */\n      swap1\n      pop\n        /* \"#utility.yul\":4464:4697   */\n      swap2\n      swap1\n      pop\n      jump\t// out\n        /* \"#utility.yul\":4703:4883   */\n    tag_125:\n        /* \"#utility.yul\":4751:4828   */\n      0x4e487b7100000000000000000000000000000000000000000000000000000000\n        /* \"#utility.yul\":4748:4749   */\n      0x00\n        /* \"#utility.yul\":4741:4829   */\n      mstore\n        /* \"#utility.yul\":4848:4852   */\n      0x11\n        /* \"#utility.yul\":4845:4846   */\n      0x04\n        /* \"#utility.yul\":4838:4853   */\n      mstore\n        /* \"#utility.yul\":4872:4876   */\n      0x24\n        /* \"#utility.yul\":4869:4870   */\n      0x00\n        /* \"#utility.yul\":4862:4877   */\n      revert\n        /* \"#utility.yul\":5012:5129   */\n    tag_81:\n        /* \"#utility.yul\":5121:5122   */\n      0x00\n        /* \"#utility.yul\":5118:5119   */\n      dup1\n        /* \"#utility.yul\":5111:5123   */\n      revert\n        /* \"#utility.yul\":5135:5317   */\n    tag_92:\n        /* \"#utility.yul\":5275:5309   */\n      0x4d696e696d756d20636f6e747269627574696f6e206973206e6f74206d65742e\n        /* \"#utility.yul\":5271:5272   */\n      0x00\n        /* \"#utility.yul\":5263:5269   */\n      dup3\n        /* \"#utility.yul\":5259:5273   */\n      add\n        /* \"#utility.yul\":5252:5310   */\n      mstore\n        /* \"#utility.yul\":5135:5317   */\n      pop\n      jump\t// out\n        /* \"#utility.yul\":5323:5437   */\n    tag_97:\n      pop\n      jump\t// out\n        /* \"#utility.yul\":5443:5622   */\n    tag_102:\n        /* \"#utility.yul\":5583:5614   */\n      0x446561646c696e652068617320616c7265616479207265616368656421000000\n        /* \"#utility.yul\":5579:5580   */\n      0x00\n        /* \"#utility.yul\":5571:5577   */\n      dup3\n        /* \"#utility.yul\":5567:5581   */\n      add\n        /* \"#utility.yul\":5560:5615   */\n      mstore\n        /* \"#utility.yul\":5443:5622   */\n      pop\n      jump\t// out\n        /* \"#utility.yul\":5628:5750   */\n    tag_77:\n        /* \"#utility.yul\":5701:5725   */\n      tag_143\n        /* \"#utility.yul\":5719:5724   */\n      dup2\n        /* \"#utility.yul\":5701:5725   */\n      tag_86\n      jump\t// in\n    tag_143:\n        /* \"#utility.yul\":5694:5699   */\n      dup2\n        /* \"#utility.yul\":5691:5726   */\n      eq\n        /* \"#utility.yul\":5681:5744   */\n      tag_144\n      jumpi\n        /* \"#utility.yul\":5740:5741   */\n      0x00\n        /* \"#utility.yul\":5737:5738   */\n      dup1\n        /* \"#utility.yul\":5730:5742   */\n      revert\n        /* \"#utility.yul\":5681:5744   */\n    tag_144:\n        /* \"#utility.yul\":5628:5750   */\n      pop\n      jump\t// out\n\n    auxdata: 0xa264697066735822122006f79abe000b6d9cd91d495e2cf33ef36e1b4b051058bd63e2ddafe71caec11a64736f6c63430008070033\n}\n",
				"bytecode": {
					"linkReferences": {},
					"object": "608060405234801561001057600080fd5b506040516108fe3803806108fe833981810160405281019061003291906100b0565b81600481905550804261004591906100f0565b600381905550606460028190555033600160006101000a81548173ffffffffffffffffffffffffffffffffffffffff021916908373ffffffffffffffffffffffffffffffffffffffff160217905550505061019b565b6000815190506100aa81610184565b92915050565b600080604083850312156100c7576100c661017f565b5b60006100d58582860161009b565b92505060206100e68582860161009b565b9150509250929050565b60006100fb82610146565b915061010683610146565b9250827fffffffffffffffffffffffffffffffffffffffffffffffffffffffffffffffff0382111561013b5761013a610150565b5b828201905092915050565b6000819050919050565b7f4e487b7100000000000000000000000000000000000000000000000000000000600052601160045260246000fd5b600080fd5b61018d81610146565b811461019857600080fd5b50565b610754806101aa6000396000f3fe6080604052600436106100915760003560e01c8063590e1ae311610059578063590e1ae31461015e5780636f9fb98a14610175578063937e09b1146101a0578063c59ee1dc146101cb578063d4b83992146101f657610091565b806306e99fef146100965780631f6d4942146100a057806329dcb0cf146100dd578063481c6a75146101085780634e260f6f14610133575b600080fd5b61009e610221565b005b3480156100ac57600080fd5b506100c760048036038101906100c29190610448565b61037a565b6040516100d49190610577565b60405180910390f35b3480156100e957600080fd5b506100f2610392565b6040516100ff9190610577565b60405180910390f35b34801561011457600080fd5b5061011d610398565b60405161012a91906104fc565b60405180910390f35b34801561013f57600080fd5b506101486103be565b6040516101559190610577565b60405180910390f35b34801561016a57600080fd5b506101736103c4565b005b34801561018157600080fd5b5061018a610419565b6040516101979190610577565b60405180910390f35b3480156101ac57600080fd5b506101b5610421565b6040516101c29190610577565b60405180910390f35b3480156101d757600080fd5b506101e0610427565b6040516101ed9190610577565b60405180910390f35b34801561020257600080fd5b5061020b61042d565b6040516102189190610577565b60405180910390f35b6003544210610265576040517f08c379a000000000000000000000000000000000000000000000000000000000815260040161025c90610557565b60405180910390fd5b6002543410156102aa576040517f08c379a00000000000000000000000000000000000000000000000000000000081526004016102a190610517565b60405180910390fd5b60008060003373ffffffffffffffffffffffffffffffffffffffff1673ffffffffffffffffffffffffffffffffffffffff16815260200190815260200160002054141561030a576006600081548092919061030490610635565b91905055505b346000803373ffffffffffffffffffffffffffffffffffffffff1673ffffffffffffffffffffffffffffffffffffffff168152602001908152602001600020600082825461035891906105a3565b92505081905550346005600082825461037191906105a3565b92505081905550565b60006020528060005260406000206000915090505481565b60035481565b600160009054906101000a900473ffffffffffffffffffffffffffffffffffffffff1681565b60065481565b600354421180156103d85750600454600554105b610417576040517f08c379a000000000000000000000000000000000000000000000000000000000815260040161040e90610537565b60405180910390fd5b565b600047905090565b60025481565b60055481565b60045481565b60008135905061044281610707565b92915050565b60006020828403121561045e5761045d6106ad565b5b600061046c84828501610433565b91505092915050565b61047e816105f9565b82525050565b6000610491602083610592565b915061049c826106b2565b602082019050919050565b60006104b4600083610592565b91506104bf826106db565b600082019050919050565b60006104d7601d83610592565b91506104e2826106de565b602082019050919050565b6104f68161062b565b82525050565b60006020820190506105116000830184610475565b92915050565b6000602082019050818103600083015261053081610484565b9050919050565b60006020820190508181036000830152610550816104a7565b9050919050565b60006020820190508181036000830152610570816104ca565b9050919050565b600060208201905061058c60008301846104ed565b92915050565b600082825260208201905092915050565b60006105ae8261062b565b91506105b98361062b565b9250827fffffffffffffffffffffffffffffffffffffffffffffffffffffffffffffffff038211156105ee576105ed61067e565b5b828201905092915050565b60006106048261060b565b9050919050565b600073ffffffffffffffffffffffffffffffffffffffff82169050919050565b6000819050919050565b60006106408261062b565b91507fffffffffffffffffffffffffffffffffffffffffffffffffffffffffffffffff8214156106735761067261067e565b5b600182019050919050565b7f4e487b7100000000000000000000000000000000000000000000000000000000600052601160045260246000fd5b600080fd5b7f4d696e696d756d20636f6e747269627574696f6e206973206e6f74206d65742e600082015250565b50565b7f446561646c696e652068617320616c7265616479207265616368656421000000600082015250565b610710816105f9565b811461071b57600080fd5b5056fea264697066735822122006f79abe000b6d9cd91d495e2cf33ef36e1b4b051058bd63e2ddafe71caec11a64736f6c63430008070033",
					"opcodes": "PUSH1 0x80 PUSH1 0x40 MSTORE CALLVALUE DUP1 ISZERO PUSH2 0x10 JUMPI PUSH1 0x0 DUP1 REVERT JUMPDEST POP PUSH1 0x40 MLOAD PUSH2 0x8FE CODESIZE SUB DUP1 PUSH2 0x8FE DUP4 CODECOPY DUP2 DUP2 ADD PUSH1 0x40 MSTORE DUP2 ADD SWAP1 PUSH2 0x32 SWAP2 SWAP1 PUSH2 0xB0 JUMP JUMPDEST DUP2 PUSH1 0x4 DUP2 SWAP1 SSTORE POP DUP1 TIMESTAMP PUSH2 0x45 SWAP2 SWAP1 PUSH2 0xF0 JUMP JUMPDEST PUSH1 0x3 DUP2 SWAP1 SSTORE POP PUSH1 0x64 PUSH1 0x2 DUP2 SWAP1 SSTORE POP CALLER PUSH1 0x1 PUSH1 0x0 PUSH2 0x100 EXP DUP2 SLOAD DUP2 PUSH20 0xFFFFFFFFFFFFFFFFFFFFFFFFFFFFFFFFFFFFFFFF MUL NOT AND SWAP1 DUP4 PUSH20 0xFFFFFFFFFFFFFFFFFFFFFFFFFFFFFFFFFFFFFFFF AND MUL OR SWAP1 SSTORE POP POP POP PUSH2 0x19B JUMP JUMPDEST PUSH1 0x0 DUP2 MLOAD SWAP1 POP PUSH2 0xAA DUP2 PUSH2 0x184 JUMP JUMPDEST SWAP3 SWAP2 POP POP JUMP JUMPDEST PUSH1 0x0 DUP1 PUSH1 0x40 DUP4 DUP6 SUB SLT ISZERO PUSH2 0xC7 JUMPI PUSH2 0xC6 PUSH2 0x17F JUMP JUMPDEST JUMPDEST PUSH1 0x0 PUSH2 0xD5 DUP6 DUP3 DUP7 ADD PUSH2 0x9B JUMP JUMPDEST SWAP3 POP POP PUSH1 0x20 PUSH2 0xE6 DUP6 DUP3 DUP7 ADD PUSH2 0x9B JUMP JUMPDEST SWAP2 POP POP SWAP3 POP SWAP3 SWAP1 POP JUMP JUMPDEST PUSH1 0x0 PUSH2 0xFB DUP3 PUSH2 0x146 JUMP JUMPDEST SWAP2 POP PUSH2 0x106 DUP4 PUSH2 0x146 JUMP JUMPDEST SWAP3 POP DUP3 PUSH32 0xFFFFFFFFFFFFFFFFFFFFFFFFFFFFFFFFFFFFFFFFFFFFFFFFFFFFFFFFFFFFFFFF SUB DUP3 GT ISZERO PUSH2 0x13B JUMPI PUSH2 0x13A PUSH2 0x150 JUMP JUMPDEST JUMPDEST DUP3 DUP3 ADD SWAP1 POP SWAP3 SWAP2 POP POP JUMP JUMPDEST PUSH1 0x0 DUP2 SWAP1 POP SWAP2 SWAP1 POP JUMP JUMPDEST PUSH32 0x4E487B7100000000000000000000000000000000000000000000000000000000 PUSH1 0x0 MSTORE PUSH1 0x11 PUSH1 0x4 MSTORE PUSH1 0x24 PUSH1 0x0 REVERT JUMPDEST PUSH1 0x0 DUP1 REVERT JUMPDEST PUSH2 0x18D DUP2 PUSH2 0x146 JUMP JUMPDEST DUP2 EQ PUSH2 0x198 JUMPI PUSH1 0x0 DUP1 REVERT JUMPDEST POP JUMP JUMPDEST PUSH2 0x754 DUP1 PUSH2 0x1AA PUSH1 0x0 CODECOPY PUSH1 0x0 RETURN INVALID PUSH1 0x80 PUSH1 0x40 MSTORE PUSH1 0x4 CALLDATASIZE LT PUSH2 0x91 JUMPI PUSH1 0x0 CALLDATALOAD PUSH1 0xE0 SHR DUP1 PUSH4 0x590E1AE3 GT PUSH2 0x59 JUMPI DUP1 PUSH4 0x590E1AE3 EQ PUSH2 0x15E JUMPI DUP1 PUSH4 0x6F9FB98A EQ PUSH2 0x175 JUMPI DUP1 PUSH4 0x937E09B1 EQ PUSH2 0x1A0 JUMPI DUP1 PUSH4 0xC59EE1DC EQ PUSH2 0x1CB JUMPI DUP1 PUSH4 0xD4B83992 EQ PUSH2 0x1F6 JUMPI PUSH2 0x91 JUMP JUMPDEST DUP1 PUSH4 0x6E99FEF EQ PUSH2 0x96 JUMPI DUP1 PUSH4 0x1F6D4942 EQ PUSH2 0xA0 JUMPI DUP1 PUSH4 0x29DCB0CF EQ PUSH2 0xDD JUMPI DUP1 PUSH4 0x481C6A75 EQ PUSH2 0x108 JUMPI DUP1 PUSH4 0x4E260F6F EQ PUSH2 0x133 JUMPI JUMPDEST PUSH1 0x0 DUP1 REVERT JUMPDEST PUSH2 0x9E PUSH2 0x221 JUMP JUMPDEST STOP JUMPDEST CALLVALUE DUP1 ISZERO PUSH2 0xAC JUMPI PUSH1 0x0 DUP1 REVERT JUMPDEST POP PUSH2 0xC7 PUSH1 0x4 DUP1 CALLDATASIZE SUB DUP2 ADD SWAP1 PUSH2 0xC2 SWAP2 SWAP1 PUSH2 0x448 JUMP JUMPDEST PUSH2 0x37A JUMP JUMPDEST PUSH1 0x40 MLOAD PUSH2 0xD4 SWAP2 SWAP1 PUSH2 0x577 JUMP JUMPDEST PUSH1 0x40 MLOAD DUP1 SWAP2 SUB SWAP1 RETURN JUMPDEST CALLVALUE DUP1 ISZERO PUSH2 0xE9 JUMPI PUSH1 0x0 DUP1 REVERT JUMPDEST POP PUSH2 0xF2 PUSH2 0x392 JUMP JUMPDEST PUSH1 0x40 MLOAD PUSH2 0xFF SWAP2 SWAP1 PUSH2 0x577 JUMP JUMPDEST PUSH1 0x40 MLOAD DUP1 SWAP2 SUB SWAP1 RETURN JUMPDEST CALLVALUE DUP1 ISZERO PUSH2 0x114 JUMPI PUSH1 0x0 DUP1 REVERT JUMPDEST POP PUSH2 0x11D PUSH2 0x398 JUMP JUMPDEST PUSH1 0x40 MLOAD PUSH2 0x12A SWAP2 SWAP1 PUSH2 0x4FC JUMP JUMPDEST PUSH1 0x40 MLOAD DUP1 SWAP2 SUB SWAP1 RETURN JUMPDEST CALLVALUE DUP1 ISZERO PUSH2 0x13F JUMPI PUSH1 0x0 DUP1 REVERT JUMPDEST POP PUSH2 0x148 PUSH2 0x3BE JUMP JUMPDEST PUSH1 0x40 MLOAD PUSH2 0x155 SWAP2 SWAP1 PUSH2 0x577 JUMP JUMPDEST PUSH1 0x40 MLOAD DUP1 SWAP2 SUB SWAP1 RETURN JUMPDEST CALLVALUE DUP1 ISZERO PUSH2 0x16A JUMPI PUSH1 0x0 DUP1 REVERT JUMPDEST POP PUSH2 0x173 PUSH2 0x3C4 JUMP JUMPDEST STOP JUMPDEST CALLVALUE DUP1 ISZERO PUSH2 0x181 JUMPI PUSH1 0x0 DUP1 REVERT JUMPDEST POP PUSH2 0x18A PUSH2 0x419 JUMP JUMPDEST PUSH1 0x40 MLOAD PUSH2 0x197 SWAP2 SWAP1 PUSH2 0x577 JUMP JUMPDEST PUSH1 0x40 MLOAD DUP1 SWAP2 SUB SWAP1 RETURN JUMPDEST CALLVALUE DUP1 ISZERO PUSH2 0x1AC JUMPI PUSH1 0x0 DUP1 REVERT JUMPDEST POP PUSH2 0x1B5 PUSH2 0x421 JUMP JUMPDEST PUSH1 0x40 MLOAD PUSH2 0x1C2 SWAP2 SWAP1 PUSH2 0x577 JUMP JUMPDEST PUSH1 0x40 MLOAD DUP1 SWAP2 SUB SWAP1 RETURN JUMPDEST CALLVALUE DUP1 ISZERO PUSH2 0x1D7 JUMPI PUSH1 0x0 DUP1 REVERT JUMPDEST POP PUSH2 0x1E0 PUSH2 0x427 JUMP JUMPDEST PUSH1 0x40 MLOAD PUSH2 0x1ED SWAP2 SWAP1 PUSH2 0x577 JUMP JUMPDEST PUSH1 0x40 MLOAD DUP1 SWAP2 SUB SWAP1 RETURN JUMPDEST CALLVALUE DUP1 ISZERO PUSH2 0x202 JUMPI PUSH1 0x0 DUP1 REVERT JUMPDEST POP PUSH2 0x20B PUSH2 0x42D JUMP JUMPDEST PUSH1 0x40 MLOAD PUSH2 0x218 SWAP2 SWAP1 PUSH2 0x577 JUMP JUMPDEST PUSH1 0x40 MLOAD DUP1 SWAP2 SUB SWAP1 RETURN JUMPDEST PUSH1 0x3 SLOAD TIMESTAMP LT PUSH2 0x265 JUMPI PUSH1 0x40 MLOAD PUSH32 0x8C379A000000000000000000000000000000000000000000000000000000000 DUP2 MSTORE PUSH1 0x4 ADD PUSH2 0x25C SWAP1 PUSH2 0x557 JUMP JUMPDEST PUSH1 0x40 MLOAD DUP1 SWAP2 SUB SWAP1 REVERT JUMPDEST PUSH1 0x2 SLOAD CALLVALUE LT ISZERO PUSH2 0x2AA JUMPI PUSH1 0x40 MLOAD PUSH32 0x8C379A000000000000000000000000000000000000000000000000000000000 DUP2 MSTORE PUSH1 0x4 ADD PUSH2 0x2A1 SWAP1 PUSH2 0x517 JUMP JUMPDEST PUSH1 0x40 MLOAD DUP1 SWAP2 SUB SWAP1 REVERT JUMPDEST PUSH1 0x0 DUP1 PUSH1 0x0 CALLER PUSH20 0xFFFFFFFFFFFFFFFFFFFFFFFFFFFFFFFFFFFFFFFF AND PUSH20 0xFFFFFFFFFFFFFFFFFFFFFFFFFFFFFFFFFFFFFFFF AND DUP2 MSTORE PUSH1 0x20 ADD SWAP1 DUP2 MSTORE PUSH1 0x20 ADD PUSH1 0x0 KECCAK256 SLOAD EQ ISZERO PUSH2 0x30A JUMPI PUSH1 0x6 PUSH1 0x0 DUP2 SLOAD DUP1 SWAP3 SWAP2 SWAP1 PUSH2 0x304 SWAP1 PUSH2 0x635 JUMP JUMPDEST SWAP2 SWAP1 POP SSTORE POP JUMPDEST CALLVALUE PUSH1 0x0 DUP1 CALLER PUSH20 0xFFFFFFFFFFFFFFFFFFFFFFFFFFFFFFFFFFFFFFFF AND PUSH20 0xFFFFFFFFFFFFFFFFFFFFFFFFFFFFFFFFFFFFFFFF AND DUP2 MSTORE PUSH1 0x20 ADD SWAP1 DUP2 MSTORE PUSH1 0x20 ADD PUSH1 0x0 KECCAK256 PUSH1 0x0 DUP3 DUP3 SLOAD PUSH2 0x358 SWAP2 SWAP1 PUSH2 0x5A3 JUMP JUMPDEST SWAP3 POP POP DUP2 SWAP1 SSTORE POP CALLVALUE PUSH1 0x5 PUSH1 0x0 DUP3 DUP3 SLOAD PUSH2 0x371 SWAP2 SWAP1 PUSH2 0x5A3 JUMP JUMPDEST SWAP3 POP POP DUP2 SWAP1 SSTORE POP JUMP JUMPDEST PUSH1 0x0 PUSH1 0x20 MSTORE DUP1 PUSH1 0x0 MSTORE PUSH1 0x40 PUSH1 0x0 KECCAK256 PUSH1 0x0 SWAP2 POP SWAP1 POP SLOAD DUP2 JUMP JUMPDEST PUSH1 0x3 SLOAD DUP2 JUMP JUMPDEST PUSH1 0x1 PUSH1 0x0 SWAP1 SLOAD SWAP1 PUSH2 0x100 EXP SWAP1 DIV PUSH20 0xFFFFFFFFFFFFFFFFFFFFFFFFFFFFFFFFFFFFFFFF AND DUP2 JUMP JUMPDEST PUSH1 0x6 SLOAD DUP2 JUMP JUMPDEST PUSH1 0x3 SLOAD TIMESTAMP GT DUP1 ISZERO PUSH2 0x3D8 JUMPI POP PUSH1 0x4 SLOAD PUSH1 0x5 SLOAD LT JUMPDEST PUSH2 0x417 JUMPI PUSH1 0x40 MLOAD PUSH32 0x8C379A000000000000000000000000000000000000000000000000000000000 DUP2 MSTORE PUSH1 0x4 ADD PUSH2 0x40E SWAP1 PUSH2 0x537 JUMP JUMPDEST PUSH1 0x40 MLOAD DUP1 SWAP2 SUB SWAP1 REVERT JUMPDEST JUMP JUMPDEST PUSH1 0x0 SELFBALANCE SWAP1 POP SWAP1 JUMP JUMPDEST PUSH1 0x2 SLOAD DUP2 JUMP JUMPDEST PUSH1 0x5 SLOAD DUP2 JUMP JUMPDEST PUSH1 0x4 SLOAD DUP2 JUMP JUMPDEST PUSH1 0x0 DUP2 CALLDATALOAD SWAP1 POP PUSH2 0x442 DUP2 PUSH2 0x707 JUMP JUMPDEST SWAP3 SWAP2 POP POP JUMP JUMPDEST PUSH1 0x0 PUSH1 0x20 DUP3 DUP5 SUB SLT ISZERO PUSH2 0x45E JUMPI PUSH2 0x45D PUSH2 0x6AD JUMP JUMPDEST JUMPDEST PUSH1 0x0 PUSH2 0x46C DUP5 DUP3 DUP6 ADD PUSH2 0x433 JUMP JUMPDEST SWAP2 POP POP SWAP3 SWAP2 POP POP JUMP JUMPDEST PUSH2 0x47E DUP2 PUSH2 0x5F9 JUMP JUMPDEST DUP3 MSTORE POP POP JUMP JUMPDEST PUSH1 0x0 PUSH2 0x491 PUSH1 0x20 DUP4 PUSH2 0x592 JUMP JUMPDEST SWAP2 POP PUSH2 0x49C DUP3 PUSH2 0x6B2 JUMP JUMPDEST PUSH1 0x20 DUP3 ADD SWAP1 POP SWAP2 SWAP1 POP JUMP JUMPDEST PUSH1 0x0 PUSH2 0x4B4 PUSH1 0x0 DUP4 PUSH2 0x592 JUMP JUMPDEST SWAP2 POP PUSH2 0x4BF DUP3 PUSH2 0x6DB JUMP JUMPDEST PUSH1 0x0 DUP3 ADD SWAP1 POP SWAP2 SWAP1 POP JUMP JUMPDEST PUSH1 0x0 PUSH2 0x4D7 PUSH1 0x1D DUP4 PUSH2 0x592 JUMP JUMPDEST SWAP2 POP PUSH2 0x4E2 DUP3 PUSH2 0x6DE JUMP JUMPDEST PUSH1 0x20 DUP3 ADD SWAP1 POP SWAP2 SWAP1 POP JUMP JUMPDEST PUSH2 0x4F6 DUP2 PUSH2 0x62B JUMP JUMPDEST DUP3 MSTORE POP POP JUMP JUMPDEST PUSH1 0x0 PUSH1 0x20 DUP3 ADD SWAP1 POP PUSH2 0x511 PUSH1 0x0 DUP4 ADD DUP5 PUSH2 0x475 JUMP JUMPDEST SWAP3 SWAP2 POP POP JUMP JUMPDEST PUSH1 0x0 PUSH1 0x20 DUP3 ADD SWAP1 POP DUP2 DUP2 SUB PUSH1 0x0 DUP4 ADD MSTORE PUSH2 0x530 DUP2 PUSH2 0x484 JUMP JUMPDEST SWAP1 POP SWAP2 SWAP1 POP JUMP JUMPDEST PUSH1 0x0 PUSH1 0x20 DUP3 ADD SWAP1 POP DUP2 DUP2 SUB PUSH1 0x0 DUP4 ADD MSTORE PUSH2 0x550 DUP2 PUSH2 0x4A7 JUMP JUMPDEST SWAP1 POP SWAP2 SWAP1 POP JUMP JUMPDEST PUSH1 0x0 PUSH1 0x20 DUP3 ADD SWAP1 POP DUP2 DUP2 SUB PUSH1 0x0 DUP4 ADD MSTORE PUSH2 0x570 DUP2 PUSH2 0x4CA JUMP JUMPDEST SWAP1 POP SWAP2 SWAP1 POP JUMP JUMPDEST PUSH1 0x0 PUSH1 0x20 DUP3 ADD SWAP1 POP PUSH2 0x58C PUSH1 0x0 DUP4 ADD DUP5 PUSH2 0x4ED JUMP JUMPDEST SWAP3 SWAP2 POP POP JUMP JUMPDEST PUSH1 0x0 DUP3 DUP3 MSTORE PUSH1 0x20 DUP3 ADD SWAP1 POP SWAP3 SWAP2 POP POP JUMP JUMPDEST PUSH1 0x0 PUSH2 0x5AE DUP3 PUSH2 0x62B JUMP JUMPDEST SWAP2 POP PUSH2 0x5B9 DUP4 PUSH2 0x62B JUMP JUMPDEST SWAP3 POP DUP3 PUSH32 0xFFFFFFFFFFFFFFFFFFFFFFFFFFFFFFFFFFFFFFFFFFFFFFFFFFFFFFFFFFFFFFFF SUB DUP3 GT ISZERO PUSH2 0x5EE JUMPI PUSH2 0x5ED PUSH2 0x67E JUMP JUMPDEST JUMPDEST DUP3 DUP3 ADD SWAP1 POP SWAP3 SWAP2 POP POP JUMP JUMPDEST PUSH1 0x0 PUSH2 0x604 DUP3 PUSH2 0x60B JUMP JUMPDEST SWAP1 POP SWAP2 SWAP1 POP JUMP JUMPDEST PUSH1 0x0 PUSH20 0xFFFFFFFFFFFFFFFFFFFFFFFFFFFFFFFFFFFFFFFF DUP3 AND SWAP1 POP SWAP2 SWAP1 POP JUMP JUMPDEST PUSH1 0x0 DUP2 SWAP1 POP SWAP2 SWAP1 POP JUMP JUMPDEST PUSH1 0x0 PUSH2 0x640 DUP3 PUSH2 0x62B JUMP JUMPDEST SWAP2 POP PUSH32 0xFFFFFFFFFFFFFFFFFFFFFFFFFFFFFFFFFFFFFFFFFFFFFFFFFFFFFFFFFFFFFFFF DUP3 EQ ISZERO PUSH2 0x673 JUMPI PUSH2 0x672 PUSH2 0x67E JUMP JUMPDEST JUMPDEST PUSH1 0x1 DUP3 ADD SWAP1 POP SWAP2 SWAP1 POP JUMP JUMPDEST PUSH32 0x4E487B7100000000000000000000000000000000000000000000000000000000 PUSH1 0x0 MSTORE PUSH1 0x11 PUSH1 0x4 MSTORE PUSH1 0x24 PUSH1 0x0 REVERT JUMPDEST PUSH1 0x0 DUP1 REVERT JUMPDEST PUSH32 0x4D696E696D756D20636F6E747269627574696F6E206973206E6F74206D65742E PUSH1 0x0 DUP3 ADD MSTORE POP JUMP JUMPDEST POP JUMP JUMPDEST PUSH32 0x446561646C696E652068617320616C7265616479207265616368656421000000 PUSH1 0x0 DUP3 ADD MSTORE POP JUMP JUMPDEST PUSH2 0x710 DUP2 PUSH2 0x5F9 JUMP JUMPDEST DUP2 EQ PUSH2 0x71B JUMPI PUSH1 0x0 DUP1 REVERT JUMPDEST POP JUMP INVALID LOG2 PUSH5 0x6970667358 0x22 SLT KECCAK256 MOD 0xF7 SWAP11 0xBE STOP SIGNEXTEND PUSH14 0x9CD91D495E2CF33EF36E1B4B0510 PC 0xBD PUSH4 0xE2DDAFE7 SHR 0xAE 0xC1 BYTE PUSH5 0x736F6C6343 STOP ADDMOD SMOD STOP CALLER "
				},
				"gasEstimates": {
					"creation": {
						"codeDepositCost": "375200",
						"executionCost": "infinite",
						"totalCost": "infinite"
					},
					"external": {
						"contributors(address)": "2837",
						"deadline()": "2474",
						"getContractBalance()": "361",
						"manager()": "2581",
						"minimumContribution()": "2473",
						"noOfContributors()": "2518",
						"raisedAmount()": "2495",
						"refund()": "6768",
						"sendEth()": "infinite",
						"target()": "2517"
					}
				},
				"methodIdentifiers": {
					"contributors(address)": "1f6d4942",
					"deadline()": "29dcb0cf",
					"getContractBalance()": "6f9fb98a",
					"manager()": "481c6a75",
					"minimumContribution()": "937e09b1",
					"noOfContributors()": "4e260f6f",
					"raisedAmount()": "c59ee1dc",
					"refund()": "590e1ae3",
					"sendEth()": "06e99fef",
					"target()": "d4b83992"
				}
			},
			"storageLayout": {
				"storage": [
					{
						"astId": 5,
						"contract": "CrowdFunding.sol:CrowdFunding",
						"label": "contributors",
						"offset": 0,
						"slot": "0",
						"type": "t_mapping(t_address,t_uint256)"
					},
					{
						"astId": 7,
						"contract": "CrowdFunding.sol:CrowdFunding",
						"label": "manager",
						"offset": 0,
						"slot": "1",
						"type": "t_address"
					},
					{
						"astId": 9,
						"contract": "CrowdFunding.sol:CrowdFunding",
						"label": "minimumContribution",
						"offset": 0,
						"slot": "2",
						"type": "t_uint256"
					},
					{
						"astId": 11,
						"contract": "CrowdFunding.sol:CrowdFunding",
						"label": "deadline",
						"offset": 0,
						"slot": "3",
						"type": "t_uint256"
					},
					{
						"astId": 13,
						"contract": "CrowdFunding.sol:CrowdFunding",
						"label": "target",
						"offset": 0,
						"slot": "4",
						"type": "t_uint256"
					},
					{
						"astId": 15,
						"contract": "CrowdFunding.sol:CrowdFunding",
						"label": "raisedAmount",
						"offset": 0,
						"slot": "5",
						"type": "t_uint256"
					},
					{
						"astId": 17,
						"contract": "CrowdFunding.sol:CrowdFunding",
						"label": "noOfContributors",
						"offset": 0,
						"slot": "6",
						"type": "t_uint256"
					}
				],
				"types": {
					"t_address": {
						"encoding": "inplace",
						"label": "address",
						"numberOfBytes": "20"
					},
					"t_mapping(t_address,t_uint256)": {
						"encoding": "mapping",
						"key": "t_address",
						"label": "mapping(address => uint256)",
						"numberOfBytes": "32",
						"value": "t_uint256"
					},
					"t_uint256": {
						"encoding": "inplace",
						"label": "uint256",
						"numberOfBytes": "32"
					}
				}
			},
			"userdoc": {
				"kind": "user",
				"methods": {},
				"version": 1
			}
		}
	}
}