{
	"CrowdFunding.sol": {
		"CrowdFunding": {
			"abi": [
				{
					"inputs": [
						{
							"internalType": "uint256",
							"name": "_target",
							"type": "uint256"
						},
						{
							"internalType": "uint256",
							"name": "_deadline",
							"type": "uint256"
						}
					],
					"stateMutability": "nonpayable",
					"type": "constructor"
				},
				{
					"inputs": [
						{
							"internalType": "address",
							"name": "",
							"type": "address"
						}
					],
					"name": "contributors",
					"outputs": [
						{
							"internalType": "uint256",
							"name": "",
							"type": "uint256"
						}
					],
					"stateMutability": "view",
					"type": "function"
				},
				{
					"inputs": [],
					"name": "deadline",
					"outputs": [
						{
							"internalType": "uint256",
							"name": "",
							"type": "uint256"
						}
					],
					"stateMutability": "view",
					"type": "function"
				},
				{
					"inputs": [],
					"name": "getContractBalance",
					"outputs": [
						{
							"internalType": "uint256",
							"name": "",
							"type": "uint256"
						}
					],
					"stateMutability": "view",
					"type": "function"
				},
				{
					"inputs": [],
					"name": "manager",
					"outputs": [
						{
							"internalType": "address",
							"name": "",
							"type": "address"
						}
					],
					"stateMutability": "view",
					"type": "function"
				},
				{
					"inputs": [],
					"name": "minimumContribution",
					"outputs": [
						{
							"internalType": "uint256",
							"name": "",
							"type": "uint256"
						}
					],
					"stateMutability": "view",
					"type": "function"
				},
				{
					"inputs": [],
					"name": "noOfContributors",
					"outputs": [
						{
							"internalType": "uint256",
							"name": "",
							"type": "uint256"
						}
					],
					"stateMutability": "view",
					"type": "function"
				},
				{
					"inputs": [],
					"name": "numRequests",
					"outputs": [
						{
							"internalType": "uint256",
							"name": "",
							"type": "uint256"
						}
					],
					"stateMutability": "view",
					"type": "function"
				},
				{
					"inputs": [],
					"name": "raisedAmount",
					"outputs": [
						{
							"internalType": "uint256",
							"name": "",
							"type": "uint256"
						}
					],
					"stateMutability": "view",
					"type": "function"
				},
				{
					"inputs": [],
					"name": "refund",
					"outputs": [],
					"stateMutability": "nonpayable",
					"type": "function"
				},
				{
					"inputs": [
						{
							"internalType": "uint256",
							"name": "",
							"type": "uint256"
						}
					],
					"name": "requests",
					"outputs": [
						{
							"internalType": "string",
							"name": "description",
							"type": "string"
						},
						{
							"internalType": "address payable",
							"name": "recipient",
							"type": "address"
						},
						{
							"internalType": "uint256",
							"name": "value",
							"type": "uint256"
						},
						{
							"internalType": "bool",
							"name": "completed",
							"type": "bool"
						},
						{
							"internalType": "uint256",
							"name": "noOfVoters",
							"type": "uint256"
						}
					],
					"stateMutability": "view",
					"type": "function"
				},
				{
					"inputs": [],
					"name": "sendEth",
					"outputs": [],
					"stateMutability": "payable",
					"type": "function"
				},
				{
					"inputs": [],
					"name": "target",
					"outputs": [
						{
							"internalType": "uint256",
							"name": "",
							"type": "uint256"
						}
					],
					"stateMutability": "view",
					"type": "function"
				}
			],
			"devdoc": {
				"kind": "dev",
				"methods": {},
				"version": 1
			},
			"evm": {
				"assembly": "    /* \"CrowdFunding.sol\":77:1776  contract CrowdFunding {\r... */\n  mstore(0x40, 0x80)\n    /* \"CrowdFunding.sol\":626:814  constructor(uint _target, uint _deadline){\r... */\n  callvalue\n  dup1\n  iszero\n  tag_1\n  jumpi\n  0x00\n  dup1\n  revert\ntag_1:\n  pop\n  mload(0x40)\n  sub(codesize, bytecodeSize)\n  dup1\n  bytecodeSize\n  dup4\n  codecopy\n  dup2\n  dup2\n  add\n  0x40\n  mstore\n  dup2\n  add\n  swap1\n  tag_2\n  swap2\n  swap1\n  tag_3\n  jump\t// in\ntag_2:\n    /* \"CrowdFunding.sol\":685:692  _target */\n  dup2\n    /* \"CrowdFunding.sol\":678:684  target */\n  0x04\n    /* \"CrowdFunding.sol\":678:692  target=_target */\n  dup2\n  swap1\n  sstore\n  pop\n    /* \"CrowdFunding.sol\":728:737  _deadline */\n  dup1\n    /* \"CrowdFunding.sol\":712:727  block.timestamp */\n  timestamp\n    /* \"CrowdFunding.sol\":712:737  block.timestamp+_deadline */\n  tag_6\n  swap2\n  swap1\n  tag_7\n  jump\t// in\ntag_6:\n    /* \"CrowdFunding.sol\":703:711  deadline */\n  0x03\n    /* \"CrowdFunding.sol\":703:737  deadline=block.timestamp+_deadline */\n  dup2\n  swap1\n  sstore\n  pop\n    /* \"CrowdFunding.sol\":769:776  100 wei */\n  0x64\n    /* \"CrowdFunding.sol\":748:767  minimumContribution */\n  0x02\n    /* \"CrowdFunding.sol\":748:776  minimumContribution= 100 wei */\n  dup2\n  swap1\n  sstore\n  pop\n    /* \"CrowdFunding.sol\":796:806  msg.sender */\n  caller\n    /* \"CrowdFunding.sol\":787:794  manager */\n  0x01\n  0x00\n    /* \"CrowdFunding.sol\":787:806  manager= msg.sender */\n  0x0100\n  exp\n  dup2\n  sload\n  dup2\n  0xffffffffffffffffffffffffffffffffffffffff\n  mul\n  not\n  and\n  swap1\n  dup4\n  0xffffffffffffffffffffffffffffffffffffffff\n  and\n  mul\n  or\n  swap1\n  sstore\n  pop\n    /* \"CrowdFunding.sol\":626:814  constructor(uint _target, uint _deadline){\r... */\n  pop\n  pop\n    /* \"CrowdFunding.sol\":77:1776  contract CrowdFunding {\r... */\n  jump(tag_8)\n    /* \"#utility.yul\":7:150   */\ntag_10:\n    /* \"#utility.yul\":64:69   */\n  0x00\n    /* \"#utility.yul\":95:101   */\n  dup2\n    /* \"#utility.yul\":89:102   */\n  mload\n    /* \"#utility.yul\":80:102   */\n  swap1\n  pop\n    /* \"#utility.yul\":111:144   */\n  tag_12\n    /* \"#utility.yul\":138:143   */\n  dup2\n    /* \"#utility.yul\":111:144   */\n  tag_13\n  jump\t// in\ntag_12:\n    /* \"#utility.yul\":7:150   */\n  swap3\n  swap2\n  pop\n  pop\n  jump\t// out\n    /* \"#utility.yul\":156:663   */\ntag_3:\n    /* \"#utility.yul\":235:241   */\n  0x00\n    /* \"#utility.yul\":243:249   */\n  dup1\n    /* \"#utility.yul\":292:294   */\n  0x40\n    /* \"#utility.yul\":280:289   */\n  dup4\n    /* \"#utility.yul\":271:278   */\n  dup6\n    /* \"#utility.yul\":267:290   */\n  sub\n    /* \"#utility.yul\":263:295   */\n  slt\n    /* \"#utility.yul\":260:379   */\n  iszero\n  tag_15\n  jumpi\n    /* \"#utility.yul\":298:377   */\n  tag_16\n  tag_17\n  jump\t// in\ntag_16:\n    /* \"#utility.yul\":260:379   */\ntag_15:\n    /* \"#utility.yul\":418:419   */\n  0x00\n    /* \"#utility.yul\":443:507   */\n  tag_18\n    /* \"#utility.yul\":499:506   */\n  dup6\n    /* \"#utility.yul\":490:496   */\n  dup3\n    /* \"#utility.yul\":479:488   */\n  dup7\n    /* \"#utility.yul\":475:497   */\n  add\n    /* \"#utility.yul\":443:507   */\n  tag_10\n  jump\t// in\ntag_18:\n    /* \"#utility.yul\":433:507   */\n  swap3\n  pop\n    /* \"#utility.yul\":389:517   */\n  pop\n    /* \"#utility.yul\":556:558   */\n  0x20\n    /* \"#utility.yul\":582:646   */\n  tag_19\n    /* \"#utility.yul\":638:645   */\n  dup6\n    /* \"#utility.yul\":629:635   */\n  dup3\n    /* \"#utility.yul\":618:627   */\n  dup7\n    /* \"#utility.yul\":614:636   */\n  add\n    /* \"#utility.yul\":582:646   */\n  tag_10\n  jump\t// in\ntag_19:\n    /* \"#utility.yul\":572:646   */\n  swap2\n  pop\n    /* \"#utility.yul\":527:656   */\n  pop\n    /* \"#utility.yul\":156:663   */\n  swap3\n  pop\n  swap3\n  swap1\n  pop\n  jump\t// out\n    /* \"#utility.yul\":750:1055   */\ntag_7:\n    /* \"#utility.yul\":790:793   */\n  0x00\n    /* \"#utility.yul\":809:829   */\n  tag_23\n    /* \"#utility.yul\":827:828   */\n  dup3\n    /* \"#utility.yul\":809:829   */\n  tag_24\n  jump\t// in\ntag_23:\n    /* \"#utility.yul\":804:829   */\n  swap2\n  pop\n    /* \"#utility.yul\":843:863   */\n  tag_25\n    /* \"#utility.yul\":861:862   */\n  dup4\n    /* \"#utility.yul\":843:863   */\n  tag_24\n  jump\t// in\ntag_25:\n    /* \"#utility.yul\":838:863   */\n  swap3\n  pop\n    /* \"#utility.yul\":997:998   */\n  dup3\n    /* \"#utility.yul\":929:995   */\n  0xffffffffffffffffffffffffffffffffffffffffffffffffffffffffffffffff\n    /* \"#utility.yul\":925:999   */\n  sub\n    /* \"#utility.yul\":922:923   */\n  dup3\n    /* \"#utility.yul\":919:1000   */\n  gt\n    /* \"#utility.yul\":916:1023   */\n  iszero\n  tag_26\n  jumpi\n    /* \"#utility.yul\":1003:1021   */\n  tag_27\n  tag_28\n  jump\t// in\ntag_27:\n    /* \"#utility.yul\":916:1023   */\ntag_26:\n    /* \"#utility.yul\":1047:1048   */\n  dup3\n    /* \"#utility.yul\":1044:1045   */\n  dup3\n    /* \"#utility.yul\":1040:1049   */\n  add\n    /* \"#utility.yul\":1033:1049   */\n  swap1\n  pop\n    /* \"#utility.yul\":750:1055   */\n  swap3\n  swap2\n  pop\n  pop\n  jump\t// out\n    /* \"#utility.yul\":1061:1138   */\ntag_24:\n    /* \"#utility.yul\":1098:1105   */\n  0x00\n    /* \"#utility.yul\":1127:1132   */\n  dup2\n    /* \"#utility.yul\":1116:1132   */\n  swap1\n  pop\n    /* \"#utility.yul\":1061:1138   */\n  swap2\n  swap1\n  pop\n  jump\t// out\n    /* \"#utility.yul\":1144:1324   */\ntag_28:\n    /* \"#utility.yul\":1192:1269   */\n  0x4e487b7100000000000000000000000000000000000000000000000000000000\n    /* \"#utility.yul\":1189:1190   */\n  0x00\n    /* \"#utility.yul\":1182:1270   */\n  mstore\n    /* \"#utility.yul\":1289:1293   */\n  0x11\n    /* \"#utility.yul\":1286:1287   */\n  0x04\n    /* \"#utility.yul\":1279:1294   */\n  mstore\n    /* \"#utility.yul\":1313:1317   */\n  0x24\n    /* \"#utility.yul\":1310:1311   */\n  0x00\n    /* \"#utility.yul\":1303:1318   */\n  revert\n    /* \"#utility.yul\":1453:1570   */\ntag_17:\n    /* \"#utility.yul\":1562:1563   */\n  0x00\n    /* \"#utility.yul\":1559:1560   */\n  dup1\n    /* \"#utility.yul\":1552:1564   */\n  revert\n    /* \"#utility.yul\":1576:1698   */\ntag_13:\n    /* \"#utility.yul\":1649:1673   */\n  tag_35\n    /* \"#utility.yul\":1667:1672   */\n  dup2\n    /* \"#utility.yul\":1649:1673   */\n  tag_24\n  jump\t// in\ntag_35:\n    /* \"#utility.yul\":1642:1647   */\n  dup2\n    /* \"#utility.yul\":1639:1674   */\n  eq\n    /* \"#utility.yul\":1629:1692   */\n  tag_36\n  jumpi\n    /* \"#utility.yul\":1688:1689   */\n  0x00\n    /* \"#utility.yul\":1685:1686   */\n  dup1\n    /* \"#utility.yul\":1678:1690   */\n  revert\n    /* \"#utility.yul\":1629:1692   */\ntag_36:\n    /* \"#utility.yul\":1576:1698   */\n  pop\n  jump\t// out\n    /* \"CrowdFunding.sol\":77:1776  contract CrowdFunding {\r... */\ntag_8:\n  dataSize(sub_0)\n  dup1\n  dataOffset(sub_0)\n  0x00\n  codecopy\n  0x00\n  return\nstop\n\nsub_0: assembly {\n        /* \"CrowdFunding.sol\":77:1776  contract CrowdFunding {\r... */\n      mstore(0x40, 0x80)\n      jumpi(tag_1, lt(calldatasize, 0x04))\n      shr(0xe0, calldataload(0x00))\n      dup1\n      0x6f9fb98a\n      gt\n      tag_14\n      jumpi\n      dup1\n      0x6f9fb98a\n      eq\n      tag_8\n      jumpi\n      dup1\n      0x81d12c58\n      eq\n      tag_9\n      jumpi\n      dup1\n      0x937e09b1\n      eq\n      tag_10\n      jumpi\n      dup1\n      0x9fb42b1f\n      eq\n      tag_11\n      jumpi\n      dup1\n      0xc59ee1dc\n      eq\n      tag_12\n      jumpi\n      dup1\n      0xd4b83992\n      eq\n      tag_13\n      jumpi\n      jump(tag_1)\n    tag_14:\n      dup1\n      0x06e99fef\n      eq\n      tag_2\n      jumpi\n      dup1\n      0x1f6d4942\n      eq\n      tag_3\n      jumpi\n      dup1\n      0x29dcb0cf\n      eq\n      tag_4\n      jumpi\n      dup1\n      0x481c6a75\n      eq\n      tag_5\n      jumpi\n      dup1\n      0x4e260f6f\n      eq\n      tag_6\n      jumpi\n      dup1\n      0x590e1ae3\n      eq\n      tag_7\n      jumpi\n    tag_1:\n      0x00\n      dup1\n      revert\n        /* \"CrowdFunding.sol\":822:1200  function sendEth() public payable{\r... */\n    tag_2:\n      tag_15\n      tag_16\n      jump\t// in\n    tag_15:\n      stop\n        /* \"CrowdFunding.sol\":106:148  mapping(address=>uint) public contributors */\n    tag_3:\n      callvalue\n      dup1\n      iszero\n      tag_17\n      jumpi\n      0x00\n      dup1\n      revert\n    tag_17:\n      pop\n      tag_18\n      0x04\n      dup1\n      calldatasize\n      sub\n      dup2\n      add\n      swap1\n      tag_19\n      swap2\n      swap1\n      tag_20\n      jump\t// in\n    tag_19:\n      tag_21\n      jump\t// in\n    tag_18:\n      mload(0x40)\n      tag_22\n      swap2\n      swap1\n      tag_23\n      jump\t// in\n    tag_22:\n      mload(0x40)\n      dup1\n      swap2\n      sub\n      swap1\n      return\n        /* \"CrowdFunding.sol\":222:242  uint public deadline */\n    tag_4:\n      callvalue\n      dup1\n      iszero\n      tag_24\n      jumpi\n      0x00\n      dup1\n      revert\n    tag_24:\n      pop\n      tag_25\n      tag_26\n      jump\t// in\n    tag_25:\n      mload(0x40)\n      tag_27\n      swap2\n      swap1\n      tag_23\n      jump\t// in\n    tag_27:\n      mload(0x40)\n      dup1\n      swap2\n      sub\n      swap1\n      return\n        /* \"CrowdFunding.sol\":155:177  address public manager */\n    tag_5:\n      callvalue\n      dup1\n      iszero\n      tag_28\n      jumpi\n      0x00\n      dup1\n      revert\n    tag_28:\n      pop\n      tag_29\n      tag_30\n      jump\t// in\n    tag_29:\n      mload(0x40)\n      tag_31\n      swap2\n      swap1\n      tag_32\n      jump\t// in\n    tag_31:\n      mload(0x40)\n      dup1\n      swap2\n      sub\n      swap1\n      return\n        /* \"CrowdFunding.sol\":305:333  uint public noOfContributors */\n    tag_6:\n      callvalue\n      dup1\n      iszero\n      tag_33\n      jumpi\n      0x00\n      dup1\n      revert\n    tag_33:\n      pop\n      tag_34\n      tag_35\n      jump\t// in\n    tag_34:\n      mload(0x40)\n      tag_36\n      swap2\n      swap1\n      tag_23\n      jump\t// in\n    tag_36:\n      mload(0x40)\n      dup1\n      swap2\n      sub\n      swap1\n      return\n        /* \"CrowdFunding.sol\":1319:1638  function refund() public {\r... */\n    tag_7:\n      callvalue\n      dup1\n      iszero\n      tag_37\n      jumpi\n      0x00\n      dup1\n      revert\n    tag_37:\n      pop\n      tag_38\n      tag_39\n      jump\t// in\n    tag_38:\n      stop\n        /* \"CrowdFunding.sol\":1208:1311  function getContractBalance() public view returns(uint){\r... */\n    tag_8:\n      callvalue\n      dup1\n      iszero\n      tag_40\n      jumpi\n      0x00\n      dup1\n      revert\n    tag_40:\n      pop\n      tag_41\n      tag_42\n      jump\t// in\n    tag_41:\n      mload(0x40)\n      tag_43\n      swap2\n      swap1\n      tag_23\n      jump\t// in\n    tag_43:\n      mload(0x40)\n      dup1\n      swap2\n      sub\n      swap1\n      return\n        /* \"CrowdFunding.sol\":549:587  mapping(uint=>Request) public requests */\n    tag_9:\n      callvalue\n      dup1\n      iszero\n      tag_44\n      jumpi\n      0x00\n      dup1\n      revert\n    tag_44:\n      pop\n      tag_45\n      0x04\n      dup1\n      calldatasize\n      sub\n      dup2\n      add\n      swap1\n      tag_46\n      swap2\n      swap1\n      tag_47\n      jump\t// in\n    tag_46:\n      tag_48\n      jump\t// in\n    tag_45:\n      mload(0x40)\n      tag_49\n      swap6\n      swap5\n      swap4\n      swap3\n      swap2\n      swap1\n      tag_50\n      jump\t// in\n    tag_49:\n      mload(0x40)\n      dup1\n      swap2\n      sub\n      swap1\n      return\n        /* \"CrowdFunding.sol\":184:215  uint public minimumContribution */\n    tag_10:\n      callvalue\n      dup1\n      iszero\n      tag_51\n      jumpi\n      0x00\n      dup1\n      revert\n    tag_51:\n      pop\n      tag_52\n      tag_53\n      jump\t// in\n    tag_52:\n      mload(0x40)\n      tag_54\n      swap2\n      swap1\n      tag_23\n      jump\t// in\n    tag_54:\n      mload(0x40)\n      dup1\n      swap2\n      sub\n      swap1\n      return\n        /* \"CrowdFunding.sol\":594:617  uint public numRequests */\n    tag_11:\n      callvalue\n      dup1\n      iszero\n      tag_55\n      jumpi\n      0x00\n      dup1\n      revert\n    tag_55:\n      pop\n      tag_56\n      tag_57\n      jump\t// in\n    tag_56:\n      mload(0x40)\n      tag_58\n      swap2\n      swap1\n      tag_23\n      jump\t// in\n    tag_58:\n      mload(0x40)\n      dup1\n      swap2\n      sub\n      swap1\n      return\n        /* \"CrowdFunding.sol\":274:298  uint public raisedAmount */\n    tag_12:\n      callvalue\n      dup1\n      iszero\n      tag_59\n      jumpi\n      0x00\n      dup1\n      revert\n    tag_59:\n      pop\n      tag_60\n      tag_61\n      jump\t// in\n    tag_60:\n      mload(0x40)\n      tag_62\n      swap2\n      swap1\n      tag_23\n      jump\t// in\n    tag_62:\n      mload(0x40)\n      dup1\n      swap2\n      sub\n      swap1\n      return\n        /* \"CrowdFunding.sol\":249:267  uint public target */\n    tag_13:\n      callvalue\n      dup1\n      iszero\n      tag_63\n      jumpi\n      0x00\n      dup1\n      revert\n    tag_63:\n      pop\n      tag_64\n      tag_65\n      jump\t// in\n    tag_64:\n      mload(0x40)\n      tag_66\n      swap2\n      swap1\n      tag_23\n      jump\t// in\n    tag_66:\n      mload(0x40)\n      dup1\n      swap2\n      sub\n      swap1\n      return\n        /* \"CrowdFunding.sol\":822:1200  function sendEth() public payable{\r... */\n    tag_16:\n        /* \"CrowdFunding.sol\":892:900  deadline */\n      sload(0x03)\n        /* \"CrowdFunding.sol\":874:889  block.timestamp */\n      timestamp\n        /* \"CrowdFunding.sol\":874:900  block.timestamp < deadline */\n      lt\n        /* \"CrowdFunding.sol\":866:934  require(block.timestamp < deadline, \"Deadline has already reached!\") */\n      tag_68\n      jumpi\n      mload(0x40)\n      0x08c379a000000000000000000000000000000000000000000000000000000000\n      dup2\n      mstore\n      0x04\n      add\n      tag_69\n      swap1\n      tag_70\n      jump\t// in\n    tag_69:\n      mload(0x40)\n      dup1\n      swap2\n      sub\n      swap1\n      revert\n    tag_68:\n        /* \"CrowdFunding.sol\":966:985  minimumContribution */\n      sload(0x02)\n        /* \"CrowdFunding.sol\":953:962  msg.value */\n      callvalue\n        /* \"CrowdFunding.sol\":953:985  msg.value >= minimumContribution */\n      lt\n      iszero\n        /* \"CrowdFunding.sol\":945:1022  require(msg.value >= minimumContribution, \"Minimum contribution is not met.\") */\n      tag_71\n      jumpi\n      mload(0x40)\n      0x08c379a000000000000000000000000000000000000000000000000000000000\n      dup2\n      mstore\n      0x04\n      add\n      tag_72\n      swap1\n      tag_73\n      jump\t// in\n    tag_72:\n      mload(0x40)\n      dup1\n      swap2\n      sub\n      swap1\n      revert\n    tag_71:\n        /* \"CrowdFunding.sol\":1066:1067  0 */\n      0x00\n        /* \"CrowdFunding.sol\":1038:1050  contributors */\n      dup1\n        /* \"CrowdFunding.sol\":1038:1062  contributors[msg.sender] */\n      0x00\n        /* \"CrowdFunding.sol\":1051:1061  msg.sender */\n      caller\n        /* \"CrowdFunding.sol\":1038:1062  contributors[msg.sender] */\n      0xffffffffffffffffffffffffffffffffffffffff\n      and\n      0xffffffffffffffffffffffffffffffffffffffff\n      and\n      dup2\n      mstore\n      0x20\n      add\n      swap1\n      dup2\n      mstore\n      0x20\n      add\n      0x00\n      keccak256\n      sload\n        /* \"CrowdFunding.sol\":1038:1067  contributors[msg.sender] == 0 */\n      eq\n        /* \"CrowdFunding.sol\":1035:1113  if(contributors[msg.sender] == 0){\r... */\n      iszero\n      tag_74\n      jumpi\n        /* \"CrowdFunding.sol\":1083:1099  noOfContributors */\n      0x06\n      0x00\n        /* \"CrowdFunding.sol\":1083:1101  noOfContributors++ */\n      dup2\n      sload\n      dup1\n      swap3\n      swap2\n      swap1\n      tag_75\n      swap1\n      tag_76\n      jump\t// in\n    tag_75:\n      swap2\n      swap1\n      pop\n      sstore\n      pop\n        /* \"CrowdFunding.sol\":1035:1113  if(contributors[msg.sender] == 0){\r... */\n    tag_74:\n        /* \"CrowdFunding.sol\":1149:1158  msg.value */\n      callvalue\n        /* \"CrowdFunding.sol\":1123:1135  contributors */\n      0x00\n        /* \"CrowdFunding.sol\":1123:1147  contributors[msg.sender] */\n      dup1\n        /* \"CrowdFunding.sol\":1136:1146  msg.sender */\n      caller\n        /* \"CrowdFunding.sol\":1123:1147  contributors[msg.sender] */\n      0xffffffffffffffffffffffffffffffffffffffff\n      and\n      0xffffffffffffffffffffffffffffffffffffffff\n      and\n      dup2\n      mstore\n      0x20\n      add\n      swap1\n      dup2\n      mstore\n      0x20\n      add\n      0x00\n      keccak256\n      0x00\n        /* \"CrowdFunding.sol\":1123:1158  contributors[msg.sender]+=msg.value */\n      dup3\n      dup3\n      sload\n      tag_77\n      swap2\n      swap1\n      tag_78\n      jump\t// in\n    tag_77:\n      swap3\n      pop\n      pop\n      dup2\n      swap1\n      sstore\n      pop\n        /* \"CrowdFunding.sol\":1183:1192  msg.value */\n      callvalue\n        /* \"CrowdFunding.sol\":1169:1181  raisedAmount */\n      0x05\n      0x00\n        /* \"CrowdFunding.sol\":1169:1192  raisedAmount+=msg.value */\n      dup3\n      dup3\n      sload\n      tag_79\n      swap2\n      swap1\n      tag_78\n      jump\t// in\n    tag_79:\n      swap3\n      pop\n      pop\n      dup2\n      swap1\n      sstore\n      pop\n        /* \"CrowdFunding.sol\":822:1200  function sendEth() public payable{\r... */\n      jump\t// out\n        /* \"CrowdFunding.sol\":106:148  mapping(address=>uint) public contributors */\n    tag_21:\n      mstore(0x20, 0x00)\n      dup1\n      0x00\n      mstore\n      keccak256(0x00, 0x40)\n      0x00\n      swap2\n      pop\n      swap1\n      pop\n      sload\n      dup2\n      jump\t// out\n        /* \"CrowdFunding.sol\":222:242  uint public deadline */\n    tag_26:\n      sload(0x03)\n      dup2\n      jump\t// out\n        /* \"CrowdFunding.sol\":155:177  address public manager */\n    tag_30:\n      0x01\n      0x00\n      swap1\n      sload\n      swap1\n      0x0100\n      exp\n      swap1\n      div\n      0xffffffffffffffffffffffffffffffffffffffff\n      and\n      dup2\n      jump\t// out\n        /* \"CrowdFunding.sol\":305:333  uint public noOfContributors */\n    tag_35:\n      sload(0x06)\n      dup2\n      jump\t// out\n        /* \"CrowdFunding.sol\":1319:1638  function refund() public {\r... */\n    tag_39:\n        /* \"CrowdFunding.sol\":1379:1387  deadline */\n      sload(0x03)\n        /* \"CrowdFunding.sol\":1363:1378  block.timestamp */\n      timestamp\n        /* \"CrowdFunding.sol\":1363:1387  block.timestamp>deadline */\n      gt\n        /* \"CrowdFunding.sol\":1363:1410  block.timestamp>deadline && raisedAmount<target */\n      dup1\n      iszero\n      tag_81\n      jumpi\n      pop\n        /* \"CrowdFunding.sol\":1404:1410  target */\n      sload(0x04)\n        /* \"CrowdFunding.sol\":1391:1403  raisedAmount */\n      sload(0x05)\n        /* \"CrowdFunding.sol\":1391:1410  raisedAmount<target */\n      lt\n        /* \"CrowdFunding.sol\":1363:1410  block.timestamp>deadline && raisedAmount<target */\n    tag_81:\n        /* \"CrowdFunding.sol\":1355:1446  require(block.timestamp>deadline && raisedAmount<target, \"You are not elegible for refund\") */\n      tag_82\n      jumpi\n      mload(0x40)\n      0x08c379a000000000000000000000000000000000000000000000000000000000\n      dup2\n      mstore\n      0x04\n      add\n      tag_83\n      swap1\n      tag_84\n      jump\t// in\n    tag_83:\n      mload(0x40)\n      dup1\n      swap2\n      sub\n      swap1\n      revert\n    tag_82:\n        /* \"CrowdFunding.sol\":1490:1491  0 */\n      0x00\n        /* \"CrowdFunding.sol\":1465:1477  contributors */\n      dup1\n        /* \"CrowdFunding.sol\":1465:1489  contributors[msg.sender] */\n      0x00\n        /* \"CrowdFunding.sol\":1478:1488  msg.sender */\n      caller\n        /* \"CrowdFunding.sol\":1465:1489  contributors[msg.sender] */\n      0xffffffffffffffffffffffffffffffffffffffff\n      and\n      0xffffffffffffffffffffffffffffffffffffffff\n      and\n      dup2\n      mstore\n      0x20\n      add\n      swap1\n      dup2\n      mstore\n      0x20\n      add\n      0x00\n      keccak256\n      sload\n        /* \"CrowdFunding.sol\":1465:1491  contributors[msg.sender]>0 */\n      gt\n        /* \"CrowdFunding.sol\":1457:1492  require(contributors[msg.sender]>0) */\n      tag_85\n      jumpi\n      0x00\n      dup1\n      revert\n    tag_85:\n        /* \"CrowdFunding.sol\":1503:1523  address payable user */\n      0x00\n        /* \"CrowdFunding.sol\":1532:1542  msg.sender */\n      caller\n        /* \"CrowdFunding.sol\":1503:1543  address payable user=payable(msg.sender) */\n      swap1\n      pop\n        /* \"CrowdFunding.sol\":1554:1558  user */\n      dup1\n        /* \"CrowdFunding.sol\":1554:1567  user.transfer */\n      0xffffffffffffffffffffffffffffffffffffffff\n      and\n        /* \"CrowdFunding.sol\":1554:1593  user.transfer(contributors[msg.sender]) */\n      0x08fc\n        /* \"CrowdFunding.sol\":1568:1580  contributors */\n      0x00\n        /* \"CrowdFunding.sol\":1568:1592  contributors[msg.sender] */\n      dup1\n        /* \"CrowdFunding.sol\":1581:1591  msg.sender */\n      caller\n        /* \"CrowdFunding.sol\":1568:1592  contributors[msg.sender] */\n      0xffffffffffffffffffffffffffffffffffffffff\n      and\n      0xffffffffffffffffffffffffffffffffffffffff\n      and\n      dup2\n      mstore\n      0x20\n      add\n      swap1\n      dup2\n      mstore\n      0x20\n      add\n      0x00\n      keccak256\n      sload\n        /* \"CrowdFunding.sol\":1554:1593  user.transfer(contributors[msg.sender]) */\n      swap1\n      dup2\n      iszero\n      mul\n      swap1\n      mload(0x40)\n      0x00\n      mload(0x40)\n      dup1\n      dup4\n      sub\n      dup2\n      dup6\n      dup9\n      dup9\n      call\n      swap4\n      pop\n      pop\n      pop\n      pop\n      iszero\n      dup1\n      iszero\n      tag_87\n      jumpi\n      returndatasize\n      0x00\n      dup1\n      returndatacopy\n      revert(0x00, returndatasize)\n    tag_87:\n      pop\n        /* \"CrowdFunding.sol\":1629:1630  0 */\n      0x00\n        /* \"CrowdFunding.sol\":1604:1616  contributors */\n      dup1\n        /* \"CrowdFunding.sol\":1604:1628  contributors[msg.sender] */\n      0x00\n        /* \"CrowdFunding.sol\":1617:1627  msg.sender */\n      caller\n        /* \"CrowdFunding.sol\":1604:1628  contributors[msg.sender] */\n      0xffffffffffffffffffffffffffffffffffffffff\n      and\n      0xffffffffffffffffffffffffffffffffffffffff\n      and\n      dup2\n      mstore\n      0x20\n      add\n      swap1\n      dup2\n      mstore\n      0x20\n      add\n      0x00\n      keccak256\n        /* \"CrowdFunding.sol\":1604:1630  contributors[msg.sender]=0 */\n      dup2\n      swap1\n      sstore\n      pop\n        /* \"CrowdFunding.sol\":1344:1638  {\r... */\n      pop\n        /* \"CrowdFunding.sol\":1319:1638  function refund() public {\r... */\n      jump\t// out\n        /* \"CrowdFunding.sol\":1208:1311  function getContractBalance() public view returns(uint){\r... */\n    tag_42:\n        /* \"CrowdFunding.sol\":1258:1262  uint */\n      0x00\n        /* \"CrowdFunding.sol\":1281:1302  address(this).balance */\n      selfbalance\n        /* \"CrowdFunding.sol\":1274:1302  return address(this).balance */\n      swap1\n      pop\n        /* \"CrowdFunding.sol\":1208:1311  function getContractBalance() public view returns(uint){\r... */\n      swap1\n      jump\t// out\n        /* \"CrowdFunding.sol\":549:587  mapping(uint=>Request) public requests */\n    tag_48:\n      mstore(0x20, 0x07)\n      dup1\n      0x00\n      mstore\n      keccak256(0x00, 0x40)\n      0x00\n      swap2\n      pop\n      swap1\n      pop\n      dup1\n      0x00\n      add\n      dup1\n      sload\n      tag_89\n      swap1\n      tag_90\n      jump\t// in\n    tag_89:\n      dup1\n      0x1f\n      add\n      0x20\n      dup1\n      swap2\n      div\n      mul\n      0x20\n      add\n      mload(0x40)\n      swap1\n      dup2\n      add\n      0x40\n      mstore\n      dup1\n      swap3\n      swap2\n      swap1\n      dup2\n      dup2\n      mstore\n      0x20\n      add\n      dup3\n      dup1\n      sload\n      tag_91\n      swap1\n      tag_90\n      jump\t// in\n    tag_91:\n      dup1\n      iszero\n      tag_92\n      jumpi\n      dup1\n      0x1f\n      lt\n      tag_93\n      jumpi\n      0x0100\n      dup1\n      dup4\n      sload\n      div\n      mul\n      dup4\n      mstore\n      swap2\n      0x20\n      add\n      swap2\n      jump(tag_92)\n    tag_93:\n      dup3\n      add\n      swap2\n      swap1\n      0x00\n      mstore\n      keccak256(0x00, 0x20)\n      swap1\n    tag_94:\n      dup2\n      sload\n      dup2\n      mstore\n      swap1\n      0x01\n      add\n      swap1\n      0x20\n      add\n      dup1\n      dup4\n      gt\n      tag_94\n      jumpi\n      dup3\n      swap1\n      sub\n      0x1f\n      and\n      dup3\n      add\n      swap2\n    tag_92:\n      pop\n      pop\n      pop\n      pop\n      pop\n      swap1\n      dup1\n      0x01\n      add\n      0x00\n      swap1\n      sload\n      swap1\n      0x0100\n      exp\n      swap1\n      div\n      0xffffffffffffffffffffffffffffffffffffffff\n      and\n      swap1\n      dup1\n      0x02\n      add\n      sload\n      swap1\n      dup1\n      0x03\n      add\n      0x00\n      swap1\n      sload\n      swap1\n      0x0100\n      exp\n      swap1\n      div\n      0xff\n      and\n      swap1\n      dup1\n      0x04\n      add\n      sload\n      swap1\n      pop\n      dup6\n      jump\t// out\n        /* \"CrowdFunding.sol\":184:215  uint public minimumContribution */\n    tag_53:\n      sload(0x02)\n      dup2\n      jump\t// out\n        /* \"CrowdFunding.sol\":594:617  uint public numRequests */\n    tag_57:\n      sload(0x08)\n      dup2\n      jump\t// out\n        /* \"CrowdFunding.sol\":274:298  uint public raisedAmount */\n    tag_61:\n      sload(0x05)\n      dup2\n      jump\t// out\n        /* \"CrowdFunding.sol\":249:267  uint public target */\n    tag_65:\n      sload(0x04)\n      dup2\n      jump\t// out\n        /* \"#utility.yul\":7:146   */\n    tag_96:\n        /* \"#utility.yul\":53:58   */\n      0x00\n        /* \"#utility.yul\":91:97   */\n      dup2\n        /* \"#utility.yul\":78:98   */\n      calldataload\n        /* \"#utility.yul\":69:98   */\n      swap1\n      pop\n        /* \"#utility.yul\":107:140   */\n      tag_98\n        /* \"#utility.yul\":134:139   */\n      dup2\n        /* \"#utility.yul\":107:140   */\n      tag_99\n      jump\t// in\n    tag_98:\n        /* \"#utility.yul\":7:146   */\n      swap3\n      swap2\n      pop\n      pop\n      jump\t// out\n        /* \"#utility.yul\":152:291   */\n    tag_100:\n        /* \"#utility.yul\":198:203   */\n      0x00\n        /* \"#utility.yul\":236:242   */\n      dup2\n        /* \"#utility.yul\":223:243   */\n      calldataload\n        /* \"#utility.yul\":214:243   */\n      swap1\n      pop\n        /* \"#utility.yul\":252:285   */\n      tag_102\n        /* \"#utility.yul\":279:284   */\n      dup2\n        /* \"#utility.yul\":252:285   */\n      tag_103\n      jump\t// in\n    tag_102:\n        /* \"#utility.yul\":152:291   */\n      swap3\n      swap2\n      pop\n      pop\n      jump\t// out\n        /* \"#utility.yul\":297:626   */\n    tag_20:\n        /* \"#utility.yul\":356:362   */\n      0x00\n        /* \"#utility.yul\":405:407   */\n      0x20\n        /* \"#utility.yul\":393:402   */\n      dup3\n        /* \"#utility.yul\":384:391   */\n      dup5\n        /* \"#utility.yul\":380:403   */\n      sub\n        /* \"#utility.yul\":376:408   */\n      slt\n        /* \"#utility.yul\":373:492   */\n      iszero\n      tag_105\n      jumpi\n        /* \"#utility.yul\":411:490   */\n      tag_106\n      tag_107\n      jump\t// in\n    tag_106:\n        /* \"#utility.yul\":373:492   */\n    tag_105:\n        /* \"#utility.yul\":531:532   */\n      0x00\n        /* \"#utility.yul\":556:609   */\n      tag_108\n        /* \"#utility.yul\":601:608   */\n      dup5\n        /* \"#utility.yul\":592:598   */\n      dup3\n        /* \"#utility.yul\":581:590   */\n      dup6\n        /* \"#utility.yul\":577:599   */\n      add\n        /* \"#utility.yul\":556:609   */\n      tag_96\n      jump\t// in\n    tag_108:\n        /* \"#utility.yul\":546:609   */\n      swap2\n      pop\n        /* \"#utility.yul\":502:619   */\n      pop\n        /* \"#utility.yul\":297:626   */\n      swap3\n      swap2\n      pop\n      pop\n      jump\t// out\n        /* \"#utility.yul\":632:961   */\n    tag_47:\n        /* \"#utility.yul\":691:697   */\n      0x00\n        /* \"#utility.yul\":740:742   */\n      0x20\n        /* \"#utility.yul\":728:737   */\n      dup3\n        /* \"#utility.yul\":719:726   */\n      dup5\n        /* \"#utility.yul\":715:738   */\n      sub\n        /* \"#utility.yul\":711:743   */\n      slt\n        /* \"#utility.yul\":708:827   */\n      iszero\n      tag_110\n      jumpi\n        /* \"#utility.yul\":746:825   */\n      tag_111\n      tag_107\n      jump\t// in\n    tag_111:\n        /* \"#utility.yul\":708:827   */\n    tag_110:\n        /* \"#utility.yul\":866:867   */\n      0x00\n        /* \"#utility.yul\":891:944   */\n      tag_112\n        /* \"#utility.yul\":936:943   */\n      dup5\n        /* \"#utility.yul\":927:933   */\n      dup3\n        /* \"#utility.yul\":916:925   */\n      dup6\n        /* \"#utility.yul\":912:934   */\n      add\n        /* \"#utility.yul\":891:944   */\n      tag_100\n      jump\t// in\n    tag_112:\n        /* \"#utility.yul\":881:944   */\n      swap2\n      pop\n        /* \"#utility.yul\":837:954   */\n      pop\n        /* \"#utility.yul\":632:961   */\n      swap3\n      swap2\n      pop\n      pop\n      jump\t// out\n        /* \"#utility.yul\":967:1109   */\n    tag_113:\n        /* \"#utility.yul\":1070:1102   */\n      tag_115\n        /* \"#utility.yul\":1096:1101   */\n      dup2\n        /* \"#utility.yul\":1070:1102   */\n      tag_116\n      jump\t// in\n    tag_115:\n        /* \"#utility.yul\":1065:1068   */\n      dup3\n        /* \"#utility.yul\":1058:1103   */\n      mstore\n        /* \"#utility.yul\":967:1109   */\n      pop\n      pop\n      jump\t// out\n        /* \"#utility.yul\":1115:1233   */\n    tag_117:\n        /* \"#utility.yul\":1202:1226   */\n      tag_119\n        /* \"#utility.yul\":1220:1225   */\n      dup2\n        /* \"#utility.yul\":1202:1226   */\n      tag_120\n      jump\t// in\n    tag_119:\n        /* \"#utility.yul\":1197:1200   */\n      dup3\n        /* \"#utility.yul\":1190:1227   */\n      mstore\n        /* \"#utility.yul\":1115:1233   */\n      pop\n      pop\n      jump\t// out\n        /* \"#utility.yul\":1239:1348   */\n    tag_121:\n        /* \"#utility.yul\":1320:1341   */\n      tag_123\n        /* \"#utility.yul\":1335:1340   */\n      dup2\n        /* \"#utility.yul\":1320:1341   */\n      tag_124\n      jump\t// in\n    tag_123:\n        /* \"#utility.yul\":1315:1318   */\n      dup3\n        /* \"#utility.yul\":1308:1342   */\n      mstore\n        /* \"#utility.yul\":1239:1348   */\n      pop\n      pop\n      jump\t// out\n        /* \"#utility.yul\":1354:1718   */\n    tag_125:\n        /* \"#utility.yul\":1442:1445   */\n      0x00\n        /* \"#utility.yul\":1470:1509   */\n      tag_127\n        /* \"#utility.yul\":1503:1508   */\n      dup3\n        /* \"#utility.yul\":1470:1509   */\n      tag_128\n      jump\t// in\n    tag_127:\n        /* \"#utility.yul\":1525:1596   */\n      tag_129\n        /* \"#utility.yul\":1589:1595   */\n      dup2\n        /* \"#utility.yul\":1584:1587   */\n      dup6\n        /* \"#utility.yul\":1525:1596   */\n      tag_130\n      jump\t// in\n    tag_129:\n        /* \"#utility.yul\":1518:1596   */\n      swap4\n      pop\n        /* \"#utility.yul\":1605:1657   */\n      tag_131\n        /* \"#utility.yul\":1650:1656   */\n      dup2\n        /* \"#utility.yul\":1645:1648   */\n      dup6\n        /* \"#utility.yul\":1638:1642   */\n      0x20\n        /* \"#utility.yul\":1631:1636   */\n      dup7\n        /* \"#utility.yul\":1627:1643   */\n      add\n        /* \"#utility.yul\":1605:1657   */\n      tag_132\n      jump\t// in\n    tag_131:\n        /* \"#utility.yul\":1682:1711   */\n      tag_133\n        /* \"#utility.yul\":1704:1710   */\n      dup2\n        /* \"#utility.yul\":1682:1711   */\n      tag_134\n      jump\t// in\n    tag_133:\n        /* \"#utility.yul\":1677:1680   */\n      dup5\n        /* \"#utility.yul\":1673:1712   */\n      add\n        /* \"#utility.yul\":1666:1712   */\n      swap2\n      pop\n        /* \"#utility.yul\":1446:1718   */\n      pop\n        /* \"#utility.yul\":1354:1718   */\n      swap3\n      swap2\n      pop\n      pop\n      jump\t// out\n        /* \"#utility.yul\":1724:2090   */\n    tag_135:\n        /* \"#utility.yul\":1866:1869   */\n      0x00\n        /* \"#utility.yul\":1887:1954   */\n      tag_137\n        /* \"#utility.yul\":1951:1953   */\n      0x1f\n        /* \"#utility.yul\":1946:1949   */\n      dup4\n        /* \"#utility.yul\":1887:1954   */\n      tag_130\n      jump\t// in\n    tag_137:\n        /* \"#utility.yul\":1880:1954   */\n      swap2\n      pop\n        /* \"#utility.yul\":1963:2056   */\n      tag_138\n        /* \"#utility.yul\":2052:2055   */\n      dup3\n        /* \"#utility.yul\":1963:2056   */\n      tag_139\n      jump\t// in\n    tag_138:\n        /* \"#utility.yul\":2081:2083   */\n      0x20\n        /* \"#utility.yul\":2076:2079   */\n      dup3\n        /* \"#utility.yul\":2072:2084   */\n      add\n        /* \"#utility.yul\":2065:2084   */\n      swap1\n      pop\n        /* \"#utility.yul\":1724:2090   */\n      swap2\n      swap1\n      pop\n      jump\t// out\n        /* \"#utility.yul\":2096:2462   */\n    tag_140:\n        /* \"#utility.yul\":2238:2241   */\n      0x00\n        /* \"#utility.yul\":2259:2326   */\n      tag_142\n        /* \"#utility.yul\":2323:2325   */\n      0x20\n        /* \"#utility.yul\":2318:2321   */\n      dup4\n        /* \"#utility.yul\":2259:2326   */\n      tag_130\n      jump\t// in\n    tag_142:\n        /* \"#utility.yul\":2252:2326   */\n      swap2\n      pop\n        /* \"#utility.yul\":2335:2428   */\n      tag_143\n        /* \"#utility.yul\":2424:2427   */\n      dup3\n        /* \"#utility.yul\":2335:2428   */\n      tag_144\n      jump\t// in\n    tag_143:\n        /* \"#utility.yul\":2453:2455   */\n      0x20\n        /* \"#utility.yul\":2448:2451   */\n      dup3\n        /* \"#utility.yul\":2444:2456   */\n      add\n        /* \"#utility.yul\":2437:2456   */\n      swap1\n      pop\n        /* \"#utility.yul\":2096:2462   */\n      swap2\n      swap1\n      pop\n      jump\t// out\n        /* \"#utility.yul\":2468:2834   */\n    tag_145:\n        /* \"#utility.yul\":2610:2613   */\n      0x00\n        /* \"#utility.yul\":2631:2698   */\n      tag_147\n        /* \"#utility.yul\":2695:2697   */\n      0x1d\n        /* \"#utility.yul\":2690:2693   */\n      dup4\n        /* \"#utility.yul\":2631:2698   */\n      tag_130\n      jump\t// in\n    tag_147:\n        /* \"#utility.yul\":2624:2698   */\n      swap2\n      pop\n        /* \"#utility.yul\":2707:2800   */\n      tag_148\n        /* \"#utility.yul\":2796:2799   */\n      dup3\n        /* \"#utility.yul\":2707:2800   */\n      tag_149\n      jump\t// in\n    tag_148:\n        /* \"#utility.yul\":2825:2827   */\n      0x20\n        /* \"#utility.yul\":2820:2823   */\n      dup3\n        /* \"#utility.yul\":2816:2828   */\n      add\n        /* \"#utility.yul\":2809:2828   */\n      swap1\n      pop\n        /* \"#utility.yul\":2468:2834   */\n      swap2\n      swap1\n      pop\n      jump\t// out\n        /* \"#utility.yul\":2840:2958   */\n    tag_150:\n        /* \"#utility.yul\":2927:2951   */\n      tag_152\n        /* \"#utility.yul\":2945:2950   */\n      dup2\n        /* \"#utility.yul\":2927:2951   */\n      tag_153\n      jump\t// in\n    tag_152:\n        /* \"#utility.yul\":2922:2925   */\n      dup3\n        /* \"#utility.yul\":2915:2952   */\n      mstore\n        /* \"#utility.yul\":2840:2958   */\n      pop\n      pop\n      jump\t// out\n        /* \"#utility.yul\":2964:3186   */\n    tag_32:\n        /* \"#utility.yul\":3057:3061   */\n      0x00\n        /* \"#utility.yul\":3095:3097   */\n      0x20\n        /* \"#utility.yul\":3084:3093   */\n      dup3\n        /* \"#utility.yul\":3080:3098   */\n      add\n        /* \"#utility.yul\":3072:3098   */\n      swap1\n      pop\n        /* \"#utility.yul\":3108:3179   */\n      tag_155\n        /* \"#utility.yul\":3176:3177   */\n      0x00\n        /* \"#utility.yul\":3165:3174   */\n      dup4\n        /* \"#utility.yul\":3161:3178   */\n      add\n        /* \"#utility.yul\":3152:3158   */\n      dup5\n        /* \"#utility.yul\":3108:3179   */\n      tag_117\n      jump\t// in\n    tag_155:\n        /* \"#utility.yul\":2964:3186   */\n      swap3\n      swap2\n      pop\n      pop\n      jump\t// out\n        /* \"#utility.yul\":3192:3967   */\n    tag_50:\n        /* \"#utility.yul\":3427:3431   */\n      0x00\n        /* \"#utility.yul\":3465:3468   */\n      0xa0\n        /* \"#utility.yul\":3454:3463   */\n      dup3\n        /* \"#utility.yul\":3450:3469   */\n      add\n        /* \"#utility.yul\":3442:3469   */\n      swap1\n      pop\n        /* \"#utility.yul\":3515:3524   */\n      dup2\n        /* \"#utility.yul\":3509:3513   */\n      dup2\n        /* \"#utility.yul\":3505:3525   */\n      sub\n        /* \"#utility.yul\":3501:3502   */\n      0x00\n        /* \"#utility.yul\":3490:3499   */\n      dup4\n        /* \"#utility.yul\":3486:3503   */\n      add\n        /* \"#utility.yul\":3479:3526   */\n      mstore\n        /* \"#utility.yul\":3543:3621   */\n      tag_157\n        /* \"#utility.yul\":3616:3620   */\n      dup2\n        /* \"#utility.yul\":3607:3613   */\n      dup9\n        /* \"#utility.yul\":3543:3621   */\n      tag_125\n      jump\t// in\n    tag_157:\n        /* \"#utility.yul\":3535:3621   */\n      swap1\n      pop\n        /* \"#utility.yul\":3631:3719   */\n      tag_158\n        /* \"#utility.yul\":3715:3717   */\n      0x20\n        /* \"#utility.yul\":3704:3713   */\n      dup4\n        /* \"#utility.yul\":3700:3718   */\n      add\n        /* \"#utility.yul\":3691:3697   */\n      dup8\n        /* \"#utility.yul\":3631:3719   */\n      tag_113\n      jump\t// in\n    tag_158:\n        /* \"#utility.yul\":3729:3801   */\n      tag_159\n        /* \"#utility.yul\":3797:3799   */\n      0x40\n        /* \"#utility.yul\":3786:3795   */\n      dup4\n        /* \"#utility.yul\":3782:3800   */\n      add\n        /* \"#utility.yul\":3773:3779   */\n      dup7\n        /* \"#utility.yul\":3729:3801   */\n      tag_150\n      jump\t// in\n    tag_159:\n        /* \"#utility.yul\":3811:3877   */\n      tag_160\n        /* \"#utility.yul\":3873:3875   */\n      0x60\n        /* \"#utility.yul\":3862:3871   */\n      dup4\n        /* \"#utility.yul\":3858:3876   */\n      add\n        /* \"#utility.yul\":3849:3855   */\n      dup6\n        /* \"#utility.yul\":3811:3877   */\n      tag_121\n      jump\t// in\n    tag_160:\n        /* \"#utility.yul\":3887:3960   */\n      tag_161\n        /* \"#utility.yul\":3955:3958   */\n      0x80\n        /* \"#utility.yul\":3944:3953   */\n      dup4\n        /* \"#utility.yul\":3940:3959   */\n      add\n        /* \"#utility.yul\":3931:3937   */\n      dup5\n        /* \"#utility.yul\":3887:3960   */\n      tag_150\n      jump\t// in\n    tag_161:\n        /* \"#utility.yul\":3192:3967   */\n      swap7\n      swap6\n      pop\n      pop\n      pop\n      pop\n      pop\n      pop\n      jump\t// out\n        /* \"#utility.yul\":3973:4392   */\n    tag_84:\n        /* \"#utility.yul\":4139:4143   */\n      0x00\n        /* \"#utility.yul\":4177:4179   */\n      0x20\n        /* \"#utility.yul\":4166:4175   */\n      dup3\n        /* \"#utility.yul\":4162:4180   */\n      add\n        /* \"#utility.yul\":4154:4180   */\n      swap1\n      pop\n        /* \"#utility.yul\":4226:4235   */\n      dup2\n        /* \"#utility.yul\":4220:4224   */\n      dup2\n        /* \"#utility.yul\":4216:4236   */\n      sub\n        /* \"#utility.yul\":4212:4213   */\n      0x00\n        /* \"#utility.yul\":4201:4210   */\n      dup4\n        /* \"#utility.yul\":4197:4214   */\n      add\n        /* \"#utility.yul\":4190:4237   */\n      mstore\n        /* \"#utility.yul\":4254:4385   */\n      tag_163\n        /* \"#utility.yul\":4380:4384   */\n      dup2\n        /* \"#utility.yul\":4254:4385   */\n      tag_135\n      jump\t// in\n    tag_163:\n        /* \"#utility.yul\":4246:4385   */\n      swap1\n      pop\n        /* \"#utility.yul\":3973:4392   */\n      swap2\n      swap1\n      pop\n      jump\t// out\n        /* \"#utility.yul\":4398:4817   */\n    tag_73:\n        /* \"#utility.yul\":4564:4568   */\n      0x00\n        /* \"#utility.yul\":4602:4604   */\n      0x20\n        /* \"#utility.yul\":4591:4600   */\n      dup3\n        /* \"#utility.yul\":4587:4605   */\n      add\n        /* \"#utility.yul\":4579:4605   */\n      swap1\n      pop\n        /* \"#utility.yul\":4651:4660   */\n      dup2\n        /* \"#utility.yul\":4645:4649   */\n      dup2\n        /* \"#utility.yul\":4641:4661   */\n      sub\n        /* \"#utility.yul\":4637:4638   */\n      0x00\n        /* \"#utility.yul\":4626:4635   */\n      dup4\n        /* \"#utility.yul\":4622:4639   */\n      add\n        /* \"#utility.yul\":4615:4662   */\n      mstore\n        /* \"#utility.yul\":4679:4810   */\n      tag_165\n        /* \"#utility.yul\":4805:4809   */\n      dup2\n        /* \"#utility.yul\":4679:4810   */\n      tag_140\n      jump\t// in\n    tag_165:\n        /* \"#utility.yul\":4671:4810   */\n      swap1\n      pop\n        /* \"#utility.yul\":4398:4817   */\n      swap2\n      swap1\n      pop\n      jump\t// out\n        /* \"#utility.yul\":4823:5242   */\n    tag_70:\n        /* \"#utility.yul\":4989:4993   */\n      0x00\n        /* \"#utility.yul\":5027:5029   */\n      0x20\n        /* \"#utility.yul\":5016:5025   */\n      dup3\n        /* \"#utility.yul\":5012:5030   */\n      add\n        /* \"#utility.yul\":5004:5030   */\n      swap1\n      pop\n        /* \"#utility.yul\":5076:5085   */\n      dup2\n        /* \"#utility.yul\":5070:5074   */\n      dup2\n        /* \"#utility.yul\":5066:5086   */\n      sub\n        /* \"#utility.yul\":5062:5063   */\n      0x00\n        /* \"#utility.yul\":5051:5060   */\n      dup4\n        /* \"#utility.yul\":5047:5064   */\n      add\n        /* \"#utility.yul\":5040:5087   */\n      mstore\n        /* \"#utility.yul\":5104:5235   */\n      tag_167\n        /* \"#utility.yul\":5230:5234   */\n      dup2\n        /* \"#utility.yul\":5104:5235   */\n      tag_145\n      jump\t// in\n    tag_167:\n        /* \"#utility.yul\":5096:5235   */\n      swap1\n      pop\n        /* \"#utility.yul\":4823:5242   */\n      swap2\n      swap1\n      pop\n      jump\t// out\n        /* \"#utility.yul\":5248:5470   */\n    tag_23:\n        /* \"#utility.yul\":5341:5345   */\n      0x00\n        /* \"#utility.yul\":5379:5381   */\n      0x20\n        /* \"#utility.yul\":5368:5377   */\n      dup3\n        /* \"#utility.yul\":5364:5382   */\n      add\n        /* \"#utility.yul\":5356:5382   */\n      swap1\n      pop\n        /* \"#utility.yul\":5392:5463   */\n      tag_169\n        /* \"#utility.yul\":5460:5461   */\n      0x00\n        /* \"#utility.yul\":5449:5458   */\n      dup4\n        /* \"#utility.yul\":5445:5462   */\n      add\n        /* \"#utility.yul\":5436:5442   */\n      dup5\n        /* \"#utility.yul\":5392:5463   */\n      tag_150\n      jump\t// in\n    tag_169:\n        /* \"#utility.yul\":5248:5470   */\n      swap3\n      swap2\n      pop\n      pop\n      jump\t// out\n        /* \"#utility.yul\":5557:5656   */\n    tag_128:\n        /* \"#utility.yul\":5609:5615   */\n      0x00\n        /* \"#utility.yul\":5643:5648   */\n      dup2\n        /* \"#utility.yul\":5637:5649   */\n      mload\n        /* \"#utility.yul\":5627:5649   */\n      swap1\n      pop\n        /* \"#utility.yul\":5557:5656   */\n      swap2\n      swap1\n      pop\n      jump\t// out\n        /* \"#utility.yul\":5662:5831   */\n    tag_130:\n        /* \"#utility.yul\":5746:5757   */\n      0x00\n        /* \"#utility.yul\":5780:5786   */\n      dup3\n        /* \"#utility.yul\":5775:5778   */\n      dup3\n        /* \"#utility.yul\":5768:5787   */\n      mstore\n        /* \"#utility.yul\":5820:5824   */\n      0x20\n        /* \"#utility.yul\":5815:5818   */\n      dup3\n        /* \"#utility.yul\":5811:5825   */\n      add\n        /* \"#utility.yul\":5796:5825   */\n      swap1\n      pop\n        /* \"#utility.yul\":5662:5831   */\n      swap3\n      swap2\n      pop\n      pop\n      jump\t// out\n        /* \"#utility.yul\":5837:6142   */\n    tag_78:\n        /* \"#utility.yul\":5877:5880   */\n      0x00\n        /* \"#utility.yul\":5896:5916   */\n      tag_175\n        /* \"#utility.yul\":5914:5915   */\n      dup3\n        /* \"#utility.yul\":5896:5916   */\n      tag_153\n      jump\t// in\n    tag_175:\n        /* \"#utility.yul\":5891:5916   */\n      swap2\n      pop\n        /* \"#utility.yul\":5930:5950   */\n      tag_176\n        /* \"#utility.yul\":5948:5949   */\n      dup4\n        /* \"#utility.yul\":5930:5950   */\n      tag_153\n      jump\t// in\n    tag_176:\n        /* \"#utility.yul\":5925:5950   */\n      swap3\n      pop\n        /* \"#utility.yul\":6084:6085   */\n      dup3\n        /* \"#utility.yul\":6016:6082   */\n      0xffffffffffffffffffffffffffffffffffffffffffffffffffffffffffffffff\n        /* \"#utility.yul\":6012:6086   */\n      sub\n        /* \"#utility.yul\":6009:6010   */\n      dup3\n        /* \"#utility.yul\":6006:6087   */\n      gt\n        /* \"#utility.yul\":6003:6110   */\n      iszero\n      tag_177\n      jumpi\n        /* \"#utility.yul\":6090:6108   */\n      tag_178\n      tag_179\n      jump\t// in\n    tag_178:\n        /* \"#utility.yul\":6003:6110   */\n    tag_177:\n        /* \"#utility.yul\":6134:6135   */\n      dup3\n        /* \"#utility.yul\":6131:6132   */\n      dup3\n        /* \"#utility.yul\":6127:6136   */\n      add\n        /* \"#utility.yul\":6120:6136   */\n      swap1\n      pop\n        /* \"#utility.yul\":5837:6142   */\n      swap3\n      swap2\n      pop\n      pop\n      jump\t// out\n        /* \"#utility.yul\":6148:6244   */\n    tag_120:\n        /* \"#utility.yul\":6185:6192   */\n      0x00\n        /* \"#utility.yul\":6214:6238   */\n      tag_181\n        /* \"#utility.yul\":6232:6237   */\n      dup3\n        /* \"#utility.yul\":6214:6238   */\n      tag_182\n      jump\t// in\n    tag_181:\n        /* \"#utility.yul\":6203:6238   */\n      swap1\n      pop\n        /* \"#utility.yul\":6148:6244   */\n      swap2\n      swap1\n      pop\n      jump\t// out\n        /* \"#utility.yul\":6250:6354   */\n    tag_116:\n        /* \"#utility.yul\":6295:6302   */\n      0x00\n        /* \"#utility.yul\":6324:6348   */\n      tag_184\n        /* \"#utility.yul\":6342:6347   */\n      dup3\n        /* \"#utility.yul\":6324:6348   */\n      tag_182\n      jump\t// in\n    tag_184:\n        /* \"#utility.yul\":6313:6348   */\n      swap1\n      pop\n        /* \"#utility.yul\":6250:6354   */\n      swap2\n      swap1\n      pop\n      jump\t// out\n        /* \"#utility.yul\":6360:6450   */\n    tag_124:\n        /* \"#utility.yul\":6394:6401   */\n      0x00\n        /* \"#utility.yul\":6437:6442   */\n      dup2\n        /* \"#utility.yul\":6430:6443   */\n      iszero\n        /* \"#utility.yul\":6423:6444   */\n      iszero\n        /* \"#utility.yul\":6412:6444   */\n      swap1\n      pop\n        /* \"#utility.yul\":6360:6450   */\n      swap2\n      swap1\n      pop\n      jump\t// out\n        /* \"#utility.yul\":6456:6582   */\n    tag_182:\n        /* \"#utility.yul\":6493:6500   */\n      0x00\n        /* \"#utility.yul\":6533:6575   */\n      0xffffffffffffffffffffffffffffffffffffffff\n        /* \"#utility.yul\":6526:6531   */\n      dup3\n        /* \"#utility.yul\":6522:6576   */\n      and\n        /* \"#utility.yul\":6511:6576   */\n      swap1\n      pop\n        /* \"#utility.yul\":6456:6582   */\n      swap2\n      swap1\n      pop\n      jump\t// out\n        /* \"#utility.yul\":6588:6665   */\n    tag_153:\n        /* \"#utility.yul\":6625:6632   */\n      0x00\n        /* \"#utility.yul\":6654:6659   */\n      dup2\n        /* \"#utility.yul\":6643:6659   */\n      swap1\n      pop\n        /* \"#utility.yul\":6588:6665   */\n      swap2\n      swap1\n      pop\n      jump\t// out\n        /* \"#utility.yul\":6671:6978   */\n    tag_132:\n        /* \"#utility.yul\":6739:6740   */\n      0x00\n        /* \"#utility.yul\":6749:6862   */\n    tag_189:\n        /* \"#utility.yul\":6763:6769   */\n      dup4\n        /* \"#utility.yul\":6760:6761   */\n      dup2\n        /* \"#utility.yul\":6757:6770   */\n      lt\n        /* \"#utility.yul\":6749:6862   */\n      iszero\n      tag_191\n      jumpi\n        /* \"#utility.yul\":6848:6849   */\n      dup1\n        /* \"#utility.yul\":6843:6846   */\n      dup3\n        /* \"#utility.yul\":6839:6850   */\n      add\n        /* \"#utility.yul\":6833:6851   */\n      mload\n        /* \"#utility.yul\":6829:6830   */\n      dup2\n        /* \"#utility.yul\":6824:6827   */\n      dup5\n        /* \"#utility.yul\":6820:6831   */\n      add\n        /* \"#utility.yul\":6813:6852   */\n      mstore\n        /* \"#utility.yul\":6785:6787   */\n      0x20\n        /* \"#utility.yul\":6782:6783   */\n      dup2\n        /* \"#utility.yul\":6778:6788   */\n      add\n        /* \"#utility.yul\":6773:6788   */\n      swap1\n      pop\n        /* \"#utility.yul\":6749:6862   */\n      jump(tag_189)\n    tag_191:\n        /* \"#utility.yul\":6880:6886   */\n      dup4\n        /* \"#utility.yul\":6877:6878   */\n      dup2\n        /* \"#utility.yul\":6874:6887   */\n      gt\n        /* \"#utility.yul\":6871:6972   */\n      iszero\n      tag_192\n      jumpi\n        /* \"#utility.yul\":6960:6961   */\n      0x00\n        /* \"#utility.yul\":6951:6957   */\n      dup5\n        /* \"#utility.yul\":6946:6949   */\n      dup5\n        /* \"#utility.yul\":6942:6958   */\n      add\n        /* \"#utility.yul\":6935:6962   */\n      mstore\n        /* \"#utility.yul\":6871:6972   */\n    tag_192:\n        /* \"#utility.yul\":6720:6978   */\n      pop\n        /* \"#utility.yul\":6671:6978   */\n      pop\n      pop\n      pop\n      jump\t// out\n        /* \"#utility.yul\":6984:7304   */\n    tag_90:\n        /* \"#utility.yul\":7028:7034   */\n      0x00\n        /* \"#utility.yul\":7065:7066   */\n      0x02\n        /* \"#utility.yul\":7059:7063   */\n      dup3\n        /* \"#utility.yul\":7055:7067   */\n      div\n        /* \"#utility.yul\":7045:7067   */\n      swap1\n      pop\n        /* \"#utility.yul\":7112:7113   */\n      0x01\n        /* \"#utility.yul\":7106:7110   */\n      dup3\n        /* \"#utility.yul\":7102:7114   */\n      and\n        /* \"#utility.yul\":7133:7151   */\n      dup1\n        /* \"#utility.yul\":7123:7204   */\n      tag_194\n      jumpi\n        /* \"#utility.yul\":7189:7193   */\n      0x7f\n        /* \"#utility.yul\":7181:7187   */\n      dup3\n        /* \"#utility.yul\":7177:7194   */\n      and\n        /* \"#utility.yul\":7167:7194   */\n      swap2\n      pop\n        /* \"#utility.yul\":7123:7204   */\n    tag_194:\n        /* \"#utility.yul\":7251:7253   */\n      0x20\n        /* \"#utility.yul\":7243:7249   */\n      dup3\n        /* \"#utility.yul\":7240:7254   */\n      lt\n        /* \"#utility.yul\":7220:7238   */\n      dup2\n        /* \"#utility.yul\":7217:7255   */\n      eq\n        /* \"#utility.yul\":7214:7298   */\n      iszero\n      tag_195\n      jumpi\n        /* \"#utility.yul\":7270:7288   */\n      tag_196\n      tag_197\n      jump\t// in\n    tag_196:\n        /* \"#utility.yul\":7214:7298   */\n    tag_195:\n        /* \"#utility.yul\":7035:7304   */\n      pop\n        /* \"#utility.yul\":6984:7304   */\n      swap2\n      swap1\n      pop\n      jump\t// out\n        /* \"#utility.yul\":7310:7543   */\n    tag_76:\n        /* \"#utility.yul\":7349:7352   */\n      0x00\n        /* \"#utility.yul\":7372:7396   */\n      tag_199\n        /* \"#utility.yul\":7390:7395   */\n      dup3\n        /* \"#utility.yul\":7372:7396   */\n      tag_153\n      jump\t// in\n    tag_199:\n        /* \"#utility.yul\":7363:7396   */\n      swap2\n      pop\n        /* \"#utility.yul\":7418:7484   */\n      0xffffffffffffffffffffffffffffffffffffffffffffffffffffffffffffffff\n        /* \"#utility.yul\":7411:7416   */\n      dup3\n        /* \"#utility.yul\":7408:7485   */\n      eq\n        /* \"#utility.yul\":7405:7508   */\n      iszero\n      tag_200\n      jumpi\n        /* \"#utility.yul\":7488:7506   */\n      tag_201\n      tag_179\n      jump\t// in\n    tag_201:\n        /* \"#utility.yul\":7405:7508   */\n    tag_200:\n        /* \"#utility.yul\":7535:7536   */\n      0x01\n        /* \"#utility.yul\":7528:7533   */\n      dup3\n        /* \"#utility.yul\":7524:7537   */\n      add\n        /* \"#utility.yul\":7517:7537   */\n      swap1\n      pop\n        /* \"#utility.yul\":7310:7543   */\n      swap2\n      swap1\n      pop\n      jump\t// out\n        /* \"#utility.yul\":7549:7729   */\n    tag_179:\n        /* \"#utility.yul\":7597:7674   */\n      0x4e487b7100000000000000000000000000000000000000000000000000000000\n        /* \"#utility.yul\":7594:7595   */\n      0x00\n        /* \"#utility.yul\":7587:7675   */\n      mstore\n        /* \"#utility.yul\":7694:7698   */\n      0x11\n        /* \"#utility.yul\":7691:7692   */\n      0x04\n        /* \"#utility.yul\":7684:7699   */\n      mstore\n        /* \"#utility.yul\":7718:7722   */\n      0x24\n        /* \"#utility.yul\":7715:7716   */\n      0x00\n        /* \"#utility.yul\":7708:7723   */\n      revert\n        /* \"#utility.yul\":7735:7915   */\n    tag_197:\n        /* \"#utility.yul\":7783:7860   */\n      0x4e487b7100000000000000000000000000000000000000000000000000000000\n        /* \"#utility.yul\":7780:7781   */\n      0x00\n        /* \"#utility.yul\":7773:7861   */\n      mstore\n        /* \"#utility.yul\":7880:7884   */\n      0x22\n        /* \"#utility.yul\":7877:7878   */\n      0x04\n        /* \"#utility.yul\":7870:7885   */\n      mstore\n        /* \"#utility.yul\":7904:7908   */\n      0x24\n        /* \"#utility.yul\":7901:7902   */\n      0x00\n        /* \"#utility.yul\":7894:7909   */\n      revert\n        /* \"#utility.yul\":8044:8161   */\n    tag_107:\n        /* \"#utility.yul\":8153:8154   */\n      0x00\n        /* \"#utility.yul\":8150:8151   */\n      dup1\n        /* \"#utility.yul\":8143:8155   */\n      revert\n        /* \"#utility.yul\":8167:8269   */\n    tag_134:\n        /* \"#utility.yul\":8208:8214   */\n      0x00\n        /* \"#utility.yul\":8259:8261   */\n      0x1f\n        /* \"#utility.yul\":8255:8262   */\n      not\n        /* \"#utility.yul\":8250:8252   */\n      0x1f\n        /* \"#utility.yul\":8243:8248   */\n      dup4\n        /* \"#utility.yul\":8239:8253   */\n      add\n        /* \"#utility.yul\":8235:8263   */\n      and\n        /* \"#utility.yul\":8225:8263   */\n      swap1\n      pop\n        /* \"#utility.yul\":8167:8269   */\n      swap2\n      swap1\n      pop\n      jump\t// out\n        /* \"#utility.yul\":8275:8456   */\n    tag_139:\n        /* \"#utility.yul\":8415:8448   */\n      0x596f7520617265206e6f7420656c656769626c6520666f7220726566756e6400\n        /* \"#utility.yul\":8411:8412   */\n      0x00\n        /* \"#utility.yul\":8403:8409   */\n      dup3\n        /* \"#utility.yul\":8399:8413   */\n      add\n        /* \"#utility.yul\":8392:8449   */\n      mstore\n        /* \"#utility.yul\":8275:8456   */\n      pop\n      jump\t// out\n        /* \"#utility.yul\":8462:8644   */\n    tag_144:\n        /* \"#utility.yul\":8602:8636   */\n      0x4d696e696d756d20636f6e747269627574696f6e206973206e6f74206d65742e\n        /* \"#utility.yul\":8598:8599   */\n      0x00\n        /* \"#utility.yul\":8590:8596   */\n      dup3\n        /* \"#utility.yul\":8586:8600   */\n      add\n        /* \"#utility.yul\":8579:8637   */\n      mstore\n        /* \"#utility.yul\":8462:8644   */\n      pop\n      jump\t// out\n        /* \"#utility.yul\":8650:8829   */\n    tag_149:\n        /* \"#utility.yul\":8790:8821   */\n      0x446561646c696e652068617320616c7265616479207265616368656421000000\n        /* \"#utility.yul\":8786:8787   */\n      0x00\n        /* \"#utility.yul\":8778:8784   */\n      dup3\n        /* \"#utility.yul\":8774:8788   */\n      add\n        /* \"#utility.yul\":8767:8822   */\n      mstore\n        /* \"#utility.yul\":8650:8829   */\n      pop\n      jump\t// out\n        /* \"#utility.yul\":8835:8957   */\n    tag_99:\n        /* \"#utility.yul\":8908:8932   */\n      tag_212\n        /* \"#utility.yul\":8926:8931   */\n      dup2\n        /* \"#utility.yul\":8908:8932   */\n      tag_120\n      jump\t// in\n    tag_212:\n        /* \"#utility.yul\":8901:8906   */\n      dup2\n        /* \"#utility.yul\":8898:8933   */\n      eq\n        /* \"#utility.yul\":8888:8951   */\n      tag_213\n      jumpi\n        /* \"#utility.yul\":8947:8948   */\n      0x00\n        /* \"#utility.yul\":8944:8945   */\n      dup1\n        /* \"#utility.yul\":8937:8949   */\n      revert\n        /* \"#utility.yul\":8888:8951   */\n    tag_213:\n        /* \"#utility.yul\":8835:8957   */\n      pop\n      jump\t// out\n        /* \"#utility.yul\":8963:9085   */\n    tag_103:\n        /* \"#utility.yul\":9036:9060   */\n      tag_215\n        /* \"#utility.yul\":9054:9059   */\n      dup2\n        /* \"#utility.yul\":9036:9060   */\n      tag_153\n      jump\t// in\n    tag_215:\n        /* \"#utility.yul\":9029:9034   */\n      dup2\n        /* \"#utility.yul\":9026:9061   */\n      eq\n        /* \"#utility.yul\":9016:9079   */\n      tag_216\n      jumpi\n        /* \"#utility.yul\":9075:9076   */\n      0x00\n        /* \"#utility.yul\":9072:9073   */\n      dup1\n        /* \"#utility.yul\":9065:9077   */\n      revert\n        /* \"#utility.yul\":9016:9079   */\n    tag_216:\n        /* \"#utility.yul\":8963:9085   */\n      pop\n      jump\t// out\n\n    auxdata: 0xa26469706673582212209442e0fe7427bbe86533ee86bb2d0d810b41e0371728fccc7bc118e993c9fb4964736f6c63430008070033\n}\n",
				"bytecode": {
					"linkReferences": {},
					"object": "60806040523480156200001157600080fd5b5060405162000da538038062000da58339818101604052810190620000379190620000ba565b8160048190555080426200004c919062000101565b600381905550606460028190555033600160006101000a81548173ffffffffffffffffffffffffffffffffffffffff021916908373ffffffffffffffffffffffffffffffffffffffff1602179055505050620001b6565b600081519050620000b4816200019c565b92915050565b60008060408385031215620000d457620000d362000197565b5b6000620000e485828601620000a3565b9250506020620000f785828601620000a3565b9150509250929050565b60006200010e826200015e565b91506200011b836200015e565b9250827fffffffffffffffffffffffffffffffffffffffffffffffffffffffffffffffff0382111562000153576200015262000168565b5b828201905092915050565b6000819050919050565b7f4e487b7100000000000000000000000000000000000000000000000000000000600052601160045260246000fd5b600080fd5b620001a7816200015e565b8114620001b357600080fd5b50565b610bdf80620001c66000396000f3fe6080604052600436106100a75760003560e01c80636f9fb98a116100645780636f9fb98a1461018b57806381d12c58146101b6578063937e09b1146101f75780639fb42b1f14610222578063c59ee1dc1461024d578063d4b8399214610278576100a7565b806306e99fef146100ac5780631f6d4942146100b657806329dcb0cf146100f3578063481c6a751461011e5780634e260f6f14610149578063590e1ae314610174575b600080fd5b6100b46102a3565b005b3480156100c257600080fd5b506100dd60048036038101906100d891906106ea565b6103fc565b6040516100ea91906108f7565b60405180910390f35b3480156100ff57600080fd5b50610108610414565b60405161011591906108f7565b60405180910390f35b34801561012a57600080fd5b5061013361041a565b6040516101409190610822565b60405180910390f35b34801561015557600080fd5b5061015e610440565b60405161016b91906108f7565b60405180910390f35b34801561018057600080fd5b50610189610446565b005b34801561019757600080fd5b506101a06105b5565b6040516101ad91906108f7565b60405180910390f35b3480156101c257600080fd5b506101dd60048036038101906101d89190610717565b6105bd565b6040516101ee95949392919061083d565b60405180910390f35b34801561020357600080fd5b5061020c6106a8565b60405161021991906108f7565b60405180910390f35b34801561022e57600080fd5b506102376106ae565b60405161024491906108f7565b60405180910390f35b34801561025957600080fd5b506102626106b4565b60405161026f91906108f7565b60405180910390f35b34801561028457600080fd5b5061028d6106ba565b60405161029a91906108f7565b60405180910390f35b60035442106102e7576040517f08c379a00000000000000000000000000000000000000000000000000000000081526004016102de906108d7565b60405180910390fd5b60025434101561032c576040517f08c379a0000000000000000000000000000000000000000000000000000000008152600401610323906108b7565b60405180910390fd5b60008060003373ffffffffffffffffffffffffffffffffffffffff1673ffffffffffffffffffffffffffffffffffffffff16815260200190815260200160002054141561038c576006600081548092919061038690610a43565b91905055505b346000803373ffffffffffffffffffffffffffffffffffffffff1673ffffffffffffffffffffffffffffffffffffffff16815260200190815260200160002060008282546103da919061092e565b9250508190555034600560008282546103f3919061092e565b92505081905550565b60006020528060005260406000206000915090505481565b60035481565b600160009054906101000a900473ffffffffffffffffffffffffffffffffffffffff1681565b60065481565b6003544211801561045a5750600454600554105b610499576040517f08c379a000000000000000000000000000000000000000000000000000000000815260040161049090610897565b60405180910390fd5b60008060003373ffffffffffffffffffffffffffffffffffffffff1673ffffffffffffffffffffffffffffffffffffffff16815260200190815260200160002054116104e457600080fd5b60003390508073ffffffffffffffffffffffffffffffffffffffff166108fc6000803373ffffffffffffffffffffffffffffffffffffffff1673ffffffffffffffffffffffffffffffffffffffff168152602001908152602001600020549081150290604051600060405180830381858888f1935050505015801561056d573d6000803e3d6000fd5b5060008060003373ffffffffffffffffffffffffffffffffffffffff1673ffffffffffffffffffffffffffffffffffffffff1681526020019081526020016000208190555050565b600047905090565b60076020528060005260406000206000915090508060000180546105e090610a11565b80601f016020809104026020016040519081016040528092919081815260200182805461060c90610a11565b80156106595780601f1061062e57610100808354040283529160200191610659565b820191906000526020600020905b81548152906001019060200180831161063c57829003601f168201915b5050505050908060010160009054906101000a900473ffffffffffffffffffffffffffffffffffffffff16908060020154908060030160009054906101000a900460ff16908060040154905085565b60025481565b60085481565b60055481565b60045481565b6000813590506106cf81610b7b565b92915050565b6000813590506106e481610b92565b92915050565b600060208284031215610700576106ff610aea565b5b600061070e848285016106c0565b91505092915050565b60006020828403121561072d5761072c610aea565b5b600061073b848285016106d5565b91505092915050565b61074d81610996565b82525050565b61075c81610984565b82525050565b61076b816109a8565b82525050565b600061077c82610912565b610786818561091d565b93506107968185602086016109de565b61079f81610aef565b840191505092915050565b60006107b7601f8361091d565b91506107c282610b00565b602082019050919050565b60006107da60208361091d565b91506107e582610b29565b602082019050919050565b60006107fd601d8361091d565b915061080882610b52565b602082019050919050565b61081c816109d4565b82525050565b60006020820190506108376000830184610753565b92915050565b600060a08201905081810360008301526108578188610771565b90506108666020830187610744565b6108736040830186610813565b6108806060830185610762565b61088d6080830184610813565b9695505050505050565b600060208201905081810360008301526108b0816107aa565b9050919050565b600060208201905081810360008301526108d0816107cd565b9050919050565b600060208201905081810360008301526108f0816107f0565b9050919050565b600060208201905061090c6000830184610813565b92915050565b600081519050919050565b600082825260208201905092915050565b6000610939826109d4565b9150610944836109d4565b9250827fffffffffffffffffffffffffffffffffffffffffffffffffffffffffffffffff0382111561097957610978610a8c565b5b828201905092915050565b600061098f826109b4565b9050919050565b60006109a1826109b4565b9050919050565b60008115159050919050565b600073ffffffffffffffffffffffffffffffffffffffff82169050919050565b6000819050919050565b60005b838110156109fc5780820151818401526020810190506109e1565b83811115610a0b576000848401525b50505050565b60006002820490506001821680610a2957607f821691505b60208210811415610a3d57610a3c610abb565b5b50919050565b6000610a4e826109d4565b91507fffffffffffffffffffffffffffffffffffffffffffffffffffffffffffffffff821415610a8157610a80610a8c565b5b600182019050919050565b7f4e487b7100000000000000000000000000000000000000000000000000000000600052601160045260246000fd5b7f4e487b7100000000000000000000000000000000000000000000000000000000600052602260045260246000fd5b600080fd5b6000601f19601f8301169050919050565b7f596f7520617265206e6f7420656c656769626c6520666f7220726566756e6400600082015250565b7f4d696e696d756d20636f6e747269627574696f6e206973206e6f74206d65742e600082015250565b7f446561646c696e652068617320616c7265616479207265616368656421000000600082015250565b610b8481610984565b8114610b8f57600080fd5b50565b610b9b816109d4565b8114610ba657600080fd5b5056fea26469706673582212209442e0fe7427bbe86533ee86bb2d0d810b41e0371728fccc7bc118e993c9fb4964736f6c63430008070033",
					"opcodes": "PUSH1 0x80 PUSH1 0x40 MSTORE CALLVALUE DUP1 ISZERO PUSH3 0x11 JUMPI PUSH1 0x0 DUP1 REVERT JUMPDEST POP PUSH1 0x40 MLOAD PUSH3 0xDA5 CODESIZE SUB DUP1 PUSH3 0xDA5 DUP4 CODECOPY DUP2 DUP2 ADD PUSH1 0x40 MSTORE DUP2 ADD SWAP1 PUSH3 0x37 SWAP2 SWAP1 PUSH3 0xBA JUMP JUMPDEST DUP2 PUSH1 0x4 DUP2 SWAP1 SSTORE POP DUP1 TIMESTAMP PUSH3 0x4C SWAP2 SWAP1 PUSH3 0x101 JUMP JUMPDEST PUSH1 0x3 DUP2 SWAP1 SSTORE POP PUSH1 0x64 PUSH1 0x2 DUP2 SWAP1 SSTORE POP CALLER PUSH1 0x1 PUSH1 0x0 PUSH2 0x100 EXP DUP2 SLOAD DUP2 PUSH20 0xFFFFFFFFFFFFFFFFFFFFFFFFFFFFFFFFFFFFFFFF MUL NOT AND SWAP1 DUP4 PUSH20 0xFFFFFFFFFFFFFFFFFFFFFFFFFFFFFFFFFFFFFFFF AND MUL OR SWAP1 SSTORE POP POP POP PUSH3 0x1B6 JUMP JUMPDEST PUSH1 0x0 DUP2 MLOAD SWAP1 POP PUSH3 0xB4 DUP2 PUSH3 0x19C JUMP JUMPDEST SWAP3 SWAP2 POP POP JUMP JUMPDEST PUSH1 0x0 DUP1 PUSH1 0x40 DUP4 DUP6 SUB SLT ISZERO PUSH3 0xD4 JUMPI PUSH3 0xD3 PUSH3 0x197 JUMP JUMPDEST JUMPDEST PUSH1 0x0 PUSH3 0xE4 DUP6 DUP3 DUP7 ADD PUSH3 0xA3 JUMP JUMPDEST SWAP3 POP POP PUSH1 0x20 PUSH3 0xF7 DUP6 DUP3 DUP7 ADD PUSH3 0xA3 JUMP JUMPDEST SWAP2 POP POP SWAP3 POP SWAP3 SWAP1 POP JUMP JUMPDEST PUSH1 0x0 PUSH3 0x10E DUP3 PUSH3 0x15E JUMP JUMPDEST SWAP2 POP PUSH3 0x11B DUP4 PUSH3 0x15E JUMP JUMPDEST SWAP3 POP DUP3 PUSH32 0xFFFFFFFFFFFFFFFFFFFFFFFFFFFFFFFFFFFFFFFFFFFFFFFFFFFFFFFFFFFFFFFF SUB DUP3 GT ISZERO PUSH3 0x153 JUMPI PUSH3 0x152 PUSH3 0x168 JUMP JUMPDEST JUMPDEST DUP3 DUP3 ADD SWAP1 POP SWAP3 SWAP2 POP POP JUMP JUMPDEST PUSH1 0x0 DUP2 SWAP1 POP SWAP2 SWAP1 POP JUMP JUMPDEST PUSH32 0x4E487B7100000000000000000000000000000000000000000000000000000000 PUSH1 0x0 MSTORE PUSH1 0x11 PUSH1 0x4 MSTORE PUSH1 0x24 PUSH1 0x0 REVERT JUMPDEST PUSH1 0x0 DUP1 REVERT JUMPDEST PUSH3 0x1A7 DUP2 PUSH3 0x15E JUMP JUMPDEST DUP2 EQ PUSH3 0x1B3 JUMPI PUSH1 0x0 DUP1 REVERT JUMPDEST POP JUMP JUMPDEST PUSH2 0xBDF DUP1 PUSH3 0x1C6 PUSH1 0x0 CODECOPY PUSH1 0x0 RETURN INVALID PUSH1 0x80 PUSH1 0x40 MSTORE PUSH1 0x4 CALLDATASIZE LT PUSH2 0xA7 JUMPI PUSH1 0x0 CALLDATALOAD PUSH1 0xE0 SHR DUP1 PUSH4 0x6F9FB98A GT PUSH2 0x64 JUMPI DUP1 PUSH4 0x6F9FB98A EQ PUSH2 0x18B JUMPI DUP1 PUSH4 0x81D12C58 EQ PUSH2 0x1B6 JUMPI DUP1 PUSH4 0x937E09B1 EQ PUSH2 0x1F7 JUMPI DUP1 PUSH4 0x9FB42B1F EQ PUSH2 0x222 JUMPI DUP1 PUSH4 0xC59EE1DC EQ PUSH2 0x24D JUMPI DUP1 PUSH4 0xD4B83992 EQ PUSH2 0x278 JUMPI PUSH2 0xA7 JUMP JUMPDEST DUP1 PUSH4 0x6E99FEF EQ PUSH2 0xAC JUMPI DUP1 PUSH4 0x1F6D4942 EQ PUSH2 0xB6 JUMPI DUP1 PUSH4 0x29DCB0CF EQ PUSH2 0xF3 JUMPI DUP1 PUSH4 0x481C6A75 EQ PUSH2 0x11E JUMPI DUP1 PUSH4 0x4E260F6F EQ PUSH2 0x149 JUMPI DUP1 PUSH4 0x590E1AE3 EQ PUSH2 0x174 JUMPI JUMPDEST PUSH1 0x0 DUP1 REVERT JUMPDEST PUSH2 0xB4 PUSH2 0x2A3 JUMP JUMPDEST STOP JUMPDEST CALLVALUE DUP1 ISZERO PUSH2 0xC2 JUMPI PUSH1 0x0 DUP1 REVERT JUMPDEST POP PUSH2 0xDD PUSH1 0x4 DUP1 CALLDATASIZE SUB DUP2 ADD SWAP1 PUSH2 0xD8 SWAP2 SWAP1 PUSH2 0x6EA JUMP JUMPDEST PUSH2 0x3FC JUMP JUMPDEST PUSH1 0x40 MLOAD PUSH2 0xEA SWAP2 SWAP1 PUSH2 0x8F7 JUMP JUMPDEST PUSH1 0x40 MLOAD DUP1 SWAP2 SUB SWAP1 RETURN JUMPDEST CALLVALUE DUP1 ISZERO PUSH2 0xFF JUMPI PUSH1 0x0 DUP1 REVERT JUMPDEST POP PUSH2 0x108 PUSH2 0x414 JUMP JUMPDEST PUSH1 0x40 MLOAD PUSH2 0x115 SWAP2 SWAP1 PUSH2 0x8F7 JUMP JUMPDEST PUSH1 0x40 MLOAD DUP1 SWAP2 SUB SWAP1 RETURN JUMPDEST CALLVALUE DUP1 ISZERO PUSH2 0x12A JUMPI PUSH1 0x0 DUP1 REVERT JUMPDEST POP PUSH2 0x133 PUSH2 0x41A JUMP JUMPDEST PUSH1 0x40 MLOAD PUSH2 0x140 SWAP2 SWAP1 PUSH2 0x822 JUMP JUMPDEST PUSH1 0x40 MLOAD DUP1 SWAP2 SUB SWAP1 RETURN JUMPDEST CALLVALUE DUP1 ISZERO PUSH2 0x155 JUMPI PUSH1 0x0 DUP1 REVERT JUMPDEST POP PUSH2 0x15E PUSH2 0x440 JUMP JUMPDEST PUSH1 0x40 MLOAD PUSH2 0x16B SWAP2 SWAP1 PUSH2 0x8F7 JUMP JUMPDEST PUSH1 0x40 MLOAD DUP1 SWAP2 SUB SWAP1 RETURN JUMPDEST CALLVALUE DUP1 ISZERO PUSH2 0x180 JUMPI PUSH1 0x0 DUP1 REVERT JUMPDEST POP PUSH2 0x189 PUSH2 0x446 JUMP JUMPDEST STOP JUMPDEST CALLVALUE DUP1 ISZERO PUSH2 0x197 JUMPI PUSH1 0x0 DUP1 REVERT JUMPDEST POP PUSH2 0x1A0 PUSH2 0x5B5 JUMP JUMPDEST PUSH1 0x40 MLOAD PUSH2 0x1AD SWAP2 SWAP1 PUSH2 0x8F7 JUMP JUMPDEST PUSH1 0x40 MLOAD DUP1 SWAP2 SUB SWAP1 RETURN JUMPDEST CALLVALUE DUP1 ISZERO PUSH2 0x1C2 JUMPI PUSH1 0x0 DUP1 REVERT JUMPDEST POP PUSH2 0x1DD PUSH1 0x4 DUP1 CALLDATASIZE SUB DUP2 ADD SWAP1 PUSH2 0x1D8 SWAP2 SWAP1 PUSH2 0x717 JUMP JUMPDEST PUSH2 0x5BD JUMP JUMPDEST PUSH1 0x40 MLOAD PUSH2 0x1EE SWAP6 SWAP5 SWAP4 SWAP3 SWAP2 SWAP1 PUSH2 0x83D JUMP JUMPDEST PUSH1 0x40 MLOAD DUP1 SWAP2 SUB SWAP1 RETURN JUMPDEST CALLVALUE DUP1 ISZERO PUSH2 0x203 JUMPI PUSH1 0x0 DUP1 REVERT JUMPDEST POP PUSH2 0x20C PUSH2 0x6A8 JUMP JUMPDEST PUSH1 0x40 MLOAD PUSH2 0x219 SWAP2 SWAP1 PUSH2 0x8F7 JUMP JUMPDEST PUSH1 0x40 MLOAD DUP1 SWAP2 SUB SWAP1 RETURN JUMPDEST CALLVALUE DUP1 ISZERO PUSH2 0x22E JUMPI PUSH1 0x0 DUP1 REVERT JUMPDEST POP PUSH2 0x237 PUSH2 0x6AE JUMP JUMPDEST PUSH1 0x40 MLOAD PUSH2 0x244 SWAP2 SWAP1 PUSH2 0x8F7 JUMP JUMPDEST PUSH1 0x40 MLOAD DUP1 SWAP2 SUB SWAP1 RETURN JUMPDEST CALLVALUE DUP1 ISZERO PUSH2 0x259 JUMPI PUSH1 0x0 DUP1 REVERT JUMPDEST POP PUSH2 0x262 PUSH2 0x6B4 JUMP JUMPDEST PUSH1 0x40 MLOAD PUSH2 0x26F SWAP2 SWAP1 PUSH2 0x8F7 JUMP JUMPDEST PUSH1 0x40 MLOAD DUP1 SWAP2 SUB SWAP1 RETURN JUMPDEST CALLVALUE DUP1 ISZERO PUSH2 0x284 JUMPI PUSH1 0x0 DUP1 REVERT JUMPDEST POP PUSH2 0x28D PUSH2 0x6BA JUMP JUMPDEST PUSH1 0x40 MLOAD PUSH2 0x29A SWAP2 SWAP1 PUSH2 0x8F7 JUMP JUMPDEST PUSH1 0x40 MLOAD DUP1 SWAP2 SUB SWAP1 RETURN JUMPDEST PUSH1 0x3 SLOAD TIMESTAMP LT PUSH2 0x2E7 JUMPI PUSH1 0x40 MLOAD PUSH32 0x8C379A000000000000000000000000000000000000000000000000000000000 DUP2 MSTORE PUSH1 0x4 ADD PUSH2 0x2DE SWAP1 PUSH2 0x8D7 JUMP JUMPDEST PUSH1 0x40 MLOAD DUP1 SWAP2 SUB SWAP1 REVERT JUMPDEST PUSH1 0x2 SLOAD CALLVALUE LT ISZERO PUSH2 0x32C JUMPI PUSH1 0x40 MLOAD PUSH32 0x8C379A000000000000000000000000000000000000000000000000000000000 DUP2 MSTORE PUSH1 0x4 ADD PUSH2 0x323 SWAP1 PUSH2 0x8B7 JUMP JUMPDEST PUSH1 0x40 MLOAD DUP1 SWAP2 SUB SWAP1 REVERT JUMPDEST PUSH1 0x0 DUP1 PUSH1 0x0 CALLER PUSH20 0xFFFFFFFFFFFFFFFFFFFFFFFFFFFFFFFFFFFFFFFF AND PUSH20 0xFFFFFFFFFFFFFFFFFFFFFFFFFFFFFFFFFFFFFFFF AND DUP2 MSTORE PUSH1 0x20 ADD SWAP1 DUP2 MSTORE PUSH1 0x20 ADD PUSH1 0x0 KECCAK256 SLOAD EQ ISZERO PUSH2 0x38C JUMPI PUSH1 0x6 PUSH1 0x0 DUP2 SLOAD DUP1 SWAP3 SWAP2 SWAP1 PUSH2 0x386 SWAP1 PUSH2 0xA43 JUMP JUMPDEST SWAP2 SWAP1 POP SSTORE POP JUMPDEST CALLVALUE PUSH1 0x0 DUP1 CALLER PUSH20 0xFFFFFFFFFFFFFFFFFFFFFFFFFFFFFFFFFFFFFFFF AND PUSH20 0xFFFFFFFFFFFFFFFFFFFFFFFFFFFFFFFFFFFFFFFF AND DUP2 MSTORE PUSH1 0x20 ADD SWAP1 DUP2 MSTORE PUSH1 0x20 ADD PUSH1 0x0 KECCAK256 PUSH1 0x0 DUP3 DUP3 SLOAD PUSH2 0x3DA SWAP2 SWAP1 PUSH2 0x92E JUMP JUMPDEST SWAP3 POP POP DUP2 SWAP1 SSTORE POP CALLVALUE PUSH1 0x5 PUSH1 0x0 DUP3 DUP3 SLOAD PUSH2 0x3F3 SWAP2 SWAP1 PUSH2 0x92E JUMP JUMPDEST SWAP3 POP POP DUP2 SWAP1 SSTORE POP JUMP JUMPDEST PUSH1 0x0 PUSH1 0x20 MSTORE DUP1 PUSH1 0x0 MSTORE PUSH1 0x40 PUSH1 0x0 KECCAK256 PUSH1 0x0 SWAP2 POP SWAP1 POP SLOAD DUP2 JUMP JUMPDEST PUSH1 0x3 SLOAD DUP2 JUMP JUMPDEST PUSH1 0x1 PUSH1 0x0 SWAP1 SLOAD SWAP1 PUSH2 0x100 EXP SWAP1 DIV PUSH20 0xFFFFFFFFFFFFFFFFFFFFFFFFFFFFFFFFFFFFFFFF AND DUP2 JUMP JUMPDEST PUSH1 0x6 SLOAD DUP2 JUMP JUMPDEST PUSH1 0x3 SLOAD TIMESTAMP GT DUP1 ISZERO PUSH2 0x45A JUMPI POP PUSH1 0x4 SLOAD PUSH1 0x5 SLOAD LT JUMPDEST PUSH2 0x499 JUMPI PUSH1 0x40 MLOAD PUSH32 0x8C379A000000000000000000000000000000000000000000000000000000000 DUP2 MSTORE PUSH1 0x4 ADD PUSH2 0x490 SWAP1 PUSH2 0x897 JUMP JUMPDEST PUSH1 0x40 MLOAD DUP1 SWAP2 SUB SWAP1 REVERT JUMPDEST PUSH1 0x0 DUP1 PUSH1 0x0 CALLER PUSH20 0xFFFFFFFFFFFFFFFFFFFFFFFFFFFFFFFFFFFFFFFF AND PUSH20 0xFFFFFFFFFFFFFFFFFFFFFFFFFFFFFFFFFFFFFFFF AND DUP2 MSTORE PUSH1 0x20 ADD SWAP1 DUP2 MSTORE PUSH1 0x20 ADD PUSH1 0x0 KECCAK256 SLOAD GT PUSH2 0x4E4 JUMPI PUSH1 0x0 DUP1 REVERT JUMPDEST PUSH1 0x0 CALLER SWAP1 POP DUP1 PUSH20 0xFFFFFFFFFFFFFFFFFFFFFFFFFFFFFFFFFFFFFFFF AND PUSH2 0x8FC PUSH1 0x0 DUP1 CALLER PUSH20 0xFFFFFFFFFFFFFFFFFFFFFFFFFFFFFFFFFFFFFFFF AND PUSH20 0xFFFFFFFFFFFFFFFFFFFFFFFFFFFFFFFFFFFFFFFF AND DUP2 MSTORE PUSH1 0x20 ADD SWAP1 DUP2 MSTORE PUSH1 0x20 ADD PUSH1 0x0 KECCAK256 SLOAD SWAP1 DUP2 ISZERO MUL SWAP1 PUSH1 0x40 MLOAD PUSH1 0x0 PUSH1 0x40 MLOAD DUP1 DUP4 SUB DUP2 DUP6 DUP9 DUP9 CALL SWAP4 POP POP POP POP ISZERO DUP1 ISZERO PUSH2 0x56D JUMPI RETURNDATASIZE PUSH1 0x0 DUP1 RETURNDATACOPY RETURNDATASIZE PUSH1 0x0 REVERT JUMPDEST POP PUSH1 0x0 DUP1 PUSH1 0x0 CALLER PUSH20 0xFFFFFFFFFFFFFFFFFFFFFFFFFFFFFFFFFFFFFFFF AND PUSH20 0xFFFFFFFFFFFFFFFFFFFFFFFFFFFFFFFFFFFFFFFF AND DUP2 MSTORE PUSH1 0x20 ADD SWAP1 DUP2 MSTORE PUSH1 0x20 ADD PUSH1 0x0 KECCAK256 DUP2 SWAP1 SSTORE POP POP JUMP JUMPDEST PUSH1 0x0 SELFBALANCE SWAP1 POP SWAP1 JUMP JUMPDEST PUSH1 0x7 PUSH1 0x20 MSTORE DUP1 PUSH1 0x0 MSTORE PUSH1 0x40 PUSH1 0x0 KECCAK256 PUSH1 0x0 SWAP2 POP SWAP1 POP DUP1 PUSH1 0x0 ADD DUP1 SLOAD PUSH2 0x5E0 SWAP1 PUSH2 0xA11 JUMP JUMPDEST DUP1 PUSH1 0x1F ADD PUSH1 0x20 DUP1 SWAP2 DIV MUL PUSH1 0x20 ADD PUSH1 0x40 MLOAD SWAP1 DUP2 ADD PUSH1 0x40 MSTORE DUP1 SWAP3 SWAP2 SWAP1 DUP2 DUP2 MSTORE PUSH1 0x20 ADD DUP3 DUP1 SLOAD PUSH2 0x60C SWAP1 PUSH2 0xA11 JUMP JUMPDEST DUP1 ISZERO PUSH2 0x659 JUMPI DUP1 PUSH1 0x1F LT PUSH2 0x62E JUMPI PUSH2 0x100 DUP1 DUP4 SLOAD DIV MUL DUP4 MSTORE SWAP2 PUSH1 0x20 ADD SWAP2 PUSH2 0x659 JUMP JUMPDEST DUP3 ADD SWAP2 SWAP1 PUSH1 0x0 MSTORE PUSH1 0x20 PUSH1 0x0 KECCAK256 SWAP1 JUMPDEST DUP2 SLOAD DUP2 MSTORE SWAP1 PUSH1 0x1 ADD SWAP1 PUSH1 0x20 ADD DUP1 DUP4 GT PUSH2 0x63C JUMPI DUP3 SWAP1 SUB PUSH1 0x1F AND DUP3 ADD SWAP2 JUMPDEST POP POP POP POP POP SWAP1 DUP1 PUSH1 0x1 ADD PUSH1 0x0 SWAP1 SLOAD SWAP1 PUSH2 0x100 EXP SWAP1 DIV PUSH20 0xFFFFFFFFFFFFFFFFFFFFFFFFFFFFFFFFFFFFFFFF AND SWAP1 DUP1 PUSH1 0x2 ADD SLOAD SWAP1 DUP1 PUSH1 0x3 ADD PUSH1 0x0 SWAP1 SLOAD SWAP1 PUSH2 0x100 EXP SWAP1 DIV PUSH1 0xFF AND SWAP1 DUP1 PUSH1 0x4 ADD SLOAD SWAP1 POP DUP6 JUMP JUMPDEST PUSH1 0x2 SLOAD DUP2 JUMP JUMPDEST PUSH1 0x8 SLOAD DUP2 JUMP JUMPDEST PUSH1 0x5 SLOAD DUP2 JUMP JUMPDEST PUSH1 0x4 SLOAD DUP2 JUMP JUMPDEST PUSH1 0x0 DUP2 CALLDATALOAD SWAP1 POP PUSH2 0x6CF DUP2 PUSH2 0xB7B JUMP JUMPDEST SWAP3 SWAP2 POP POP JUMP JUMPDEST PUSH1 0x0 DUP2 CALLDATALOAD SWAP1 POP PUSH2 0x6E4 DUP2 PUSH2 0xB92 JUMP JUMPDEST SWAP3 SWAP2 POP POP JUMP JUMPDEST PUSH1 0x0 PUSH1 0x20 DUP3 DUP5 SUB SLT ISZERO PUSH2 0x700 JUMPI PUSH2 0x6FF PUSH2 0xAEA JUMP JUMPDEST JUMPDEST PUSH1 0x0 PUSH2 0x70E DUP5 DUP3 DUP6 ADD PUSH2 0x6C0 JUMP JUMPDEST SWAP2 POP POP SWAP3 SWAP2 POP POP JUMP JUMPDEST PUSH1 0x0 PUSH1 0x20 DUP3 DUP5 SUB SLT ISZERO PUSH2 0x72D JUMPI PUSH2 0x72C PUSH2 0xAEA JUMP JUMPDEST JUMPDEST PUSH1 0x0 PUSH2 0x73B DUP5 DUP3 DUP6 ADD PUSH2 0x6D5 JUMP JUMPDEST SWAP2 POP POP SWAP3 SWAP2 POP POP JUMP JUMPDEST PUSH2 0x74D DUP2 PUSH2 0x996 JUMP JUMPDEST DUP3 MSTORE POP POP JUMP JUMPDEST PUSH2 0x75C DUP2 PUSH2 0x984 JUMP JUMPDEST DUP3 MSTORE POP POP JUMP JUMPDEST PUSH2 0x76B DUP2 PUSH2 0x9A8 JUMP JUMPDEST DUP3 MSTORE POP POP JUMP JUMPDEST PUSH1 0x0 PUSH2 0x77C DUP3 PUSH2 0x912 JUMP JUMPDEST PUSH2 0x786 DUP2 DUP6 PUSH2 0x91D JUMP JUMPDEST SWAP4 POP PUSH2 0x796 DUP2 DUP6 PUSH1 0x20 DUP7 ADD PUSH2 0x9DE JUMP JUMPDEST PUSH2 0x79F DUP2 PUSH2 0xAEF JUMP JUMPDEST DUP5 ADD SWAP2 POP POP SWAP3 SWAP2 POP POP JUMP JUMPDEST PUSH1 0x0 PUSH2 0x7B7 PUSH1 0x1F DUP4 PUSH2 0x91D JUMP JUMPDEST SWAP2 POP PUSH2 0x7C2 DUP3 PUSH2 0xB00 JUMP JUMPDEST PUSH1 0x20 DUP3 ADD SWAP1 POP SWAP2 SWAP1 POP JUMP JUMPDEST PUSH1 0x0 PUSH2 0x7DA PUSH1 0x20 DUP4 PUSH2 0x91D JUMP JUMPDEST SWAP2 POP PUSH2 0x7E5 DUP3 PUSH2 0xB29 JUMP JUMPDEST PUSH1 0x20 DUP3 ADD SWAP1 POP SWAP2 SWAP1 POP JUMP JUMPDEST PUSH1 0x0 PUSH2 0x7FD PUSH1 0x1D DUP4 PUSH2 0x91D JUMP JUMPDEST SWAP2 POP PUSH2 0x808 DUP3 PUSH2 0xB52 JUMP JUMPDEST PUSH1 0x20 DUP3 ADD SWAP1 POP SWAP2 SWAP1 POP JUMP JUMPDEST PUSH2 0x81C DUP2 PUSH2 0x9D4 JUMP JUMPDEST DUP3 MSTORE POP POP JUMP JUMPDEST PUSH1 0x0 PUSH1 0x20 DUP3 ADD SWAP1 POP PUSH2 0x837 PUSH1 0x0 DUP4 ADD DUP5 PUSH2 0x753 JUMP JUMPDEST SWAP3 SWAP2 POP POP JUMP JUMPDEST PUSH1 0x0 PUSH1 0xA0 DUP3 ADD SWAP1 POP DUP2 DUP2 SUB PUSH1 0x0 DUP4 ADD MSTORE PUSH2 0x857 DUP2 DUP9 PUSH2 0x771 JUMP JUMPDEST SWAP1 POP PUSH2 0x866 PUSH1 0x20 DUP4 ADD DUP8 PUSH2 0x744 JUMP JUMPDEST PUSH2 0x873 PUSH1 0x40 DUP4 ADD DUP7 PUSH2 0x813 JUMP JUMPDEST PUSH2 0x880 PUSH1 0x60 DUP4 ADD DUP6 PUSH2 0x762 JUMP JUMPDEST PUSH2 0x88D PUSH1 0x80 DUP4 ADD DUP5 PUSH2 0x813 JUMP JUMPDEST SWAP7 SWAP6 POP POP POP POP POP POP JUMP JUMPDEST PUSH1 0x0 PUSH1 0x20 DUP3 ADD SWAP1 POP DUP2 DUP2 SUB PUSH1 0x0 DUP4 ADD MSTORE PUSH2 0x8B0 DUP2 PUSH2 0x7AA JUMP JUMPDEST SWAP1 POP SWAP2 SWAP1 POP JUMP JUMPDEST PUSH1 0x0 PUSH1 0x20 DUP3 ADD SWAP1 POP DUP2 DUP2 SUB PUSH1 0x0 DUP4 ADD MSTORE PUSH2 0x8D0 DUP2 PUSH2 0x7CD JUMP JUMPDEST SWAP1 POP SWAP2 SWAP1 POP JUMP JUMPDEST PUSH1 0x0 PUSH1 0x20 DUP3 ADD SWAP1 POP DUP2 DUP2 SUB PUSH1 0x0 DUP4 ADD MSTORE PUSH2 0x8F0 DUP2 PUSH2 0x7F0 JUMP JUMPDEST SWAP1 POP SWAP2 SWAP1 POP JUMP JUMPDEST PUSH1 0x0 PUSH1 0x20 DUP3 ADD SWAP1 POP PUSH2 0x90C PUSH1 0x0 DUP4 ADD DUP5 PUSH2 0x813 JUMP JUMPDEST SWAP3 SWAP2 POP POP JUMP JUMPDEST PUSH1 0x0 DUP2 MLOAD SWAP1 POP SWAP2 SWAP1 POP JUMP JUMPDEST PUSH1 0x0 DUP3 DUP3 MSTORE PUSH1 0x20 DUP3 ADD SWAP1 POP SWAP3 SWAP2 POP POP JUMP JUMPDEST PUSH1 0x0 PUSH2 0x939 DUP3 PUSH2 0x9D4 JUMP JUMPDEST SWAP2 POP PUSH2 0x944 DUP4 PUSH2 0x9D4 JUMP JUMPDEST SWAP3 POP DUP3 PUSH32 0xFFFFFFFFFFFFFFFFFFFFFFFFFFFFFFFFFFFFFFFFFFFFFFFFFFFFFFFFFFFFFFFF SUB DUP3 GT ISZERO PUSH2 0x979 JUMPI PUSH2 0x978 PUSH2 0xA8C JUMP JUMPDEST JUMPDEST DUP3 DUP3 ADD SWAP1 POP SWAP3 SWAP2 POP POP JUMP JUMPDEST PUSH1 0x0 PUSH2 0x98F DUP3 PUSH2 0x9B4 JUMP JUMPDEST SWAP1 POP SWAP2 SWAP1 POP JUMP JUMPDEST PUSH1 0x0 PUSH2 0x9A1 DUP3 PUSH2 0x9B4 JUMP JUMPDEST SWAP1 POP SWAP2 SWAP1 POP JUMP JUMPDEST PUSH1 0x0 DUP2 ISZERO ISZERO SWAP1 POP SWAP2 SWAP1 POP JUMP JUMPDEST PUSH1 0x0 PUSH20 0xFFFFFFFFFFFFFFFFFFFFFFFFFFFFFFFFFFFFFFFF DUP3 AND SWAP1 POP SWAP2 SWAP1 POP JUMP JUMPDEST PUSH1 0x0 DUP2 SWAP1 POP SWAP2 SWAP1 POP JUMP JUMPDEST PUSH1 0x0 JUMPDEST DUP4 DUP2 LT ISZERO PUSH2 0x9FC JUMPI DUP1 DUP3 ADD MLOAD DUP2 DUP5 ADD MSTORE PUSH1 0x20 DUP2 ADD SWAP1 POP PUSH2 0x9E1 JUMP JUMPDEST DUP4 DUP2 GT ISZERO PUSH2 0xA0B JUMPI PUSH1 0x0 DUP5 DUP5 ADD MSTORE JUMPDEST POP POP POP POP JUMP JUMPDEST PUSH1 0x0 PUSH1 0x2 DUP3 DIV SWAP1 POP PUSH1 0x1 DUP3 AND DUP1 PUSH2 0xA29 JUMPI PUSH1 0x7F DUP3 AND SWAP2 POP JUMPDEST PUSH1 0x20 DUP3 LT DUP2 EQ ISZERO PUSH2 0xA3D JUMPI PUSH2 0xA3C PUSH2 0xABB JUMP JUMPDEST JUMPDEST POP SWAP2 SWAP1 POP JUMP JUMPDEST PUSH1 0x0 PUSH2 0xA4E DUP3 PUSH2 0x9D4 JUMP JUMPDEST SWAP2 POP PUSH32 0xFFFFFFFFFFFFFFFFFFFFFFFFFFFFFFFFFFFFFFFFFFFFFFFFFFFFFFFFFFFFFFFF DUP3 EQ ISZERO PUSH2 0xA81 JUMPI PUSH2 0xA80 PUSH2 0xA8C JUMP JUMPDEST JUMPDEST PUSH1 0x1 DUP3 ADD SWAP1 POP SWAP2 SWAP1 POP JUMP JUMPDEST PUSH32 0x4E487B7100000000000000000000000000000000000000000000000000000000 PUSH1 0x0 MSTORE PUSH1 0x11 PUSH1 0x4 MSTORE PUSH1 0x24 PUSH1 0x0 REVERT JUMPDEST PUSH32 0x4E487B7100000000000000000000000000000000000000000000000000000000 PUSH1 0x0 MSTORE PUSH1 0x22 PUSH1 0x4 MSTORE PUSH1 0x24 PUSH1 0x0 REVERT JUMPDEST PUSH1 0x0 DUP1 REVERT JUMPDEST PUSH1 0x0 PUSH1 0x1F NOT PUSH1 0x1F DUP4 ADD AND SWAP1 POP SWAP2 SWAP1 POP JUMP JUMPDEST PUSH32 0x596F7520617265206E6F7420656C656769626C6520666F7220726566756E6400 PUSH1 0x0 DUP3 ADD MSTORE POP JUMP JUMPDEST PUSH32 0x4D696E696D756D20636F6E747269627574696F6E206973206E6F74206D65742E PUSH1 0x0 DUP3 ADD MSTORE POP JUMP JUMPDEST PUSH32 0x446561646C696E652068617320616C7265616479207265616368656421000000 PUSH1 0x0 DUP3 ADD MSTORE POP JUMP JUMPDEST PUSH2 0xB84 DUP2 PUSH2 0x984 JUMP JUMPDEST DUP2 EQ PUSH2 0xB8F JUMPI PUSH1 0x0 DUP1 REVERT JUMPDEST POP JUMP JUMPDEST PUSH2 0xB9B DUP2 PUSH2 0x9D4 JUMP JUMPDEST DUP2 EQ PUSH2 0xBA6 JUMPI PUSH1 0x0 DUP1 REVERT JUMPDEST POP JUMP INVALID LOG2 PUSH5 0x6970667358 0x22 SLT KECCAK256 SWAP5 TIMESTAMP 0xE0 INVALID PUSH21 0x27BBE86533EE86BB2D0D810B41E0371728FCCC7BC1 XOR 0xE9 SWAP4 0xC9 0xFB 0x49 PUSH5 0x736F6C6343 STOP ADDMOD SMOD STOP CALLER "
				},
				"gasEstimates": {
					"creation": {
						"codeDepositCost": "607800",
						"executionCost": "infinite",
						"totalCost": "infinite"
					},
					"external": {
						"contributors(address)": "2837",
						"deadline()": "2474",
						"getContractBalance()": "339",
						"manager()": "2581",
						"minimumContribution()": "2473",
						"noOfContributors()": "2518",
						"numRequests()": "2495",
						"raisedAmount()": "2517",
						"refund()": "infinite",
						"requests(uint256)": "infinite",
						"sendEth()": "infinite",
						"target()": "2539"
					}
				},
				"methodIdentifiers": {
					"contributors(address)": "1f6d4942",
					"deadline()": "29dcb0cf",
					"getContractBalance()": "6f9fb98a",
					"manager()": "481c6a75",
					"minimumContribution()": "937e09b1",
					"noOfContributors()": "4e260f6f",
					"numRequests()": "9fb42b1f",
					"raisedAmount()": "c59ee1dc",
					"refund()": "590e1ae3",
					"requests(uint256)": "81d12c58",
					"sendEth()": "06e99fef",
					"target()": "d4b83992"
				}
			},
			"storageLayout": {
				"storage": [
					{
						"astId": 5,
						"contract": "CrowdFunding.sol:CrowdFunding",
						"label": "contributors",
						"offset": 0,
						"slot": "0",
						"type": "t_mapping(t_address,t_uint256)"
					},
					{
						"astId": 7,
						"contract": "CrowdFunding.sol:CrowdFunding",
						"label": "manager",
						"offset": 0,
						"slot": "1",
						"type": "t_address"
					},
					{
						"astId": 9,
						"contract": "CrowdFunding.sol:CrowdFunding",
						"label": "minimumContribution",
						"offset": 0,
						"slot": "2",
						"type": "t_uint256"
					},
					{
						"astId": 11,
						"contract": "CrowdFunding.sol:CrowdFunding",
						"label": "deadline",
						"offset": 0,
						"slot": "3",
						"type": "t_uint256"
					},
					{
						"astId": 13,
						"contract": "CrowdFunding.sol:CrowdFunding",
						"label": "target",
						"offset": 0,
						"slot": "4",
						"type": "t_uint256"
					},
					{
						"astId": 15,
						"contract": "CrowdFunding.sol:CrowdFunding",
						"label": "raisedAmount",
						"offset": 0,
						"slot": "5",
						"type": "t_uint256"
					},
					{
						"astId": 17,
						"contract": "CrowdFunding.sol:CrowdFunding",
						"label": "noOfContributors",
						"offset": 0,
						"slot": "6",
						"type": "t_uint256"
					},
					{
						"astId": 37,
						"contract": "CrowdFunding.sol:CrowdFunding",
						"label": "requests",
						"offset": 0,
						"slot": "7",
						"type": "t_mapping(t_uint256,t_struct(Request)32_storage)"
					},
					{
						"astId": 39,
						"contract": "CrowdFunding.sol:CrowdFunding",
						"label": "numRequests",
						"offset": 0,
						"slot": "8",
						"type": "t_uint256"
					}
				],
				"types": {
					"t_address": {
						"encoding": "inplace",
						"label": "address",
						"numberOfBytes": "20"
					},
					"t_address_payable": {
						"encoding": "inplace",
						"label": "address payable",
						"numberOfBytes": "20"
					},
					"t_bool": {
						"encoding": "inplace",
						"label": "bool",
						"numberOfBytes": "1"
					},
					"t_mapping(t_address,t_bool)": {
						"encoding": "mapping",
						"key": "t_address",
						"label": "mapping(address => bool)",
						"numberOfBytes": "32",
						"value": "t_bool"
					},
					"t_mapping(t_address,t_uint256)": {
						"encoding": "mapping",
						"key": "t_address",
						"label": "mapping(address => uint256)",
						"numberOfBytes": "32",
						"value": "t_uint256"
					},
					"t_mapping(t_uint256,t_struct(Request)32_storage)": {
						"encoding": "mapping",
						"key": "t_uint256",
						"label": "mapping(uint256 => struct CrowdFunding.Request)",
						"numberOfBytes": "32",
						"value": "t_struct(Request)32_storage"
					},
					"t_string_storage": {
						"encoding": "bytes",
						"label": "string",
						"numberOfBytes": "32"
					},
					"t_struct(Request)32_storage": {
						"encoding": "inplace",
						"label": "struct CrowdFunding.Request",
						"members": [
							{
								"astId": 19,
								"contract": "CrowdFunding.sol:CrowdFunding",
								"label": "description",
								"offset": 0,
								"slot": "0",
								"type": "t_string_storage"
							},
							{
								"astId": 21,
								"contract": "CrowdFunding.sol:CrowdFunding",
								"label": "recipient",
								"offset": 0,
								"slot": "1",
								"type": "t_address_payable"
							},
							{
								"astId": 23,
								"contract": "CrowdFunding.sol:CrowdFunding",
								"label": "value",
								"offset": 0,
								"slot": "2",
								"type": "t_uint256"
							},
							{
								"astId": 25,
								"contract": "CrowdFunding.sol:CrowdFunding",
								"label": "completed",
								"offset": 0,
								"slot": "3",
								"type": "t_bool"
							},
							{
								"astId": 27,
								"contract": "CrowdFunding.sol:CrowdFunding",
								"label": "noOfVoters",
								"offset": 0,
								"slot": "4",
								"type": "t_uint256"
							},
							{
								"astId": 31,
								"contract": "CrowdFunding.sol:CrowdFunding",
								"label": "voters",
								"offset": 0,
								"slot": "5",
								"type": "t_mapping(t_address,t_bool)"
							}
						],
						"numberOfBytes": "192"
					},
					"t_uint256": {
						"encoding": "inplace",
						"label": "uint256",
						"numberOfBytes": "32"
					}
				}
			},
			"userdoc": {
				"kind": "user",
				"methods": {},
				"version": 1
			}
		}
	}
}