{
	"CrowdFunding.sol": {
		"CrowdFunding": {
			"abi": [
				{
					"inputs": [
						{
							"internalType": "uint256",
							"name": "_target",
							"type": "uint256"
						},
						{
							"internalType": "uint256",
							"name": "_deadline",
							"type": "uint256"
						}
					],
					"stateMutability": "nonpayable",
					"type": "constructor"
				},
				{
					"inputs": [
						{
							"internalType": "address",
							"name": "",
							"type": "address"
						}
					],
					"name": "contributors",
					"outputs": [
						{
							"internalType": "uint256",
							"name": "",
							"type": "uint256"
						}
					],
					"stateMutability": "view",
					"type": "function"
				},
				{
					"inputs": [
						{
							"internalType": "string",
							"name": "_description",
							"type": "string"
						},
						{
							"internalType": "address payable",
							"name": "_recipient",
							"type": "address"
						},
						{
							"internalType": "uint256",
							"name": "_value",
							"type": "uint256"
						}
					],
					"name": "createRequests",
					"outputs": [],
					"stateMutability": "nonpayable",
					"type": "function"
				},
				{
					"inputs": [],
					"name": "deadline",
					"outputs": [
						{
							"internalType": "uint256",
							"name": "",
							"type": "uint256"
						}
					],
					"stateMutability": "view",
					"type": "function"
				},
				{
					"inputs": [],
					"name": "getContractBalance",
					"outputs": [
						{
							"internalType": "uint256",
							"name": "",
							"type": "uint256"
						}
					],
					"stateMutability": "view",
					"type": "function"
				},
				{
					"inputs": [],
					"name": "manager",
					"outputs": [
						{
							"internalType": "address",
							"name": "",
							"type": "address"
						}
					],
					"stateMutability": "view",
					"type": "function"
				},
				{
					"inputs": [],
					"name": "minimumContribution",
					"outputs": [
						{
							"internalType": "uint256",
							"name": "",
							"type": "uint256"
						}
					],
					"stateMutability": "view",
					"type": "function"
				},
				{
					"inputs": [],
					"name": "noOfContributors",
					"outputs": [
						{
							"internalType": "uint256",
							"name": "",
							"type": "uint256"
						}
					],
					"stateMutability": "view",
					"type": "function"
				},
				{
					"inputs": [],
					"name": "numRequests",
					"outputs": [
						{
							"internalType": "uint256",
							"name": "",
							"type": "uint256"
						}
					],
					"stateMutability": "view",
					"type": "function"
				},
				{
					"inputs": [],
					"name": "raisedAmount",
					"outputs": [
						{
							"internalType": "uint256",
							"name": "",
							"type": "uint256"
						}
					],
					"stateMutability": "view",
					"type": "function"
				},
				{
					"inputs": [],
					"name": "refund",
					"outputs": [],
					"stateMutability": "nonpayable",
					"type": "function"
				},
				{
					"inputs": [
						{
							"internalType": "uint256",
							"name": "",
							"type": "uint256"
						}
					],
					"name": "requests",
					"outputs": [
						{
							"internalType": "string",
							"name": "description",
							"type": "string"
						},
						{
							"internalType": "address payable",
							"name": "recipient",
							"type": "address"
						},
						{
							"internalType": "uint256",
							"name": "value",
							"type": "uint256"
						},
						{
							"internalType": "bool",
							"name": "completed",
							"type": "bool"
						},
						{
							"internalType": "uint256",
							"name": "noOfVoters",
							"type": "uint256"
						}
					],
					"stateMutability": "view",
					"type": "function"
				},
				{
					"inputs": [],
					"name": "sendEth",
					"outputs": [],
					"stateMutability": "payable",
					"type": "function"
				},
				{
					"inputs": [],
					"name": "target",
					"outputs": [
						{
							"internalType": "uint256",
							"name": "",
							"type": "uint256"
						}
					],
					"stateMutability": "view",
					"type": "function"
				},
				{
					"inputs": [
						{
							"internalType": "uint256",
							"name": "_requestNo",
							"type": "uint256"
						}
					],
					"name": "voteRequest",
					"outputs": [],
					"stateMutability": "nonpayable",
					"type": "function"
				}
			],
			"devdoc": {
				"kind": "dev",
				"methods": {},
				"version": 1
			},
			"evm": {
				"assembly": "    /* \"CrowdFunding.sol\":77:2318  contract CrowdFunding {\r... */\n  mstore(0x40, 0x80)\n    /* \"CrowdFunding.sol\":626:814  constructor(uint _target, uint _deadline){\r... */\n  callvalue\n  dup1\n  iszero\n  tag_1\n  jumpi\n  0x00\n  dup1\n  revert\ntag_1:\n  pop\n  mload(0x40)\n  sub(codesize, bytecodeSize)\n  dup1\n  bytecodeSize\n  dup4\n  codecopy\n  dup2\n  dup2\n  add\n  0x40\n  mstore\n  dup2\n  add\n  swap1\n  tag_2\n  swap2\n  swap1\n  tag_3\n  jump\t// in\ntag_2:\n    /* \"CrowdFunding.sol\":685:692  _target */\n  dup2\n    /* \"CrowdFunding.sol\":678:684  target */\n  0x04\n    /* \"CrowdFunding.sol\":678:692  target=_target */\n  dup2\n  swap1\n  sstore\n  pop\n    /* \"CrowdFunding.sol\":728:737  _deadline */\n  dup1\n    /* \"CrowdFunding.sol\":712:727  block.timestamp */\n  timestamp\n    /* \"CrowdFunding.sol\":712:737  block.timestamp+_deadline */\n  tag_6\n  swap2\n  swap1\n  tag_7\n  jump\t// in\ntag_6:\n    /* \"CrowdFunding.sol\":703:711  deadline */\n  0x03\n    /* \"CrowdFunding.sol\":703:737  deadline=block.timestamp+_deadline */\n  dup2\n  swap1\n  sstore\n  pop\n    /* \"CrowdFunding.sol\":769:776  100 wei */\n  0x64\n    /* \"CrowdFunding.sol\":748:767  minimumContribution */\n  0x02\n    /* \"CrowdFunding.sol\":748:776  minimumContribution= 100 wei */\n  dup2\n  swap1\n  sstore\n  pop\n    /* \"CrowdFunding.sol\":796:806  msg.sender */\n  caller\n    /* \"CrowdFunding.sol\":787:794  manager */\n  0x01\n  0x00\n    /* \"CrowdFunding.sol\":787:806  manager= msg.sender */\n  0x0100\n  exp\n  dup2\n  sload\n  dup2\n  0xffffffffffffffffffffffffffffffffffffffff\n  mul\n  not\n  and\n  swap1\n  dup4\n  0xffffffffffffffffffffffffffffffffffffffff\n  and\n  mul\n  or\n  swap1\n  sstore\n  pop\n    /* \"CrowdFunding.sol\":626:814  constructor(uint _target, uint _deadline){\r... */\n  pop\n  pop\n    /* \"CrowdFunding.sol\":77:2318  contract CrowdFunding {\r... */\n  jump(tag_8)\n    /* \"#utility.yul\":7:150   */\ntag_10:\n    /* \"#utility.yul\":64:69   */\n  0x00\n    /* \"#utility.yul\":95:101   */\n  dup2\n    /* \"#utility.yul\":89:102   */\n  mload\n    /* \"#utility.yul\":80:102   */\n  swap1\n  pop\n    /* \"#utility.yul\":111:144   */\n  tag_12\n    /* \"#utility.yul\":138:143   */\n  dup2\n    /* \"#utility.yul\":111:144   */\n  tag_13\n  jump\t// in\ntag_12:\n    /* \"#utility.yul\":7:150   */\n  swap3\n  swap2\n  pop\n  pop\n  jump\t// out\n    /* \"#utility.yul\":156:663   */\ntag_3:\n    /* \"#utility.yul\":235:241   */\n  0x00\n    /* \"#utility.yul\":243:249   */\n  dup1\n    /* \"#utility.yul\":292:294   */\n  0x40\n    /* \"#utility.yul\":280:289   */\n  dup4\n    /* \"#utility.yul\":271:278   */\n  dup6\n    /* \"#utility.yul\":267:290   */\n  sub\n    /* \"#utility.yul\":263:295   */\n  slt\n    /* \"#utility.yul\":260:379   */\n  iszero\n  tag_15\n  jumpi\n    /* \"#utility.yul\":298:377   */\n  tag_16\n  tag_17\n  jump\t// in\ntag_16:\n    /* \"#utility.yul\":260:379   */\ntag_15:\n    /* \"#utility.yul\":418:419   */\n  0x00\n    /* \"#utility.yul\":443:507   */\n  tag_18\n    /* \"#utility.yul\":499:506   */\n  dup6\n    /* \"#utility.yul\":490:496   */\n  dup3\n    /* \"#utility.yul\":479:488   */\n  dup7\n    /* \"#utility.yul\":475:497   */\n  add\n    /* \"#utility.yul\":443:507   */\n  tag_10\n  jump\t// in\ntag_18:\n    /* \"#utility.yul\":433:507   */\n  swap3\n  pop\n    /* \"#utility.yul\":389:517   */\n  pop\n    /* \"#utility.yul\":556:558   */\n  0x20\n    /* \"#utility.yul\":582:646   */\n  tag_19\n    /* \"#utility.yul\":638:645   */\n  dup6\n    /* \"#utility.yul\":629:635   */\n  dup3\n    /* \"#utility.yul\":618:627   */\n  dup7\n    /* \"#utility.yul\":614:636   */\n  add\n    /* \"#utility.yul\":582:646   */\n  tag_10\n  jump\t// in\ntag_19:\n    /* \"#utility.yul\":572:646   */\n  swap2\n  pop\n    /* \"#utility.yul\":527:656   */\n  pop\n    /* \"#utility.yul\":156:663   */\n  swap3\n  pop\n  swap3\n  swap1\n  pop\n  jump\t// out\n    /* \"#utility.yul\":750:1055   */\ntag_7:\n    /* \"#utility.yul\":790:793   */\n  0x00\n    /* \"#utility.yul\":809:829   */\n  tag_23\n    /* \"#utility.yul\":827:828   */\n  dup3\n    /* \"#utility.yul\":809:829   */\n  tag_24\n  jump\t// in\ntag_23:\n    /* \"#utility.yul\":804:829   */\n  swap2\n  pop\n    /* \"#utility.yul\":843:863   */\n  tag_25\n    /* \"#utility.yul\":861:862   */\n  dup4\n    /* \"#utility.yul\":843:863   */\n  tag_24\n  jump\t// in\ntag_25:\n    /* \"#utility.yul\":838:863   */\n  swap3\n  pop\n    /* \"#utility.yul\":997:998   */\n  dup3\n    /* \"#utility.yul\":929:995   */\n  0xffffffffffffffffffffffffffffffffffffffffffffffffffffffffffffffff\n    /* \"#utility.yul\":925:999   */\n  sub\n    /* \"#utility.yul\":922:923   */\n  dup3\n    /* \"#utility.yul\":919:1000   */\n  gt\n    /* \"#utility.yul\":916:1023   */\n  iszero\n  tag_26\n  jumpi\n    /* \"#utility.yul\":1003:1021   */\n  tag_27\n  tag_28\n  jump\t// in\ntag_27:\n    /* \"#utility.yul\":916:1023   */\ntag_26:\n    /* \"#utility.yul\":1047:1048   */\n  dup3\n    /* \"#utility.yul\":1044:1045   */\n  dup3\n    /* \"#utility.yul\":1040:1049   */\n  add\n    /* \"#utility.yul\":1033:1049   */\n  swap1\n  pop\n    /* \"#utility.yul\":750:1055   */\n  swap3\n  swap2\n  pop\n  pop\n  jump\t// out\n    /* \"#utility.yul\":1061:1138   */\ntag_24:\n    /* \"#utility.yul\":1098:1105   */\n  0x00\n    /* \"#utility.yul\":1127:1132   */\n  dup2\n    /* \"#utility.yul\":1116:1132   */\n  swap1\n  pop\n    /* \"#utility.yul\":1061:1138   */\n  swap2\n  swap1\n  pop\n  jump\t// out\n    /* \"#utility.yul\":1144:1324   */\ntag_28:\n    /* \"#utility.yul\":1192:1269   */\n  0x4e487b7100000000000000000000000000000000000000000000000000000000\n    /* \"#utility.yul\":1189:1190   */\n  0x00\n    /* \"#utility.yul\":1182:1270   */\n  mstore\n    /* \"#utility.yul\":1289:1293   */\n  0x11\n    /* \"#utility.yul\":1286:1287   */\n  0x04\n    /* \"#utility.yul\":1279:1294   */\n  mstore\n    /* \"#utility.yul\":1313:1317   */\n  0x24\n    /* \"#utility.yul\":1310:1311   */\n  0x00\n    /* \"#utility.yul\":1303:1318   */\n  revert\n    /* \"#utility.yul\":1453:1570   */\ntag_17:\n    /* \"#utility.yul\":1562:1563   */\n  0x00\n    /* \"#utility.yul\":1559:1560   */\n  dup1\n    /* \"#utility.yul\":1552:1564   */\n  revert\n    /* \"#utility.yul\":1576:1698   */\ntag_13:\n    /* \"#utility.yul\":1649:1673   */\n  tag_35\n    /* \"#utility.yul\":1667:1672   */\n  dup2\n    /* \"#utility.yul\":1649:1673   */\n  tag_24\n  jump\t// in\ntag_35:\n    /* \"#utility.yul\":1642:1647   */\n  dup2\n    /* \"#utility.yul\":1639:1674   */\n  eq\n    /* \"#utility.yul\":1629:1692   */\n  tag_36\n  jumpi\n    /* \"#utility.yul\":1688:1689   */\n  0x00\n    /* \"#utility.yul\":1685:1686   */\n  dup1\n    /* \"#utility.yul\":1678:1690   */\n  revert\n    /* \"#utility.yul\":1629:1692   */\ntag_36:\n    /* \"#utility.yul\":1576:1698   */\n  pop\n  jump\t// out\n    /* \"CrowdFunding.sol\":77:2318  contract CrowdFunding {\r... */\ntag_8:\n  dataSize(sub_0)\n  dup1\n  dataOffset(sub_0)\n  0x00\n  codecopy\n  0x00\n  return\nstop\n\nsub_0: assembly {\n        /* \"CrowdFunding.sol\":77:2318  contract CrowdFunding {\r... */\n      mstore(0x40, 0x80)\n      jumpi(tag_1, lt(calldatasize, 0x04))\n      shr(0xe0, calldataload(0x00))\n      dup1\n      0x590e1ae3\n      gt\n      tag_16\n      jumpi\n      dup1\n      0x937e09b1\n      gt\n      tag_17\n      jumpi\n      dup1\n      0x937e09b1\n      eq\n      tag_12\n      jumpi\n      dup1\n      0x9fb42b1f\n      eq\n      tag_13\n      jumpi\n      dup1\n      0xc59ee1dc\n      eq\n      tag_14\n      jumpi\n      dup1\n      0xd4b83992\n      eq\n      tag_15\n      jumpi\n      jump(tag_1)\n    tag_17:\n      dup1\n      0x590e1ae3\n      eq\n      tag_9\n      jumpi\n      dup1\n      0x6f9fb98a\n      eq\n      tag_10\n      jumpi\n      dup1\n      0x81d12c58\n      eq\n      tag_11\n      jumpi\n      jump(tag_1)\n    tag_16:\n      dup1\n      0x3eb7647b\n      gt\n      tag_18\n      jumpi\n      dup1\n      0x3eb7647b\n      eq\n      tag_5\n      jumpi\n      dup1\n      0x481c6a75\n      eq\n      tag_6\n      jumpi\n      dup1\n      0x4cb6f4a5\n      eq\n      tag_7\n      jumpi\n      dup1\n      0x4e260f6f\n      eq\n      tag_8\n      jumpi\n      jump(tag_1)\n    tag_18:\n      dup1\n      0x06e99fef\n      eq\n      tag_2\n      jumpi\n      dup1\n      0x1f6d4942\n      eq\n      tag_3\n      jumpi\n      dup1\n      0x29dcb0cf\n      eq\n      tag_4\n      jumpi\n    tag_1:\n      0x00\n      dup1\n      revert\n        /* \"CrowdFunding.sol\":822:1200  function sendEth() public payable{\r... */\n    tag_2:\n      tag_19\n      tag_20\n      jump\t// in\n    tag_19:\n      stop\n        /* \"CrowdFunding.sol\":106:148  mapping(address=>uint) public contributors */\n    tag_3:\n      callvalue\n      dup1\n      iszero\n      tag_21\n      jumpi\n      0x00\n      dup1\n      revert\n    tag_21:\n      pop\n      tag_22\n      0x04\n      dup1\n      calldatasize\n      sub\n      dup2\n      add\n      swap1\n      tag_23\n      swap2\n      swap1\n      tag_24\n      jump\t// in\n    tag_23:\n      tag_25\n      jump\t// in\n    tag_22:\n      mload(0x40)\n      tag_26\n      swap2\n      swap1\n      tag_27\n      jump\t// in\n    tag_26:\n      mload(0x40)\n      dup1\n      swap2\n      sub\n      swap1\n      return\n        /* \"CrowdFunding.sol\":222:242  uint public deadline */\n    tag_4:\n      callvalue\n      dup1\n      iszero\n      tag_28\n      jumpi\n      0x00\n      dup1\n      revert\n    tag_28:\n      pop\n      tag_29\n      tag_30\n      jump\t// in\n    tag_29:\n      mload(0x40)\n      tag_31\n      swap2\n      swap1\n      tag_27\n      jump\t// in\n    tag_31:\n      mload(0x40)\n      dup1\n      swap2\n      sub\n      swap1\n      return\n        /* \"CrowdFunding.sol\":1773:2170  function createRequests(string memory _description, address payable _recipient, uint _value) public onlyManager{\r... */\n    tag_5:\n      callvalue\n      dup1\n      iszero\n      tag_32\n      jumpi\n      0x00\n      dup1\n      revert\n    tag_32:\n      pop\n      tag_33\n      0x04\n      dup1\n      calldatasize\n      sub\n      dup2\n      add\n      swap1\n      tag_34\n      swap2\n      swap1\n      tag_35\n      jump\t// in\n    tag_34:\n      tag_36\n      jump\t// in\n    tag_33:\n      stop\n        /* \"CrowdFunding.sol\":155:177  address public manager */\n    tag_6:\n      callvalue\n      dup1\n      iszero\n      tag_37\n      jumpi\n      0x00\n      dup1\n      revert\n    tag_37:\n      pop\n      tag_38\n      tag_39\n      jump\t// in\n    tag_38:\n      mload(0x40)\n      tag_40\n      swap2\n      swap1\n      tag_41\n      jump\t// in\n    tag_40:\n      mload(0x40)\n      dup1\n      swap2\n      sub\n      swap1\n      return\n        /* \"CrowdFunding.sol\":2178:2315  function voteRequest(uint _requestNo) public{\r... */\n    tag_7:\n      callvalue\n      dup1\n      iszero\n      tag_42\n      jumpi\n      0x00\n      dup1\n      revert\n    tag_42:\n      pop\n      tag_43\n      0x04\n      dup1\n      calldatasize\n      sub\n      dup2\n      add\n      swap1\n      tag_44\n      swap2\n      swap1\n      tag_45\n      jump\t// in\n    tag_44:\n      tag_46\n      jump\t// in\n    tag_43:\n      stop\n        /* \"CrowdFunding.sol\":305:333  uint public noOfContributors */\n    tag_8:\n      callvalue\n      dup1\n      iszero\n      tag_47\n      jumpi\n      0x00\n      dup1\n      revert\n    tag_47:\n      pop\n      tag_48\n      tag_49\n      jump\t// in\n    tag_48:\n      mload(0x40)\n      tag_50\n      swap2\n      swap1\n      tag_27\n      jump\t// in\n    tag_50:\n      mload(0x40)\n      dup1\n      swap2\n      sub\n      swap1\n      return\n        /* \"CrowdFunding.sol\":1319:1638  function refund() public {\r... */\n    tag_9:\n      callvalue\n      dup1\n      iszero\n      tag_51\n      jumpi\n      0x00\n      dup1\n      revert\n    tag_51:\n      pop\n      tag_52\n      tag_53\n      jump\t// in\n    tag_52:\n      stop\n        /* \"CrowdFunding.sol\":1208:1311  function getContractBalance() public view returns(uint){\r... */\n    tag_10:\n      callvalue\n      dup1\n      iszero\n      tag_54\n      jumpi\n      0x00\n      dup1\n      revert\n    tag_54:\n      pop\n      tag_55\n      tag_56\n      jump\t// in\n    tag_55:\n      mload(0x40)\n      tag_57\n      swap2\n      swap1\n      tag_27\n      jump\t// in\n    tag_57:\n      mload(0x40)\n      dup1\n      swap2\n      sub\n      swap1\n      return\n        /* \"CrowdFunding.sol\":549:587  mapping(uint=>Request) public requests */\n    tag_11:\n      callvalue\n      dup1\n      iszero\n      tag_58\n      jumpi\n      0x00\n      dup1\n      revert\n    tag_58:\n      pop\n      tag_59\n      0x04\n      dup1\n      calldatasize\n      sub\n      dup2\n      add\n      swap1\n      tag_60\n      swap2\n      swap1\n      tag_45\n      jump\t// in\n    tag_60:\n      tag_61\n      jump\t// in\n    tag_59:\n      mload(0x40)\n      tag_62\n      swap6\n      swap5\n      swap4\n      swap3\n      swap2\n      swap1\n      tag_63\n      jump\t// in\n    tag_62:\n      mload(0x40)\n      dup1\n      swap2\n      sub\n      swap1\n      return\n        /* \"CrowdFunding.sol\":184:215  uint public minimumContribution */\n    tag_12:\n      callvalue\n      dup1\n      iszero\n      tag_64\n      jumpi\n      0x00\n      dup1\n      revert\n    tag_64:\n      pop\n      tag_65\n      tag_66\n      jump\t// in\n    tag_65:\n      mload(0x40)\n      tag_67\n      swap2\n      swap1\n      tag_27\n      jump\t// in\n    tag_67:\n      mload(0x40)\n      dup1\n      swap2\n      sub\n      swap1\n      return\n        /* \"CrowdFunding.sol\":594:617  uint public numRequests */\n    tag_13:\n      callvalue\n      dup1\n      iszero\n      tag_68\n      jumpi\n      0x00\n      dup1\n      revert\n    tag_68:\n      pop\n      tag_69\n      tag_70\n      jump\t// in\n    tag_69:\n      mload(0x40)\n      tag_71\n      swap2\n      swap1\n      tag_27\n      jump\t// in\n    tag_71:\n      mload(0x40)\n      dup1\n      swap2\n      sub\n      swap1\n      return\n        /* \"CrowdFunding.sol\":274:298  uint public raisedAmount */\n    tag_14:\n      callvalue\n      dup1\n      iszero\n      tag_72\n      jumpi\n      0x00\n      dup1\n      revert\n    tag_72:\n      pop\n      tag_73\n      tag_74\n      jump\t// in\n    tag_73:\n      mload(0x40)\n      tag_75\n      swap2\n      swap1\n      tag_27\n      jump\t// in\n    tag_75:\n      mload(0x40)\n      dup1\n      swap2\n      sub\n      swap1\n      return\n        /* \"CrowdFunding.sol\":249:267  uint public target */\n    tag_15:\n      callvalue\n      dup1\n      iszero\n      tag_76\n      jumpi\n      0x00\n      dup1\n      revert\n    tag_76:\n      pop\n      tag_77\n      tag_78\n      jump\t// in\n    tag_77:\n      mload(0x40)\n      tag_79\n      swap2\n      swap1\n      tag_27\n      jump\t// in\n    tag_79:\n      mload(0x40)\n      dup1\n      swap2\n      sub\n      swap1\n      return\n        /* \"CrowdFunding.sol\":822:1200  function sendEth() public payable{\r... */\n    tag_20:\n        /* \"CrowdFunding.sol\":892:900  deadline */\n      sload(0x03)\n        /* \"CrowdFunding.sol\":874:889  block.timestamp */\n      timestamp\n        /* \"CrowdFunding.sol\":874:900  block.timestamp < deadline */\n      lt\n        /* \"CrowdFunding.sol\":866:934  require(block.timestamp < deadline, \"Deadline has already reached!\") */\n      tag_81\n      jumpi\n      mload(0x40)\n      0x08c379a000000000000000000000000000000000000000000000000000000000\n      dup2\n      mstore\n      0x04\n      add\n      tag_82\n      swap1\n      tag_83\n      jump\t// in\n    tag_82:\n      mload(0x40)\n      dup1\n      swap2\n      sub\n      swap1\n      revert\n    tag_81:\n        /* \"CrowdFunding.sol\":966:985  minimumContribution */\n      sload(0x02)\n        /* \"CrowdFunding.sol\":953:962  msg.value */\n      callvalue\n        /* \"CrowdFunding.sol\":953:985  msg.value >= minimumContribution */\n      lt\n      iszero\n        /* \"CrowdFunding.sol\":945:1022  require(msg.value >= minimumContribution, \"Minimum contribution is not met.\") */\n      tag_84\n      jumpi\n      mload(0x40)\n      0x08c379a000000000000000000000000000000000000000000000000000000000\n      dup2\n      mstore\n      0x04\n      add\n      tag_85\n      swap1\n      tag_86\n      jump\t// in\n    tag_85:\n      mload(0x40)\n      dup1\n      swap2\n      sub\n      swap1\n      revert\n    tag_84:\n        /* \"CrowdFunding.sol\":1066:1067  0 */\n      0x00\n        /* \"CrowdFunding.sol\":1038:1050  contributors */\n      dup1\n        /* \"CrowdFunding.sol\":1038:1062  contributors[msg.sender] */\n      0x00\n        /* \"CrowdFunding.sol\":1051:1061  msg.sender */\n      caller\n        /* \"CrowdFunding.sol\":1038:1062  contributors[msg.sender] */\n      0xffffffffffffffffffffffffffffffffffffffff\n      and\n      0xffffffffffffffffffffffffffffffffffffffff\n      and\n      dup2\n      mstore\n      0x20\n      add\n      swap1\n      dup2\n      mstore\n      0x20\n      add\n      0x00\n      keccak256\n      sload\n        /* \"CrowdFunding.sol\":1038:1067  contributors[msg.sender] == 0 */\n      eq\n        /* \"CrowdFunding.sol\":1035:1113  if(contributors[msg.sender] == 0){\r... */\n      iszero\n      tag_87\n      jumpi\n        /* \"CrowdFunding.sol\":1083:1099  noOfContributors */\n      0x06\n      0x00\n        /* \"CrowdFunding.sol\":1083:1101  noOfContributors++ */\n      dup2\n      sload\n      dup1\n      swap3\n      swap2\n      swap1\n      tag_88\n      swap1\n      tag_89\n      jump\t// in\n    tag_88:\n      swap2\n      swap1\n      pop\n      sstore\n      pop\n        /* \"CrowdFunding.sol\":1035:1113  if(contributors[msg.sender] == 0){\r... */\n    tag_87:\n        /* \"CrowdFunding.sol\":1149:1158  msg.value */\n      callvalue\n        /* \"CrowdFunding.sol\":1123:1135  contributors */\n      0x00\n        /* \"CrowdFunding.sol\":1123:1147  contributors[msg.sender] */\n      dup1\n        /* \"CrowdFunding.sol\":1136:1146  msg.sender */\n      caller\n        /* \"CrowdFunding.sol\":1123:1147  contributors[msg.sender] */\n      0xffffffffffffffffffffffffffffffffffffffff\n      and\n      0xffffffffffffffffffffffffffffffffffffffff\n      and\n      dup2\n      mstore\n      0x20\n      add\n      swap1\n      dup2\n      mstore\n      0x20\n      add\n      0x00\n      keccak256\n      0x00\n        /* \"CrowdFunding.sol\":1123:1158  contributors[msg.sender]+=msg.value */\n      dup3\n      dup3\n      sload\n      tag_90\n      swap2\n      swap1\n      tag_91\n      jump\t// in\n    tag_90:\n      swap3\n      pop\n      pop\n      dup2\n      swap1\n      sstore\n      pop\n        /* \"CrowdFunding.sol\":1183:1192  msg.value */\n      callvalue\n        /* \"CrowdFunding.sol\":1169:1181  raisedAmount */\n      0x05\n      0x00\n        /* \"CrowdFunding.sol\":1169:1192  raisedAmount+=msg.value */\n      dup3\n      dup3\n      sload\n      tag_92\n      swap2\n      swap1\n      tag_91\n      jump\t// in\n    tag_92:\n      swap3\n      pop\n      pop\n      dup2\n      swap1\n      sstore\n      pop\n        /* \"CrowdFunding.sol\":822:1200  function sendEth() public payable{\r... */\n      jump\t// out\n        /* \"CrowdFunding.sol\":106:148  mapping(address=>uint) public contributors */\n    tag_25:\n      mstore(0x20, 0x00)\n      dup1\n      0x00\n      mstore\n      keccak256(0x00, 0x40)\n      0x00\n      swap2\n      pop\n      swap1\n      pop\n      sload\n      dup2\n      jump\t// out\n        /* \"CrowdFunding.sol\":222:242  uint public deadline */\n    tag_30:\n      sload(0x03)\n      dup2\n      jump\t// out\n        /* \"CrowdFunding.sol\":1773:2170  function createRequests(string memory _description, address payable _recipient, uint _value) public onlyManager{\r... */\n    tag_36:\n        /* \"CrowdFunding.sol\":1699:1706  manager */\n      0x01\n      0x00\n      swap1\n      sload\n      swap1\n      0x0100\n      exp\n      swap1\n      div\n      0xffffffffffffffffffffffffffffffffffffffff\n      and\n        /* \"CrowdFunding.sol\":1687:1706  msg.sender==manager */\n      0xffffffffffffffffffffffffffffffffffffffff\n      and\n        /* \"CrowdFunding.sol\":1687:1697  msg.sender */\n      caller\n        /* \"CrowdFunding.sol\":1687:1706  msg.sender==manager */\n      0xffffffffffffffffffffffffffffffffffffffff\n      and\n      eq\n        /* \"CrowdFunding.sol\":1679:1747  require(msg.sender==manager, \"Only manager can call this function.\") */\n      tag_94\n      jumpi\n      mload(0x40)\n      0x08c379a000000000000000000000000000000000000000000000000000000000\n      dup2\n      mstore\n      0x04\n      add\n      tag_95\n      swap1\n      tag_96\n      jump\t// in\n    tag_95:\n      mload(0x40)\n      dup1\n      swap2\n      sub\n      swap1\n      revert\n    tag_94:\n        /* \"CrowdFunding.sol\":1895:1921  Request storage newRequest */\n      0x00\n        /* \"CrowdFunding.sol\":1924:1932  requests */\n      0x07\n        /* \"CrowdFunding.sol\":1924:1945  requests[numRequests] */\n      0x00\n        /* \"CrowdFunding.sol\":1933:1944  numRequests */\n      sload(0x08)\n        /* \"CrowdFunding.sol\":1924:1945  requests[numRequests] */\n      dup2\n      mstore\n      0x20\n      add\n      swap1\n      dup2\n      mstore\n      0x20\n      add\n      0x00\n      keccak256\n        /* \"CrowdFunding.sol\":1895:1945  Request storage newRequest = requests[numRequests] */\n      swap1\n      pop\n        /* \"CrowdFunding.sol\":1956:1967  numRequests */\n      0x08\n      0x00\n        /* \"CrowdFunding.sol\":1956:1969  numRequests++ */\n      dup2\n      sload\n      dup1\n      swap3\n      swap2\n      swap1\n      tag_98\n      swap1\n      tag_89\n      jump\t// in\n    tag_98:\n      swap2\n      swap1\n      pop\n      sstore\n      pop\n        /* \"CrowdFunding.sol\":2003:2015  _description */\n      dup4\n        /* \"CrowdFunding.sol\":1980:1990  newRequest */\n      dup2\n        /* \"CrowdFunding.sol\":1980:2002  newRequest.description */\n      0x00\n      add\n        /* \"CrowdFunding.sol\":1980:2015  newRequest.description=_description */\n      swap1\n      dup1\n      mload\n      swap1\n      0x20\n      add\n      swap1\n      tag_99\n      swap3\n      swap2\n      swap1\n      tag_100\n      jump\t// in\n    tag_99:\n      pop\n        /* \"CrowdFunding.sol\":2047:2057  _recipient */\n      dup3\n        /* \"CrowdFunding.sol\":2026:2036  newRequest */\n      dup2\n        /* \"CrowdFunding.sol\":2026:2046  newRequest.recipient */\n      0x01\n      add\n      0x00\n        /* \"CrowdFunding.sol\":2026:2057  newRequest.recipient=_recipient */\n      0x0100\n      exp\n      dup2\n      sload\n      dup2\n      0xffffffffffffffffffffffffffffffffffffffff\n      mul\n      not\n      and\n      swap1\n      dup4\n      0xffffffffffffffffffffffffffffffffffffffff\n      and\n      mul\n      or\n      swap1\n      sstore\n      pop\n        /* \"CrowdFunding.sol\":2085:2091  _value */\n      dup2\n        /* \"CrowdFunding.sol\":2068:2078  newRequest */\n      dup2\n        /* \"CrowdFunding.sol\":2068:2084  newRequest.value */\n      0x02\n      add\n        /* \"CrowdFunding.sol\":2068:2091  newRequest.value=_value */\n      dup2\n      swap1\n      sstore\n      pop\n        /* \"CrowdFunding.sol\":2123:2128  false */\n      0x00\n        /* \"CrowdFunding.sol\":2102:2112  newRequest */\n      dup2\n        /* \"CrowdFunding.sol\":2102:2122  newRequest.completed */\n      0x03\n      add\n      0x00\n        /* \"CrowdFunding.sol\":2102:2128  newRequest.completed=false */\n      0x0100\n      exp\n      dup2\n      sload\n      dup2\n      0xff\n      mul\n      not\n      and\n      swap1\n      dup4\n      iszero\n      iszero\n      mul\n      or\n      swap1\n      sstore\n      pop\n        /* \"CrowdFunding.sol\":2161:2162  0 */\n      0x00\n        /* \"CrowdFunding.sol\":2139:2149  newRequest */\n      dup2\n        /* \"CrowdFunding.sol\":2139:2160  newRequest.noOfVoters */\n      0x04\n      add\n        /* \"CrowdFunding.sol\":2139:2162  newRequest.noOfVoters=0 */\n      dup2\n      swap1\n      sstore\n      pop\n        /* \"CrowdFunding.sol\":1884:2170  {\r... */\n      pop\n        /* \"CrowdFunding.sol\":1773:2170  function createRequests(string memory _description, address payable _recipient, uint _value) public onlyManager{\r... */\n      pop\n      pop\n      pop\n      jump\t// out\n        /* \"CrowdFunding.sol\":155:177  address public manager */\n    tag_39:\n      0x01\n      0x00\n      swap1\n      sload\n      swap1\n      0x0100\n      exp\n      swap1\n      div\n      0xffffffffffffffffffffffffffffffffffffffff\n      and\n      dup2\n      jump\t// out\n        /* \"CrowdFunding.sol\":2178:2315  function voteRequest(uint _requestNo) public{\r... */\n    tag_46:\n        /* \"CrowdFunding.sol\":2266:2267  0 */\n      0x00\n        /* \"CrowdFunding.sol\":2241:2253  contributors */\n      dup1\n        /* \"CrowdFunding.sol\":2241:2265  contributors[msg.sender] */\n      0x00\n        /* \"CrowdFunding.sol\":2254:2264  msg.sender */\n      caller\n        /* \"CrowdFunding.sol\":2241:2265  contributors[msg.sender] */\n      0xffffffffffffffffffffffffffffffffffffffff\n      and\n      0xffffffffffffffffffffffffffffffffffffffff\n      and\n      dup2\n      mstore\n      0x20\n      add\n      swap1\n      dup2\n      mstore\n      0x20\n      add\n      0x00\n      keccak256\n      sload\n        /* \"CrowdFunding.sol\":2241:2267  contributors[msg.sender]>0 */\n      gt\n        /* \"CrowdFunding.sol\":2233:2297  require(contributors[msg.sender]>0,\"You must be a contributor.\") */\n      tag_102\n      jumpi\n      mload(0x40)\n      0x08c379a000000000000000000000000000000000000000000000000000000000\n      dup2\n      mstore\n      0x04\n      add\n      tag_103\n      swap1\n      tag_104\n      jump\t// in\n    tag_103:\n      mload(0x40)\n      dup1\n      swap2\n      sub\n      swap1\n      revert\n    tag_102:\n        /* \"CrowdFunding.sol\":2178:2315  function voteRequest(uint _requestNo) public{\r... */\n      pop\n      jump\t// out\n        /* \"CrowdFunding.sol\":305:333  uint public noOfContributors */\n    tag_49:\n      sload(0x06)\n      dup2\n      jump\t// out\n        /* \"CrowdFunding.sol\":1319:1638  function refund() public {\r... */\n    tag_53:\n        /* \"CrowdFunding.sol\":1379:1387  deadline */\n      sload(0x03)\n        /* \"CrowdFunding.sol\":1363:1378  block.timestamp */\n      timestamp\n        /* \"CrowdFunding.sol\":1363:1387  block.timestamp>deadline */\n      gt\n        /* \"CrowdFunding.sol\":1363:1410  block.timestamp>deadline && raisedAmount<target */\n      dup1\n      iszero\n      tag_106\n      jumpi\n      pop\n        /* \"CrowdFunding.sol\":1404:1410  target */\n      sload(0x04)\n        /* \"CrowdFunding.sol\":1391:1403  raisedAmount */\n      sload(0x05)\n        /* \"CrowdFunding.sol\":1391:1410  raisedAmount<target */\n      lt\n        /* \"CrowdFunding.sol\":1363:1410  block.timestamp>deadline && raisedAmount<target */\n    tag_106:\n        /* \"CrowdFunding.sol\":1355:1446  require(block.timestamp>deadline && raisedAmount<target, \"You are not elegible for refund\") */\n      tag_107\n      jumpi\n      mload(0x40)\n      0x08c379a000000000000000000000000000000000000000000000000000000000\n      dup2\n      mstore\n      0x04\n      add\n      tag_108\n      swap1\n      tag_109\n      jump\t// in\n    tag_108:\n      mload(0x40)\n      dup1\n      swap2\n      sub\n      swap1\n      revert\n    tag_107:\n        /* \"CrowdFunding.sol\":1490:1491  0 */\n      0x00\n        /* \"CrowdFunding.sol\":1465:1477  contributors */\n      dup1\n        /* \"CrowdFunding.sol\":1465:1489  contributors[msg.sender] */\n      0x00\n        /* \"CrowdFunding.sol\":1478:1488  msg.sender */\n      caller\n        /* \"CrowdFunding.sol\":1465:1489  contributors[msg.sender] */\n      0xffffffffffffffffffffffffffffffffffffffff\n      and\n      0xffffffffffffffffffffffffffffffffffffffff\n      and\n      dup2\n      mstore\n      0x20\n      add\n      swap1\n      dup2\n      mstore\n      0x20\n      add\n      0x00\n      keccak256\n      sload\n        /* \"CrowdFunding.sol\":1465:1491  contributors[msg.sender]>0 */\n      gt\n        /* \"CrowdFunding.sol\":1457:1492  require(contributors[msg.sender]>0) */\n      tag_110\n      jumpi\n      0x00\n      dup1\n      revert\n    tag_110:\n        /* \"CrowdFunding.sol\":1503:1523  address payable user */\n      0x00\n        /* \"CrowdFunding.sol\":1532:1542  msg.sender */\n      caller\n        /* \"CrowdFunding.sol\":1503:1543  address payable user=payable(msg.sender) */\n      swap1\n      pop\n        /* \"CrowdFunding.sol\":1554:1558  user */\n      dup1\n        /* \"CrowdFunding.sol\":1554:1567  user.transfer */\n      0xffffffffffffffffffffffffffffffffffffffff\n      and\n        /* \"CrowdFunding.sol\":1554:1593  user.transfer(contributors[msg.sender]) */\n      0x08fc\n        /* \"CrowdFunding.sol\":1568:1580  contributors */\n      0x00\n        /* \"CrowdFunding.sol\":1568:1592  contributors[msg.sender] */\n      dup1\n        /* \"CrowdFunding.sol\":1581:1591  msg.sender */\n      caller\n        /* \"CrowdFunding.sol\":1568:1592  contributors[msg.sender] */\n      0xffffffffffffffffffffffffffffffffffffffff\n      and\n      0xffffffffffffffffffffffffffffffffffffffff\n      and\n      dup2\n      mstore\n      0x20\n      add\n      swap1\n      dup2\n      mstore\n      0x20\n      add\n      0x00\n      keccak256\n      sload\n        /* \"CrowdFunding.sol\":1554:1593  user.transfer(contributors[msg.sender]) */\n      swap1\n      dup2\n      iszero\n      mul\n      swap1\n      mload(0x40)\n      0x00\n      mload(0x40)\n      dup1\n      dup4\n      sub\n      dup2\n      dup6\n      dup9\n      dup9\n      call\n      swap4\n      pop\n      pop\n      pop\n      pop\n      iszero\n      dup1\n      iszero\n      tag_112\n      jumpi\n      returndatasize\n      0x00\n      dup1\n      returndatacopy\n      revert(0x00, returndatasize)\n    tag_112:\n      pop\n        /* \"CrowdFunding.sol\":1629:1630  0 */\n      0x00\n        /* \"CrowdFunding.sol\":1604:1616  contributors */\n      dup1\n        /* \"CrowdFunding.sol\":1604:1628  contributors[msg.sender] */\n      0x00\n        /* \"CrowdFunding.sol\":1617:1627  msg.sender */\n      caller\n        /* \"CrowdFunding.sol\":1604:1628  contributors[msg.sender] */\n      0xffffffffffffffffffffffffffffffffffffffff\n      and\n      0xffffffffffffffffffffffffffffffffffffffff\n      and\n      dup2\n      mstore\n      0x20\n      add\n      swap1\n      dup2\n      mstore\n      0x20\n      add\n      0x00\n      keccak256\n        /* \"CrowdFunding.sol\":1604:1630  contributors[msg.sender]=0 */\n      dup2\n      swap1\n      sstore\n      pop\n        /* \"CrowdFunding.sol\":1344:1638  {\r... */\n      pop\n        /* \"CrowdFunding.sol\":1319:1638  function refund() public {\r... */\n      jump\t// out\n        /* \"CrowdFunding.sol\":1208:1311  function getContractBalance() public view returns(uint){\r... */\n    tag_56:\n        /* \"CrowdFunding.sol\":1258:1262  uint */\n      0x00\n        /* \"CrowdFunding.sol\":1281:1302  address(this).balance */\n      selfbalance\n        /* \"CrowdFunding.sol\":1274:1302  return address(this).balance */\n      swap1\n      pop\n        /* \"CrowdFunding.sol\":1208:1311  function getContractBalance() public view returns(uint){\r... */\n      swap1\n      jump\t// out\n        /* \"CrowdFunding.sol\":549:587  mapping(uint=>Request) public requests */\n    tag_61:\n      mstore(0x20, 0x07)\n      dup1\n      0x00\n      mstore\n      keccak256(0x00, 0x40)\n      0x00\n      swap2\n      pop\n      swap1\n      pop\n      dup1\n      0x00\n      add\n      dup1\n      sload\n      tag_114\n      swap1\n      tag_115\n      jump\t// in\n    tag_114:\n      dup1\n      0x1f\n      add\n      0x20\n      dup1\n      swap2\n      div\n      mul\n      0x20\n      add\n      mload(0x40)\n      swap1\n      dup2\n      add\n      0x40\n      mstore\n      dup1\n      swap3\n      swap2\n      swap1\n      dup2\n      dup2\n      mstore\n      0x20\n      add\n      dup3\n      dup1\n      sload\n      tag_116\n      swap1\n      tag_115\n      jump\t// in\n    tag_116:\n      dup1\n      iszero\n      tag_117\n      jumpi\n      dup1\n      0x1f\n      lt\n      tag_118\n      jumpi\n      0x0100\n      dup1\n      dup4\n      sload\n      div\n      mul\n      dup4\n      mstore\n      swap2\n      0x20\n      add\n      swap2\n      jump(tag_117)\n    tag_118:\n      dup3\n      add\n      swap2\n      swap1\n      0x00\n      mstore\n      keccak256(0x00, 0x20)\n      swap1\n    tag_119:\n      dup2\n      sload\n      dup2\n      mstore\n      swap1\n      0x01\n      add\n      swap1\n      0x20\n      add\n      dup1\n      dup4\n      gt\n      tag_119\n      jumpi\n      dup3\n      swap1\n      sub\n      0x1f\n      and\n      dup3\n      add\n      swap2\n    tag_117:\n      pop\n      pop\n      pop\n      pop\n      pop\n      swap1\n      dup1\n      0x01\n      add\n      0x00\n      swap1\n      sload\n      swap1\n      0x0100\n      exp\n      swap1\n      div\n      0xffffffffffffffffffffffffffffffffffffffff\n      and\n      swap1\n      dup1\n      0x02\n      add\n      sload\n      swap1\n      dup1\n      0x03\n      add\n      0x00\n      swap1\n      sload\n      swap1\n      0x0100\n      exp\n      swap1\n      div\n      0xff\n      and\n      swap1\n      dup1\n      0x04\n      add\n      sload\n      swap1\n      pop\n      dup6\n      jump\t// out\n        /* \"CrowdFunding.sol\":184:215  uint public minimumContribution */\n    tag_66:\n      sload(0x02)\n      dup2\n      jump\t// out\n        /* \"CrowdFunding.sol\":594:617  uint public numRequests */\n    tag_70:\n      sload(0x08)\n      dup2\n      jump\t// out\n        /* \"CrowdFunding.sol\":274:298  uint public raisedAmount */\n    tag_74:\n      sload(0x05)\n      dup2\n      jump\t// out\n        /* \"CrowdFunding.sol\":249:267  uint public target */\n    tag_78:\n      sload(0x04)\n      dup2\n      jump\t// out\n    tag_100:\n      dup3\n      dup1\n      sload\n      tag_120\n      swap1\n      tag_115\n      jump\t// in\n    tag_120:\n      swap1\n      0x00\n      mstore\n      keccak256(0x00, 0x20)\n      swap1\n      0x1f\n      add\n      0x20\n      swap1\n      div\n      dup2\n      add\n      swap3\n      dup3\n      tag_122\n      jumpi\n      0x00\n      dup6\n      sstore\n      jump(tag_121)\n    tag_122:\n      dup3\n      0x1f\n      lt\n      tag_123\n      jumpi\n      dup1\n      mload\n      not(0xff)\n      and\n      dup4\n      dup1\n      add\n      or\n      dup6\n      sstore\n      jump(tag_121)\n    tag_123:\n      dup3\n      dup1\n      add\n      0x01\n      add\n      dup6\n      sstore\n      dup3\n      iszero\n      tag_121\n      jumpi\n      swap2\n      dup3\n      add\n    tag_124:\n      dup3\n      dup2\n      gt\n      iszero\n      tag_125\n      jumpi\n      dup3\n      mload\n      dup3\n      sstore\n      swap2\n      0x20\n      add\n      swap2\n      swap1\n      0x01\n      add\n      swap1\n      jump(tag_124)\n    tag_125:\n    tag_121:\n      pop\n      swap1\n      pop\n      tag_126\n      swap2\n      swap1\n      tag_127\n      jump\t// in\n    tag_126:\n      pop\n      swap1\n      jump\t// out\n    tag_127:\n    tag_128:\n      dup1\n      dup3\n      gt\n      iszero\n      tag_129\n      jumpi\n      0x00\n      dup2\n      0x00\n      swap1\n      sstore\n      pop\n      0x01\n      add\n      jump(tag_128)\n    tag_129:\n      pop\n      swap1\n      jump\t// out\n        /* \"#utility.yul\":7:419   */\n    tag_131:\n        /* \"#utility.yul\":85:90   */\n      0x00\n        /* \"#utility.yul\":110:176   */\n      tag_133\n        /* \"#utility.yul\":126:175   */\n      tag_134\n        /* \"#utility.yul\":168:174   */\n      dup5\n        /* \"#utility.yul\":126:175   */\n      tag_135\n      jump\t// in\n    tag_134:\n        /* \"#utility.yul\":110:176   */\n      tag_136\n      jump\t// in\n    tag_133:\n        /* \"#utility.yul\":101:176   */\n      swap1\n      pop\n        /* \"#utility.yul\":199:205   */\n      dup3\n        /* \"#utility.yul\":192:197   */\n      dup2\n        /* \"#utility.yul\":185:206   */\n      mstore\n        /* \"#utility.yul\":237:241   */\n      0x20\n        /* \"#utility.yul\":230:235   */\n      dup2\n        /* \"#utility.yul\":226:242   */\n      add\n        /* \"#utility.yul\":275:278   */\n      dup5\n        /* \"#utility.yul\":266:272   */\n      dup5\n        /* \"#utility.yul\":261:264   */\n      dup5\n        /* \"#utility.yul\":257:273   */\n      add\n        /* \"#utility.yul\":254:279   */\n      gt\n        /* \"#utility.yul\":251:363   */\n      iszero\n      tag_137\n      jumpi\n        /* \"#utility.yul\":282:361   */\n      tag_138\n      tag_139\n      jump\t// in\n    tag_138:\n        /* \"#utility.yul\":251:363   */\n    tag_137:\n        /* \"#utility.yul\":372:413   */\n      tag_140\n        /* \"#utility.yul\":406:412   */\n      dup5\n        /* \"#utility.yul\":401:404   */\n      dup3\n        /* \"#utility.yul\":396:399   */\n      dup6\n        /* \"#utility.yul\":372:413   */\n      tag_141\n      jump\t// in\n    tag_140:\n        /* \"#utility.yul\":91:419   */\n      pop\n        /* \"#utility.yul\":7:419   */\n      swap4\n      swap3\n      pop\n      pop\n      pop\n      jump\t// out\n        /* \"#utility.yul\":425:564   */\n    tag_142:\n        /* \"#utility.yul\":471:476   */\n      0x00\n        /* \"#utility.yul\":509:515   */\n      dup2\n        /* \"#utility.yul\":496:516   */\n      calldataload\n        /* \"#utility.yul\":487:516   */\n      swap1\n      pop\n        /* \"#utility.yul\":525:558   */\n      tag_144\n        /* \"#utility.yul\":552:557   */\n      dup2\n        /* \"#utility.yul\":525:558   */\n      tag_145\n      jump\t// in\n    tag_144:\n        /* \"#utility.yul\":425:564   */\n      swap3\n      swap2\n      pop\n      pop\n      jump\t// out\n        /* \"#utility.yul\":570:725   */\n    tag_146:\n        /* \"#utility.yul\":624:629   */\n      0x00\n        /* \"#utility.yul\":662:668   */\n      dup2\n        /* \"#utility.yul\":649:669   */\n      calldataload\n        /* \"#utility.yul\":640:669   */\n      swap1\n      pop\n        /* \"#utility.yul\":678:719   */\n      tag_148\n        /* \"#utility.yul\":713:718   */\n      dup2\n        /* \"#utility.yul\":678:719   */\n      tag_149\n      jump\t// in\n    tag_148:\n        /* \"#utility.yul\":570:725   */\n      swap3\n      swap2\n      pop\n      pop\n      jump\t// out\n        /* \"#utility.yul\":745:1085   */\n    tag_150:\n        /* \"#utility.yul\":801:806   */\n      0x00\n        /* \"#utility.yul\":850:853   */\n      dup3\n        /* \"#utility.yul\":843:847   */\n      0x1f\n        /* \"#utility.yul\":835:841   */\n      dup4\n        /* \"#utility.yul\":831:848   */\n      add\n        /* \"#utility.yul\":827:854   */\n      slt\n        /* \"#utility.yul\":817:939   */\n      tag_152\n      jumpi\n        /* \"#utility.yul\":858:937   */\n      tag_153\n      tag_154\n      jump\t// in\n    tag_153:\n        /* \"#utility.yul\":817:939   */\n    tag_152:\n        /* \"#utility.yul\":975:981   */\n      dup2\n        /* \"#utility.yul\":962:982   */\n      calldataload\n        /* \"#utility.yul\":1000:1079   */\n      tag_155\n        /* \"#utility.yul\":1075:1078   */\n      dup5\n        /* \"#utility.yul\":1067:1073   */\n      dup3\n        /* \"#utility.yul\":1060:1064   */\n      0x20\n        /* \"#utility.yul\":1052:1058   */\n      dup7\n        /* \"#utility.yul\":1048:1065   */\n      add\n        /* \"#utility.yul\":1000:1079   */\n      tag_131\n      jump\t// in\n    tag_155:\n        /* \"#utility.yul\":991:1079   */\n      swap2\n      pop\n        /* \"#utility.yul\":807:1085   */\n      pop\n        /* \"#utility.yul\":745:1085   */\n      swap3\n      swap2\n      pop\n      pop\n      jump\t// out\n        /* \"#utility.yul\":1091:1230   */\n    tag_156:\n        /* \"#utility.yul\":1137:1142   */\n      0x00\n        /* \"#utility.yul\":1175:1181   */\n      dup2\n        /* \"#utility.yul\":1162:1182   */\n      calldataload\n        /* \"#utility.yul\":1153:1182   */\n      swap1\n      pop\n        /* \"#utility.yul\":1191:1224   */\n      tag_158\n        /* \"#utility.yul\":1218:1223   */\n      dup2\n        /* \"#utility.yul\":1191:1224   */\n      tag_159\n      jump\t// in\n    tag_158:\n        /* \"#utility.yul\":1091:1230   */\n      swap3\n      swap2\n      pop\n      pop\n      jump\t// out\n        /* \"#utility.yul\":1236:1565   */\n    tag_24:\n        /* \"#utility.yul\":1295:1301   */\n      0x00\n        /* \"#utility.yul\":1344:1346   */\n      0x20\n        /* \"#utility.yul\":1332:1341   */\n      dup3\n        /* \"#utility.yul\":1323:1330   */\n      dup5\n        /* \"#utility.yul\":1319:1342   */\n      sub\n        /* \"#utility.yul\":1315:1347   */\n      slt\n        /* \"#utility.yul\":1312:1431   */\n      iszero\n      tag_161\n      jumpi\n        /* \"#utility.yul\":1350:1429   */\n      tag_162\n      tag_163\n      jump\t// in\n    tag_162:\n        /* \"#utility.yul\":1312:1431   */\n    tag_161:\n        /* \"#utility.yul\":1470:1471   */\n      0x00\n        /* \"#utility.yul\":1495:1548   */\n      tag_164\n        /* \"#utility.yul\":1540:1547   */\n      dup5\n        /* \"#utility.yul\":1531:1537   */\n      dup3\n        /* \"#utility.yul\":1520:1529   */\n      dup6\n        /* \"#utility.yul\":1516:1538   */\n      add\n        /* \"#utility.yul\":1495:1548   */\n      tag_142\n      jump\t// in\n    tag_164:\n        /* \"#utility.yul\":1485:1548   */\n      swap2\n      pop\n        /* \"#utility.yul\":1441:1558   */\n      pop\n        /* \"#utility.yul\":1236:1565   */\n      swap3\n      swap2\n      pop\n      pop\n      jump\t// out\n        /* \"#utility.yul\":1571:2386   */\n    tag_35:\n        /* \"#utility.yul\":1666:1672   */\n      0x00\n        /* \"#utility.yul\":1674:1680   */\n      dup1\n        /* \"#utility.yul\":1682:1688   */\n      0x00\n        /* \"#utility.yul\":1731:1733   */\n      0x60\n        /* \"#utility.yul\":1719:1728   */\n      dup5\n        /* \"#utility.yul\":1710:1717   */\n      dup7\n        /* \"#utility.yul\":1706:1729   */\n      sub\n        /* \"#utility.yul\":1702:1734   */\n      slt\n        /* \"#utility.yul\":1699:1818   */\n      iszero\n      tag_166\n      jumpi\n        /* \"#utility.yul\":1737:1816   */\n      tag_167\n      tag_163\n      jump\t// in\n    tag_167:\n        /* \"#utility.yul\":1699:1818   */\n    tag_166:\n        /* \"#utility.yul\":1885:1886   */\n      0x00\n        /* \"#utility.yul\":1874:1883   */\n      dup5\n        /* \"#utility.yul\":1870:1887   */\n      add\n        /* \"#utility.yul\":1857:1888   */\n      calldataload\n        /* \"#utility.yul\":1915:1933   */\n      0xffffffffffffffff\n        /* \"#utility.yul\":1907:1913   */\n      dup2\n        /* \"#utility.yul\":1904:1934   */\n      gt\n        /* \"#utility.yul\":1901:2018   */\n      iszero\n      tag_168\n      jumpi\n        /* \"#utility.yul\":1937:2016   */\n      tag_169\n      tag_170\n      jump\t// in\n    tag_169:\n        /* \"#utility.yul\":1901:2018   */\n    tag_168:\n        /* \"#utility.yul\":2042:2105   */\n      tag_171\n        /* \"#utility.yul\":2097:2104   */\n      dup7\n        /* \"#utility.yul\":2088:2094   */\n      dup3\n        /* \"#utility.yul\":2077:2086   */\n      dup8\n        /* \"#utility.yul\":2073:2095   */\n      add\n        /* \"#utility.yul\":2042:2105   */\n      tag_150\n      jump\t// in\n    tag_171:\n        /* \"#utility.yul\":2032:2105   */\n      swap4\n      pop\n        /* \"#utility.yul\":1828:2115   */\n      pop\n        /* \"#utility.yul\":2154:2156   */\n      0x20\n        /* \"#utility.yul\":2180:2241   */\n      tag_172\n        /* \"#utility.yul\":2233:2240   */\n      dup7\n        /* \"#utility.yul\":2224:2230   */\n      dup3\n        /* \"#utility.yul\":2213:2222   */\n      dup8\n        /* \"#utility.yul\":2209:2231   */\n      add\n        /* \"#utility.yul\":2180:2241   */\n      tag_146\n      jump\t// in\n    tag_172:\n        /* \"#utility.yul\":2170:2241   */\n      swap3\n      pop\n        /* \"#utility.yul\":2125:2251   */\n      pop\n        /* \"#utility.yul\":2290:2292   */\n      0x40\n        /* \"#utility.yul\":2316:2369   */\n      tag_173\n        /* \"#utility.yul\":2361:2368   */\n      dup7\n        /* \"#utility.yul\":2352:2358   */\n      dup3\n        /* \"#utility.yul\":2341:2350   */\n      dup8\n        /* \"#utility.yul\":2337:2359   */\n      add\n        /* \"#utility.yul\":2316:2369   */\n      tag_156\n      jump\t// in\n    tag_173:\n        /* \"#utility.yul\":2306:2369   */\n      swap2\n      pop\n        /* \"#utility.yul\":2261:2379   */\n      pop\n        /* \"#utility.yul\":1571:2386   */\n      swap3\n      pop\n      swap3\n      pop\n      swap3\n      jump\t// out\n        /* \"#utility.yul\":2392:2721   */\n    tag_45:\n        /* \"#utility.yul\":2451:2457   */\n      0x00\n        /* \"#utility.yul\":2500:2502   */\n      0x20\n        /* \"#utility.yul\":2488:2497   */\n      dup3\n        /* \"#utility.yul\":2479:2486   */\n      dup5\n        /* \"#utility.yul\":2475:2498   */\n      sub\n        /* \"#utility.yul\":2471:2503   */\n      slt\n        /* \"#utility.yul\":2468:2587   */\n      iszero\n      tag_175\n      jumpi\n        /* \"#utility.yul\":2506:2585   */\n      tag_176\n      tag_163\n      jump\t// in\n    tag_176:\n        /* \"#utility.yul\":2468:2587   */\n    tag_175:\n        /* \"#utility.yul\":2626:2627   */\n      0x00\n        /* \"#utility.yul\":2651:2704   */\n      tag_177\n        /* \"#utility.yul\":2696:2703   */\n      dup5\n        /* \"#utility.yul\":2687:2693   */\n      dup3\n        /* \"#utility.yul\":2676:2685   */\n      dup6\n        /* \"#utility.yul\":2672:2694   */\n      add\n        /* \"#utility.yul\":2651:2704   */\n      tag_156\n      jump\t// in\n    tag_177:\n        /* \"#utility.yul\":2641:2704   */\n      swap2\n      pop\n        /* \"#utility.yul\":2597:2714   */\n      pop\n        /* \"#utility.yul\":2392:2721   */\n      swap3\n      swap2\n      pop\n      pop\n      jump\t// out\n        /* \"#utility.yul\":2727:2869   */\n    tag_178:\n        /* \"#utility.yul\":2830:2862   */\n      tag_180\n        /* \"#utility.yul\":2856:2861   */\n      dup2\n        /* \"#utility.yul\":2830:2862   */\n      tag_181\n      jump\t// in\n    tag_180:\n        /* \"#utility.yul\":2825:2828   */\n      dup3\n        /* \"#utility.yul\":2818:2863   */\n      mstore\n        /* \"#utility.yul\":2727:2869   */\n      pop\n      pop\n      jump\t// out\n        /* \"#utility.yul\":2875:2993   */\n    tag_182:\n        /* \"#utility.yul\":2962:2986   */\n      tag_184\n        /* \"#utility.yul\":2980:2985   */\n      dup2\n        /* \"#utility.yul\":2962:2986   */\n      tag_185\n      jump\t// in\n    tag_184:\n        /* \"#utility.yul\":2957:2960   */\n      dup3\n        /* \"#utility.yul\":2950:2987   */\n      mstore\n        /* \"#utility.yul\":2875:2993   */\n      pop\n      pop\n      jump\t// out\n        /* \"#utility.yul\":2999:3108   */\n    tag_186:\n        /* \"#utility.yul\":3080:3101   */\n      tag_188\n        /* \"#utility.yul\":3095:3100   */\n      dup2\n        /* \"#utility.yul\":3080:3101   */\n      tag_189\n      jump\t// in\n    tag_188:\n        /* \"#utility.yul\":3075:3078   */\n      dup3\n        /* \"#utility.yul\":3068:3102   */\n      mstore\n        /* \"#utility.yul\":2999:3108   */\n      pop\n      pop\n      jump\t// out\n        /* \"#utility.yul\":3114:3478   */\n    tag_190:\n        /* \"#utility.yul\":3202:3205   */\n      0x00\n        /* \"#utility.yul\":3230:3269   */\n      tag_192\n        /* \"#utility.yul\":3263:3268   */\n      dup3\n        /* \"#utility.yul\":3230:3269   */\n      tag_193\n      jump\t// in\n    tag_192:\n        /* \"#utility.yul\":3285:3356   */\n      tag_194\n        /* \"#utility.yul\":3349:3355   */\n      dup2\n        /* \"#utility.yul\":3344:3347   */\n      dup6\n        /* \"#utility.yul\":3285:3356   */\n      tag_195\n      jump\t// in\n    tag_194:\n        /* \"#utility.yul\":3278:3356   */\n      swap4\n      pop\n        /* \"#utility.yul\":3365:3417   */\n      tag_196\n        /* \"#utility.yul\":3410:3416   */\n      dup2\n        /* \"#utility.yul\":3405:3408   */\n      dup6\n        /* \"#utility.yul\":3398:3402   */\n      0x20\n        /* \"#utility.yul\":3391:3396   */\n      dup7\n        /* \"#utility.yul\":3387:3403   */\n      add\n        /* \"#utility.yul\":3365:3417   */\n      tag_197\n      jump\t// in\n    tag_196:\n        /* \"#utility.yul\":3442:3471   */\n      tag_198\n        /* \"#utility.yul\":3464:3470   */\n      dup2\n        /* \"#utility.yul\":3442:3471   */\n      tag_199\n      jump\t// in\n    tag_198:\n        /* \"#utility.yul\":3437:3440   */\n      dup5\n        /* \"#utility.yul\":3433:3472   */\n      add\n        /* \"#utility.yul\":3426:3472   */\n      swap2\n      pop\n        /* \"#utility.yul\":3206:3478   */\n      pop\n        /* \"#utility.yul\":3114:3478   */\n      swap3\n      swap2\n      pop\n      pop\n      jump\t// out\n        /* \"#utility.yul\":3484:3850   */\n    tag_200:\n        /* \"#utility.yul\":3626:3629   */\n      0x00\n        /* \"#utility.yul\":3647:3714   */\n      tag_202\n        /* \"#utility.yul\":3711:3713   */\n      0x24\n        /* \"#utility.yul\":3706:3709   */\n      dup4\n        /* \"#utility.yul\":3647:3714   */\n      tag_195\n      jump\t// in\n    tag_202:\n        /* \"#utility.yul\":3640:3714   */\n      swap2\n      pop\n        /* \"#utility.yul\":3723:3816   */\n      tag_203\n        /* \"#utility.yul\":3812:3815   */\n      dup3\n        /* \"#utility.yul\":3723:3816   */\n      tag_204\n      jump\t// in\n    tag_203:\n        /* \"#utility.yul\":3841:3843   */\n      0x40\n        /* \"#utility.yul\":3836:3839   */\n      dup3\n        /* \"#utility.yul\":3832:3844   */\n      add\n        /* \"#utility.yul\":3825:3844   */\n      swap1\n      pop\n        /* \"#utility.yul\":3484:3850   */\n      swap2\n      swap1\n      pop\n      jump\t// out\n        /* \"#utility.yul\":3856:4222   */\n    tag_205:\n        /* \"#utility.yul\":3998:4001   */\n      0x00\n        /* \"#utility.yul\":4019:4086   */\n      tag_207\n        /* \"#utility.yul\":4083:4085   */\n      0x1f\n        /* \"#utility.yul\":4078:4081   */\n      dup4\n        /* \"#utility.yul\":4019:4086   */\n      tag_195\n      jump\t// in\n    tag_207:\n        /* \"#utility.yul\":4012:4086   */\n      swap2\n      pop\n        /* \"#utility.yul\":4095:4188   */\n      tag_208\n        /* \"#utility.yul\":4184:4187   */\n      dup3\n        /* \"#utility.yul\":4095:4188   */\n      tag_209\n      jump\t// in\n    tag_208:\n        /* \"#utility.yul\":4213:4215   */\n      0x20\n        /* \"#utility.yul\":4208:4211   */\n      dup3\n        /* \"#utility.yul\":4204:4216   */\n      add\n        /* \"#utility.yul\":4197:4216   */\n      swap1\n      pop\n        /* \"#utility.yul\":3856:4222   */\n      swap2\n      swap1\n      pop\n      jump\t// out\n        /* \"#utility.yul\":4228:4594   */\n    tag_210:\n        /* \"#utility.yul\":4370:4373   */\n      0x00\n        /* \"#utility.yul\":4391:4458   */\n      tag_212\n        /* \"#utility.yul\":4455:4457   */\n      0x1a\n        /* \"#utility.yul\":4450:4453   */\n      dup4\n        /* \"#utility.yul\":4391:4458   */\n      tag_195\n      jump\t// in\n    tag_212:\n        /* \"#utility.yul\":4384:4458   */\n      swap2\n      pop\n        /* \"#utility.yul\":4467:4560   */\n      tag_213\n        /* \"#utility.yul\":4556:4559   */\n      dup3\n        /* \"#utility.yul\":4467:4560   */\n      tag_214\n      jump\t// in\n    tag_213:\n        /* \"#utility.yul\":4585:4587   */\n      0x20\n        /* \"#utility.yul\":4580:4583   */\n      dup3\n        /* \"#utility.yul\":4576:4588   */\n      add\n        /* \"#utility.yul\":4569:4588   */\n      swap1\n      pop\n        /* \"#utility.yul\":4228:4594   */\n      swap2\n      swap1\n      pop\n      jump\t// out\n        /* \"#utility.yul\":4600:4966   */\n    tag_215:\n        /* \"#utility.yul\":4742:4745   */\n      0x00\n        /* \"#utility.yul\":4763:4830   */\n      tag_217\n        /* \"#utility.yul\":4827:4829   */\n      0x20\n        /* \"#utility.yul\":4822:4825   */\n      dup4\n        /* \"#utility.yul\":4763:4830   */\n      tag_195\n      jump\t// in\n    tag_217:\n        /* \"#utility.yul\":4756:4830   */\n      swap2\n      pop\n        /* \"#utility.yul\":4839:4932   */\n      tag_218\n        /* \"#utility.yul\":4928:4931   */\n      dup3\n        /* \"#utility.yul\":4839:4932   */\n      tag_219\n      jump\t// in\n    tag_218:\n        /* \"#utility.yul\":4957:4959   */\n      0x20\n        /* \"#utility.yul\":4952:4955   */\n      dup3\n        /* \"#utility.yul\":4948:4960   */\n      add\n        /* \"#utility.yul\":4941:4960   */\n      swap1\n      pop\n        /* \"#utility.yul\":4600:4966   */\n      swap2\n      swap1\n      pop\n      jump\t// out\n        /* \"#utility.yul\":4972:5338   */\n    tag_220:\n        /* \"#utility.yul\":5114:5117   */\n      0x00\n        /* \"#utility.yul\":5135:5202   */\n      tag_222\n        /* \"#utility.yul\":5199:5201   */\n      0x1d\n        /* \"#utility.yul\":5194:5197   */\n      dup4\n        /* \"#utility.yul\":5135:5202   */\n      tag_195\n      jump\t// in\n    tag_222:\n        /* \"#utility.yul\":5128:5202   */\n      swap2\n      pop\n        /* \"#utility.yul\":5211:5304   */\n      tag_223\n        /* \"#utility.yul\":5300:5303   */\n      dup3\n        /* \"#utility.yul\":5211:5304   */\n      tag_224\n      jump\t// in\n    tag_223:\n        /* \"#utility.yul\":5329:5331   */\n      0x20\n        /* \"#utility.yul\":5324:5327   */\n      dup3\n        /* \"#utility.yul\":5320:5332   */\n      add\n        /* \"#utility.yul\":5313:5332   */\n      swap1\n      pop\n        /* \"#utility.yul\":4972:5338   */\n      swap2\n      swap1\n      pop\n      jump\t// out\n        /* \"#utility.yul\":5344:5462   */\n    tag_225:\n        /* \"#utility.yul\":5431:5455   */\n      tag_227\n        /* \"#utility.yul\":5449:5454   */\n      dup2\n        /* \"#utility.yul\":5431:5455   */\n      tag_228\n      jump\t// in\n    tag_227:\n        /* \"#utility.yul\":5426:5429   */\n      dup3\n        /* \"#utility.yul\":5419:5456   */\n      mstore\n        /* \"#utility.yul\":5344:5462   */\n      pop\n      pop\n      jump\t// out\n        /* \"#utility.yul\":5468:5690   */\n    tag_41:\n        /* \"#utility.yul\":5561:5565   */\n      0x00\n        /* \"#utility.yul\":5599:5601   */\n      0x20\n        /* \"#utility.yul\":5588:5597   */\n      dup3\n        /* \"#utility.yul\":5584:5602   */\n      add\n        /* \"#utility.yul\":5576:5602   */\n      swap1\n      pop\n        /* \"#utility.yul\":5612:5683   */\n      tag_230\n        /* \"#utility.yul\":5680:5681   */\n      0x00\n        /* \"#utility.yul\":5669:5678   */\n      dup4\n        /* \"#utility.yul\":5665:5682   */\n      add\n        /* \"#utility.yul\":5656:5662   */\n      dup5\n        /* \"#utility.yul\":5612:5683   */\n      tag_182\n      jump\t// in\n    tag_230:\n        /* \"#utility.yul\":5468:5690   */\n      swap3\n      swap2\n      pop\n      pop\n      jump\t// out\n        /* \"#utility.yul\":5696:6471   */\n    tag_63:\n        /* \"#utility.yul\":5931:5935   */\n      0x00\n        /* \"#utility.yul\":5969:5972   */\n      0xa0\n        /* \"#utility.yul\":5958:5967   */\n      dup3\n        /* \"#utility.yul\":5954:5973   */\n      add\n        /* \"#utility.yul\":5946:5973   */\n      swap1\n      pop\n        /* \"#utility.yul\":6019:6028   */\n      dup2\n        /* \"#utility.yul\":6013:6017   */\n      dup2\n        /* \"#utility.yul\":6009:6029   */\n      sub\n        /* \"#utility.yul\":6005:6006   */\n      0x00\n        /* \"#utility.yul\":5994:6003   */\n      dup4\n        /* \"#utility.yul\":5990:6007   */\n      add\n        /* \"#utility.yul\":5983:6030   */\n      mstore\n        /* \"#utility.yul\":6047:6125   */\n      tag_232\n        /* \"#utility.yul\":6120:6124   */\n      dup2\n        /* \"#utility.yul\":6111:6117   */\n      dup9\n        /* \"#utility.yul\":6047:6125   */\n      tag_190\n      jump\t// in\n    tag_232:\n        /* \"#utility.yul\":6039:6125   */\n      swap1\n      pop\n        /* \"#utility.yul\":6135:6223   */\n      tag_233\n        /* \"#utility.yul\":6219:6221   */\n      0x20\n        /* \"#utility.yul\":6208:6217   */\n      dup4\n        /* \"#utility.yul\":6204:6222   */\n      add\n        /* \"#utility.yul\":6195:6201   */\n      dup8\n        /* \"#utility.yul\":6135:6223   */\n      tag_178\n      jump\t// in\n    tag_233:\n        /* \"#utility.yul\":6233:6305   */\n      tag_234\n        /* \"#utility.yul\":6301:6303   */\n      0x40\n        /* \"#utility.yul\":6290:6299   */\n      dup4\n        /* \"#utility.yul\":6286:6304   */\n      add\n        /* \"#utility.yul\":6277:6283   */\n      dup7\n        /* \"#utility.yul\":6233:6305   */\n      tag_225\n      jump\t// in\n    tag_234:\n        /* \"#utility.yul\":6315:6381   */\n      tag_235\n        /* \"#utility.yul\":6377:6379   */\n      0x60\n        /* \"#utility.yul\":6366:6375   */\n      dup4\n        /* \"#utility.yul\":6362:6380   */\n      add\n        /* \"#utility.yul\":6353:6359   */\n      dup6\n        /* \"#utility.yul\":6315:6381   */\n      tag_186\n      jump\t// in\n    tag_235:\n        /* \"#utility.yul\":6391:6464   */\n      tag_236\n        /* \"#utility.yul\":6459:6462   */\n      0x80\n        /* \"#utility.yul\":6448:6457   */\n      dup4\n        /* \"#utility.yul\":6444:6463   */\n      add\n        /* \"#utility.yul\":6435:6441   */\n      dup5\n        /* \"#utility.yul\":6391:6464   */\n      tag_225\n      jump\t// in\n    tag_236:\n        /* \"#utility.yul\":5696:6471   */\n      swap7\n      swap6\n      pop\n      pop\n      pop\n      pop\n      pop\n      pop\n      jump\t// out\n        /* \"#utility.yul\":6477:6896   */\n    tag_96:\n        /* \"#utility.yul\":6643:6647   */\n      0x00\n        /* \"#utility.yul\":6681:6683   */\n      0x20\n        /* \"#utility.yul\":6670:6679   */\n      dup3\n        /* \"#utility.yul\":6666:6684   */\n      add\n        /* \"#utility.yul\":6658:6684   */\n      swap1\n      pop\n        /* \"#utility.yul\":6730:6739   */\n      dup2\n        /* \"#utility.yul\":6724:6728   */\n      dup2\n        /* \"#utility.yul\":6720:6740   */\n      sub\n        /* \"#utility.yul\":6716:6717   */\n      0x00\n        /* \"#utility.yul\":6705:6714   */\n      dup4\n        /* \"#utility.yul\":6701:6718   */\n      add\n        /* \"#utility.yul\":6694:6741   */\n      mstore\n        /* \"#utility.yul\":6758:6889   */\n      tag_238\n        /* \"#utility.yul\":6884:6888   */\n      dup2\n        /* \"#utility.yul\":6758:6889   */\n      tag_200\n      jump\t// in\n    tag_238:\n        /* \"#utility.yul\":6750:6889   */\n      swap1\n      pop\n        /* \"#utility.yul\":6477:6896   */\n      swap2\n      swap1\n      pop\n      jump\t// out\n        /* \"#utility.yul\":6902:7321   */\n    tag_109:\n        /* \"#utility.yul\":7068:7072   */\n      0x00\n        /* \"#utility.yul\":7106:7108   */\n      0x20\n        /* \"#utility.yul\":7095:7104   */\n      dup3\n        /* \"#utility.yul\":7091:7109   */\n      add\n        /* \"#utility.yul\":7083:7109   */\n      swap1\n      pop\n        /* \"#utility.yul\":7155:7164   */\n      dup2\n        /* \"#utility.yul\":7149:7153   */\n      dup2\n        /* \"#utility.yul\":7145:7165   */\n      sub\n        /* \"#utility.yul\":7141:7142   */\n      0x00\n        /* \"#utility.yul\":7130:7139   */\n      dup4\n        /* \"#utility.yul\":7126:7143   */\n      add\n        /* \"#utility.yul\":7119:7166   */\n      mstore\n        /* \"#utility.yul\":7183:7314   */\n      tag_240\n        /* \"#utility.yul\":7309:7313   */\n      dup2\n        /* \"#utility.yul\":7183:7314   */\n      tag_205\n      jump\t// in\n    tag_240:\n        /* \"#utility.yul\":7175:7314   */\n      swap1\n      pop\n        /* \"#utility.yul\":6902:7321   */\n      swap2\n      swap1\n      pop\n      jump\t// out\n        /* \"#utility.yul\":7327:7746   */\n    tag_104:\n        /* \"#utility.yul\":7493:7497   */\n      0x00\n        /* \"#utility.yul\":7531:7533   */\n      0x20\n        /* \"#utility.yul\":7520:7529   */\n      dup3\n        /* \"#utility.yul\":7516:7534   */\n      add\n        /* \"#utility.yul\":7508:7534   */\n      swap1\n      pop\n        /* \"#utility.yul\":7580:7589   */\n      dup2\n        /* \"#utility.yul\":7574:7578   */\n      dup2\n        /* \"#utility.yul\":7570:7590   */\n      sub\n        /* \"#utility.yul\":7566:7567   */\n      0x00\n        /* \"#utility.yul\":7555:7564   */\n      dup4\n        /* \"#utility.yul\":7551:7568   */\n      add\n        /* \"#utility.yul\":7544:7591   */\n      mstore\n        /* \"#utility.yul\":7608:7739   */\n      tag_242\n        /* \"#utility.yul\":7734:7738   */\n      dup2\n        /* \"#utility.yul\":7608:7739   */\n      tag_210\n      jump\t// in\n    tag_242:\n        /* \"#utility.yul\":7600:7739   */\n      swap1\n      pop\n        /* \"#utility.yul\":7327:7746   */\n      swap2\n      swap1\n      pop\n      jump\t// out\n        /* \"#utility.yul\":7752:8171   */\n    tag_86:\n        /* \"#utility.yul\":7918:7922   */\n      0x00\n        /* \"#utility.yul\":7956:7958   */\n      0x20\n        /* \"#utility.yul\":7945:7954   */\n      dup3\n        /* \"#utility.yul\":7941:7959   */\n      add\n        /* \"#utility.yul\":7933:7959   */\n      swap1\n      pop\n        /* \"#utility.yul\":8005:8014   */\n      dup2\n        /* \"#utility.yul\":7999:8003   */\n      dup2\n        /* \"#utility.yul\":7995:8015   */\n      sub\n        /* \"#utility.yul\":7991:7992   */\n      0x00\n        /* \"#utility.yul\":7980:7989   */\n      dup4\n        /* \"#utility.yul\":7976:7993   */\n      add\n        /* \"#utility.yul\":7969:8016   */\n      mstore\n        /* \"#utility.yul\":8033:8164   */\n      tag_244\n        /* \"#utility.yul\":8159:8163   */\n      dup2\n        /* \"#utility.yul\":8033:8164   */\n      tag_215\n      jump\t// in\n    tag_244:\n        /* \"#utility.yul\":8025:8164   */\n      swap1\n      pop\n        /* \"#utility.yul\":7752:8171   */\n      swap2\n      swap1\n      pop\n      jump\t// out\n        /* \"#utility.yul\":8177:8596   */\n    tag_83:\n        /* \"#utility.yul\":8343:8347   */\n      0x00\n        /* \"#utility.yul\":8381:8383   */\n      0x20\n        /* \"#utility.yul\":8370:8379   */\n      dup3\n        /* \"#utility.yul\":8366:8384   */\n      add\n        /* \"#utility.yul\":8358:8384   */\n      swap1\n      pop\n        /* \"#utility.yul\":8430:8439   */\n      dup2\n        /* \"#utility.yul\":8424:8428   */\n      dup2\n        /* \"#utility.yul\":8420:8440   */\n      sub\n        /* \"#utility.yul\":8416:8417   */\n      0x00\n        /* \"#utility.yul\":8405:8414   */\n      dup4\n        /* \"#utility.yul\":8401:8418   */\n      add\n        /* \"#utility.yul\":8394:8441   */\n      mstore\n        /* \"#utility.yul\":8458:8589   */\n      tag_246\n        /* \"#utility.yul\":8584:8588   */\n      dup2\n        /* \"#utility.yul\":8458:8589   */\n      tag_220\n      jump\t// in\n    tag_246:\n        /* \"#utility.yul\":8450:8589   */\n      swap1\n      pop\n        /* \"#utility.yul\":8177:8596   */\n      swap2\n      swap1\n      pop\n      jump\t// out\n        /* \"#utility.yul\":8602:8824   */\n    tag_27:\n        /* \"#utility.yul\":8695:8699   */\n      0x00\n        /* \"#utility.yul\":8733:8735   */\n      0x20\n        /* \"#utility.yul\":8722:8731   */\n      dup3\n        /* \"#utility.yul\":8718:8736   */\n      add\n        /* \"#utility.yul\":8710:8736   */\n      swap1\n      pop\n        /* \"#utility.yul\":8746:8817   */\n      tag_248\n        /* \"#utility.yul\":8814:8815   */\n      0x00\n        /* \"#utility.yul\":8803:8812   */\n      dup4\n        /* \"#utility.yul\":8799:8816   */\n      add\n        /* \"#utility.yul\":8790:8796   */\n      dup5\n        /* \"#utility.yul\":8746:8817   */\n      tag_225\n      jump\t// in\n    tag_248:\n        /* \"#utility.yul\":8602:8824   */\n      swap3\n      swap2\n      pop\n      pop\n      jump\t// out\n        /* \"#utility.yul\":8830:8959   */\n    tag_136:\n        /* \"#utility.yul\":8864:8870   */\n      0x00\n        /* \"#utility.yul\":8891:8911   */\n      tag_250\n      tag_251\n      jump\t// in\n    tag_250:\n        /* \"#utility.yul\":8881:8911   */\n      swap1\n      pop\n        /* \"#utility.yul\":8920:8953   */\n      tag_252\n        /* \"#utility.yul\":8948:8952   */\n      dup3\n        /* \"#utility.yul\":8940:8946   */\n      dup3\n        /* \"#utility.yul\":8920:8953   */\n      tag_253\n      jump\t// in\n    tag_252:\n        /* \"#utility.yul\":8830:8959   */\n      swap2\n      swap1\n      pop\n      jump\t// out\n        /* \"#utility.yul\":8965:9040   */\n    tag_251:\n        /* \"#utility.yul\":8998:9004   */\n      0x00\n        /* \"#utility.yul\":9031:9033   */\n      0x40\n        /* \"#utility.yul\":9025:9034   */\n      mload\n        /* \"#utility.yul\":9015:9034   */\n      swap1\n      pop\n        /* \"#utility.yul\":8965:9040   */\n      swap1\n      jump\t// out\n        /* \"#utility.yul\":9046:9354   */\n    tag_135:\n        /* \"#utility.yul\":9108:9112   */\n      0x00\n        /* \"#utility.yul\":9198:9216   */\n      0xffffffffffffffff\n        /* \"#utility.yul\":9190:9196   */\n      dup3\n        /* \"#utility.yul\":9187:9217   */\n      gt\n        /* \"#utility.yul\":9184:9240   */\n      iszero\n      tag_256\n      jumpi\n        /* \"#utility.yul\":9220:9238   */\n      tag_257\n      tag_258\n      jump\t// in\n    tag_257:\n        /* \"#utility.yul\":9184:9240   */\n    tag_256:\n        /* \"#utility.yul\":9258:9287   */\n      tag_259\n        /* \"#utility.yul\":9280:9286   */\n      dup3\n        /* \"#utility.yul\":9258:9287   */\n      tag_199\n      jump\t// in\n    tag_259:\n        /* \"#utility.yul\":9250:9287   */\n      swap1\n      pop\n        /* \"#utility.yul\":9342:9346   */\n      0x20\n        /* \"#utility.yul\":9336:9340   */\n      dup2\n        /* \"#utility.yul\":9332:9347   */\n      add\n        /* \"#utility.yul\":9324:9347   */\n      swap1\n      pop\n        /* \"#utility.yul\":9046:9354   */\n      swap2\n      swap1\n      pop\n      jump\t// out\n        /* \"#utility.yul\":9360:9459   */\n    tag_193:\n        /* \"#utility.yul\":9412:9418   */\n      0x00\n        /* \"#utility.yul\":9446:9451   */\n      dup2\n        /* \"#utility.yul\":9440:9452   */\n      mload\n        /* \"#utility.yul\":9430:9452   */\n      swap1\n      pop\n        /* \"#utility.yul\":9360:9459   */\n      swap2\n      swap1\n      pop\n      jump\t// out\n        /* \"#utility.yul\":9465:9634   */\n    tag_195:\n        /* \"#utility.yul\":9549:9560   */\n      0x00\n        /* \"#utility.yul\":9583:9589   */\n      dup3\n        /* \"#utility.yul\":9578:9581   */\n      dup3\n        /* \"#utility.yul\":9571:9590   */\n      mstore\n        /* \"#utility.yul\":9623:9627   */\n      0x20\n        /* \"#utility.yul\":9618:9621   */\n      dup3\n        /* \"#utility.yul\":9614:9628   */\n      add\n        /* \"#utility.yul\":9599:9628   */\n      swap1\n      pop\n        /* \"#utility.yul\":9465:9634   */\n      swap3\n      swap2\n      pop\n      pop\n      jump\t// out\n        /* \"#utility.yul\":9640:9945   */\n    tag_91:\n        /* \"#utility.yul\":9680:9683   */\n      0x00\n        /* \"#utility.yul\":9699:9719   */\n      tag_263\n        /* \"#utility.yul\":9717:9718   */\n      dup3\n        /* \"#utility.yul\":9699:9719   */\n      tag_228\n      jump\t// in\n    tag_263:\n        /* \"#utility.yul\":9694:9719   */\n      swap2\n      pop\n        /* \"#utility.yul\":9733:9753   */\n      tag_264\n        /* \"#utility.yul\":9751:9752   */\n      dup4\n        /* \"#utility.yul\":9733:9753   */\n      tag_228\n      jump\t// in\n    tag_264:\n        /* \"#utility.yul\":9728:9753   */\n      swap3\n      pop\n        /* \"#utility.yul\":9887:9888   */\n      dup3\n        /* \"#utility.yul\":9819:9885   */\n      0xffffffffffffffffffffffffffffffffffffffffffffffffffffffffffffffff\n        /* \"#utility.yul\":9815:9889   */\n      sub\n        /* \"#utility.yul\":9812:9813   */\n      dup3\n        /* \"#utility.yul\":9809:9890   */\n      gt\n        /* \"#utility.yul\":9806:9913   */\n      iszero\n      tag_265\n      jumpi\n        /* \"#utility.yul\":9893:9911   */\n      tag_266\n      tag_267\n      jump\t// in\n    tag_266:\n        /* \"#utility.yul\":9806:9913   */\n    tag_265:\n        /* \"#utility.yul\":9937:9938   */\n      dup3\n        /* \"#utility.yul\":9934:9935   */\n      dup3\n        /* \"#utility.yul\":9930:9939   */\n      add\n        /* \"#utility.yul\":9923:9939   */\n      swap1\n      pop\n        /* \"#utility.yul\":9640:9945   */\n      swap3\n      swap2\n      pop\n      pop\n      jump\t// out\n        /* \"#utility.yul\":9951:10047   */\n    tag_185:\n        /* \"#utility.yul\":9988:9995   */\n      0x00\n        /* \"#utility.yul\":10017:10041   */\n      tag_269\n        /* \"#utility.yul\":10035:10040   */\n      dup3\n        /* \"#utility.yul\":10017:10041   */\n      tag_270\n      jump\t// in\n    tag_269:\n        /* \"#utility.yul\":10006:10041   */\n      swap1\n      pop\n        /* \"#utility.yul\":9951:10047   */\n      swap2\n      swap1\n      pop\n      jump\t// out\n        /* \"#utility.yul\":10053:10157   */\n    tag_181:\n        /* \"#utility.yul\":10098:10105   */\n      0x00\n        /* \"#utility.yul\":10127:10151   */\n      tag_272\n        /* \"#utility.yul\":10145:10150   */\n      dup3\n        /* \"#utility.yul\":10127:10151   */\n      tag_270\n      jump\t// in\n    tag_272:\n        /* \"#utility.yul\":10116:10151   */\n      swap1\n      pop\n        /* \"#utility.yul\":10053:10157   */\n      swap2\n      swap1\n      pop\n      jump\t// out\n        /* \"#utility.yul\":10163:10253   */\n    tag_189:\n        /* \"#utility.yul\":10197:10204   */\n      0x00\n        /* \"#utility.yul\":10240:10245   */\n      dup2\n        /* \"#utility.yul\":10233:10246   */\n      iszero\n        /* \"#utility.yul\":10226:10247   */\n      iszero\n        /* \"#utility.yul\":10215:10247   */\n      swap1\n      pop\n        /* \"#utility.yul\":10163:10253   */\n      swap2\n      swap1\n      pop\n      jump\t// out\n        /* \"#utility.yul\":10259:10385   */\n    tag_270:\n        /* \"#utility.yul\":10296:10303   */\n      0x00\n        /* \"#utility.yul\":10336:10378   */\n      0xffffffffffffffffffffffffffffffffffffffff\n        /* \"#utility.yul\":10329:10334   */\n      dup3\n        /* \"#utility.yul\":10325:10379   */\n      and\n        /* \"#utility.yul\":10314:10379   */\n      swap1\n      pop\n        /* \"#utility.yul\":10259:10385   */\n      swap2\n      swap1\n      pop\n      jump\t// out\n        /* \"#utility.yul\":10391:10468   */\n    tag_228:\n        /* \"#utility.yul\":10428:10435   */\n      0x00\n        /* \"#utility.yul\":10457:10462   */\n      dup2\n        /* \"#utility.yul\":10446:10462   */\n      swap1\n      pop\n        /* \"#utility.yul\":10391:10468   */\n      swap2\n      swap1\n      pop\n      jump\t// out\n        /* \"#utility.yul\":10474:10628   */\n    tag_141:\n        /* \"#utility.yul\":10558:10564   */\n      dup3\n        /* \"#utility.yul\":10553:10556   */\n      dup2\n        /* \"#utility.yul\":10548:10551   */\n      dup4\n        /* \"#utility.yul\":10535:10565   */\n      calldatacopy\n        /* \"#utility.yul\":10620:10621   */\n      0x00\n        /* \"#utility.yul\":10611:10617   */\n      dup4\n        /* \"#utility.yul\":10606:10609   */\n      dup4\n        /* \"#utility.yul\":10602:10618   */\n      add\n        /* \"#utility.yul\":10595:10622   */\n      mstore\n        /* \"#utility.yul\":10474:10628   */\n      pop\n      pop\n      pop\n      jump\t// out\n        /* \"#utility.yul\":10634:10941   */\n    tag_197:\n        /* \"#utility.yul\":10702:10703   */\n      0x00\n        /* \"#utility.yul\":10712:10825   */\n    tag_278:\n        /* \"#utility.yul\":10726:10732   */\n      dup4\n        /* \"#utility.yul\":10723:10724   */\n      dup2\n        /* \"#utility.yul\":10720:10733   */\n      lt\n        /* \"#utility.yul\":10712:10825   */\n      iszero\n      tag_280\n      jumpi\n        /* \"#utility.yul\":10811:10812   */\n      dup1\n        /* \"#utility.yul\":10806:10809   */\n      dup3\n        /* \"#utility.yul\":10802:10813   */\n      add\n        /* \"#utility.yul\":10796:10814   */\n      mload\n        /* \"#utility.yul\":10792:10793   */\n      dup2\n        /* \"#utility.yul\":10787:10790   */\n      dup5\n        /* \"#utility.yul\":10783:10794   */\n      add\n        /* \"#utility.yul\":10776:10815   */\n      mstore\n        /* \"#utility.yul\":10748:10750   */\n      0x20\n        /* \"#utility.yul\":10745:10746   */\n      dup2\n        /* \"#utility.yul\":10741:10751   */\n      add\n        /* \"#utility.yul\":10736:10751   */\n      swap1\n      pop\n        /* \"#utility.yul\":10712:10825   */\n      jump(tag_278)\n    tag_280:\n        /* \"#utility.yul\":10843:10849   */\n      dup4\n        /* \"#utility.yul\":10840:10841   */\n      dup2\n        /* \"#utility.yul\":10837:10850   */\n      gt\n        /* \"#utility.yul\":10834:10935   */\n      iszero\n      tag_281\n      jumpi\n        /* \"#utility.yul\":10923:10924   */\n      0x00\n        /* \"#utility.yul\":10914:10920   */\n      dup5\n        /* \"#utility.yul\":10909:10912   */\n      dup5\n        /* \"#utility.yul\":10905:10921   */\n      add\n        /* \"#utility.yul\":10898:10925   */\n      mstore\n        /* \"#utility.yul\":10834:10935   */\n    tag_281:\n        /* \"#utility.yul\":10683:10941   */\n      pop\n        /* \"#utility.yul\":10634:10941   */\n      pop\n      pop\n      pop\n      jump\t// out\n        /* \"#utility.yul\":10947:11267   */\n    tag_115:\n        /* \"#utility.yul\":10991:10997   */\n      0x00\n        /* \"#utility.yul\":11028:11029   */\n      0x02\n        /* \"#utility.yul\":11022:11026   */\n      dup3\n        /* \"#utility.yul\":11018:11030   */\n      div\n        /* \"#utility.yul\":11008:11030   */\n      swap1\n      pop\n        /* \"#utility.yul\":11075:11076   */\n      0x01\n        /* \"#utility.yul\":11069:11073   */\n      dup3\n        /* \"#utility.yul\":11065:11077   */\n      and\n        /* \"#utility.yul\":11096:11114   */\n      dup1\n        /* \"#utility.yul\":11086:11167   */\n      tag_283\n      jumpi\n        /* \"#utility.yul\":11152:11156   */\n      0x7f\n        /* \"#utility.yul\":11144:11150   */\n      dup3\n        /* \"#utility.yul\":11140:11157   */\n      and\n        /* \"#utility.yul\":11130:11157   */\n      swap2\n      pop\n        /* \"#utility.yul\":11086:11167   */\n    tag_283:\n        /* \"#utility.yul\":11214:11216   */\n      0x20\n        /* \"#utility.yul\":11206:11212   */\n      dup3\n        /* \"#utility.yul\":11203:11217   */\n      lt\n        /* \"#utility.yul\":11183:11201   */\n      dup2\n        /* \"#utility.yul\":11180:11218   */\n      eq\n        /* \"#utility.yul\":11177:11261   */\n      iszero\n      tag_284\n      jumpi\n        /* \"#utility.yul\":11233:11251   */\n      tag_285\n      tag_286\n      jump\t// in\n    tag_285:\n        /* \"#utility.yul\":11177:11261   */\n    tag_284:\n        /* \"#utility.yul\":10998:11267   */\n      pop\n        /* \"#utility.yul\":10947:11267   */\n      swap2\n      swap1\n      pop\n      jump\t// out\n        /* \"#utility.yul\":11273:11554   */\n    tag_253:\n        /* \"#utility.yul\":11356:11383   */\n      tag_288\n        /* \"#utility.yul\":11378:11382   */\n      dup3\n        /* \"#utility.yul\":11356:11383   */\n      tag_199\n      jump\t// in\n    tag_288:\n        /* \"#utility.yul\":11348:11354   */\n      dup2\n        /* \"#utility.yul\":11344:11384   */\n      add\n        /* \"#utility.yul\":11486:11492   */\n      dup2\n        /* \"#utility.yul\":11474:11484   */\n      dup2\n        /* \"#utility.yul\":11471:11493   */\n      lt\n        /* \"#utility.yul\":11450:11468   */\n      0xffffffffffffffff\n        /* \"#utility.yul\":11438:11448   */\n      dup3\n        /* \"#utility.yul\":11435:11469   */\n      gt\n        /* \"#utility.yul\":11432:11494   */\n      or\n        /* \"#utility.yul\":11429:11517   */\n      iszero\n      tag_289\n      jumpi\n        /* \"#utility.yul\":11497:11515   */\n      tag_290\n      tag_258\n      jump\t// in\n    tag_290:\n        /* \"#utility.yul\":11429:11517   */\n    tag_289:\n        /* \"#utility.yul\":11537:11547   */\n      dup1\n        /* \"#utility.yul\":11533:11535   */\n      0x40\n        /* \"#utility.yul\":11526:11548   */\n      mstore\n        /* \"#utility.yul\":11316:11554   */\n      pop\n        /* \"#utility.yul\":11273:11554   */\n      pop\n      pop\n      jump\t// out\n        /* \"#utility.yul\":11560:11793   */\n    tag_89:\n        /* \"#utility.yul\":11599:11602   */\n      0x00\n        /* \"#utility.yul\":11622:11646   */\n      tag_292\n        /* \"#utility.yul\":11640:11645   */\n      dup3\n        /* \"#utility.yul\":11622:11646   */\n      tag_228\n      jump\t// in\n    tag_292:\n        /* \"#utility.yul\":11613:11646   */\n      swap2\n      pop\n        /* \"#utility.yul\":11668:11734   */\n      0xffffffffffffffffffffffffffffffffffffffffffffffffffffffffffffffff\n        /* \"#utility.yul\":11661:11666   */\n      dup3\n        /* \"#utility.yul\":11658:11735   */\n      eq\n        /* \"#utility.yul\":11655:11758   */\n      iszero\n      tag_293\n      jumpi\n        /* \"#utility.yul\":11738:11756   */\n      tag_294\n      tag_267\n      jump\t// in\n    tag_294:\n        /* \"#utility.yul\":11655:11758   */\n    tag_293:\n        /* \"#utility.yul\":11785:11786   */\n      0x01\n        /* \"#utility.yul\":11778:11783   */\n      dup3\n        /* \"#utility.yul\":11774:11787   */\n      add\n        /* \"#utility.yul\":11767:11787   */\n      swap1\n      pop\n        /* \"#utility.yul\":11560:11793   */\n      swap2\n      swap1\n      pop\n      jump\t// out\n        /* \"#utility.yul\":11799:11979   */\n    tag_267:\n        /* \"#utility.yul\":11847:11924   */\n      0x4e487b7100000000000000000000000000000000000000000000000000000000\n        /* \"#utility.yul\":11844:11845   */\n      0x00\n        /* \"#utility.yul\":11837:11925   */\n      mstore\n        /* \"#utility.yul\":11944:11948   */\n      0x11\n        /* \"#utility.yul\":11941:11942   */\n      0x04\n        /* \"#utility.yul\":11934:11949   */\n      mstore\n        /* \"#utility.yul\":11968:11972   */\n      0x24\n        /* \"#utility.yul\":11965:11966   */\n      0x00\n        /* \"#utility.yul\":11958:11973   */\n      revert\n        /* \"#utility.yul\":11985:12165   */\n    tag_286:\n        /* \"#utility.yul\":12033:12110   */\n      0x4e487b7100000000000000000000000000000000000000000000000000000000\n        /* \"#utility.yul\":12030:12031   */\n      0x00\n        /* \"#utility.yul\":12023:12111   */\n      mstore\n        /* \"#utility.yul\":12130:12134   */\n      0x22\n        /* \"#utility.yul\":12127:12128   */\n      0x04\n        /* \"#utility.yul\":12120:12135   */\n      mstore\n        /* \"#utility.yul\":12154:12158   */\n      0x24\n        /* \"#utility.yul\":12151:12152   */\n      0x00\n        /* \"#utility.yul\":12144:12159   */\n      revert\n        /* \"#utility.yul\":12171:12351   */\n    tag_258:\n        /* \"#utility.yul\":12219:12296   */\n      0x4e487b7100000000000000000000000000000000000000000000000000000000\n        /* \"#utility.yul\":12216:12217   */\n      0x00\n        /* \"#utility.yul\":12209:12297   */\n      mstore\n        /* \"#utility.yul\":12316:12320   */\n      0x41\n        /* \"#utility.yul\":12313:12314   */\n      0x04\n        /* \"#utility.yul\":12306:12321   */\n      mstore\n        /* \"#utility.yul\":12340:12344   */\n      0x24\n        /* \"#utility.yul\":12337:12338   */\n      0x00\n        /* \"#utility.yul\":12330:12345   */\n      revert\n        /* \"#utility.yul\":12357:12474   */\n    tag_154:\n        /* \"#utility.yul\":12466:12467   */\n      0x00\n        /* \"#utility.yul\":12463:12464   */\n      dup1\n        /* \"#utility.yul\":12456:12468   */\n      revert\n        /* \"#utility.yul\":12480:12597   */\n    tag_139:\n        /* \"#utility.yul\":12589:12590   */\n      0x00\n        /* \"#utility.yul\":12586:12587   */\n      dup1\n        /* \"#utility.yul\":12579:12591   */\n      revert\n        /* \"#utility.yul\":12603:12720   */\n    tag_170:\n        /* \"#utility.yul\":12712:12713   */\n      0x00\n        /* \"#utility.yul\":12709:12710   */\n      dup1\n        /* \"#utility.yul\":12702:12714   */\n      revert\n        /* \"#utility.yul\":12726:12843   */\n    tag_163:\n        /* \"#utility.yul\":12835:12836   */\n      0x00\n        /* \"#utility.yul\":12832:12833   */\n      dup1\n        /* \"#utility.yul\":12825:12837   */\n      revert\n        /* \"#utility.yul\":12849:12951   */\n    tag_199:\n        /* \"#utility.yul\":12890:12896   */\n      0x00\n        /* \"#utility.yul\":12941:12943   */\n      0x1f\n        /* \"#utility.yul\":12937:12944   */\n      not\n        /* \"#utility.yul\":12932:12934   */\n      0x1f\n        /* \"#utility.yul\":12925:12930   */\n      dup4\n        /* \"#utility.yul\":12921:12935   */\n      add\n        /* \"#utility.yul\":12917:12945   */\n      and\n        /* \"#utility.yul\":12907:12945   */\n      swap1\n      pop\n        /* \"#utility.yul\":12849:12951   */\n      swap2\n      swap1\n      pop\n      jump\t// out\n        /* \"#utility.yul\":12957:13180   */\n    tag_204:\n        /* \"#utility.yul\":13097:13131   */\n      0x4f6e6c79206d616e616765722063616e2063616c6c20746869732066756e6374\n        /* \"#utility.yul\":13093:13094   */\n      0x00\n        /* \"#utility.yul\":13085:13091   */\n      dup3\n        /* \"#utility.yul\":13081:13095   */\n      add\n        /* \"#utility.yul\":13074:13132   */\n      mstore\n        /* \"#utility.yul\":13166:13172   */\n      0x696f6e2e00000000000000000000000000000000000000000000000000000000\n        /* \"#utility.yul\":13161:13163   */\n      0x20\n        /* \"#utility.yul\":13153:13159   */\n      dup3\n        /* \"#utility.yul\":13149:13164   */\n      add\n        /* \"#utility.yul\":13142:13173   */\n      mstore\n        /* \"#utility.yul\":12957:13180   */\n      pop\n      jump\t// out\n        /* \"#utility.yul\":13186:13367   */\n    tag_209:\n        /* \"#utility.yul\":13326:13359   */\n      0x596f7520617265206e6f7420656c656769626c6520666f7220726566756e6400\n        /* \"#utility.yul\":13322:13323   */\n      0x00\n        /* \"#utility.yul\":13314:13320   */\n      dup3\n        /* \"#utility.yul\":13310:13324   */\n      add\n        /* \"#utility.yul\":13303:13360   */\n      mstore\n        /* \"#utility.yul\":13186:13367   */\n      pop\n      jump\t// out\n        /* \"#utility.yul\":13373:13549   */\n    tag_214:\n        /* \"#utility.yul\":13513:13541   */\n      0x596f75206d757374206265206120636f6e7472696275746f722e000000000000\n        /* \"#utility.yul\":13509:13510   */\n      0x00\n        /* \"#utility.yul\":13501:13507   */\n      dup3\n        /* \"#utility.yul\":13497:13511   */\n      add\n        /* \"#utility.yul\":13490:13542   */\n      mstore\n        /* \"#utility.yul\":13373:13549   */\n      pop\n      jump\t// out\n        /* \"#utility.yul\":13555:13737   */\n    tag_219:\n        /* \"#utility.yul\":13695:13729   */\n      0x4d696e696d756d20636f6e747269627574696f6e206973206e6f74206d65742e\n        /* \"#utility.yul\":13691:13692   */\n      0x00\n        /* \"#utility.yul\":13683:13689   */\n      dup3\n        /* \"#utility.yul\":13679:13693   */\n      add\n        /* \"#utility.yul\":13672:13730   */\n      mstore\n        /* \"#utility.yul\":13555:13737   */\n      pop\n      jump\t// out\n        /* \"#utility.yul\":13743:13922   */\n    tag_224:\n        /* \"#utility.yul\":13883:13914   */\n      0x446561646c696e652068617320616c7265616479207265616368656421000000\n        /* \"#utility.yul\":13879:13880   */\n      0x00\n        /* \"#utility.yul\":13871:13877   */\n      dup3\n        /* \"#utility.yul\":13867:13881   */\n      add\n        /* \"#utility.yul\":13860:13915   */\n      mstore\n        /* \"#utility.yul\":13743:13922   */\n      pop\n      jump\t// out\n        /* \"#utility.yul\":13928:14050   */\n    tag_145:\n        /* \"#utility.yul\":14001:14025   */\n      tag_309\n        /* \"#utility.yul\":14019:14024   */\n      dup2\n        /* \"#utility.yul\":14001:14025   */\n      tag_185\n      jump\t// in\n    tag_309:\n        /* \"#utility.yul\":13994:13999   */\n      dup2\n        /* \"#utility.yul\":13991:14026   */\n      eq\n        /* \"#utility.yul\":13981:14044   */\n      tag_310\n      jumpi\n        /* \"#utility.yul\":14040:14041   */\n      0x00\n        /* \"#utility.yul\":14037:14038   */\n      dup1\n        /* \"#utility.yul\":14030:14042   */\n      revert\n        /* \"#utility.yul\":13981:14044   */\n    tag_310:\n        /* \"#utility.yul\":13928:14050   */\n      pop\n      jump\t// out\n        /* \"#utility.yul\":14056:14194   */\n    tag_149:\n        /* \"#utility.yul\":14137:14169   */\n      tag_312\n        /* \"#utility.yul\":14163:14168   */\n      dup2\n        /* \"#utility.yul\":14137:14169   */\n      tag_181\n      jump\t// in\n    tag_312:\n        /* \"#utility.yul\":14130:14135   */\n      dup2\n        /* \"#utility.yul\":14127:14170   */\n      eq\n        /* \"#utility.yul\":14117:14188   */\n      tag_313\n      jumpi\n        /* \"#utility.yul\":14184:14185   */\n      0x00\n        /* \"#utility.yul\":14181:14182   */\n      dup1\n        /* \"#utility.yul\":14174:14186   */\n      revert\n        /* \"#utility.yul\":14117:14188   */\n    tag_313:\n        /* \"#utility.yul\":14056:14194   */\n      pop\n      jump\t// out\n        /* \"#utility.yul\":14200:14322   */\n    tag_159:\n        /* \"#utility.yul\":14273:14297   */\n      tag_315\n        /* \"#utility.yul\":14291:14296   */\n      dup2\n        /* \"#utility.yul\":14273:14297   */\n      tag_228\n      jump\t// in\n    tag_315:\n        /* \"#utility.yul\":14266:14271   */\n      dup2\n        /* \"#utility.yul\":14263:14298   */\n      eq\n        /* \"#utility.yul\":14253:14316   */\n      tag_316\n      jumpi\n        /* \"#utility.yul\":14312:14313   */\n      0x00\n        /* \"#utility.yul\":14309:14310   */\n      dup1\n        /* \"#utility.yul\":14302:14314   */\n      revert\n        /* \"#utility.yul\":14253:14316   */\n    tag_316:\n        /* \"#utility.yul\":14200:14322   */\n      pop\n      jump\t// out\n\n    auxdata: 0xa26469706673582212206f3a686512dda3d5fca990b62f7cfc018a621a141e000a10057f616ffdf72ebd64736f6c63430008070033\n}\n",
				"bytecode": {
					"linkReferences": {},
					"object": "60806040523480156200001157600080fd5b5060405162001384380380620013848339818101604052810190620000379190620000ba565b8160048190555080426200004c919062000101565b600381905550606460028190555033600160006101000a81548173ffffffffffffffffffffffffffffffffffffffff021916908373ffffffffffffffffffffffffffffffffffffffff1602179055505050620001b6565b600081519050620000b4816200019c565b92915050565b60008060408385031215620000d457620000d362000197565b5b6000620000e485828601620000a3565b9250506020620000f785828601620000a3565b9150509250929050565b60006200010e826200015e565b91506200011b836200015e565b9250827fffffffffffffffffffffffffffffffffffffffffffffffffffffffffffffffff0382111562000153576200015262000168565b5b828201905092915050565b6000819050919050565b7f4e487b7100000000000000000000000000000000000000000000000000000000600052601160045260246000fd5b600080fd5b620001a7816200015e565b8114620001b357600080fd5b50565b6111be80620001c66000396000f3fe6080604052600436106100dd5760003560e01c8063590e1ae31161007f578063937e09b111610059578063937e09b11461027f5780639fb42b1f146102aa578063c59ee1dc146102d5578063d4b8399214610300576100dd565b8063590e1ae3146101fc5780636f9fb98a1461021357806381d12c581461023e576100dd565b80633eb7647b116100bb5780633eb7647b14610154578063481c6a751461017d5780634cb6f4a5146101a85780634e260f6f146101d1576100dd565b806306e99fef146100e25780631f6d4942146100ec57806329dcb0cf14610129575b600080fd5b6100ea61032b565b005b3480156100f857600080fd5b50610113600480360381019061010e9190610a71565b610484565b6040516101209190610d73565b60405180910390f35b34801561013557600080fd5b5061013e61049c565b60405161014b9190610d73565b60405180910390f35b34801561016057600080fd5b5061017b60048036038101906101769190610a9e565b6104a2565b005b34801561018957600080fd5b506101926105f5565b60405161019f9190610c5e565b60405180910390f35b3480156101b457600080fd5b506101cf60048036038101906101ca9190610b0d565b61061b565b005b3480156101dd57600080fd5b506101e661069f565b6040516101f39190610d73565b60405180910390f35b34801561020857600080fd5b506102116106a5565b005b34801561021f57600080fd5b50610228610814565b6040516102359190610d73565b60405180910390f35b34801561024a57600080fd5b5061026560048036038101906102609190610b0d565b61081c565b604051610276959493929190610c79565b60405180910390f35b34801561028b57600080fd5b50610294610907565b6040516102a19190610d73565b60405180910390f35b3480156102b657600080fd5b506102bf61090d565b6040516102cc9190610d73565b60405180910390f35b3480156102e157600080fd5b506102ea610913565b6040516102f79190610d73565b60405180910390f35b34801561030c57600080fd5b50610315610919565b6040516103229190610d73565b60405180910390f35b600354421061036f576040517f08c379a000000000000000000000000000000000000000000000000000000000815260040161036690610d53565b60405180910390fd5b6002543410156103b4576040517f08c379a00000000000000000000000000000000000000000000000000000000081526004016103ab90610d33565b60405180910390fd5b60008060003373ffffffffffffffffffffffffffffffffffffffff1673ffffffffffffffffffffffffffffffffffffffff168152602001908152602001600020541415610414576006600081548092919061040e90610f55565b91905055505b346000803373ffffffffffffffffffffffffffffffffffffffff1673ffffffffffffffffffffffffffffffffffffffff16815260200190815260200160002060008282546104629190610e00565b92505081905550346005600082825461047b9190610e00565b92505081905550565b60006020528060005260406000206000915090505481565b60035481565b600160009054906101000a900473ffffffffffffffffffffffffffffffffffffffff1673ffffffffffffffffffffffffffffffffffffffff163373ffffffffffffffffffffffffffffffffffffffff1614610532576040517f08c379a000000000000000000000000000000000000000000000000000000000815260040161052990610cd3565b60405180910390fd5b600060076000600854815260200190815260200160002090506008600081548092919061055e90610f55565b91905055508381600001908051906020019061057b92919061091f565b50828160010160006101000a81548173ffffffffffffffffffffffffffffffffffffffff021916908373ffffffffffffffffffffffffffffffffffffffff16021790555081816002018190555060008160030160006101000a81548160ff0219169083151502179055506000816004018190555050505050565b600160009054906101000a900473ffffffffffffffffffffffffffffffffffffffff1681565b60008060003373ffffffffffffffffffffffffffffffffffffffff1673ffffffffffffffffffffffffffffffffffffffff168152602001908152602001600020541161069c576040517f08c379a000000000000000000000000000000000000000000000000000000000815260040161069390610d13565b60405180910390fd5b50565b60065481565b600354421180156106b95750600454600554105b6106f8576040517f08c379a00000000000000000000000000000000000000000000000000000000081526004016106ef90610cf3565b60405180910390fd5b60008060003373ffffffffffffffffffffffffffffffffffffffff1673ffffffffffffffffffffffffffffffffffffffff168152602001908152602001600020541161074357600080fd5b60003390508073ffffffffffffffffffffffffffffffffffffffff166108fc6000803373ffffffffffffffffffffffffffffffffffffffff1673ffffffffffffffffffffffffffffffffffffffff168152602001908152602001600020549081150290604051600060405180830381858888f193505050501580156107cc573d6000803e3d6000fd5b5060008060003373ffffffffffffffffffffffffffffffffffffffff1673ffffffffffffffffffffffffffffffffffffffff1681526020019081526020016000208190555050565b600047905090565b600760205280600052604060002060009150905080600001805461083f90610ef2565b80601f016020809104026020016040519081016040528092919081815260200182805461086b90610ef2565b80156108b85780601f1061088d576101008083540402835291602001916108b8565b820191906000526020600020905b81548152906001019060200180831161089b57829003601f168201915b5050505050908060010160009054906101000a900473ffffffffffffffffffffffffffffffffffffffff16908060020154908060030160009054906101000a900460ff16908060040154905085565b60025481565b60085481565b60055481565b60045481565b82805461092b90610ef2565b90600052602060002090601f01602090048101928261094d5760008555610994565b82601f1061096657805160ff1916838001178555610994565b82800160010185558215610994579182015b82811115610993578251825591602001919060010190610978565b5b5090506109a191906109a5565b5090565b5b808211156109be5760008160009055506001016109a6565b5090565b60006109d56109d084610db3565b610d8e565b9050828152602081018484840111156109f1576109f0611030565b5b6109fc848285610eb0565b509392505050565b600081359050610a1381611143565b92915050565b600081359050610a288161115a565b92915050565b600082601f830112610a4357610a4261102b565b5b8135610a538482602086016109c2565b91505092915050565b600081359050610a6b81611171565b92915050565b600060208284031215610a8757610a8661103a565b5b6000610a9584828501610a04565b91505092915050565b600080600060608486031215610ab757610ab661103a565b5b600084013567ffffffffffffffff811115610ad557610ad4611035565b5b610ae186828701610a2e565b9350506020610af286828701610a19565b9250506040610b0386828701610a5c565b9150509250925092565b600060208284031215610b2357610b2261103a565b5b6000610b3184828501610a5c565b91505092915050565b610b4381610e68565b82525050565b610b5281610e56565b82525050565b610b6181610e7a565b82525050565b6000610b7282610de4565b610b7c8185610def565b9350610b8c818560208601610ebf565b610b958161103f565b840191505092915050565b6000610bad602483610def565b9150610bb882611050565b604082019050919050565b6000610bd0601f83610def565b9150610bdb8261109f565b602082019050919050565b6000610bf3601a83610def565b9150610bfe826110c8565b602082019050919050565b6000610c16602083610def565b9150610c21826110f1565b602082019050919050565b6000610c39601d83610def565b9150610c448261111a565b602082019050919050565b610c5881610ea6565b82525050565b6000602082019050610c736000830184610b49565b92915050565b600060a0820190508181036000830152610c938188610b67565b9050610ca26020830187610b3a565b610caf6040830186610c4f565b610cbc6060830185610b58565b610cc96080830184610c4f565b9695505050505050565b60006020820190508181036000830152610cec81610ba0565b9050919050565b60006020820190508181036000830152610d0c81610bc3565b9050919050565b60006020820190508181036000830152610d2c81610be6565b9050919050565b60006020820190508181036000830152610d4c81610c09565b9050919050565b60006020820190508181036000830152610d6c81610c2c565b9050919050565b6000602082019050610d886000830184610c4f565b92915050565b6000610d98610da9565b9050610da48282610f24565b919050565b6000604051905090565b600067ffffffffffffffff821115610dce57610dcd610ffc565b5b610dd78261103f565b9050602081019050919050565b600081519050919050565b600082825260208201905092915050565b6000610e0b82610ea6565b9150610e1683610ea6565b9250827fffffffffffffffffffffffffffffffffffffffffffffffffffffffffffffffff03821115610e4b57610e4a610f9e565b5b828201905092915050565b6000610e6182610e86565b9050919050565b6000610e7382610e86565b9050919050565b60008115159050919050565b600073ffffffffffffffffffffffffffffffffffffffff82169050919050565b6000819050919050565b82818337600083830152505050565b60005b83811015610edd578082015181840152602081019050610ec2565b83811115610eec576000848401525b50505050565b60006002820490506001821680610f0a57607f821691505b60208210811415610f1e57610f1d610fcd565b5b50919050565b610f2d8261103f565b810181811067ffffffffffffffff82111715610f4c57610f4b610ffc565b5b80604052505050565b6000610f6082610ea6565b91507fffffffffffffffffffffffffffffffffffffffffffffffffffffffffffffffff821415610f9357610f92610f9e565b5b600182019050919050565b7f4e487b7100000000000000000000000000000000000000000000000000000000600052601160045260246000fd5b7f4e487b7100000000000000000000000000000000000000000000000000000000600052602260045260246000fd5b7f4e487b7100000000000000000000000000000000000000000000000000000000600052604160045260246000fd5b600080fd5b600080fd5b600080fd5b600080fd5b6000601f19601f8301169050919050565b7f4f6e6c79206d616e616765722063616e2063616c6c20746869732066756e637460008201527f696f6e2e00000000000000000000000000000000000000000000000000000000602082015250565b7f596f7520617265206e6f7420656c656769626c6520666f7220726566756e6400600082015250565b7f596f75206d757374206265206120636f6e7472696275746f722e000000000000600082015250565b7f4d696e696d756d20636f6e747269627574696f6e206973206e6f74206d65742e600082015250565b7f446561646c696e652068617320616c7265616479207265616368656421000000600082015250565b61114c81610e56565b811461115757600080fd5b50565b61116381610e68565b811461116e57600080fd5b50565b61117a81610ea6565b811461118557600080fd5b5056fea26469706673582212206f3a686512dda3d5fca990b62f7cfc018a621a141e000a10057f616ffdf72ebd64736f6c63430008070033",
					"opcodes": "PUSH1 0x80 PUSH1 0x40 MSTORE CALLVALUE DUP1 ISZERO PUSH3 0x11 JUMPI PUSH1 0x0 DUP1 REVERT JUMPDEST POP PUSH1 0x40 MLOAD PUSH3 0x1384 CODESIZE SUB DUP1 PUSH3 0x1384 DUP4 CODECOPY DUP2 DUP2 ADD PUSH1 0x40 MSTORE DUP2 ADD SWAP1 PUSH3 0x37 SWAP2 SWAP1 PUSH3 0xBA JUMP JUMPDEST DUP2 PUSH1 0x4 DUP2 SWAP1 SSTORE POP DUP1 TIMESTAMP PUSH3 0x4C SWAP2 SWAP1 PUSH3 0x101 JUMP JUMPDEST PUSH1 0x3 DUP2 SWAP1 SSTORE POP PUSH1 0x64 PUSH1 0x2 DUP2 SWAP1 SSTORE POP CALLER PUSH1 0x1 PUSH1 0x0 PUSH2 0x100 EXP DUP2 SLOAD DUP2 PUSH20 0xFFFFFFFFFFFFFFFFFFFFFFFFFFFFFFFFFFFFFFFF MUL NOT AND SWAP1 DUP4 PUSH20 0xFFFFFFFFFFFFFFFFFFFFFFFFFFFFFFFFFFFFFFFF AND MUL OR SWAP1 SSTORE POP POP POP PUSH3 0x1B6 JUMP JUMPDEST PUSH1 0x0 DUP2 MLOAD SWAP1 POP PUSH3 0xB4 DUP2 PUSH3 0x19C JUMP JUMPDEST SWAP3 SWAP2 POP POP JUMP JUMPDEST PUSH1 0x0 DUP1 PUSH1 0x40 DUP4 DUP6 SUB SLT ISZERO PUSH3 0xD4 JUMPI PUSH3 0xD3 PUSH3 0x197 JUMP JUMPDEST JUMPDEST PUSH1 0x0 PUSH3 0xE4 DUP6 DUP3 DUP7 ADD PUSH3 0xA3 JUMP JUMPDEST SWAP3 POP POP PUSH1 0x20 PUSH3 0xF7 DUP6 DUP3 DUP7 ADD PUSH3 0xA3 JUMP JUMPDEST SWAP2 POP POP SWAP3 POP SWAP3 SWAP1 POP JUMP JUMPDEST PUSH1 0x0 PUSH3 0x10E DUP3 PUSH3 0x15E JUMP JUMPDEST SWAP2 POP PUSH3 0x11B DUP4 PUSH3 0x15E JUMP JUMPDEST SWAP3 POP DUP3 PUSH32 0xFFFFFFFFFFFFFFFFFFFFFFFFFFFFFFFFFFFFFFFFFFFFFFFFFFFFFFFFFFFFFFFF SUB DUP3 GT ISZERO PUSH3 0x153 JUMPI PUSH3 0x152 PUSH3 0x168 JUMP JUMPDEST JUMPDEST DUP3 DUP3 ADD SWAP1 POP SWAP3 SWAP2 POP POP JUMP JUMPDEST PUSH1 0x0 DUP2 SWAP1 POP SWAP2 SWAP1 POP JUMP JUMPDEST PUSH32 0x4E487B7100000000000000000000000000000000000000000000000000000000 PUSH1 0x0 MSTORE PUSH1 0x11 PUSH1 0x4 MSTORE PUSH1 0x24 PUSH1 0x0 REVERT JUMPDEST PUSH1 0x0 DUP1 REVERT JUMPDEST PUSH3 0x1A7 DUP2 PUSH3 0x15E JUMP JUMPDEST DUP2 EQ PUSH3 0x1B3 JUMPI PUSH1 0x0 DUP1 REVERT JUMPDEST POP JUMP JUMPDEST PUSH2 0x11BE DUP1 PUSH3 0x1C6 PUSH1 0x0 CODECOPY PUSH1 0x0 RETURN INVALID PUSH1 0x80 PUSH1 0x40 MSTORE PUSH1 0x4 CALLDATASIZE LT PUSH2 0xDD JUMPI PUSH1 0x0 CALLDATALOAD PUSH1 0xE0 SHR DUP1 PUSH4 0x590E1AE3 GT PUSH2 0x7F JUMPI DUP1 PUSH4 0x937E09B1 GT PUSH2 0x59 JUMPI DUP1 PUSH4 0x937E09B1 EQ PUSH2 0x27F JUMPI DUP1 PUSH4 0x9FB42B1F EQ PUSH2 0x2AA JUMPI DUP1 PUSH4 0xC59EE1DC EQ PUSH2 0x2D5 JUMPI DUP1 PUSH4 0xD4B83992 EQ PUSH2 0x300 JUMPI PUSH2 0xDD JUMP JUMPDEST DUP1 PUSH4 0x590E1AE3 EQ PUSH2 0x1FC JUMPI DUP1 PUSH4 0x6F9FB98A EQ PUSH2 0x213 JUMPI DUP1 PUSH4 0x81D12C58 EQ PUSH2 0x23E JUMPI PUSH2 0xDD JUMP JUMPDEST DUP1 PUSH4 0x3EB7647B GT PUSH2 0xBB JUMPI DUP1 PUSH4 0x3EB7647B EQ PUSH2 0x154 JUMPI DUP1 PUSH4 0x481C6A75 EQ PUSH2 0x17D JUMPI DUP1 PUSH4 0x4CB6F4A5 EQ PUSH2 0x1A8 JUMPI DUP1 PUSH4 0x4E260F6F EQ PUSH2 0x1D1 JUMPI PUSH2 0xDD JUMP JUMPDEST DUP1 PUSH4 0x6E99FEF EQ PUSH2 0xE2 JUMPI DUP1 PUSH4 0x1F6D4942 EQ PUSH2 0xEC JUMPI DUP1 PUSH4 0x29DCB0CF EQ PUSH2 0x129 JUMPI JUMPDEST PUSH1 0x0 DUP1 REVERT JUMPDEST PUSH2 0xEA PUSH2 0x32B JUMP JUMPDEST STOP JUMPDEST CALLVALUE DUP1 ISZERO PUSH2 0xF8 JUMPI PUSH1 0x0 DUP1 REVERT JUMPDEST POP PUSH2 0x113 PUSH1 0x4 DUP1 CALLDATASIZE SUB DUP2 ADD SWAP1 PUSH2 0x10E SWAP2 SWAP1 PUSH2 0xA71 JUMP JUMPDEST PUSH2 0x484 JUMP JUMPDEST PUSH1 0x40 MLOAD PUSH2 0x120 SWAP2 SWAP1 PUSH2 0xD73 JUMP JUMPDEST PUSH1 0x40 MLOAD DUP1 SWAP2 SUB SWAP1 RETURN JUMPDEST CALLVALUE DUP1 ISZERO PUSH2 0x135 JUMPI PUSH1 0x0 DUP1 REVERT JUMPDEST POP PUSH2 0x13E PUSH2 0x49C JUMP JUMPDEST PUSH1 0x40 MLOAD PUSH2 0x14B SWAP2 SWAP1 PUSH2 0xD73 JUMP JUMPDEST PUSH1 0x40 MLOAD DUP1 SWAP2 SUB SWAP1 RETURN JUMPDEST CALLVALUE DUP1 ISZERO PUSH2 0x160 JUMPI PUSH1 0x0 DUP1 REVERT JUMPDEST POP PUSH2 0x17B PUSH1 0x4 DUP1 CALLDATASIZE SUB DUP2 ADD SWAP1 PUSH2 0x176 SWAP2 SWAP1 PUSH2 0xA9E JUMP JUMPDEST PUSH2 0x4A2 JUMP JUMPDEST STOP JUMPDEST CALLVALUE DUP1 ISZERO PUSH2 0x189 JUMPI PUSH1 0x0 DUP1 REVERT JUMPDEST POP PUSH2 0x192 PUSH2 0x5F5 JUMP JUMPDEST PUSH1 0x40 MLOAD PUSH2 0x19F SWAP2 SWAP1 PUSH2 0xC5E JUMP JUMPDEST PUSH1 0x40 MLOAD DUP1 SWAP2 SUB SWAP1 RETURN JUMPDEST CALLVALUE DUP1 ISZERO PUSH2 0x1B4 JUMPI PUSH1 0x0 DUP1 REVERT JUMPDEST POP PUSH2 0x1CF PUSH1 0x4 DUP1 CALLDATASIZE SUB DUP2 ADD SWAP1 PUSH2 0x1CA SWAP2 SWAP1 PUSH2 0xB0D JUMP JUMPDEST PUSH2 0x61B JUMP JUMPDEST STOP JUMPDEST CALLVALUE DUP1 ISZERO PUSH2 0x1DD JUMPI PUSH1 0x0 DUP1 REVERT JUMPDEST POP PUSH2 0x1E6 PUSH2 0x69F JUMP JUMPDEST PUSH1 0x40 MLOAD PUSH2 0x1F3 SWAP2 SWAP1 PUSH2 0xD73 JUMP JUMPDEST PUSH1 0x40 MLOAD DUP1 SWAP2 SUB SWAP1 RETURN JUMPDEST CALLVALUE DUP1 ISZERO PUSH2 0x208 JUMPI PUSH1 0x0 DUP1 REVERT JUMPDEST POP PUSH2 0x211 PUSH2 0x6A5 JUMP JUMPDEST STOP JUMPDEST CALLVALUE DUP1 ISZERO PUSH2 0x21F JUMPI PUSH1 0x0 DUP1 REVERT JUMPDEST POP PUSH2 0x228 PUSH2 0x814 JUMP JUMPDEST PUSH1 0x40 MLOAD PUSH2 0x235 SWAP2 SWAP1 PUSH2 0xD73 JUMP JUMPDEST PUSH1 0x40 MLOAD DUP1 SWAP2 SUB SWAP1 RETURN JUMPDEST CALLVALUE DUP1 ISZERO PUSH2 0x24A JUMPI PUSH1 0x0 DUP1 REVERT JUMPDEST POP PUSH2 0x265 PUSH1 0x4 DUP1 CALLDATASIZE SUB DUP2 ADD SWAP1 PUSH2 0x260 SWAP2 SWAP1 PUSH2 0xB0D JUMP JUMPDEST PUSH2 0x81C JUMP JUMPDEST PUSH1 0x40 MLOAD PUSH2 0x276 SWAP6 SWAP5 SWAP4 SWAP3 SWAP2 SWAP1 PUSH2 0xC79 JUMP JUMPDEST PUSH1 0x40 MLOAD DUP1 SWAP2 SUB SWAP1 RETURN JUMPDEST CALLVALUE DUP1 ISZERO PUSH2 0x28B JUMPI PUSH1 0x0 DUP1 REVERT JUMPDEST POP PUSH2 0x294 PUSH2 0x907 JUMP JUMPDEST PUSH1 0x40 MLOAD PUSH2 0x2A1 SWAP2 SWAP1 PUSH2 0xD73 JUMP JUMPDEST PUSH1 0x40 MLOAD DUP1 SWAP2 SUB SWAP1 RETURN JUMPDEST CALLVALUE DUP1 ISZERO PUSH2 0x2B6 JUMPI PUSH1 0x0 DUP1 REVERT JUMPDEST POP PUSH2 0x2BF PUSH2 0x90D JUMP JUMPDEST PUSH1 0x40 MLOAD PUSH2 0x2CC SWAP2 SWAP1 PUSH2 0xD73 JUMP JUMPDEST PUSH1 0x40 MLOAD DUP1 SWAP2 SUB SWAP1 RETURN JUMPDEST CALLVALUE DUP1 ISZERO PUSH2 0x2E1 JUMPI PUSH1 0x0 DUP1 REVERT JUMPDEST POP PUSH2 0x2EA PUSH2 0x913 JUMP JUMPDEST PUSH1 0x40 MLOAD PUSH2 0x2F7 SWAP2 SWAP1 PUSH2 0xD73 JUMP JUMPDEST PUSH1 0x40 MLOAD DUP1 SWAP2 SUB SWAP1 RETURN JUMPDEST CALLVALUE DUP1 ISZERO PUSH2 0x30C JUMPI PUSH1 0x0 DUP1 REVERT JUMPDEST POP PUSH2 0x315 PUSH2 0x919 JUMP JUMPDEST PUSH1 0x40 MLOAD PUSH2 0x322 SWAP2 SWAP1 PUSH2 0xD73 JUMP JUMPDEST PUSH1 0x40 MLOAD DUP1 SWAP2 SUB SWAP1 RETURN JUMPDEST PUSH1 0x3 SLOAD TIMESTAMP LT PUSH2 0x36F JUMPI PUSH1 0x40 MLOAD PUSH32 0x8C379A000000000000000000000000000000000000000000000000000000000 DUP2 MSTORE PUSH1 0x4 ADD PUSH2 0x366 SWAP1 PUSH2 0xD53 JUMP JUMPDEST PUSH1 0x40 MLOAD DUP1 SWAP2 SUB SWAP1 REVERT JUMPDEST PUSH1 0x2 SLOAD CALLVALUE LT ISZERO PUSH2 0x3B4 JUMPI PUSH1 0x40 MLOAD PUSH32 0x8C379A000000000000000000000000000000000000000000000000000000000 DUP2 MSTORE PUSH1 0x4 ADD PUSH2 0x3AB SWAP1 PUSH2 0xD33 JUMP JUMPDEST PUSH1 0x40 MLOAD DUP1 SWAP2 SUB SWAP1 REVERT JUMPDEST PUSH1 0x0 DUP1 PUSH1 0x0 CALLER PUSH20 0xFFFFFFFFFFFFFFFFFFFFFFFFFFFFFFFFFFFFFFFF AND PUSH20 0xFFFFFFFFFFFFFFFFFFFFFFFFFFFFFFFFFFFFFFFF AND DUP2 MSTORE PUSH1 0x20 ADD SWAP1 DUP2 MSTORE PUSH1 0x20 ADD PUSH1 0x0 KECCAK256 SLOAD EQ ISZERO PUSH2 0x414 JUMPI PUSH1 0x6 PUSH1 0x0 DUP2 SLOAD DUP1 SWAP3 SWAP2 SWAP1 PUSH2 0x40E SWAP1 PUSH2 0xF55 JUMP JUMPDEST SWAP2 SWAP1 POP SSTORE POP JUMPDEST CALLVALUE PUSH1 0x0 DUP1 CALLER PUSH20 0xFFFFFFFFFFFFFFFFFFFFFFFFFFFFFFFFFFFFFFFF AND PUSH20 0xFFFFFFFFFFFFFFFFFFFFFFFFFFFFFFFFFFFFFFFF AND DUP2 MSTORE PUSH1 0x20 ADD SWAP1 DUP2 MSTORE PUSH1 0x20 ADD PUSH1 0x0 KECCAK256 PUSH1 0x0 DUP3 DUP3 SLOAD PUSH2 0x462 SWAP2 SWAP1 PUSH2 0xE00 JUMP JUMPDEST SWAP3 POP POP DUP2 SWAP1 SSTORE POP CALLVALUE PUSH1 0x5 PUSH1 0x0 DUP3 DUP3 SLOAD PUSH2 0x47B SWAP2 SWAP1 PUSH2 0xE00 JUMP JUMPDEST SWAP3 POP POP DUP2 SWAP1 SSTORE POP JUMP JUMPDEST PUSH1 0x0 PUSH1 0x20 MSTORE DUP1 PUSH1 0x0 MSTORE PUSH1 0x40 PUSH1 0x0 KECCAK256 PUSH1 0x0 SWAP2 POP SWAP1 POP SLOAD DUP2 JUMP JUMPDEST PUSH1 0x3 SLOAD DUP2 JUMP JUMPDEST PUSH1 0x1 PUSH1 0x0 SWAP1 SLOAD SWAP1 PUSH2 0x100 EXP SWAP1 DIV PUSH20 0xFFFFFFFFFFFFFFFFFFFFFFFFFFFFFFFFFFFFFFFF AND PUSH20 0xFFFFFFFFFFFFFFFFFFFFFFFFFFFFFFFFFFFFFFFF AND CALLER PUSH20 0xFFFFFFFFFFFFFFFFFFFFFFFFFFFFFFFFFFFFFFFF AND EQ PUSH2 0x532 JUMPI PUSH1 0x40 MLOAD PUSH32 0x8C379A000000000000000000000000000000000000000000000000000000000 DUP2 MSTORE PUSH1 0x4 ADD PUSH2 0x529 SWAP1 PUSH2 0xCD3 JUMP JUMPDEST PUSH1 0x40 MLOAD DUP1 SWAP2 SUB SWAP1 REVERT JUMPDEST PUSH1 0x0 PUSH1 0x7 PUSH1 0x0 PUSH1 0x8 SLOAD DUP2 MSTORE PUSH1 0x20 ADD SWAP1 DUP2 MSTORE PUSH1 0x20 ADD PUSH1 0x0 KECCAK256 SWAP1 POP PUSH1 0x8 PUSH1 0x0 DUP2 SLOAD DUP1 SWAP3 SWAP2 SWAP1 PUSH2 0x55E SWAP1 PUSH2 0xF55 JUMP JUMPDEST SWAP2 SWAP1 POP SSTORE POP DUP4 DUP2 PUSH1 0x0 ADD SWAP1 DUP1 MLOAD SWAP1 PUSH1 0x20 ADD SWAP1 PUSH2 0x57B SWAP3 SWAP2 SWAP1 PUSH2 0x91F JUMP JUMPDEST POP DUP3 DUP2 PUSH1 0x1 ADD PUSH1 0x0 PUSH2 0x100 EXP DUP2 SLOAD DUP2 PUSH20 0xFFFFFFFFFFFFFFFFFFFFFFFFFFFFFFFFFFFFFFFF MUL NOT AND SWAP1 DUP4 PUSH20 0xFFFFFFFFFFFFFFFFFFFFFFFFFFFFFFFFFFFFFFFF AND MUL OR SWAP1 SSTORE POP DUP2 DUP2 PUSH1 0x2 ADD DUP2 SWAP1 SSTORE POP PUSH1 0x0 DUP2 PUSH1 0x3 ADD PUSH1 0x0 PUSH2 0x100 EXP DUP2 SLOAD DUP2 PUSH1 0xFF MUL NOT AND SWAP1 DUP4 ISZERO ISZERO MUL OR SWAP1 SSTORE POP PUSH1 0x0 DUP2 PUSH1 0x4 ADD DUP2 SWAP1 SSTORE POP POP POP POP POP JUMP JUMPDEST PUSH1 0x1 PUSH1 0x0 SWAP1 SLOAD SWAP1 PUSH2 0x100 EXP SWAP1 DIV PUSH20 0xFFFFFFFFFFFFFFFFFFFFFFFFFFFFFFFFFFFFFFFF AND DUP2 JUMP JUMPDEST PUSH1 0x0 DUP1 PUSH1 0x0 CALLER PUSH20 0xFFFFFFFFFFFFFFFFFFFFFFFFFFFFFFFFFFFFFFFF AND PUSH20 0xFFFFFFFFFFFFFFFFFFFFFFFFFFFFFFFFFFFFFFFF AND DUP2 MSTORE PUSH1 0x20 ADD SWAP1 DUP2 MSTORE PUSH1 0x20 ADD PUSH1 0x0 KECCAK256 SLOAD GT PUSH2 0x69C JUMPI PUSH1 0x40 MLOAD PUSH32 0x8C379A000000000000000000000000000000000000000000000000000000000 DUP2 MSTORE PUSH1 0x4 ADD PUSH2 0x693 SWAP1 PUSH2 0xD13 JUMP JUMPDEST PUSH1 0x40 MLOAD DUP1 SWAP2 SUB SWAP1 REVERT JUMPDEST POP JUMP JUMPDEST PUSH1 0x6 SLOAD DUP2 JUMP JUMPDEST PUSH1 0x3 SLOAD TIMESTAMP GT DUP1 ISZERO PUSH2 0x6B9 JUMPI POP PUSH1 0x4 SLOAD PUSH1 0x5 SLOAD LT JUMPDEST PUSH2 0x6F8 JUMPI PUSH1 0x40 MLOAD PUSH32 0x8C379A000000000000000000000000000000000000000000000000000000000 DUP2 MSTORE PUSH1 0x4 ADD PUSH2 0x6EF SWAP1 PUSH2 0xCF3 JUMP JUMPDEST PUSH1 0x40 MLOAD DUP1 SWAP2 SUB SWAP1 REVERT JUMPDEST PUSH1 0x0 DUP1 PUSH1 0x0 CALLER PUSH20 0xFFFFFFFFFFFFFFFFFFFFFFFFFFFFFFFFFFFFFFFF AND PUSH20 0xFFFFFFFFFFFFFFFFFFFFFFFFFFFFFFFFFFFFFFFF AND DUP2 MSTORE PUSH1 0x20 ADD SWAP1 DUP2 MSTORE PUSH1 0x20 ADD PUSH1 0x0 KECCAK256 SLOAD GT PUSH2 0x743 JUMPI PUSH1 0x0 DUP1 REVERT JUMPDEST PUSH1 0x0 CALLER SWAP1 POP DUP1 PUSH20 0xFFFFFFFFFFFFFFFFFFFFFFFFFFFFFFFFFFFFFFFF AND PUSH2 0x8FC PUSH1 0x0 DUP1 CALLER PUSH20 0xFFFFFFFFFFFFFFFFFFFFFFFFFFFFFFFFFFFFFFFF AND PUSH20 0xFFFFFFFFFFFFFFFFFFFFFFFFFFFFFFFFFFFFFFFF AND DUP2 MSTORE PUSH1 0x20 ADD SWAP1 DUP2 MSTORE PUSH1 0x20 ADD PUSH1 0x0 KECCAK256 SLOAD SWAP1 DUP2 ISZERO MUL SWAP1 PUSH1 0x40 MLOAD PUSH1 0x0 PUSH1 0x40 MLOAD DUP1 DUP4 SUB DUP2 DUP6 DUP9 DUP9 CALL SWAP4 POP POP POP POP ISZERO DUP1 ISZERO PUSH2 0x7CC JUMPI RETURNDATASIZE PUSH1 0x0 DUP1 RETURNDATACOPY RETURNDATASIZE PUSH1 0x0 REVERT JUMPDEST POP PUSH1 0x0 DUP1 PUSH1 0x0 CALLER PUSH20 0xFFFFFFFFFFFFFFFFFFFFFFFFFFFFFFFFFFFFFFFF AND PUSH20 0xFFFFFFFFFFFFFFFFFFFFFFFFFFFFFFFFFFFFFFFF AND DUP2 MSTORE PUSH1 0x20 ADD SWAP1 DUP2 MSTORE PUSH1 0x20 ADD PUSH1 0x0 KECCAK256 DUP2 SWAP1 SSTORE POP POP JUMP JUMPDEST PUSH1 0x0 SELFBALANCE SWAP1 POP SWAP1 JUMP JUMPDEST PUSH1 0x7 PUSH1 0x20 MSTORE DUP1 PUSH1 0x0 MSTORE PUSH1 0x40 PUSH1 0x0 KECCAK256 PUSH1 0x0 SWAP2 POP SWAP1 POP DUP1 PUSH1 0x0 ADD DUP1 SLOAD PUSH2 0x83F SWAP1 PUSH2 0xEF2 JUMP JUMPDEST DUP1 PUSH1 0x1F ADD PUSH1 0x20 DUP1 SWAP2 DIV MUL PUSH1 0x20 ADD PUSH1 0x40 MLOAD SWAP1 DUP2 ADD PUSH1 0x40 MSTORE DUP1 SWAP3 SWAP2 SWAP1 DUP2 DUP2 MSTORE PUSH1 0x20 ADD DUP3 DUP1 SLOAD PUSH2 0x86B SWAP1 PUSH2 0xEF2 JUMP JUMPDEST DUP1 ISZERO PUSH2 0x8B8 JUMPI DUP1 PUSH1 0x1F LT PUSH2 0x88D JUMPI PUSH2 0x100 DUP1 DUP4 SLOAD DIV MUL DUP4 MSTORE SWAP2 PUSH1 0x20 ADD SWAP2 PUSH2 0x8B8 JUMP JUMPDEST DUP3 ADD SWAP2 SWAP1 PUSH1 0x0 MSTORE PUSH1 0x20 PUSH1 0x0 KECCAK256 SWAP1 JUMPDEST DUP2 SLOAD DUP2 MSTORE SWAP1 PUSH1 0x1 ADD SWAP1 PUSH1 0x20 ADD DUP1 DUP4 GT PUSH2 0x89B JUMPI DUP3 SWAP1 SUB PUSH1 0x1F AND DUP3 ADD SWAP2 JUMPDEST POP POP POP POP POP SWAP1 DUP1 PUSH1 0x1 ADD PUSH1 0x0 SWAP1 SLOAD SWAP1 PUSH2 0x100 EXP SWAP1 DIV PUSH20 0xFFFFFFFFFFFFFFFFFFFFFFFFFFFFFFFFFFFFFFFF AND SWAP1 DUP1 PUSH1 0x2 ADD SLOAD SWAP1 DUP1 PUSH1 0x3 ADD PUSH1 0x0 SWAP1 SLOAD SWAP1 PUSH2 0x100 EXP SWAP1 DIV PUSH1 0xFF AND SWAP1 DUP1 PUSH1 0x4 ADD SLOAD SWAP1 POP DUP6 JUMP JUMPDEST PUSH1 0x2 SLOAD DUP2 JUMP JUMPDEST PUSH1 0x8 SLOAD DUP2 JUMP JUMPDEST PUSH1 0x5 SLOAD DUP2 JUMP JUMPDEST PUSH1 0x4 SLOAD DUP2 JUMP JUMPDEST DUP3 DUP1 SLOAD PUSH2 0x92B SWAP1 PUSH2 0xEF2 JUMP JUMPDEST SWAP1 PUSH1 0x0 MSTORE PUSH1 0x20 PUSH1 0x0 KECCAK256 SWAP1 PUSH1 0x1F ADD PUSH1 0x20 SWAP1 DIV DUP2 ADD SWAP3 DUP3 PUSH2 0x94D JUMPI PUSH1 0x0 DUP6 SSTORE PUSH2 0x994 JUMP JUMPDEST DUP3 PUSH1 0x1F LT PUSH2 0x966 JUMPI DUP1 MLOAD PUSH1 0xFF NOT AND DUP4 DUP1 ADD OR DUP6 SSTORE PUSH2 0x994 JUMP JUMPDEST DUP3 DUP1 ADD PUSH1 0x1 ADD DUP6 SSTORE DUP3 ISZERO PUSH2 0x994 JUMPI SWAP2 DUP3 ADD JUMPDEST DUP3 DUP2 GT ISZERO PUSH2 0x993 JUMPI DUP3 MLOAD DUP3 SSTORE SWAP2 PUSH1 0x20 ADD SWAP2 SWAP1 PUSH1 0x1 ADD SWAP1 PUSH2 0x978 JUMP JUMPDEST JUMPDEST POP SWAP1 POP PUSH2 0x9A1 SWAP2 SWAP1 PUSH2 0x9A5 JUMP JUMPDEST POP SWAP1 JUMP JUMPDEST JUMPDEST DUP1 DUP3 GT ISZERO PUSH2 0x9BE JUMPI PUSH1 0x0 DUP2 PUSH1 0x0 SWAP1 SSTORE POP PUSH1 0x1 ADD PUSH2 0x9A6 JUMP JUMPDEST POP SWAP1 JUMP JUMPDEST PUSH1 0x0 PUSH2 0x9D5 PUSH2 0x9D0 DUP5 PUSH2 0xDB3 JUMP JUMPDEST PUSH2 0xD8E JUMP JUMPDEST SWAP1 POP DUP3 DUP2 MSTORE PUSH1 0x20 DUP2 ADD DUP5 DUP5 DUP5 ADD GT ISZERO PUSH2 0x9F1 JUMPI PUSH2 0x9F0 PUSH2 0x1030 JUMP JUMPDEST JUMPDEST PUSH2 0x9FC DUP5 DUP3 DUP6 PUSH2 0xEB0 JUMP JUMPDEST POP SWAP4 SWAP3 POP POP POP JUMP JUMPDEST PUSH1 0x0 DUP2 CALLDATALOAD SWAP1 POP PUSH2 0xA13 DUP2 PUSH2 0x1143 JUMP JUMPDEST SWAP3 SWAP2 POP POP JUMP JUMPDEST PUSH1 0x0 DUP2 CALLDATALOAD SWAP1 POP PUSH2 0xA28 DUP2 PUSH2 0x115A JUMP JUMPDEST SWAP3 SWAP2 POP POP JUMP JUMPDEST PUSH1 0x0 DUP3 PUSH1 0x1F DUP4 ADD SLT PUSH2 0xA43 JUMPI PUSH2 0xA42 PUSH2 0x102B JUMP JUMPDEST JUMPDEST DUP2 CALLDATALOAD PUSH2 0xA53 DUP5 DUP3 PUSH1 0x20 DUP7 ADD PUSH2 0x9C2 JUMP JUMPDEST SWAP2 POP POP SWAP3 SWAP2 POP POP JUMP JUMPDEST PUSH1 0x0 DUP2 CALLDATALOAD SWAP1 POP PUSH2 0xA6B DUP2 PUSH2 0x1171 JUMP JUMPDEST SWAP3 SWAP2 POP POP JUMP JUMPDEST PUSH1 0x0 PUSH1 0x20 DUP3 DUP5 SUB SLT ISZERO PUSH2 0xA87 JUMPI PUSH2 0xA86 PUSH2 0x103A JUMP JUMPDEST JUMPDEST PUSH1 0x0 PUSH2 0xA95 DUP5 DUP3 DUP6 ADD PUSH2 0xA04 JUMP JUMPDEST SWAP2 POP POP SWAP3 SWAP2 POP POP JUMP JUMPDEST PUSH1 0x0 DUP1 PUSH1 0x0 PUSH1 0x60 DUP5 DUP7 SUB SLT ISZERO PUSH2 0xAB7 JUMPI PUSH2 0xAB6 PUSH2 0x103A JUMP JUMPDEST JUMPDEST PUSH1 0x0 DUP5 ADD CALLDATALOAD PUSH8 0xFFFFFFFFFFFFFFFF DUP2 GT ISZERO PUSH2 0xAD5 JUMPI PUSH2 0xAD4 PUSH2 0x1035 JUMP JUMPDEST JUMPDEST PUSH2 0xAE1 DUP7 DUP3 DUP8 ADD PUSH2 0xA2E JUMP JUMPDEST SWAP4 POP POP PUSH1 0x20 PUSH2 0xAF2 DUP7 DUP3 DUP8 ADD PUSH2 0xA19 JUMP JUMPDEST SWAP3 POP POP PUSH1 0x40 PUSH2 0xB03 DUP7 DUP3 DUP8 ADD PUSH2 0xA5C JUMP JUMPDEST SWAP2 POP POP SWAP3 POP SWAP3 POP SWAP3 JUMP JUMPDEST PUSH1 0x0 PUSH1 0x20 DUP3 DUP5 SUB SLT ISZERO PUSH2 0xB23 JUMPI PUSH2 0xB22 PUSH2 0x103A JUMP JUMPDEST JUMPDEST PUSH1 0x0 PUSH2 0xB31 DUP5 DUP3 DUP6 ADD PUSH2 0xA5C JUMP JUMPDEST SWAP2 POP POP SWAP3 SWAP2 POP POP JUMP JUMPDEST PUSH2 0xB43 DUP2 PUSH2 0xE68 JUMP JUMPDEST DUP3 MSTORE POP POP JUMP JUMPDEST PUSH2 0xB52 DUP2 PUSH2 0xE56 JUMP JUMPDEST DUP3 MSTORE POP POP JUMP JUMPDEST PUSH2 0xB61 DUP2 PUSH2 0xE7A JUMP JUMPDEST DUP3 MSTORE POP POP JUMP JUMPDEST PUSH1 0x0 PUSH2 0xB72 DUP3 PUSH2 0xDE4 JUMP JUMPDEST PUSH2 0xB7C DUP2 DUP6 PUSH2 0xDEF JUMP JUMPDEST SWAP4 POP PUSH2 0xB8C DUP2 DUP6 PUSH1 0x20 DUP7 ADD PUSH2 0xEBF JUMP JUMPDEST PUSH2 0xB95 DUP2 PUSH2 0x103F JUMP JUMPDEST DUP5 ADD SWAP2 POP POP SWAP3 SWAP2 POP POP JUMP JUMPDEST PUSH1 0x0 PUSH2 0xBAD PUSH1 0x24 DUP4 PUSH2 0xDEF JUMP JUMPDEST SWAP2 POP PUSH2 0xBB8 DUP3 PUSH2 0x1050 JUMP JUMPDEST PUSH1 0x40 DUP3 ADD SWAP1 POP SWAP2 SWAP1 POP JUMP JUMPDEST PUSH1 0x0 PUSH2 0xBD0 PUSH1 0x1F DUP4 PUSH2 0xDEF JUMP JUMPDEST SWAP2 POP PUSH2 0xBDB DUP3 PUSH2 0x109F JUMP JUMPDEST PUSH1 0x20 DUP3 ADD SWAP1 POP SWAP2 SWAP1 POP JUMP JUMPDEST PUSH1 0x0 PUSH2 0xBF3 PUSH1 0x1A DUP4 PUSH2 0xDEF JUMP JUMPDEST SWAP2 POP PUSH2 0xBFE DUP3 PUSH2 0x10C8 JUMP JUMPDEST PUSH1 0x20 DUP3 ADD SWAP1 POP SWAP2 SWAP1 POP JUMP JUMPDEST PUSH1 0x0 PUSH2 0xC16 PUSH1 0x20 DUP4 PUSH2 0xDEF JUMP JUMPDEST SWAP2 POP PUSH2 0xC21 DUP3 PUSH2 0x10F1 JUMP JUMPDEST PUSH1 0x20 DUP3 ADD SWAP1 POP SWAP2 SWAP1 POP JUMP JUMPDEST PUSH1 0x0 PUSH2 0xC39 PUSH1 0x1D DUP4 PUSH2 0xDEF JUMP JUMPDEST SWAP2 POP PUSH2 0xC44 DUP3 PUSH2 0x111A JUMP JUMPDEST PUSH1 0x20 DUP3 ADD SWAP1 POP SWAP2 SWAP1 POP JUMP JUMPDEST PUSH2 0xC58 DUP2 PUSH2 0xEA6 JUMP JUMPDEST DUP3 MSTORE POP POP JUMP JUMPDEST PUSH1 0x0 PUSH1 0x20 DUP3 ADD SWAP1 POP PUSH2 0xC73 PUSH1 0x0 DUP4 ADD DUP5 PUSH2 0xB49 JUMP JUMPDEST SWAP3 SWAP2 POP POP JUMP JUMPDEST PUSH1 0x0 PUSH1 0xA0 DUP3 ADD SWAP1 POP DUP2 DUP2 SUB PUSH1 0x0 DUP4 ADD MSTORE PUSH2 0xC93 DUP2 DUP9 PUSH2 0xB67 JUMP JUMPDEST SWAP1 POP PUSH2 0xCA2 PUSH1 0x20 DUP4 ADD DUP8 PUSH2 0xB3A JUMP JUMPDEST PUSH2 0xCAF PUSH1 0x40 DUP4 ADD DUP7 PUSH2 0xC4F JUMP JUMPDEST PUSH2 0xCBC PUSH1 0x60 DUP4 ADD DUP6 PUSH2 0xB58 JUMP JUMPDEST PUSH2 0xCC9 PUSH1 0x80 DUP4 ADD DUP5 PUSH2 0xC4F JUMP JUMPDEST SWAP7 SWAP6 POP POP POP POP POP POP JUMP JUMPDEST PUSH1 0x0 PUSH1 0x20 DUP3 ADD SWAP1 POP DUP2 DUP2 SUB PUSH1 0x0 DUP4 ADD MSTORE PUSH2 0xCEC DUP2 PUSH2 0xBA0 JUMP JUMPDEST SWAP1 POP SWAP2 SWAP1 POP JUMP JUMPDEST PUSH1 0x0 PUSH1 0x20 DUP3 ADD SWAP1 POP DUP2 DUP2 SUB PUSH1 0x0 DUP4 ADD MSTORE PUSH2 0xD0C DUP2 PUSH2 0xBC3 JUMP JUMPDEST SWAP1 POP SWAP2 SWAP1 POP JUMP JUMPDEST PUSH1 0x0 PUSH1 0x20 DUP3 ADD SWAP1 POP DUP2 DUP2 SUB PUSH1 0x0 DUP4 ADD MSTORE PUSH2 0xD2C DUP2 PUSH2 0xBE6 JUMP JUMPDEST SWAP1 POP SWAP2 SWAP1 POP JUMP JUMPDEST PUSH1 0x0 PUSH1 0x20 DUP3 ADD SWAP1 POP DUP2 DUP2 SUB PUSH1 0x0 DUP4 ADD MSTORE PUSH2 0xD4C DUP2 PUSH2 0xC09 JUMP JUMPDEST SWAP1 POP SWAP2 SWAP1 POP JUMP JUMPDEST PUSH1 0x0 PUSH1 0x20 DUP3 ADD SWAP1 POP DUP2 DUP2 SUB PUSH1 0x0 DUP4 ADD MSTORE PUSH2 0xD6C DUP2 PUSH2 0xC2C JUMP JUMPDEST SWAP1 POP SWAP2 SWAP1 POP JUMP JUMPDEST PUSH1 0x0 PUSH1 0x20 DUP3 ADD SWAP1 POP PUSH2 0xD88 PUSH1 0x0 DUP4 ADD DUP5 PUSH2 0xC4F JUMP JUMPDEST SWAP3 SWAP2 POP POP JUMP JUMPDEST PUSH1 0x0 PUSH2 0xD98 PUSH2 0xDA9 JUMP JUMPDEST SWAP1 POP PUSH2 0xDA4 DUP3 DUP3 PUSH2 0xF24 JUMP JUMPDEST SWAP2 SWAP1 POP JUMP JUMPDEST PUSH1 0x0 PUSH1 0x40 MLOAD SWAP1 POP SWAP1 JUMP JUMPDEST PUSH1 0x0 PUSH8 0xFFFFFFFFFFFFFFFF DUP3 GT ISZERO PUSH2 0xDCE JUMPI PUSH2 0xDCD PUSH2 0xFFC JUMP JUMPDEST JUMPDEST PUSH2 0xDD7 DUP3 PUSH2 0x103F JUMP JUMPDEST SWAP1 POP PUSH1 0x20 DUP2 ADD SWAP1 POP SWAP2 SWAP1 POP JUMP JUMPDEST PUSH1 0x0 DUP2 MLOAD SWAP1 POP SWAP2 SWAP1 POP JUMP JUMPDEST PUSH1 0x0 DUP3 DUP3 MSTORE PUSH1 0x20 DUP3 ADD SWAP1 POP SWAP3 SWAP2 POP POP JUMP JUMPDEST PUSH1 0x0 PUSH2 0xE0B DUP3 PUSH2 0xEA6 JUMP JUMPDEST SWAP2 POP PUSH2 0xE16 DUP4 PUSH2 0xEA6 JUMP JUMPDEST SWAP3 POP DUP3 PUSH32 0xFFFFFFFFFFFFFFFFFFFFFFFFFFFFFFFFFFFFFFFFFFFFFFFFFFFFFFFFFFFFFFFF SUB DUP3 GT ISZERO PUSH2 0xE4B JUMPI PUSH2 0xE4A PUSH2 0xF9E JUMP JUMPDEST JUMPDEST DUP3 DUP3 ADD SWAP1 POP SWAP3 SWAP2 POP POP JUMP JUMPDEST PUSH1 0x0 PUSH2 0xE61 DUP3 PUSH2 0xE86 JUMP JUMPDEST SWAP1 POP SWAP2 SWAP1 POP JUMP JUMPDEST PUSH1 0x0 PUSH2 0xE73 DUP3 PUSH2 0xE86 JUMP JUMPDEST SWAP1 POP SWAP2 SWAP1 POP JUMP JUMPDEST PUSH1 0x0 DUP2 ISZERO ISZERO SWAP1 POP SWAP2 SWAP1 POP JUMP JUMPDEST PUSH1 0x0 PUSH20 0xFFFFFFFFFFFFFFFFFFFFFFFFFFFFFFFFFFFFFFFF DUP3 AND SWAP1 POP SWAP2 SWAP1 POP JUMP JUMPDEST PUSH1 0x0 DUP2 SWAP1 POP SWAP2 SWAP1 POP JUMP JUMPDEST DUP3 DUP2 DUP4 CALLDATACOPY PUSH1 0x0 DUP4 DUP4 ADD MSTORE POP POP POP JUMP JUMPDEST PUSH1 0x0 JUMPDEST DUP4 DUP2 LT ISZERO PUSH2 0xEDD JUMPI DUP1 DUP3 ADD MLOAD DUP2 DUP5 ADD MSTORE PUSH1 0x20 DUP2 ADD SWAP1 POP PUSH2 0xEC2 JUMP JUMPDEST DUP4 DUP2 GT ISZERO PUSH2 0xEEC JUMPI PUSH1 0x0 DUP5 DUP5 ADD MSTORE JUMPDEST POP POP POP POP JUMP JUMPDEST PUSH1 0x0 PUSH1 0x2 DUP3 DIV SWAP1 POP PUSH1 0x1 DUP3 AND DUP1 PUSH2 0xF0A JUMPI PUSH1 0x7F DUP3 AND SWAP2 POP JUMPDEST PUSH1 0x20 DUP3 LT DUP2 EQ ISZERO PUSH2 0xF1E JUMPI PUSH2 0xF1D PUSH2 0xFCD JUMP JUMPDEST JUMPDEST POP SWAP2 SWAP1 POP JUMP JUMPDEST PUSH2 0xF2D DUP3 PUSH2 0x103F JUMP JUMPDEST DUP2 ADD DUP2 DUP2 LT PUSH8 0xFFFFFFFFFFFFFFFF DUP3 GT OR ISZERO PUSH2 0xF4C JUMPI PUSH2 0xF4B PUSH2 0xFFC JUMP JUMPDEST JUMPDEST DUP1 PUSH1 0x40 MSTORE POP POP POP JUMP JUMPDEST PUSH1 0x0 PUSH2 0xF60 DUP3 PUSH2 0xEA6 JUMP JUMPDEST SWAP2 POP PUSH32 0xFFFFFFFFFFFFFFFFFFFFFFFFFFFFFFFFFFFFFFFFFFFFFFFFFFFFFFFFFFFFFFFF DUP3 EQ ISZERO PUSH2 0xF93 JUMPI PUSH2 0xF92 PUSH2 0xF9E JUMP JUMPDEST JUMPDEST PUSH1 0x1 DUP3 ADD SWAP1 POP SWAP2 SWAP1 POP JUMP JUMPDEST PUSH32 0x4E487B7100000000000000000000000000000000000000000000000000000000 PUSH1 0x0 MSTORE PUSH1 0x11 PUSH1 0x4 MSTORE PUSH1 0x24 PUSH1 0x0 REVERT JUMPDEST PUSH32 0x4E487B7100000000000000000000000000000000000000000000000000000000 PUSH1 0x0 MSTORE PUSH1 0x22 PUSH1 0x4 MSTORE PUSH1 0x24 PUSH1 0x0 REVERT JUMPDEST PUSH32 0x4E487B7100000000000000000000000000000000000000000000000000000000 PUSH1 0x0 MSTORE PUSH1 0x41 PUSH1 0x4 MSTORE PUSH1 0x24 PUSH1 0x0 REVERT JUMPDEST PUSH1 0x0 DUP1 REVERT JUMPDEST PUSH1 0x0 DUP1 REVERT JUMPDEST PUSH1 0x0 DUP1 REVERT JUMPDEST PUSH1 0x0 DUP1 REVERT JUMPDEST PUSH1 0x0 PUSH1 0x1F NOT PUSH1 0x1F DUP4 ADD AND SWAP1 POP SWAP2 SWAP1 POP JUMP JUMPDEST PUSH32 0x4F6E6C79206D616E616765722063616E2063616C6C20746869732066756E6374 PUSH1 0x0 DUP3 ADD MSTORE PUSH32 0x696F6E2E00000000000000000000000000000000000000000000000000000000 PUSH1 0x20 DUP3 ADD MSTORE POP JUMP JUMPDEST PUSH32 0x596F7520617265206E6F7420656C656769626C6520666F7220726566756E6400 PUSH1 0x0 DUP3 ADD MSTORE POP JUMP JUMPDEST PUSH32 0x596F75206D757374206265206120636F6E7472696275746F722E000000000000 PUSH1 0x0 DUP3 ADD MSTORE POP JUMP JUMPDEST PUSH32 0x4D696E696D756D20636F6E747269627574696F6E206973206E6F74206D65742E PUSH1 0x0 DUP3 ADD MSTORE POP JUMP JUMPDEST PUSH32 0x446561646C696E652068617320616C7265616479207265616368656421000000 PUSH1 0x0 DUP3 ADD MSTORE POP JUMP JUMPDEST PUSH2 0x114C DUP2 PUSH2 0xE56 JUMP JUMPDEST DUP2 EQ PUSH2 0x1157 JUMPI PUSH1 0x0 DUP1 REVERT JUMPDEST POP JUMP JUMPDEST PUSH2 0x1163 DUP2 PUSH2 0xE68 JUMP JUMPDEST DUP2 EQ PUSH2 0x116E JUMPI PUSH1 0x0 DUP1 REVERT JUMPDEST POP JUMP JUMPDEST PUSH2 0x117A DUP2 PUSH2 0xEA6 JUMP JUMPDEST DUP2 EQ PUSH2 0x1185 JUMPI PUSH1 0x0 DUP1 REVERT JUMPDEST POP JUMP INVALID LOG2 PUSH5 0x6970667358 0x22 SLT KECCAK256 PUSH16 0x3A686512DDA3D5FCA990B62F7CFC018A PUSH3 0x1A141E STOP EXP LT SDIV PUSH32 0x616FFDF72EBD64736F6C63430008070033000000000000000000000000000000 "
				},
				"gasEstimates": {
					"creation": {
						"codeDepositCost": "908400",
						"executionCost": "infinite",
						"totalCost": "infinite"
					},
					"external": {
						"contributors(address)": "2860",
						"createRequests(string,address,uint256)": "infinite",
						"deadline()": "2497",
						"getContractBalance()": "384",
						"manager()": "2559",
						"minimumContribution()": "2451",
						"noOfContributors()": "2518",
						"numRequests()": "2473",
						"raisedAmount()": "2495",
						"refund()": "infinite",
						"requests(uint256)": "infinite",
						"sendEth()": "infinite",
						"target()": "2517",
						"voteRequest(uint256)": "2972"
					}
				},
				"methodIdentifiers": {
					"contributors(address)": "1f6d4942",
					"createRequests(string,address,uint256)": "3eb7647b",
					"deadline()": "29dcb0cf",
					"getContractBalance()": "6f9fb98a",
					"manager()": "481c6a75",
					"minimumContribution()": "937e09b1",
					"noOfContributors()": "4e260f6f",
					"numRequests()": "9fb42b1f",
					"raisedAmount()": "c59ee1dc",
					"refund()": "590e1ae3",
					"requests(uint256)": "81d12c58",
					"sendEth()": "06e99fef",
					"target()": "d4b83992",
					"voteRequest(uint256)": "4cb6f4a5"
				}
			},
			"storageLayout": {
				"storage": [
					{
						"astId": 5,
						"contract": "CrowdFunding.sol:CrowdFunding",
						"label": "contributors",
						"offset": 0,
						"slot": "0",
						"type": "t_mapping(t_address,t_uint256)"
					},
					{
						"astId": 7,
						"contract": "CrowdFunding.sol:CrowdFunding",
						"label": "manager",
						"offset": 0,
						"slot": "1",
						"type": "t_address"
					},
					{
						"astId": 9,
						"contract": "CrowdFunding.sol:CrowdFunding",
						"label": "minimumContribution",
						"offset": 0,
						"slot": "2",
						"type": "t_uint256"
					},
					{
						"astId": 11,
						"contract": "CrowdFunding.sol:CrowdFunding",
						"label": "deadline",
						"offset": 0,
						"slot": "3",
						"type": "t_uint256"
					},
					{
						"astId": 13,
						"contract": "CrowdFunding.sol:CrowdFunding",
						"label": "target",
						"offset": 0,
						"slot": "4",
						"type": "t_uint256"
					},
					{
						"astId": 15,
						"contract": "CrowdFunding.sol:CrowdFunding",
						"label": "raisedAmount",
						"offset": 0,
						"slot": "5",
						"type": "t_uint256"
					},
					{
						"astId": 17,
						"contract": "CrowdFunding.sol:CrowdFunding",
						"label": "noOfContributors",
						"offset": 0,
						"slot": "6",
						"type": "t_uint256"
					},
					{
						"astId": 37,
						"contract": "CrowdFunding.sol:CrowdFunding",
						"label": "requests",
						"offset": 0,
						"slot": "7",
						"type": "t_mapping(t_uint256,t_struct(Request)32_storage)"
					},
					{
						"astId": 39,
						"contract": "CrowdFunding.sol:CrowdFunding",
						"label": "numRequests",
						"offset": 0,
						"slot": "8",
						"type": "t_uint256"
					}
				],
				"types": {
					"t_address": {
						"encoding": "inplace",
						"label": "address",
						"numberOfBytes": "20"
					},
					"t_address_payable": {
						"encoding": "inplace",
						"label": "address payable",
						"numberOfBytes": "20"
					},
					"t_bool": {
						"encoding": "inplace",
						"label": "bool",
						"numberOfBytes": "1"
					},
					"t_mapping(t_address,t_bool)": {
						"encoding": "mapping",
						"key": "t_address",
						"label": "mapping(address => bool)",
						"numberOfBytes": "32",
						"value": "t_bool"
					},
					"t_mapping(t_address,t_uint256)": {
						"encoding": "mapping",
						"key": "t_address",
						"label": "mapping(address => uint256)",
						"numberOfBytes": "32",
						"value": "t_uint256"
					},
					"t_mapping(t_uint256,t_struct(Request)32_storage)": {
						"encoding": "mapping",
						"key": "t_uint256",
						"label": "mapping(uint256 => struct CrowdFunding.Request)",
						"numberOfBytes": "32",
						"value": "t_struct(Request)32_storage"
					},
					"t_string_storage": {
						"encoding": "bytes",
						"label": "string",
						"numberOfBytes": "32"
					},
					"t_struct(Request)32_storage": {
						"encoding": "inplace",
						"label": "struct CrowdFunding.Request",
						"members": [
							{
								"astId": 19,
								"contract": "CrowdFunding.sol:CrowdFunding",
								"label": "description",
								"offset": 0,
								"slot": "0",
								"type": "t_string_storage"
							},
							{
								"astId": 21,
								"contract": "CrowdFunding.sol:CrowdFunding",
								"label": "recipient",
								"offset": 0,
								"slot": "1",
								"type": "t_address_payable"
							},
							{
								"astId": 23,
								"contract": "CrowdFunding.sol:CrowdFunding",
								"label": "value",
								"offset": 0,
								"slot": "2",
								"type": "t_uint256"
							},
							{
								"astId": 25,
								"contract": "CrowdFunding.sol:CrowdFunding",
								"label": "completed",
								"offset": 0,
								"slot": "3",
								"type": "t_bool"
							},
							{
								"astId": 27,
								"contract": "CrowdFunding.sol:CrowdFunding",
								"label": "noOfVoters",
								"offset": 0,
								"slot": "4",
								"type": "t_uint256"
							},
							{
								"astId": 31,
								"contract": "CrowdFunding.sol:CrowdFunding",
								"label": "voters",
								"offset": 0,
								"slot": "5",
								"type": "t_mapping(t_address,t_bool)"
							}
						],
						"numberOfBytes": "192"
					},
					"t_uint256": {
						"encoding": "inplace",
						"label": "uint256",
						"numberOfBytes": "32"
					}
				}
			},
			"userdoc": {
				"kind": "user",
				"methods": {},
				"version": 1
			}
		}
	}
}