{
	"CrowdFunding.sol": {
		"CrowdFunding": {
			"abi": [
				{
					"inputs": [
						{
							"internalType": "uint256",
							"name": "_target",
							"type": "uint256"
						},
						{
							"internalType": "uint256",
							"name": "_deadline",
							"type": "uint256"
						}
					],
					"stateMutability": "nonpayable",
					"type": "constructor"
				},
				{
					"inputs": [
						{
							"internalType": "address",
							"name": "",
							"type": "address"
						}
					],
					"name": "contributors",
					"outputs": [
						{
							"internalType": "uint256",
							"name": "",
							"type": "uint256"
						}
					],
					"stateMutability": "view",
					"type": "function"
				},
				{
					"inputs": [
						{
							"internalType": "string",
							"name": "_description",
							"type": "string"
						},
						{
							"internalType": "address payable",
							"name": "_recipient",
							"type": "address"
						},
						{
							"internalType": "uint256",
							"name": "_value",
							"type": "uint256"
						}
					],
					"name": "createRequests",
					"outputs": [],
					"stateMutability": "nonpayable",
					"type": "function"
				},
				{
					"inputs": [],
					"name": "deadline",
					"outputs": [
						{
							"internalType": "uint256",
							"name": "",
							"type": "uint256"
						}
					],
					"stateMutability": "view",
					"type": "function"
				},
				{
					"inputs": [],
					"name": "getContractBalance",
					"outputs": [
						{
							"internalType": "uint256",
							"name": "",
							"type": "uint256"
						}
					],
					"stateMutability": "view",
					"type": "function"
				},
				{
					"inputs": [],
					"name": "manager",
					"outputs": [
						{
							"internalType": "address",
							"name": "",
							"type": "address"
						}
					],
					"stateMutability": "view",
					"type": "function"
				},
				{
					"inputs": [],
					"name": "minimumContribution",
					"outputs": [
						{
							"internalType": "uint256",
							"name": "",
							"type": "uint256"
						}
					],
					"stateMutability": "view",
					"type": "function"
				},
				{
					"inputs": [],
					"name": "noOfContributors",
					"outputs": [
						{
							"internalType": "uint256",
							"name": "",
							"type": "uint256"
						}
					],
					"stateMutability": "view",
					"type": "function"
				},
				{
					"inputs": [],
					"name": "numRequests",
					"outputs": [
						{
							"internalType": "uint256",
							"name": "",
							"type": "uint256"
						}
					],
					"stateMutability": "view",
					"type": "function"
				},
				{
					"inputs": [],
					"name": "raisedAmount",
					"outputs": [
						{
							"internalType": "uint256",
							"name": "",
							"type": "uint256"
						}
					],
					"stateMutability": "view",
					"type": "function"
				},
				{
					"inputs": [],
					"name": "refund",
					"outputs": [],
					"stateMutability": "nonpayable",
					"type": "function"
				},
				{
					"inputs": [
						{
							"internalType": "uint256",
							"name": "",
							"type": "uint256"
						}
					],
					"name": "requests",
					"outputs": [
						{
							"internalType": "string",
							"name": "description",
							"type": "string"
						},
						{
							"internalType": "address payable",
							"name": "recipient",
							"type": "address"
						},
						{
							"internalType": "uint256",
							"name": "value",
							"type": "uint256"
						},
						{
							"internalType": "bool",
							"name": "completed",
							"type": "bool"
						},
						{
							"internalType": "uint256",
							"name": "noOfVoters",
							"type": "uint256"
						}
					],
					"stateMutability": "view",
					"type": "function"
				},
				{
					"inputs": [],
					"name": "sendEth",
					"outputs": [],
					"stateMutability": "payable",
					"type": "function"
				},
				{
					"inputs": [],
					"name": "target",
					"outputs": [
						{
							"internalType": "uint256",
							"name": "",
							"type": "uint256"
						}
					],
					"stateMutability": "view",
					"type": "function"
				}
			],
			"devdoc": {
				"kind": "dev",
				"methods": {},
				"version": 1
			},
			"evm": {
				"assembly": "    /* \"CrowdFunding.sol\":77:1956  contract CrowdFunding {\r... */\n  mstore(0x40, 0x80)\n    /* \"CrowdFunding.sol\":626:814  constructor(uint _target, uint _deadline){\r... */\n  callvalue\n  dup1\n  iszero\n  tag_1\n  jumpi\n  0x00\n  dup1\n  revert\ntag_1:\n  pop\n  mload(0x40)\n  sub(codesize, bytecodeSize)\n  dup1\n  bytecodeSize\n  dup4\n  codecopy\n  dup2\n  dup2\n  add\n  0x40\n  mstore\n  dup2\n  add\n  swap1\n  tag_2\n  swap2\n  swap1\n  tag_3\n  jump\t// in\ntag_2:\n    /* \"CrowdFunding.sol\":685:692  _target */\n  dup2\n    /* \"CrowdFunding.sol\":678:684  target */\n  0x04\n    /* \"CrowdFunding.sol\":678:692  target=_target */\n  dup2\n  swap1\n  sstore\n  pop\n    /* \"CrowdFunding.sol\":728:737  _deadline */\n  dup1\n    /* \"CrowdFunding.sol\":712:727  block.timestamp */\n  timestamp\n    /* \"CrowdFunding.sol\":712:737  block.timestamp+_deadline */\n  tag_6\n  swap2\n  swap1\n  tag_7\n  jump\t// in\ntag_6:\n    /* \"CrowdFunding.sol\":703:711  deadline */\n  0x03\n    /* \"CrowdFunding.sol\":703:737  deadline=block.timestamp+_deadline */\n  dup2\n  swap1\n  sstore\n  pop\n    /* \"CrowdFunding.sol\":769:776  100 wei */\n  0x64\n    /* \"CrowdFunding.sol\":748:767  minimumContribution */\n  0x02\n    /* \"CrowdFunding.sol\":748:776  minimumContribution= 100 wei */\n  dup2\n  swap1\n  sstore\n  pop\n    /* \"CrowdFunding.sol\":796:806  msg.sender */\n  caller\n    /* \"CrowdFunding.sol\":787:794  manager */\n  0x01\n  0x00\n    /* \"CrowdFunding.sol\":787:806  manager= msg.sender */\n  0x0100\n  exp\n  dup2\n  sload\n  dup2\n  0xffffffffffffffffffffffffffffffffffffffff\n  mul\n  not\n  and\n  swap1\n  dup4\n  0xffffffffffffffffffffffffffffffffffffffff\n  and\n  mul\n  or\n  swap1\n  sstore\n  pop\n    /* \"CrowdFunding.sol\":626:814  constructor(uint _target, uint _deadline){\r... */\n  pop\n  pop\n    /* \"CrowdFunding.sol\":77:1956  contract CrowdFunding {\r... */\n  jump(tag_8)\n    /* \"#utility.yul\":7:150   */\ntag_10:\n    /* \"#utility.yul\":64:69   */\n  0x00\n    /* \"#utility.yul\":95:101   */\n  dup2\n    /* \"#utility.yul\":89:102   */\n  mload\n    /* \"#utility.yul\":80:102   */\n  swap1\n  pop\n    /* \"#utility.yul\":111:144   */\n  tag_12\n    /* \"#utility.yul\":138:143   */\n  dup2\n    /* \"#utility.yul\":111:144   */\n  tag_13\n  jump\t// in\ntag_12:\n    /* \"#utility.yul\":7:150   */\n  swap3\n  swap2\n  pop\n  pop\n  jump\t// out\n    /* \"#utility.yul\":156:663   */\ntag_3:\n    /* \"#utility.yul\":235:241   */\n  0x00\n    /* \"#utility.yul\":243:249   */\n  dup1\n    /* \"#utility.yul\":292:294   */\n  0x40\n    /* \"#utility.yul\":280:289   */\n  dup4\n    /* \"#utility.yul\":271:278   */\n  dup6\n    /* \"#utility.yul\":267:290   */\n  sub\n    /* \"#utility.yul\":263:295   */\n  slt\n    /* \"#utility.yul\":260:379   */\n  iszero\n  tag_15\n  jumpi\n    /* \"#utility.yul\":298:377   */\n  tag_16\n  tag_17\n  jump\t// in\ntag_16:\n    /* \"#utility.yul\":260:379   */\ntag_15:\n    /* \"#utility.yul\":418:419   */\n  0x00\n    /* \"#utility.yul\":443:507   */\n  tag_18\n    /* \"#utility.yul\":499:506   */\n  dup6\n    /* \"#utility.yul\":490:496   */\n  dup3\n    /* \"#utility.yul\":479:488   */\n  dup7\n    /* \"#utility.yul\":475:497   */\n  add\n    /* \"#utility.yul\":443:507   */\n  tag_10\n  jump\t// in\ntag_18:\n    /* \"#utility.yul\":433:507   */\n  swap3\n  pop\n    /* \"#utility.yul\":389:517   */\n  pop\n    /* \"#utility.yul\":556:558   */\n  0x20\n    /* \"#utility.yul\":582:646   */\n  tag_19\n    /* \"#utility.yul\":638:645   */\n  dup6\n    /* \"#utility.yul\":629:635   */\n  dup3\n    /* \"#utility.yul\":618:627   */\n  dup7\n    /* \"#utility.yul\":614:636   */\n  add\n    /* \"#utility.yul\":582:646   */\n  tag_10\n  jump\t// in\ntag_19:\n    /* \"#utility.yul\":572:646   */\n  swap2\n  pop\n    /* \"#utility.yul\":527:656   */\n  pop\n    /* \"#utility.yul\":156:663   */\n  swap3\n  pop\n  swap3\n  swap1\n  pop\n  jump\t// out\n    /* \"#utility.yul\":750:1055   */\ntag_7:\n    /* \"#utility.yul\":790:793   */\n  0x00\n    /* \"#utility.yul\":809:829   */\n  tag_23\n    /* \"#utility.yul\":827:828   */\n  dup3\n    /* \"#utility.yul\":809:829   */\n  tag_24\n  jump\t// in\ntag_23:\n    /* \"#utility.yul\":804:829   */\n  swap2\n  pop\n    /* \"#utility.yul\":843:863   */\n  tag_25\n    /* \"#utility.yul\":861:862   */\n  dup4\n    /* \"#utility.yul\":843:863   */\n  tag_24\n  jump\t// in\ntag_25:\n    /* \"#utility.yul\":838:863   */\n  swap3\n  pop\n    /* \"#utility.yul\":997:998   */\n  dup3\n    /* \"#utility.yul\":929:995   */\n  0xffffffffffffffffffffffffffffffffffffffffffffffffffffffffffffffff\n    /* \"#utility.yul\":925:999   */\n  sub\n    /* \"#utility.yul\":922:923   */\n  dup3\n    /* \"#utility.yul\":919:1000   */\n  gt\n    /* \"#utility.yul\":916:1023   */\n  iszero\n  tag_26\n  jumpi\n    /* \"#utility.yul\":1003:1021   */\n  tag_27\n  tag_28\n  jump\t// in\ntag_27:\n    /* \"#utility.yul\":916:1023   */\ntag_26:\n    /* \"#utility.yul\":1047:1048   */\n  dup3\n    /* \"#utility.yul\":1044:1045   */\n  dup3\n    /* \"#utility.yul\":1040:1049   */\n  add\n    /* \"#utility.yul\":1033:1049   */\n  swap1\n  pop\n    /* \"#utility.yul\":750:1055   */\n  swap3\n  swap2\n  pop\n  pop\n  jump\t// out\n    /* \"#utility.yul\":1061:1138   */\ntag_24:\n    /* \"#utility.yul\":1098:1105   */\n  0x00\n    /* \"#utility.yul\":1127:1132   */\n  dup2\n    /* \"#utility.yul\":1116:1132   */\n  swap1\n  pop\n    /* \"#utility.yul\":1061:1138   */\n  swap2\n  swap1\n  pop\n  jump\t// out\n    /* \"#utility.yul\":1144:1324   */\ntag_28:\n    /* \"#utility.yul\":1192:1269   */\n  0x4e487b7100000000000000000000000000000000000000000000000000000000\n    /* \"#utility.yul\":1189:1190   */\n  0x00\n    /* \"#utility.yul\":1182:1270   */\n  mstore\n    /* \"#utility.yul\":1289:1293   */\n  0x11\n    /* \"#utility.yul\":1286:1287   */\n  0x04\n    /* \"#utility.yul\":1279:1294   */\n  mstore\n    /* \"#utility.yul\":1313:1317   */\n  0x24\n    /* \"#utility.yul\":1310:1311   */\n  0x00\n    /* \"#utility.yul\":1303:1318   */\n  revert\n    /* \"#utility.yul\":1453:1570   */\ntag_17:\n    /* \"#utility.yul\":1562:1563   */\n  0x00\n    /* \"#utility.yul\":1559:1560   */\n  dup1\n    /* \"#utility.yul\":1552:1564   */\n  revert\n    /* \"#utility.yul\":1576:1698   */\ntag_13:\n    /* \"#utility.yul\":1649:1673   */\n  tag_35\n    /* \"#utility.yul\":1667:1672   */\n  dup2\n    /* \"#utility.yul\":1649:1673   */\n  tag_24\n  jump\t// in\ntag_35:\n    /* \"#utility.yul\":1642:1647   */\n  dup2\n    /* \"#utility.yul\":1639:1674   */\n  eq\n    /* \"#utility.yul\":1629:1692   */\n  tag_36\n  jumpi\n    /* \"#utility.yul\":1688:1689   */\n  0x00\n    /* \"#utility.yul\":1685:1686   */\n  dup1\n    /* \"#utility.yul\":1678:1690   */\n  revert\n    /* \"#utility.yul\":1629:1692   */\ntag_36:\n    /* \"#utility.yul\":1576:1698   */\n  pop\n  jump\t// out\n    /* \"CrowdFunding.sol\":77:1956  contract CrowdFunding {\r... */\ntag_8:\n  dataSize(sub_0)\n  dup1\n  dataOffset(sub_0)\n  0x00\n  codecopy\n  0x00\n  return\nstop\n\nsub_0: assembly {\n        /* \"CrowdFunding.sol\":77:1956  contract CrowdFunding {\r... */\n      mstore(0x40, 0x80)\n      jumpi(tag_1, lt(calldatasize, 0x04))\n      shr(0xe0, calldataload(0x00))\n      dup1\n      0x590e1ae3\n      gt\n      tag_15\n      jumpi\n      dup1\n      0x937e09b1\n      gt\n      tag_16\n      jumpi\n      dup1\n      0x937e09b1\n      eq\n      tag_11\n      jumpi\n      dup1\n      0x9fb42b1f\n      eq\n      tag_12\n      jumpi\n      dup1\n      0xc59ee1dc\n      eq\n      tag_13\n      jumpi\n      dup1\n      0xd4b83992\n      eq\n      tag_14\n      jumpi\n      jump(tag_1)\n    tag_16:\n      dup1\n      0x590e1ae3\n      eq\n      tag_8\n      jumpi\n      dup1\n      0x6f9fb98a\n      eq\n      tag_9\n      jumpi\n      dup1\n      0x81d12c58\n      eq\n      tag_10\n      jumpi\n      jump(tag_1)\n    tag_15:\n      dup1\n      0x06e99fef\n      eq\n      tag_2\n      jumpi\n      dup1\n      0x1f6d4942\n      eq\n      tag_3\n      jumpi\n      dup1\n      0x29dcb0cf\n      eq\n      tag_4\n      jumpi\n      dup1\n      0x3eb7647b\n      eq\n      tag_5\n      jumpi\n      dup1\n      0x481c6a75\n      eq\n      tag_6\n      jumpi\n      dup1\n      0x4e260f6f\n      eq\n      tag_7\n      jumpi\n    tag_1:\n      0x00\n      dup1\n      revert\n        /* \"CrowdFunding.sol\":822:1200  function sendEth() public payable{\r... */\n    tag_2:\n      tag_17\n      tag_18\n      jump\t// in\n    tag_17:\n      stop\n        /* \"CrowdFunding.sol\":106:148  mapping(address=>uint) public contributors */\n    tag_3:\n      callvalue\n      dup1\n      iszero\n      tag_19\n      jumpi\n      0x00\n      dup1\n      revert\n    tag_19:\n      pop\n      tag_20\n      0x04\n      dup1\n      calldatasize\n      sub\n      dup2\n      add\n      swap1\n      tag_21\n      swap2\n      swap1\n      tag_22\n      jump\t// in\n    tag_21:\n      tag_23\n      jump\t// in\n    tag_20:\n      mload(0x40)\n      tag_24\n      swap2\n      swap1\n      tag_25\n      jump\t// in\n    tag_24:\n      mload(0x40)\n      dup1\n      swap2\n      sub\n      swap1\n      return\n        /* \"CrowdFunding.sol\":222:242  uint public deadline */\n    tag_4:\n      callvalue\n      dup1\n      iszero\n      tag_26\n      jumpi\n      0x00\n      dup1\n      revert\n    tag_26:\n      pop\n      tag_27\n      tag_28\n      jump\t// in\n    tag_27:\n      mload(0x40)\n      tag_29\n      swap2\n      swap1\n      tag_25\n      jump\t// in\n    tag_29:\n      mload(0x40)\n      dup1\n      swap2\n      sub\n      swap1\n      return\n        /* \"CrowdFunding.sol\":1773:1953  function createRequests(string memory _description, address payable _recipient, uint _value) public onlyManager{\r... */\n    tag_5:\n      callvalue\n      dup1\n      iszero\n      tag_30\n      jumpi\n      0x00\n      dup1\n      revert\n    tag_30:\n      pop\n      tag_31\n      0x04\n      dup1\n      calldatasize\n      sub\n      dup2\n      add\n      swap1\n      tag_32\n      swap2\n      swap1\n      tag_33\n      jump\t// in\n    tag_32:\n      tag_34\n      jump\t// in\n    tag_31:\n      stop\n        /* \"CrowdFunding.sol\":155:177  address public manager */\n    tag_6:\n      callvalue\n      dup1\n      iszero\n      tag_35\n      jumpi\n      0x00\n      dup1\n      revert\n    tag_35:\n      pop\n      tag_36\n      tag_37\n      jump\t// in\n    tag_36:\n      mload(0x40)\n      tag_38\n      swap2\n      swap1\n      tag_39\n      jump\t// in\n    tag_38:\n      mload(0x40)\n      dup1\n      swap2\n      sub\n      swap1\n      return\n        /* \"CrowdFunding.sol\":305:333  uint public noOfContributors */\n    tag_7:\n      callvalue\n      dup1\n      iszero\n      tag_40\n      jumpi\n      0x00\n      dup1\n      revert\n    tag_40:\n      pop\n      tag_41\n      tag_42\n      jump\t// in\n    tag_41:\n      mload(0x40)\n      tag_43\n      swap2\n      swap1\n      tag_25\n      jump\t// in\n    tag_43:\n      mload(0x40)\n      dup1\n      swap2\n      sub\n      swap1\n      return\n        /* \"CrowdFunding.sol\":1319:1638  function refund() public {\r... */\n    tag_8:\n      callvalue\n      dup1\n      iszero\n      tag_44\n      jumpi\n      0x00\n      dup1\n      revert\n    tag_44:\n      pop\n      tag_45\n      tag_46\n      jump\t// in\n    tag_45:\n      stop\n        /* \"CrowdFunding.sol\":1208:1311  function getContractBalance() public view returns(uint){\r... */\n    tag_9:\n      callvalue\n      dup1\n      iszero\n      tag_47\n      jumpi\n      0x00\n      dup1\n      revert\n    tag_47:\n      pop\n      tag_48\n      tag_49\n      jump\t// in\n    tag_48:\n      mload(0x40)\n      tag_50\n      swap2\n      swap1\n      tag_25\n      jump\t// in\n    tag_50:\n      mload(0x40)\n      dup1\n      swap2\n      sub\n      swap1\n      return\n        /* \"CrowdFunding.sol\":549:587  mapping(uint=>Request) public requests */\n    tag_10:\n      callvalue\n      dup1\n      iszero\n      tag_51\n      jumpi\n      0x00\n      dup1\n      revert\n    tag_51:\n      pop\n      tag_52\n      0x04\n      dup1\n      calldatasize\n      sub\n      dup2\n      add\n      swap1\n      tag_53\n      swap2\n      swap1\n      tag_54\n      jump\t// in\n    tag_53:\n      tag_55\n      jump\t// in\n    tag_52:\n      mload(0x40)\n      tag_56\n      swap6\n      swap5\n      swap4\n      swap3\n      swap2\n      swap1\n      tag_57\n      jump\t// in\n    tag_56:\n      mload(0x40)\n      dup1\n      swap2\n      sub\n      swap1\n      return\n        /* \"CrowdFunding.sol\":184:215  uint public minimumContribution */\n    tag_11:\n      callvalue\n      dup1\n      iszero\n      tag_58\n      jumpi\n      0x00\n      dup1\n      revert\n    tag_58:\n      pop\n      tag_59\n      tag_60\n      jump\t// in\n    tag_59:\n      mload(0x40)\n      tag_61\n      swap2\n      swap1\n      tag_25\n      jump\t// in\n    tag_61:\n      mload(0x40)\n      dup1\n      swap2\n      sub\n      swap1\n      return\n        /* \"CrowdFunding.sol\":594:617  uint public numRequests */\n    tag_12:\n      callvalue\n      dup1\n      iszero\n      tag_62\n      jumpi\n      0x00\n      dup1\n      revert\n    tag_62:\n      pop\n      tag_63\n      tag_64\n      jump\t// in\n    tag_63:\n      mload(0x40)\n      tag_65\n      swap2\n      swap1\n      tag_25\n      jump\t// in\n    tag_65:\n      mload(0x40)\n      dup1\n      swap2\n      sub\n      swap1\n      return\n        /* \"CrowdFunding.sol\":274:298  uint public raisedAmount */\n    tag_13:\n      callvalue\n      dup1\n      iszero\n      tag_66\n      jumpi\n      0x00\n      dup1\n      revert\n    tag_66:\n      pop\n      tag_67\n      tag_68\n      jump\t// in\n    tag_67:\n      mload(0x40)\n      tag_69\n      swap2\n      swap1\n      tag_25\n      jump\t// in\n    tag_69:\n      mload(0x40)\n      dup1\n      swap2\n      sub\n      swap1\n      return\n        /* \"CrowdFunding.sol\":249:267  uint public target */\n    tag_14:\n      callvalue\n      dup1\n      iszero\n      tag_70\n      jumpi\n      0x00\n      dup1\n      revert\n    tag_70:\n      pop\n      tag_71\n      tag_72\n      jump\t// in\n    tag_71:\n      mload(0x40)\n      tag_73\n      swap2\n      swap1\n      tag_25\n      jump\t// in\n    tag_73:\n      mload(0x40)\n      dup1\n      swap2\n      sub\n      swap1\n      return\n        /* \"CrowdFunding.sol\":822:1200  function sendEth() public payable{\r... */\n    tag_18:\n        /* \"CrowdFunding.sol\":892:900  deadline */\n      sload(0x03)\n        /* \"CrowdFunding.sol\":874:889  block.timestamp */\n      timestamp\n        /* \"CrowdFunding.sol\":874:900  block.timestamp < deadline */\n      lt\n        /* \"CrowdFunding.sol\":866:934  require(block.timestamp < deadline, \"Deadline has already reached!\") */\n      tag_75\n      jumpi\n      mload(0x40)\n      0x08c379a000000000000000000000000000000000000000000000000000000000\n      dup2\n      mstore\n      0x04\n      add\n      tag_76\n      swap1\n      tag_77\n      jump\t// in\n    tag_76:\n      mload(0x40)\n      dup1\n      swap2\n      sub\n      swap1\n      revert\n    tag_75:\n        /* \"CrowdFunding.sol\":966:985  minimumContribution */\n      sload(0x02)\n        /* \"CrowdFunding.sol\":953:962  msg.value */\n      callvalue\n        /* \"CrowdFunding.sol\":953:985  msg.value >= minimumContribution */\n      lt\n      iszero\n        /* \"CrowdFunding.sol\":945:1022  require(msg.value >= minimumContribution, \"Minimum contribution is not met.\") */\n      tag_78\n      jumpi\n      mload(0x40)\n      0x08c379a000000000000000000000000000000000000000000000000000000000\n      dup2\n      mstore\n      0x04\n      add\n      tag_79\n      swap1\n      tag_80\n      jump\t// in\n    tag_79:\n      mload(0x40)\n      dup1\n      swap2\n      sub\n      swap1\n      revert\n    tag_78:\n        /* \"CrowdFunding.sol\":1066:1067  0 */\n      0x00\n        /* \"CrowdFunding.sol\":1038:1050  contributors */\n      dup1\n        /* \"CrowdFunding.sol\":1038:1062  contributors[msg.sender] */\n      0x00\n        /* \"CrowdFunding.sol\":1051:1061  msg.sender */\n      caller\n        /* \"CrowdFunding.sol\":1038:1062  contributors[msg.sender] */\n      0xffffffffffffffffffffffffffffffffffffffff\n      and\n      0xffffffffffffffffffffffffffffffffffffffff\n      and\n      dup2\n      mstore\n      0x20\n      add\n      swap1\n      dup2\n      mstore\n      0x20\n      add\n      0x00\n      keccak256\n      sload\n        /* \"CrowdFunding.sol\":1038:1067  contributors[msg.sender] == 0 */\n      eq\n        /* \"CrowdFunding.sol\":1035:1113  if(contributors[msg.sender] == 0){\r... */\n      iszero\n      tag_81\n      jumpi\n        /* \"CrowdFunding.sol\":1083:1099  noOfContributors */\n      0x06\n      0x00\n        /* \"CrowdFunding.sol\":1083:1101  noOfContributors++ */\n      dup2\n      sload\n      dup1\n      swap3\n      swap2\n      swap1\n      tag_82\n      swap1\n      tag_83\n      jump\t// in\n    tag_82:\n      swap2\n      swap1\n      pop\n      sstore\n      pop\n        /* \"CrowdFunding.sol\":1035:1113  if(contributors[msg.sender] == 0){\r... */\n    tag_81:\n        /* \"CrowdFunding.sol\":1149:1158  msg.value */\n      callvalue\n        /* \"CrowdFunding.sol\":1123:1135  contributors */\n      0x00\n        /* \"CrowdFunding.sol\":1123:1147  contributors[msg.sender] */\n      dup1\n        /* \"CrowdFunding.sol\":1136:1146  msg.sender */\n      caller\n        /* \"CrowdFunding.sol\":1123:1147  contributors[msg.sender] */\n      0xffffffffffffffffffffffffffffffffffffffff\n      and\n      0xffffffffffffffffffffffffffffffffffffffff\n      and\n      dup2\n      mstore\n      0x20\n      add\n      swap1\n      dup2\n      mstore\n      0x20\n      add\n      0x00\n      keccak256\n      0x00\n        /* \"CrowdFunding.sol\":1123:1158  contributors[msg.sender]+=msg.value */\n      dup3\n      dup3\n      sload\n      tag_84\n      swap2\n      swap1\n      tag_85\n      jump\t// in\n    tag_84:\n      swap3\n      pop\n      pop\n      dup2\n      swap1\n      sstore\n      pop\n        /* \"CrowdFunding.sol\":1183:1192  msg.value */\n      callvalue\n        /* \"CrowdFunding.sol\":1169:1181  raisedAmount */\n      0x05\n      0x00\n        /* \"CrowdFunding.sol\":1169:1192  raisedAmount+=msg.value */\n      dup3\n      dup3\n      sload\n      tag_86\n      swap2\n      swap1\n      tag_85\n      jump\t// in\n    tag_86:\n      swap3\n      pop\n      pop\n      dup2\n      swap1\n      sstore\n      pop\n        /* \"CrowdFunding.sol\":822:1200  function sendEth() public payable{\r... */\n      jump\t// out\n        /* \"CrowdFunding.sol\":106:148  mapping(address=>uint) public contributors */\n    tag_23:\n      mstore(0x20, 0x00)\n      dup1\n      0x00\n      mstore\n      keccak256(0x00, 0x40)\n      0x00\n      swap2\n      pop\n      swap1\n      pop\n      sload\n      dup2\n      jump\t// out\n        /* \"CrowdFunding.sol\":222:242  uint public deadline */\n    tag_28:\n      sload(0x03)\n      dup2\n      jump\t// out\n        /* \"CrowdFunding.sol\":1773:1953  function createRequests(string memory _description, address payable _recipient, uint _value) public onlyManager{\r... */\n    tag_34:\n        /* \"CrowdFunding.sol\":1699:1706  manager */\n      0x01\n      0x00\n      swap1\n      sload\n      swap1\n      0x0100\n      exp\n      swap1\n      div\n      0xffffffffffffffffffffffffffffffffffffffff\n      and\n        /* \"CrowdFunding.sol\":1687:1706  msg.sender==manager */\n      0xffffffffffffffffffffffffffffffffffffffff\n      and\n        /* \"CrowdFunding.sol\":1687:1697  msg.sender */\n      caller\n        /* \"CrowdFunding.sol\":1687:1706  msg.sender==manager */\n      0xffffffffffffffffffffffffffffffffffffffff\n      and\n      eq\n        /* \"CrowdFunding.sol\":1679:1747  require(msg.sender==manager, \"Only manager can call this function.\") */\n      tag_88\n      jumpi\n      mload(0x40)\n      0x08c379a000000000000000000000000000000000000000000000000000000000\n      dup2\n      mstore\n      0x04\n      add\n      tag_89\n      swap1\n      tag_90\n      jump\t// in\n    tag_89:\n      mload(0x40)\n      dup1\n      swap2\n      sub\n      swap1\n      revert\n    tag_88:\n        /* \"CrowdFunding.sol\":1895:1921  Request storage newRequest */\n      0x00\n        /* \"CrowdFunding.sol\":1924:1932  requests */\n      0x07\n        /* \"CrowdFunding.sol\":1924:1945  requests[numRequests] */\n      0x00\n        /* \"CrowdFunding.sol\":1933:1944  numRequests */\n      sload(0x08)\n        /* \"CrowdFunding.sol\":1924:1945  requests[numRequests] */\n      dup2\n      mstore\n      0x20\n      add\n      swap1\n      dup2\n      mstore\n      0x20\n      add\n      0x00\n      keccak256\n        /* \"CrowdFunding.sol\":1895:1945  Request storage newRequest = requests[numRequests] */\n      swap1\n      pop\n        /* \"CrowdFunding.sol\":1884:1953  {\r... */\n      pop\n        /* \"CrowdFunding.sol\":1773:1953  function createRequests(string memory _description, address payable _recipient, uint _value) public onlyManager{\r... */\n      pop\n      pop\n      pop\n      jump\t// out\n        /* \"CrowdFunding.sol\":155:177  address public manager */\n    tag_37:\n      0x01\n      0x00\n      swap1\n      sload\n      swap1\n      0x0100\n      exp\n      swap1\n      div\n      0xffffffffffffffffffffffffffffffffffffffff\n      and\n      dup2\n      jump\t// out\n        /* \"CrowdFunding.sol\":305:333  uint public noOfContributors */\n    tag_42:\n      sload(0x06)\n      dup2\n      jump\t// out\n        /* \"CrowdFunding.sol\":1319:1638  function refund() public {\r... */\n    tag_46:\n        /* \"CrowdFunding.sol\":1379:1387  deadline */\n      sload(0x03)\n        /* \"CrowdFunding.sol\":1363:1378  block.timestamp */\n      timestamp\n        /* \"CrowdFunding.sol\":1363:1387  block.timestamp>deadline */\n      gt\n        /* \"CrowdFunding.sol\":1363:1410  block.timestamp>deadline && raisedAmount<target */\n      dup1\n      iszero\n      tag_93\n      jumpi\n      pop\n        /* \"CrowdFunding.sol\":1404:1410  target */\n      sload(0x04)\n        /* \"CrowdFunding.sol\":1391:1403  raisedAmount */\n      sload(0x05)\n        /* \"CrowdFunding.sol\":1391:1410  raisedAmount<target */\n      lt\n        /* \"CrowdFunding.sol\":1363:1410  block.timestamp>deadline && raisedAmount<target */\n    tag_93:\n        /* \"CrowdFunding.sol\":1355:1446  require(block.timestamp>deadline && raisedAmount<target, \"You are not elegible for refund\") */\n      tag_94\n      jumpi\n      mload(0x40)\n      0x08c379a000000000000000000000000000000000000000000000000000000000\n      dup2\n      mstore\n      0x04\n      add\n      tag_95\n      swap1\n      tag_96\n      jump\t// in\n    tag_95:\n      mload(0x40)\n      dup1\n      swap2\n      sub\n      swap1\n      revert\n    tag_94:\n        /* \"CrowdFunding.sol\":1490:1491  0 */\n      0x00\n        /* \"CrowdFunding.sol\":1465:1477  contributors */\n      dup1\n        /* \"CrowdFunding.sol\":1465:1489  contributors[msg.sender] */\n      0x00\n        /* \"CrowdFunding.sol\":1478:1488  msg.sender */\n      caller\n        /* \"CrowdFunding.sol\":1465:1489  contributors[msg.sender] */\n      0xffffffffffffffffffffffffffffffffffffffff\n      and\n      0xffffffffffffffffffffffffffffffffffffffff\n      and\n      dup2\n      mstore\n      0x20\n      add\n      swap1\n      dup2\n      mstore\n      0x20\n      add\n      0x00\n      keccak256\n      sload\n        /* \"CrowdFunding.sol\":1465:1491  contributors[msg.sender]>0 */\n      gt\n        /* \"CrowdFunding.sol\":1457:1492  require(contributors[msg.sender]>0) */\n      tag_97\n      jumpi\n      0x00\n      dup1\n      revert\n    tag_97:\n        /* \"CrowdFunding.sol\":1503:1523  address payable user */\n      0x00\n        /* \"CrowdFunding.sol\":1532:1542  msg.sender */\n      caller\n        /* \"CrowdFunding.sol\":1503:1543  address payable user=payable(msg.sender) */\n      swap1\n      pop\n        /* \"CrowdFunding.sol\":1554:1558  user */\n      dup1\n        /* \"CrowdFunding.sol\":1554:1567  user.transfer */\n      0xffffffffffffffffffffffffffffffffffffffff\n      and\n        /* \"CrowdFunding.sol\":1554:1593  user.transfer(contributors[msg.sender]) */\n      0x08fc\n        /* \"CrowdFunding.sol\":1568:1580  contributors */\n      0x00\n        /* \"CrowdFunding.sol\":1568:1592  contributors[msg.sender] */\n      dup1\n        /* \"CrowdFunding.sol\":1581:1591  msg.sender */\n      caller\n        /* \"CrowdFunding.sol\":1568:1592  contributors[msg.sender] */\n      0xffffffffffffffffffffffffffffffffffffffff\n      and\n      0xffffffffffffffffffffffffffffffffffffffff\n      and\n      dup2\n      mstore\n      0x20\n      add\n      swap1\n      dup2\n      mstore\n      0x20\n      add\n      0x00\n      keccak256\n      sload\n        /* \"CrowdFunding.sol\":1554:1593  user.transfer(contributors[msg.sender]) */\n      swap1\n      dup2\n      iszero\n      mul\n      swap1\n      mload(0x40)\n      0x00\n      mload(0x40)\n      dup1\n      dup4\n      sub\n      dup2\n      dup6\n      dup9\n      dup9\n      call\n      swap4\n      pop\n      pop\n      pop\n      pop\n      iszero\n      dup1\n      iszero\n      tag_99\n      jumpi\n      returndatasize\n      0x00\n      dup1\n      returndatacopy\n      revert(0x00, returndatasize)\n    tag_99:\n      pop\n        /* \"CrowdFunding.sol\":1629:1630  0 */\n      0x00\n        /* \"CrowdFunding.sol\":1604:1616  contributors */\n      dup1\n        /* \"CrowdFunding.sol\":1604:1628  contributors[msg.sender] */\n      0x00\n        /* \"CrowdFunding.sol\":1617:1627  msg.sender */\n      caller\n        /* \"CrowdFunding.sol\":1604:1628  contributors[msg.sender] */\n      0xffffffffffffffffffffffffffffffffffffffff\n      and\n      0xffffffffffffffffffffffffffffffffffffffff\n      and\n      dup2\n      mstore\n      0x20\n      add\n      swap1\n      dup2\n      mstore\n      0x20\n      add\n      0x00\n      keccak256\n        /* \"CrowdFunding.sol\":1604:1630  contributors[msg.sender]=0 */\n      dup2\n      swap1\n      sstore\n      pop\n        /* \"CrowdFunding.sol\":1344:1638  {\r... */\n      pop\n        /* \"CrowdFunding.sol\":1319:1638  function refund() public {\r... */\n      jump\t// out\n        /* \"CrowdFunding.sol\":1208:1311  function getContractBalance() public view returns(uint){\r... */\n    tag_49:\n        /* \"CrowdFunding.sol\":1258:1262  uint */\n      0x00\n        /* \"CrowdFunding.sol\":1281:1302  address(this).balance */\n      selfbalance\n        /* \"CrowdFunding.sol\":1274:1302  return address(this).balance */\n      swap1\n      pop\n        /* \"CrowdFunding.sol\":1208:1311  function getContractBalance() public view returns(uint){\r... */\n      swap1\n      jump\t// out\n        /* \"CrowdFunding.sol\":549:587  mapping(uint=>Request) public requests */\n    tag_55:\n      mstore(0x20, 0x07)\n      dup1\n      0x00\n      mstore\n      keccak256(0x00, 0x40)\n      0x00\n      swap2\n      pop\n      swap1\n      pop\n      dup1\n      0x00\n      add\n      dup1\n      sload\n      tag_101\n      swap1\n      tag_102\n      jump\t// in\n    tag_101:\n      dup1\n      0x1f\n      add\n      0x20\n      dup1\n      swap2\n      div\n      mul\n      0x20\n      add\n      mload(0x40)\n      swap1\n      dup2\n      add\n      0x40\n      mstore\n      dup1\n      swap3\n      swap2\n      swap1\n      dup2\n      dup2\n      mstore\n      0x20\n      add\n      dup3\n      dup1\n      sload\n      tag_103\n      swap1\n      tag_102\n      jump\t// in\n    tag_103:\n      dup1\n      iszero\n      tag_104\n      jumpi\n      dup1\n      0x1f\n      lt\n      tag_105\n      jumpi\n      0x0100\n      dup1\n      dup4\n      sload\n      div\n      mul\n      dup4\n      mstore\n      swap2\n      0x20\n      add\n      swap2\n      jump(tag_104)\n    tag_105:\n      dup3\n      add\n      swap2\n      swap1\n      0x00\n      mstore\n      keccak256(0x00, 0x20)\n      swap1\n    tag_106:\n      dup2\n      sload\n      dup2\n      mstore\n      swap1\n      0x01\n      add\n      swap1\n      0x20\n      add\n      dup1\n      dup4\n      gt\n      tag_106\n      jumpi\n      dup3\n      swap1\n      sub\n      0x1f\n      and\n      dup3\n      add\n      swap2\n    tag_104:\n      pop\n      pop\n      pop\n      pop\n      pop\n      swap1\n      dup1\n      0x01\n      add\n      0x00\n      swap1\n      sload\n      swap1\n      0x0100\n      exp\n      swap1\n      div\n      0xffffffffffffffffffffffffffffffffffffffff\n      and\n      swap1\n      dup1\n      0x02\n      add\n      sload\n      swap1\n      dup1\n      0x03\n      add\n      0x00\n      swap1\n      sload\n      swap1\n      0x0100\n      exp\n      swap1\n      div\n      0xff\n      and\n      swap1\n      dup1\n      0x04\n      add\n      sload\n      swap1\n      pop\n      dup6\n      jump\t// out\n        /* \"CrowdFunding.sol\":184:215  uint public minimumContribution */\n    tag_60:\n      sload(0x02)\n      dup2\n      jump\t// out\n        /* \"CrowdFunding.sol\":594:617  uint public numRequests */\n    tag_64:\n      sload(0x08)\n      dup2\n      jump\t// out\n        /* \"CrowdFunding.sol\":274:298  uint public raisedAmount */\n    tag_68:\n      sload(0x05)\n      dup2\n      jump\t// out\n        /* \"CrowdFunding.sol\":249:267  uint public target */\n    tag_72:\n      sload(0x04)\n      dup2\n      jump\t// out\n        /* \"#utility.yul\":7:419   */\n    tag_108:\n        /* \"#utility.yul\":85:90   */\n      0x00\n        /* \"#utility.yul\":110:176   */\n      tag_110\n        /* \"#utility.yul\":126:175   */\n      tag_111\n        /* \"#utility.yul\":168:174   */\n      dup5\n        /* \"#utility.yul\":126:175   */\n      tag_112\n      jump\t// in\n    tag_111:\n        /* \"#utility.yul\":110:176   */\n      tag_113\n      jump\t// in\n    tag_110:\n        /* \"#utility.yul\":101:176   */\n      swap1\n      pop\n        /* \"#utility.yul\":199:205   */\n      dup3\n        /* \"#utility.yul\":192:197   */\n      dup2\n        /* \"#utility.yul\":185:206   */\n      mstore\n        /* \"#utility.yul\":237:241   */\n      0x20\n        /* \"#utility.yul\":230:235   */\n      dup2\n        /* \"#utility.yul\":226:242   */\n      add\n        /* \"#utility.yul\":275:278   */\n      dup5\n        /* \"#utility.yul\":266:272   */\n      dup5\n        /* \"#utility.yul\":261:264   */\n      dup5\n        /* \"#utility.yul\":257:273   */\n      add\n        /* \"#utility.yul\":254:279   */\n      gt\n        /* \"#utility.yul\":251:363   */\n      iszero\n      tag_114\n      jumpi\n        /* \"#utility.yul\":282:361   */\n      tag_115\n      tag_116\n      jump\t// in\n    tag_115:\n        /* \"#utility.yul\":251:363   */\n    tag_114:\n        /* \"#utility.yul\":372:413   */\n      tag_117\n        /* \"#utility.yul\":406:412   */\n      dup5\n        /* \"#utility.yul\":401:404   */\n      dup3\n        /* \"#utility.yul\":396:399   */\n      dup6\n        /* \"#utility.yul\":372:413   */\n      tag_118\n      jump\t// in\n    tag_117:\n        /* \"#utility.yul\":91:419   */\n      pop\n        /* \"#utility.yul\":7:419   */\n      swap4\n      swap3\n      pop\n      pop\n      pop\n      jump\t// out\n        /* \"#utility.yul\":425:564   */\n    tag_119:\n        /* \"#utility.yul\":471:476   */\n      0x00\n        /* \"#utility.yul\":509:515   */\n      dup2\n        /* \"#utility.yul\":496:516   */\n      calldataload\n        /* \"#utility.yul\":487:516   */\n      swap1\n      pop\n        /* \"#utility.yul\":525:558   */\n      tag_121\n        /* \"#utility.yul\":552:557   */\n      dup2\n        /* \"#utility.yul\":525:558   */\n      tag_122\n      jump\t// in\n    tag_121:\n        /* \"#utility.yul\":425:564   */\n      swap3\n      swap2\n      pop\n      pop\n      jump\t// out\n        /* \"#utility.yul\":570:725   */\n    tag_123:\n        /* \"#utility.yul\":624:629   */\n      0x00\n        /* \"#utility.yul\":662:668   */\n      dup2\n        /* \"#utility.yul\":649:669   */\n      calldataload\n        /* \"#utility.yul\":640:669   */\n      swap1\n      pop\n        /* \"#utility.yul\":678:719   */\n      tag_125\n        /* \"#utility.yul\":713:718   */\n      dup2\n        /* \"#utility.yul\":678:719   */\n      tag_126\n      jump\t// in\n    tag_125:\n        /* \"#utility.yul\":570:725   */\n      swap3\n      swap2\n      pop\n      pop\n      jump\t// out\n        /* \"#utility.yul\":745:1085   */\n    tag_127:\n        /* \"#utility.yul\":801:806   */\n      0x00\n        /* \"#utility.yul\":850:853   */\n      dup3\n        /* \"#utility.yul\":843:847   */\n      0x1f\n        /* \"#utility.yul\":835:841   */\n      dup4\n        /* \"#utility.yul\":831:848   */\n      add\n        /* \"#utility.yul\":827:854   */\n      slt\n        /* \"#utility.yul\":817:939   */\n      tag_129\n      jumpi\n        /* \"#utility.yul\":858:937   */\n      tag_130\n      tag_131\n      jump\t// in\n    tag_130:\n        /* \"#utility.yul\":817:939   */\n    tag_129:\n        /* \"#utility.yul\":975:981   */\n      dup2\n        /* \"#utility.yul\":962:982   */\n      calldataload\n        /* \"#utility.yul\":1000:1079   */\n      tag_132\n        /* \"#utility.yul\":1075:1078   */\n      dup5\n        /* \"#utility.yul\":1067:1073   */\n      dup3\n        /* \"#utility.yul\":1060:1064   */\n      0x20\n        /* \"#utility.yul\":1052:1058   */\n      dup7\n        /* \"#utility.yul\":1048:1065   */\n      add\n        /* \"#utility.yul\":1000:1079   */\n      tag_108\n      jump\t// in\n    tag_132:\n        /* \"#utility.yul\":991:1079   */\n      swap2\n      pop\n        /* \"#utility.yul\":807:1085   */\n      pop\n        /* \"#utility.yul\":745:1085   */\n      swap3\n      swap2\n      pop\n      pop\n      jump\t// out\n        /* \"#utility.yul\":1091:1230   */\n    tag_133:\n        /* \"#utility.yul\":1137:1142   */\n      0x00\n        /* \"#utility.yul\":1175:1181   */\n      dup2\n        /* \"#utility.yul\":1162:1182   */\n      calldataload\n        /* \"#utility.yul\":1153:1182   */\n      swap1\n      pop\n        /* \"#utility.yul\":1191:1224   */\n      tag_135\n        /* \"#utility.yul\":1218:1223   */\n      dup2\n        /* \"#utility.yul\":1191:1224   */\n      tag_136\n      jump\t// in\n    tag_135:\n        /* \"#utility.yul\":1091:1230   */\n      swap3\n      swap2\n      pop\n      pop\n      jump\t// out\n        /* \"#utility.yul\":1236:1565   */\n    tag_22:\n        /* \"#utility.yul\":1295:1301   */\n      0x00\n        /* \"#utility.yul\":1344:1346   */\n      0x20\n        /* \"#utility.yul\":1332:1341   */\n      dup3\n        /* \"#utility.yul\":1323:1330   */\n      dup5\n        /* \"#utility.yul\":1319:1342   */\n      sub\n        /* \"#utility.yul\":1315:1347   */\n      slt\n        /* \"#utility.yul\":1312:1431   */\n      iszero\n      tag_138\n      jumpi\n        /* \"#utility.yul\":1350:1429   */\n      tag_139\n      tag_140\n      jump\t// in\n    tag_139:\n        /* \"#utility.yul\":1312:1431   */\n    tag_138:\n        /* \"#utility.yul\":1470:1471   */\n      0x00\n        /* \"#utility.yul\":1495:1548   */\n      tag_141\n        /* \"#utility.yul\":1540:1547   */\n      dup5\n        /* \"#utility.yul\":1531:1537   */\n      dup3\n        /* \"#utility.yul\":1520:1529   */\n      dup6\n        /* \"#utility.yul\":1516:1538   */\n      add\n        /* \"#utility.yul\":1495:1548   */\n      tag_119\n      jump\t// in\n    tag_141:\n        /* \"#utility.yul\":1485:1548   */\n      swap2\n      pop\n        /* \"#utility.yul\":1441:1558   */\n      pop\n        /* \"#utility.yul\":1236:1565   */\n      swap3\n      swap2\n      pop\n      pop\n      jump\t// out\n        /* \"#utility.yul\":1571:2386   */\n    tag_33:\n        /* \"#utility.yul\":1666:1672   */\n      0x00\n        /* \"#utility.yul\":1674:1680   */\n      dup1\n        /* \"#utility.yul\":1682:1688   */\n      0x00\n        /* \"#utility.yul\":1731:1733   */\n      0x60\n        /* \"#utility.yul\":1719:1728   */\n      dup5\n        /* \"#utility.yul\":1710:1717   */\n      dup7\n        /* \"#utility.yul\":1706:1729   */\n      sub\n        /* \"#utility.yul\":1702:1734   */\n      slt\n        /* \"#utility.yul\":1699:1818   */\n      iszero\n      tag_143\n      jumpi\n        /* \"#utility.yul\":1737:1816   */\n      tag_144\n      tag_140\n      jump\t// in\n    tag_144:\n        /* \"#utility.yul\":1699:1818   */\n    tag_143:\n        /* \"#utility.yul\":1885:1886   */\n      0x00\n        /* \"#utility.yul\":1874:1883   */\n      dup5\n        /* \"#utility.yul\":1870:1887   */\n      add\n        /* \"#utility.yul\":1857:1888   */\n      calldataload\n        /* \"#utility.yul\":1915:1933   */\n      0xffffffffffffffff\n        /* \"#utility.yul\":1907:1913   */\n      dup2\n        /* \"#utility.yul\":1904:1934   */\n      gt\n        /* \"#utility.yul\":1901:2018   */\n      iszero\n      tag_145\n      jumpi\n        /* \"#utility.yul\":1937:2016   */\n      tag_146\n      tag_147\n      jump\t// in\n    tag_146:\n        /* \"#utility.yul\":1901:2018   */\n    tag_145:\n        /* \"#utility.yul\":2042:2105   */\n      tag_148\n        /* \"#utility.yul\":2097:2104   */\n      dup7\n        /* \"#utility.yul\":2088:2094   */\n      dup3\n        /* \"#utility.yul\":2077:2086   */\n      dup8\n        /* \"#utility.yul\":2073:2095   */\n      add\n        /* \"#utility.yul\":2042:2105   */\n      tag_127\n      jump\t// in\n    tag_148:\n        /* \"#utility.yul\":2032:2105   */\n      swap4\n      pop\n        /* \"#utility.yul\":1828:2115   */\n      pop\n        /* \"#utility.yul\":2154:2156   */\n      0x20\n        /* \"#utility.yul\":2180:2241   */\n      tag_149\n        /* \"#utility.yul\":2233:2240   */\n      dup7\n        /* \"#utility.yul\":2224:2230   */\n      dup3\n        /* \"#utility.yul\":2213:2222   */\n      dup8\n        /* \"#utility.yul\":2209:2231   */\n      add\n        /* \"#utility.yul\":2180:2241   */\n      tag_123\n      jump\t// in\n    tag_149:\n        /* \"#utility.yul\":2170:2241   */\n      swap3\n      pop\n        /* \"#utility.yul\":2125:2251   */\n      pop\n        /* \"#utility.yul\":2290:2292   */\n      0x40\n        /* \"#utility.yul\":2316:2369   */\n      tag_150\n        /* \"#utility.yul\":2361:2368   */\n      dup7\n        /* \"#utility.yul\":2352:2358   */\n      dup3\n        /* \"#utility.yul\":2341:2350   */\n      dup8\n        /* \"#utility.yul\":2337:2359   */\n      add\n        /* \"#utility.yul\":2316:2369   */\n      tag_133\n      jump\t// in\n    tag_150:\n        /* \"#utility.yul\":2306:2369   */\n      swap2\n      pop\n        /* \"#utility.yul\":2261:2379   */\n      pop\n        /* \"#utility.yul\":1571:2386   */\n      swap3\n      pop\n      swap3\n      pop\n      swap3\n      jump\t// out\n        /* \"#utility.yul\":2392:2721   */\n    tag_54:\n        /* \"#utility.yul\":2451:2457   */\n      0x00\n        /* \"#utility.yul\":2500:2502   */\n      0x20\n        /* \"#utility.yul\":2488:2497   */\n      dup3\n        /* \"#utility.yul\":2479:2486   */\n      dup5\n        /* \"#utility.yul\":2475:2498   */\n      sub\n        /* \"#utility.yul\":2471:2503   */\n      slt\n        /* \"#utility.yul\":2468:2587   */\n      iszero\n      tag_152\n      jumpi\n        /* \"#utility.yul\":2506:2585   */\n      tag_153\n      tag_140\n      jump\t// in\n    tag_153:\n        /* \"#utility.yul\":2468:2587   */\n    tag_152:\n        /* \"#utility.yul\":2626:2627   */\n      0x00\n        /* \"#utility.yul\":2651:2704   */\n      tag_154\n        /* \"#utility.yul\":2696:2703   */\n      dup5\n        /* \"#utility.yul\":2687:2693   */\n      dup3\n        /* \"#utility.yul\":2676:2685   */\n      dup6\n        /* \"#utility.yul\":2672:2694   */\n      add\n        /* \"#utility.yul\":2651:2704   */\n      tag_133\n      jump\t// in\n    tag_154:\n        /* \"#utility.yul\":2641:2704   */\n      swap2\n      pop\n        /* \"#utility.yul\":2597:2714   */\n      pop\n        /* \"#utility.yul\":2392:2721   */\n      swap3\n      swap2\n      pop\n      pop\n      jump\t// out\n        /* \"#utility.yul\":2727:2869   */\n    tag_155:\n        /* \"#utility.yul\":2830:2862   */\n      tag_157\n        /* \"#utility.yul\":2856:2861   */\n      dup2\n        /* \"#utility.yul\":2830:2862   */\n      tag_158\n      jump\t// in\n    tag_157:\n        /* \"#utility.yul\":2825:2828   */\n      dup3\n        /* \"#utility.yul\":2818:2863   */\n      mstore\n        /* \"#utility.yul\":2727:2869   */\n      pop\n      pop\n      jump\t// out\n        /* \"#utility.yul\":2875:2993   */\n    tag_159:\n        /* \"#utility.yul\":2962:2986   */\n      tag_161\n        /* \"#utility.yul\":2980:2985   */\n      dup2\n        /* \"#utility.yul\":2962:2986   */\n      tag_162\n      jump\t// in\n    tag_161:\n        /* \"#utility.yul\":2957:2960   */\n      dup3\n        /* \"#utility.yul\":2950:2987   */\n      mstore\n        /* \"#utility.yul\":2875:2993   */\n      pop\n      pop\n      jump\t// out\n        /* \"#utility.yul\":2999:3108   */\n    tag_163:\n        /* \"#utility.yul\":3080:3101   */\n      tag_165\n        /* \"#utility.yul\":3095:3100   */\n      dup2\n        /* \"#utility.yul\":3080:3101   */\n      tag_166\n      jump\t// in\n    tag_165:\n        /* \"#utility.yul\":3075:3078   */\n      dup3\n        /* \"#utility.yul\":3068:3102   */\n      mstore\n        /* \"#utility.yul\":2999:3108   */\n      pop\n      pop\n      jump\t// out\n        /* \"#utility.yul\":3114:3478   */\n    tag_167:\n        /* \"#utility.yul\":3202:3205   */\n      0x00\n        /* \"#utility.yul\":3230:3269   */\n      tag_169\n        /* \"#utility.yul\":3263:3268   */\n      dup3\n        /* \"#utility.yul\":3230:3269   */\n      tag_170\n      jump\t// in\n    tag_169:\n        /* \"#utility.yul\":3285:3356   */\n      tag_171\n        /* \"#utility.yul\":3349:3355   */\n      dup2\n        /* \"#utility.yul\":3344:3347   */\n      dup6\n        /* \"#utility.yul\":3285:3356   */\n      tag_172\n      jump\t// in\n    tag_171:\n        /* \"#utility.yul\":3278:3356   */\n      swap4\n      pop\n        /* \"#utility.yul\":3365:3417   */\n      tag_173\n        /* \"#utility.yul\":3410:3416   */\n      dup2\n        /* \"#utility.yul\":3405:3408   */\n      dup6\n        /* \"#utility.yul\":3398:3402   */\n      0x20\n        /* \"#utility.yul\":3391:3396   */\n      dup7\n        /* \"#utility.yul\":3387:3403   */\n      add\n        /* \"#utility.yul\":3365:3417   */\n      tag_174\n      jump\t// in\n    tag_173:\n        /* \"#utility.yul\":3442:3471   */\n      tag_175\n        /* \"#utility.yul\":3464:3470   */\n      dup2\n        /* \"#utility.yul\":3442:3471   */\n      tag_176\n      jump\t// in\n    tag_175:\n        /* \"#utility.yul\":3437:3440   */\n      dup5\n        /* \"#utility.yul\":3433:3472   */\n      add\n        /* \"#utility.yul\":3426:3472   */\n      swap2\n      pop\n        /* \"#utility.yul\":3206:3478   */\n      pop\n        /* \"#utility.yul\":3114:3478   */\n      swap3\n      swap2\n      pop\n      pop\n      jump\t// out\n        /* \"#utility.yul\":3484:3850   */\n    tag_177:\n        /* \"#utility.yul\":3626:3629   */\n      0x00\n        /* \"#utility.yul\":3647:3714   */\n      tag_179\n        /* \"#utility.yul\":3711:3713   */\n      0x24\n        /* \"#utility.yul\":3706:3709   */\n      dup4\n        /* \"#utility.yul\":3647:3714   */\n      tag_172\n      jump\t// in\n    tag_179:\n        /* \"#utility.yul\":3640:3714   */\n      swap2\n      pop\n        /* \"#utility.yul\":3723:3816   */\n      tag_180\n        /* \"#utility.yul\":3812:3815   */\n      dup3\n        /* \"#utility.yul\":3723:3816   */\n      tag_181\n      jump\t// in\n    tag_180:\n        /* \"#utility.yul\":3841:3843   */\n      0x40\n        /* \"#utility.yul\":3836:3839   */\n      dup3\n        /* \"#utility.yul\":3832:3844   */\n      add\n        /* \"#utility.yul\":3825:3844   */\n      swap1\n      pop\n        /* \"#utility.yul\":3484:3850   */\n      swap2\n      swap1\n      pop\n      jump\t// out\n        /* \"#utility.yul\":3856:4222   */\n    tag_182:\n        /* \"#utility.yul\":3998:4001   */\n      0x00\n        /* \"#utility.yul\":4019:4086   */\n      tag_184\n        /* \"#utility.yul\":4083:4085   */\n      0x1f\n        /* \"#utility.yul\":4078:4081   */\n      dup4\n        /* \"#utility.yul\":4019:4086   */\n      tag_172\n      jump\t// in\n    tag_184:\n        /* \"#utility.yul\":4012:4086   */\n      swap2\n      pop\n        /* \"#utility.yul\":4095:4188   */\n      tag_185\n        /* \"#utility.yul\":4184:4187   */\n      dup3\n        /* \"#utility.yul\":4095:4188   */\n      tag_186\n      jump\t// in\n    tag_185:\n        /* \"#utility.yul\":4213:4215   */\n      0x20\n        /* \"#utility.yul\":4208:4211   */\n      dup3\n        /* \"#utility.yul\":4204:4216   */\n      add\n        /* \"#utility.yul\":4197:4216   */\n      swap1\n      pop\n        /* \"#utility.yul\":3856:4222   */\n      swap2\n      swap1\n      pop\n      jump\t// out\n        /* \"#utility.yul\":4228:4594   */\n    tag_187:\n        /* \"#utility.yul\":4370:4373   */\n      0x00\n        /* \"#utility.yul\":4391:4458   */\n      tag_189\n        /* \"#utility.yul\":4455:4457   */\n      0x20\n        /* \"#utility.yul\":4450:4453   */\n      dup4\n        /* \"#utility.yul\":4391:4458   */\n      tag_172\n      jump\t// in\n    tag_189:\n        /* \"#utility.yul\":4384:4458   */\n      swap2\n      pop\n        /* \"#utility.yul\":4467:4560   */\n      tag_190\n        /* \"#utility.yul\":4556:4559   */\n      dup3\n        /* \"#utility.yul\":4467:4560   */\n      tag_191\n      jump\t// in\n    tag_190:\n        /* \"#utility.yul\":4585:4587   */\n      0x20\n        /* \"#utility.yul\":4580:4583   */\n      dup3\n        /* \"#utility.yul\":4576:4588   */\n      add\n        /* \"#utility.yul\":4569:4588   */\n      swap1\n      pop\n        /* \"#utility.yul\":4228:4594   */\n      swap2\n      swap1\n      pop\n      jump\t// out\n        /* \"#utility.yul\":4600:4966   */\n    tag_192:\n        /* \"#utility.yul\":4742:4745   */\n      0x00\n        /* \"#utility.yul\":4763:4830   */\n      tag_194\n        /* \"#utility.yul\":4827:4829   */\n      0x1d\n        /* \"#utility.yul\":4822:4825   */\n      dup4\n        /* \"#utility.yul\":4763:4830   */\n      tag_172\n      jump\t// in\n    tag_194:\n        /* \"#utility.yul\":4756:4830   */\n      swap2\n      pop\n        /* \"#utility.yul\":4839:4932   */\n      tag_195\n        /* \"#utility.yul\":4928:4931   */\n      dup3\n        /* \"#utility.yul\":4839:4932   */\n      tag_196\n      jump\t// in\n    tag_195:\n        /* \"#utility.yul\":4957:4959   */\n      0x20\n        /* \"#utility.yul\":4952:4955   */\n      dup3\n        /* \"#utility.yul\":4948:4960   */\n      add\n        /* \"#utility.yul\":4941:4960   */\n      swap1\n      pop\n        /* \"#utility.yul\":4600:4966   */\n      swap2\n      swap1\n      pop\n      jump\t// out\n        /* \"#utility.yul\":4972:5090   */\n    tag_197:\n        /* \"#utility.yul\":5059:5083   */\n      tag_199\n        /* \"#utility.yul\":5077:5082   */\n      dup2\n        /* \"#utility.yul\":5059:5083   */\n      tag_200\n      jump\t// in\n    tag_199:\n        /* \"#utility.yul\":5054:5057   */\n      dup3\n        /* \"#utility.yul\":5047:5084   */\n      mstore\n        /* \"#utility.yul\":4972:5090   */\n      pop\n      pop\n      jump\t// out\n        /* \"#utility.yul\":5096:5318   */\n    tag_39:\n        /* \"#utility.yul\":5189:5193   */\n      0x00\n        /* \"#utility.yul\":5227:5229   */\n      0x20\n        /* \"#utility.yul\":5216:5225   */\n      dup3\n        /* \"#utility.yul\":5212:5230   */\n      add\n        /* \"#utility.yul\":5204:5230   */\n      swap1\n      pop\n        /* \"#utility.yul\":5240:5311   */\n      tag_202\n        /* \"#utility.yul\":5308:5309   */\n      0x00\n        /* \"#utility.yul\":5297:5306   */\n      dup4\n        /* \"#utility.yul\":5293:5310   */\n      add\n        /* \"#utility.yul\":5284:5290   */\n      dup5\n        /* \"#utility.yul\":5240:5311   */\n      tag_159\n      jump\t// in\n    tag_202:\n        /* \"#utility.yul\":5096:5318   */\n      swap3\n      swap2\n      pop\n      pop\n      jump\t// out\n        /* \"#utility.yul\":5324:6099   */\n    tag_57:\n        /* \"#utility.yul\":5559:5563   */\n      0x00\n        /* \"#utility.yul\":5597:5600   */\n      0xa0\n        /* \"#utility.yul\":5586:5595   */\n      dup3\n        /* \"#utility.yul\":5582:5601   */\n      add\n        /* \"#utility.yul\":5574:5601   */\n      swap1\n      pop\n        /* \"#utility.yul\":5647:5656   */\n      dup2\n        /* \"#utility.yul\":5641:5645   */\n      dup2\n        /* \"#utility.yul\":5637:5657   */\n      sub\n        /* \"#utility.yul\":5633:5634   */\n      0x00\n        /* \"#utility.yul\":5622:5631   */\n      dup4\n        /* \"#utility.yul\":5618:5635   */\n      add\n        /* \"#utility.yul\":5611:5658   */\n      mstore\n        /* \"#utility.yul\":5675:5753   */\n      tag_204\n        /* \"#utility.yul\":5748:5752   */\n      dup2\n        /* \"#utility.yul\":5739:5745   */\n      dup9\n        /* \"#utility.yul\":5675:5753   */\n      tag_167\n      jump\t// in\n    tag_204:\n        /* \"#utility.yul\":5667:5753   */\n      swap1\n      pop\n        /* \"#utility.yul\":5763:5851   */\n      tag_205\n        /* \"#utility.yul\":5847:5849   */\n      0x20\n        /* \"#utility.yul\":5836:5845   */\n      dup4\n        /* \"#utility.yul\":5832:5850   */\n      add\n        /* \"#utility.yul\":5823:5829   */\n      dup8\n        /* \"#utility.yul\":5763:5851   */\n      tag_155\n      jump\t// in\n    tag_205:\n        /* \"#utility.yul\":5861:5933   */\n      tag_206\n        /* \"#utility.yul\":5929:5931   */\n      0x40\n        /* \"#utility.yul\":5918:5927   */\n      dup4\n        /* \"#utility.yul\":5914:5932   */\n      add\n        /* \"#utility.yul\":5905:5911   */\n      dup7\n        /* \"#utility.yul\":5861:5933   */\n      tag_197\n      jump\t// in\n    tag_206:\n        /* \"#utility.yul\":5943:6009   */\n      tag_207\n        /* \"#utility.yul\":6005:6007   */\n      0x60\n        /* \"#utility.yul\":5994:6003   */\n      dup4\n        /* \"#utility.yul\":5990:6008   */\n      add\n        /* \"#utility.yul\":5981:5987   */\n      dup6\n        /* \"#utility.yul\":5943:6009   */\n      tag_163\n      jump\t// in\n    tag_207:\n        /* \"#utility.yul\":6019:6092   */\n      tag_208\n        /* \"#utility.yul\":6087:6090   */\n      0x80\n        /* \"#utility.yul\":6076:6085   */\n      dup4\n        /* \"#utility.yul\":6072:6091   */\n      add\n        /* \"#utility.yul\":6063:6069   */\n      dup5\n        /* \"#utility.yul\":6019:6092   */\n      tag_197\n      jump\t// in\n    tag_208:\n        /* \"#utility.yul\":5324:6099   */\n      swap7\n      swap6\n      pop\n      pop\n      pop\n      pop\n      pop\n      pop\n      jump\t// out\n        /* \"#utility.yul\":6105:6524   */\n    tag_90:\n        /* \"#utility.yul\":6271:6275   */\n      0x00\n        /* \"#utility.yul\":6309:6311   */\n      0x20\n        /* \"#utility.yul\":6298:6307   */\n      dup3\n        /* \"#utility.yul\":6294:6312   */\n      add\n        /* \"#utility.yul\":6286:6312   */\n      swap1\n      pop\n        /* \"#utility.yul\":6358:6367   */\n      dup2\n        /* \"#utility.yul\":6352:6356   */\n      dup2\n        /* \"#utility.yul\":6348:6368   */\n      sub\n        /* \"#utility.yul\":6344:6345   */\n      0x00\n        /* \"#utility.yul\":6333:6342   */\n      dup4\n        /* \"#utility.yul\":6329:6346   */\n      add\n        /* \"#utility.yul\":6322:6369   */\n      mstore\n        /* \"#utility.yul\":6386:6517   */\n      tag_210\n        /* \"#utility.yul\":6512:6516   */\n      dup2\n        /* \"#utility.yul\":6386:6517   */\n      tag_177\n      jump\t// in\n    tag_210:\n        /* \"#utility.yul\":6378:6517   */\n      swap1\n      pop\n        /* \"#utility.yul\":6105:6524   */\n      swap2\n      swap1\n      pop\n      jump\t// out\n        /* \"#utility.yul\":6530:6949   */\n    tag_96:\n        /* \"#utility.yul\":6696:6700   */\n      0x00\n        /* \"#utility.yul\":6734:6736   */\n      0x20\n        /* \"#utility.yul\":6723:6732   */\n      dup3\n        /* \"#utility.yul\":6719:6737   */\n      add\n        /* \"#utility.yul\":6711:6737   */\n      swap1\n      pop\n        /* \"#utility.yul\":6783:6792   */\n      dup2\n        /* \"#utility.yul\":6777:6781   */\n      dup2\n        /* \"#utility.yul\":6773:6793   */\n      sub\n        /* \"#utility.yul\":6769:6770   */\n      0x00\n        /* \"#utility.yul\":6758:6767   */\n      dup4\n        /* \"#utility.yul\":6754:6771   */\n      add\n        /* \"#utility.yul\":6747:6794   */\n      mstore\n        /* \"#utility.yul\":6811:6942   */\n      tag_212\n        /* \"#utility.yul\":6937:6941   */\n      dup2\n        /* \"#utility.yul\":6811:6942   */\n      tag_182\n      jump\t// in\n    tag_212:\n        /* \"#utility.yul\":6803:6942   */\n      swap1\n      pop\n        /* \"#utility.yul\":6530:6949   */\n      swap2\n      swap1\n      pop\n      jump\t// out\n        /* \"#utility.yul\":6955:7374   */\n    tag_80:\n        /* \"#utility.yul\":7121:7125   */\n      0x00\n        /* \"#utility.yul\":7159:7161   */\n      0x20\n        /* \"#utility.yul\":7148:7157   */\n      dup3\n        /* \"#utility.yul\":7144:7162   */\n      add\n        /* \"#utility.yul\":7136:7162   */\n      swap1\n      pop\n        /* \"#utility.yul\":7208:7217   */\n      dup2\n        /* \"#utility.yul\":7202:7206   */\n      dup2\n        /* \"#utility.yul\":7198:7218   */\n      sub\n        /* \"#utility.yul\":7194:7195   */\n      0x00\n        /* \"#utility.yul\":7183:7192   */\n      dup4\n        /* \"#utility.yul\":7179:7196   */\n      add\n        /* \"#utility.yul\":7172:7219   */\n      mstore\n        /* \"#utility.yul\":7236:7367   */\n      tag_214\n        /* \"#utility.yul\":7362:7366   */\n      dup2\n        /* \"#utility.yul\":7236:7367   */\n      tag_187\n      jump\t// in\n    tag_214:\n        /* \"#utility.yul\":7228:7367   */\n      swap1\n      pop\n        /* \"#utility.yul\":6955:7374   */\n      swap2\n      swap1\n      pop\n      jump\t// out\n        /* \"#utility.yul\":7380:7799   */\n    tag_77:\n        /* \"#utility.yul\":7546:7550   */\n      0x00\n        /* \"#utility.yul\":7584:7586   */\n      0x20\n        /* \"#utility.yul\":7573:7582   */\n      dup3\n        /* \"#utility.yul\":7569:7587   */\n      add\n        /* \"#utility.yul\":7561:7587   */\n      swap1\n      pop\n        /* \"#utility.yul\":7633:7642   */\n      dup2\n        /* \"#utility.yul\":7627:7631   */\n      dup2\n        /* \"#utility.yul\":7623:7643   */\n      sub\n        /* \"#utility.yul\":7619:7620   */\n      0x00\n        /* \"#utility.yul\":7608:7617   */\n      dup4\n        /* \"#utility.yul\":7604:7621   */\n      add\n        /* \"#utility.yul\":7597:7644   */\n      mstore\n        /* \"#utility.yul\":7661:7792   */\n      tag_216\n        /* \"#utility.yul\":7787:7791   */\n      dup2\n        /* \"#utility.yul\":7661:7792   */\n      tag_192\n      jump\t// in\n    tag_216:\n        /* \"#utility.yul\":7653:7792   */\n      swap1\n      pop\n        /* \"#utility.yul\":7380:7799   */\n      swap2\n      swap1\n      pop\n      jump\t// out\n        /* \"#utility.yul\":7805:8027   */\n    tag_25:\n        /* \"#utility.yul\":7898:7902   */\n      0x00\n        /* \"#utility.yul\":7936:7938   */\n      0x20\n        /* \"#utility.yul\":7925:7934   */\n      dup3\n        /* \"#utility.yul\":7921:7939   */\n      add\n        /* \"#utility.yul\":7913:7939   */\n      swap1\n      pop\n        /* \"#utility.yul\":7949:8020   */\n      tag_218\n        /* \"#utility.yul\":8017:8018   */\n      0x00\n        /* \"#utility.yul\":8006:8015   */\n      dup4\n        /* \"#utility.yul\":8002:8019   */\n      add\n        /* \"#utility.yul\":7993:7999   */\n      dup5\n        /* \"#utility.yul\":7949:8020   */\n      tag_197\n      jump\t// in\n    tag_218:\n        /* \"#utility.yul\":7805:8027   */\n      swap3\n      swap2\n      pop\n      pop\n      jump\t// out\n        /* \"#utility.yul\":8033:8162   */\n    tag_113:\n        /* \"#utility.yul\":8067:8073   */\n      0x00\n        /* \"#utility.yul\":8094:8114   */\n      tag_220\n      tag_221\n      jump\t// in\n    tag_220:\n        /* \"#utility.yul\":8084:8114   */\n      swap1\n      pop\n        /* \"#utility.yul\":8123:8156   */\n      tag_222\n        /* \"#utility.yul\":8151:8155   */\n      dup3\n        /* \"#utility.yul\":8143:8149   */\n      dup3\n        /* \"#utility.yul\":8123:8156   */\n      tag_223\n      jump\t// in\n    tag_222:\n        /* \"#utility.yul\":8033:8162   */\n      swap2\n      swap1\n      pop\n      jump\t// out\n        /* \"#utility.yul\":8168:8243   */\n    tag_221:\n        /* \"#utility.yul\":8201:8207   */\n      0x00\n        /* \"#utility.yul\":8234:8236   */\n      0x40\n        /* \"#utility.yul\":8228:8237   */\n      mload\n        /* \"#utility.yul\":8218:8237   */\n      swap1\n      pop\n        /* \"#utility.yul\":8168:8243   */\n      swap1\n      jump\t// out\n        /* \"#utility.yul\":8249:8557   */\n    tag_112:\n        /* \"#utility.yul\":8311:8315   */\n      0x00\n        /* \"#utility.yul\":8401:8419   */\n      0xffffffffffffffff\n        /* \"#utility.yul\":8393:8399   */\n      dup3\n        /* \"#utility.yul\":8390:8420   */\n      gt\n        /* \"#utility.yul\":8387:8443   */\n      iszero\n      tag_226\n      jumpi\n        /* \"#utility.yul\":8423:8441   */\n      tag_227\n      tag_228\n      jump\t// in\n    tag_227:\n        /* \"#utility.yul\":8387:8443   */\n    tag_226:\n        /* \"#utility.yul\":8461:8490   */\n      tag_229\n        /* \"#utility.yul\":8483:8489   */\n      dup3\n        /* \"#utility.yul\":8461:8490   */\n      tag_176\n      jump\t// in\n    tag_229:\n        /* \"#utility.yul\":8453:8490   */\n      swap1\n      pop\n        /* \"#utility.yul\":8545:8549   */\n      0x20\n        /* \"#utility.yul\":8539:8543   */\n      dup2\n        /* \"#utility.yul\":8535:8550   */\n      add\n        /* \"#utility.yul\":8527:8550   */\n      swap1\n      pop\n        /* \"#utility.yul\":8249:8557   */\n      swap2\n      swap1\n      pop\n      jump\t// out\n        /* \"#utility.yul\":8563:8662   */\n    tag_170:\n        /* \"#utility.yul\":8615:8621   */\n      0x00\n        /* \"#utility.yul\":8649:8654   */\n      dup2\n        /* \"#utility.yul\":8643:8655   */\n      mload\n        /* \"#utility.yul\":8633:8655   */\n      swap1\n      pop\n        /* \"#utility.yul\":8563:8662   */\n      swap2\n      swap1\n      pop\n      jump\t// out\n        /* \"#utility.yul\":8668:8837   */\n    tag_172:\n        /* \"#utility.yul\":8752:8763   */\n      0x00\n        /* \"#utility.yul\":8786:8792   */\n      dup3\n        /* \"#utility.yul\":8781:8784   */\n      dup3\n        /* \"#utility.yul\":8774:8793   */\n      mstore\n        /* \"#utility.yul\":8826:8830   */\n      0x20\n        /* \"#utility.yul\":8821:8824   */\n      dup3\n        /* \"#utility.yul\":8817:8831   */\n      add\n        /* \"#utility.yul\":8802:8831   */\n      swap1\n      pop\n        /* \"#utility.yul\":8668:8837   */\n      swap3\n      swap2\n      pop\n      pop\n      jump\t// out\n        /* \"#utility.yul\":8843:9148   */\n    tag_85:\n        /* \"#utility.yul\":8883:8886   */\n      0x00\n        /* \"#utility.yul\":8902:8922   */\n      tag_233\n        /* \"#utility.yul\":8920:8921   */\n      dup3\n        /* \"#utility.yul\":8902:8922   */\n      tag_200\n      jump\t// in\n    tag_233:\n        /* \"#utility.yul\":8897:8922   */\n      swap2\n      pop\n        /* \"#utility.yul\":8936:8956   */\n      tag_234\n        /* \"#utility.yul\":8954:8955   */\n      dup4\n        /* \"#utility.yul\":8936:8956   */\n      tag_200\n      jump\t// in\n    tag_234:\n        /* \"#utility.yul\":8931:8956   */\n      swap3\n      pop\n        /* \"#utility.yul\":9090:9091   */\n      dup3\n        /* \"#utility.yul\":9022:9088   */\n      0xffffffffffffffffffffffffffffffffffffffffffffffffffffffffffffffff\n        /* \"#utility.yul\":9018:9092   */\n      sub\n        /* \"#utility.yul\":9015:9016   */\n      dup3\n        /* \"#utility.yul\":9012:9093   */\n      gt\n        /* \"#utility.yul\":9009:9116   */\n      iszero\n      tag_235\n      jumpi\n        /* \"#utility.yul\":9096:9114   */\n      tag_236\n      tag_237\n      jump\t// in\n    tag_236:\n        /* \"#utility.yul\":9009:9116   */\n    tag_235:\n        /* \"#utility.yul\":9140:9141   */\n      dup3\n        /* \"#utility.yul\":9137:9138   */\n      dup3\n        /* \"#utility.yul\":9133:9142   */\n      add\n        /* \"#utility.yul\":9126:9142   */\n      swap1\n      pop\n        /* \"#utility.yul\":8843:9148   */\n      swap3\n      swap2\n      pop\n      pop\n      jump\t// out\n        /* \"#utility.yul\":9154:9250   */\n    tag_162:\n        /* \"#utility.yul\":9191:9198   */\n      0x00\n        /* \"#utility.yul\":9220:9244   */\n      tag_239\n        /* \"#utility.yul\":9238:9243   */\n      dup3\n        /* \"#utility.yul\":9220:9244   */\n      tag_240\n      jump\t// in\n    tag_239:\n        /* \"#utility.yul\":9209:9244   */\n      swap1\n      pop\n        /* \"#utility.yul\":9154:9250   */\n      swap2\n      swap1\n      pop\n      jump\t// out\n        /* \"#utility.yul\":9256:9360   */\n    tag_158:\n        /* \"#utility.yul\":9301:9308   */\n      0x00\n        /* \"#utility.yul\":9330:9354   */\n      tag_242\n        /* \"#utility.yul\":9348:9353   */\n      dup3\n        /* \"#utility.yul\":9330:9354   */\n      tag_240\n      jump\t// in\n    tag_242:\n        /* \"#utility.yul\":9319:9354   */\n      swap1\n      pop\n        /* \"#utility.yul\":9256:9360   */\n      swap2\n      swap1\n      pop\n      jump\t// out\n        /* \"#utility.yul\":9366:9456   */\n    tag_166:\n        /* \"#utility.yul\":9400:9407   */\n      0x00\n        /* \"#utility.yul\":9443:9448   */\n      dup2\n        /* \"#utility.yul\":9436:9449   */\n      iszero\n        /* \"#utility.yul\":9429:9450   */\n      iszero\n        /* \"#utility.yul\":9418:9450   */\n      swap1\n      pop\n        /* \"#utility.yul\":9366:9456   */\n      swap2\n      swap1\n      pop\n      jump\t// out\n        /* \"#utility.yul\":9462:9588   */\n    tag_240:\n        /* \"#utility.yul\":9499:9506   */\n      0x00\n        /* \"#utility.yul\":9539:9581   */\n      0xffffffffffffffffffffffffffffffffffffffff\n        /* \"#utility.yul\":9532:9537   */\n      dup3\n        /* \"#utility.yul\":9528:9582   */\n      and\n        /* \"#utility.yul\":9517:9582   */\n      swap1\n      pop\n        /* \"#utility.yul\":9462:9588   */\n      swap2\n      swap1\n      pop\n      jump\t// out\n        /* \"#utility.yul\":9594:9671   */\n    tag_200:\n        /* \"#utility.yul\":9631:9638   */\n      0x00\n        /* \"#utility.yul\":9660:9665   */\n      dup2\n        /* \"#utility.yul\":9649:9665   */\n      swap1\n      pop\n        /* \"#utility.yul\":9594:9671   */\n      swap2\n      swap1\n      pop\n      jump\t// out\n        /* \"#utility.yul\":9677:9831   */\n    tag_118:\n        /* \"#utility.yul\":9761:9767   */\n      dup3\n        /* \"#utility.yul\":9756:9759   */\n      dup2\n        /* \"#utility.yul\":9751:9754   */\n      dup4\n        /* \"#utility.yul\":9738:9768   */\n      calldatacopy\n        /* \"#utility.yul\":9823:9824   */\n      0x00\n        /* \"#utility.yul\":9814:9820   */\n      dup4\n        /* \"#utility.yul\":9809:9812   */\n      dup4\n        /* \"#utility.yul\":9805:9821   */\n      add\n        /* \"#utility.yul\":9798:9825   */\n      mstore\n        /* \"#utility.yul\":9677:9831   */\n      pop\n      pop\n      pop\n      jump\t// out\n        /* \"#utility.yul\":9837:10144   */\n    tag_174:\n        /* \"#utility.yul\":9905:9906   */\n      0x00\n        /* \"#utility.yul\":9915:10028   */\n    tag_248:\n        /* \"#utility.yul\":9929:9935   */\n      dup4\n        /* \"#utility.yul\":9926:9927   */\n      dup2\n        /* \"#utility.yul\":9923:9936   */\n      lt\n        /* \"#utility.yul\":9915:10028   */\n      iszero\n      tag_250\n      jumpi\n        /* \"#utility.yul\":10014:10015   */\n      dup1\n        /* \"#utility.yul\":10009:10012   */\n      dup3\n        /* \"#utility.yul\":10005:10016   */\n      add\n        /* \"#utility.yul\":9999:10017   */\n      mload\n        /* \"#utility.yul\":9995:9996   */\n      dup2\n        /* \"#utility.yul\":9990:9993   */\n      dup5\n        /* \"#utility.yul\":9986:9997   */\n      add\n        /* \"#utility.yul\":9979:10018   */\n      mstore\n        /* \"#utility.yul\":9951:9953   */\n      0x20\n        /* \"#utility.yul\":9948:9949   */\n      dup2\n        /* \"#utility.yul\":9944:9954   */\n      add\n        /* \"#utility.yul\":9939:9954   */\n      swap1\n      pop\n        /* \"#utility.yul\":9915:10028   */\n      jump(tag_248)\n    tag_250:\n        /* \"#utility.yul\":10046:10052   */\n      dup4\n        /* \"#utility.yul\":10043:10044   */\n      dup2\n        /* \"#utility.yul\":10040:10053   */\n      gt\n        /* \"#utility.yul\":10037:10138   */\n      iszero\n      tag_251\n      jumpi\n        /* \"#utility.yul\":10126:10127   */\n      0x00\n        /* \"#utility.yul\":10117:10123   */\n      dup5\n        /* \"#utility.yul\":10112:10115   */\n      dup5\n        /* \"#utility.yul\":10108:10124   */\n      add\n        /* \"#utility.yul\":10101:10128   */\n      mstore\n        /* \"#utility.yul\":10037:10138   */\n    tag_251:\n        /* \"#utility.yul\":9886:10144   */\n      pop\n        /* \"#utility.yul\":9837:10144   */\n      pop\n      pop\n      pop\n      jump\t// out\n        /* \"#utility.yul\":10150:10470   */\n    tag_102:\n        /* \"#utility.yul\":10194:10200   */\n      0x00\n        /* \"#utility.yul\":10231:10232   */\n      0x02\n        /* \"#utility.yul\":10225:10229   */\n      dup3\n        /* \"#utility.yul\":10221:10233   */\n      div\n        /* \"#utility.yul\":10211:10233   */\n      swap1\n      pop\n        /* \"#utility.yul\":10278:10279   */\n      0x01\n        /* \"#utility.yul\":10272:10276   */\n      dup3\n        /* \"#utility.yul\":10268:10280   */\n      and\n        /* \"#utility.yul\":10299:10317   */\n      dup1\n        /* \"#utility.yul\":10289:10370   */\n      tag_253\n      jumpi\n        /* \"#utility.yul\":10355:10359   */\n      0x7f\n        /* \"#utility.yul\":10347:10353   */\n      dup3\n        /* \"#utility.yul\":10343:10360   */\n      and\n        /* \"#utility.yul\":10333:10360   */\n      swap2\n      pop\n        /* \"#utility.yul\":10289:10370   */\n    tag_253:\n        /* \"#utility.yul\":10417:10419   */\n      0x20\n        /* \"#utility.yul\":10409:10415   */\n      dup3\n        /* \"#utility.yul\":10406:10420   */\n      lt\n        /* \"#utility.yul\":10386:10404   */\n      dup2\n        /* \"#utility.yul\":10383:10421   */\n      eq\n        /* \"#utility.yul\":10380:10464   */\n      iszero\n      tag_254\n      jumpi\n        /* \"#utility.yul\":10436:10454   */\n      tag_255\n      tag_256\n      jump\t// in\n    tag_255:\n        /* \"#utility.yul\":10380:10464   */\n    tag_254:\n        /* \"#utility.yul\":10201:10470   */\n      pop\n        /* \"#utility.yul\":10150:10470   */\n      swap2\n      swap1\n      pop\n      jump\t// out\n        /* \"#utility.yul\":10476:10757   */\n    tag_223:\n        /* \"#utility.yul\":10559:10586   */\n      tag_258\n        /* \"#utility.yul\":10581:10585   */\n      dup3\n        /* \"#utility.yul\":10559:10586   */\n      tag_176\n      jump\t// in\n    tag_258:\n        /* \"#utility.yul\":10551:10557   */\n      dup2\n        /* \"#utility.yul\":10547:10587   */\n      add\n        /* \"#utility.yul\":10689:10695   */\n      dup2\n        /* \"#utility.yul\":10677:10687   */\n      dup2\n        /* \"#utility.yul\":10674:10696   */\n      lt\n        /* \"#utility.yul\":10653:10671   */\n      0xffffffffffffffff\n        /* \"#utility.yul\":10641:10651   */\n      dup3\n        /* \"#utility.yul\":10638:10672   */\n      gt\n        /* \"#utility.yul\":10635:10697   */\n      or\n        /* \"#utility.yul\":10632:10720   */\n      iszero\n      tag_259\n      jumpi\n        /* \"#utility.yul\":10700:10718   */\n      tag_260\n      tag_228\n      jump\t// in\n    tag_260:\n        /* \"#utility.yul\":10632:10720   */\n    tag_259:\n        /* \"#utility.yul\":10740:10750   */\n      dup1\n        /* \"#utility.yul\":10736:10738   */\n      0x40\n        /* \"#utility.yul\":10729:10751   */\n      mstore\n        /* \"#utility.yul\":10519:10757   */\n      pop\n        /* \"#utility.yul\":10476:10757   */\n      pop\n      pop\n      jump\t// out\n        /* \"#utility.yul\":10763:10996   */\n    tag_83:\n        /* \"#utility.yul\":10802:10805   */\n      0x00\n        /* \"#utility.yul\":10825:10849   */\n      tag_262\n        /* \"#utility.yul\":10843:10848   */\n      dup3\n        /* \"#utility.yul\":10825:10849   */\n      tag_200\n      jump\t// in\n    tag_262:\n        /* \"#utility.yul\":10816:10849   */\n      swap2\n      pop\n        /* \"#utility.yul\":10871:10937   */\n      0xffffffffffffffffffffffffffffffffffffffffffffffffffffffffffffffff\n        /* \"#utility.yul\":10864:10869   */\n      dup3\n        /* \"#utility.yul\":10861:10938   */\n      eq\n        /* \"#utility.yul\":10858:10961   */\n      iszero\n      tag_263\n      jumpi\n        /* \"#utility.yul\":10941:10959   */\n      tag_264\n      tag_237\n      jump\t// in\n    tag_264:\n        /* \"#utility.yul\":10858:10961   */\n    tag_263:\n        /* \"#utility.yul\":10988:10989   */\n      0x01\n        /* \"#utility.yul\":10981:10986   */\n      dup3\n        /* \"#utility.yul\":10977:10990   */\n      add\n        /* \"#utility.yul\":10970:10990   */\n      swap1\n      pop\n        /* \"#utility.yul\":10763:10996   */\n      swap2\n      swap1\n      pop\n      jump\t// out\n        /* \"#utility.yul\":11002:11182   */\n    tag_237:\n        /* \"#utility.yul\":11050:11127   */\n      0x4e487b7100000000000000000000000000000000000000000000000000000000\n        /* \"#utility.yul\":11047:11048   */\n      0x00\n        /* \"#utility.yul\":11040:11128   */\n      mstore\n        /* \"#utility.yul\":11147:11151   */\n      0x11\n        /* \"#utility.yul\":11144:11145   */\n      0x04\n        /* \"#utility.yul\":11137:11152   */\n      mstore\n        /* \"#utility.yul\":11171:11175   */\n      0x24\n        /* \"#utility.yul\":11168:11169   */\n      0x00\n        /* \"#utility.yul\":11161:11176   */\n      revert\n        /* \"#utility.yul\":11188:11368   */\n    tag_256:\n        /* \"#utility.yul\":11236:11313   */\n      0x4e487b7100000000000000000000000000000000000000000000000000000000\n        /* \"#utility.yul\":11233:11234   */\n      0x00\n        /* \"#utility.yul\":11226:11314   */\n      mstore\n        /* \"#utility.yul\":11333:11337   */\n      0x22\n        /* \"#utility.yul\":11330:11331   */\n      0x04\n        /* \"#utility.yul\":11323:11338   */\n      mstore\n        /* \"#utility.yul\":11357:11361   */\n      0x24\n        /* \"#utility.yul\":11354:11355   */\n      0x00\n        /* \"#utility.yul\":11347:11362   */\n      revert\n        /* \"#utility.yul\":11374:11554   */\n    tag_228:\n        /* \"#utility.yul\":11422:11499   */\n      0x4e487b7100000000000000000000000000000000000000000000000000000000\n        /* \"#utility.yul\":11419:11420   */\n      0x00\n        /* \"#utility.yul\":11412:11500   */\n      mstore\n        /* \"#utility.yul\":11519:11523   */\n      0x41\n        /* \"#utility.yul\":11516:11517   */\n      0x04\n        /* \"#utility.yul\":11509:11524   */\n      mstore\n        /* \"#utility.yul\":11543:11547   */\n      0x24\n        /* \"#utility.yul\":11540:11541   */\n      0x00\n        /* \"#utility.yul\":11533:11548   */\n      revert\n        /* \"#utility.yul\":11560:11677   */\n    tag_131:\n        /* \"#utility.yul\":11669:11670   */\n      0x00\n        /* \"#utility.yul\":11666:11667   */\n      dup1\n        /* \"#utility.yul\":11659:11671   */\n      revert\n        /* \"#utility.yul\":11683:11800   */\n    tag_116:\n        /* \"#utility.yul\":11792:11793   */\n      0x00\n        /* \"#utility.yul\":11789:11790   */\n      dup1\n        /* \"#utility.yul\":11782:11794   */\n      revert\n        /* \"#utility.yul\":11806:11923   */\n    tag_147:\n        /* \"#utility.yul\":11915:11916   */\n      0x00\n        /* \"#utility.yul\":11912:11913   */\n      dup1\n        /* \"#utility.yul\":11905:11917   */\n      revert\n        /* \"#utility.yul\":11929:12046   */\n    tag_140:\n        /* \"#utility.yul\":12038:12039   */\n      0x00\n        /* \"#utility.yul\":12035:12036   */\n      dup1\n        /* \"#utility.yul\":12028:12040   */\n      revert\n        /* \"#utility.yul\":12052:12154   */\n    tag_176:\n        /* \"#utility.yul\":12093:12099   */\n      0x00\n        /* \"#utility.yul\":12144:12146   */\n      0x1f\n        /* \"#utility.yul\":12140:12147   */\n      not\n        /* \"#utility.yul\":12135:12137   */\n      0x1f\n        /* \"#utility.yul\":12128:12133   */\n      dup4\n        /* \"#utility.yul\":12124:12138   */\n      add\n        /* \"#utility.yul\":12120:12148   */\n      and\n        /* \"#utility.yul\":12110:12148   */\n      swap1\n      pop\n        /* \"#utility.yul\":12052:12154   */\n      swap2\n      swap1\n      pop\n      jump\t// out\n        /* \"#utility.yul\":12160:12383   */\n    tag_181:\n        /* \"#utility.yul\":12300:12334   */\n      0x4f6e6c79206d616e616765722063616e2063616c6c20746869732066756e6374\n        /* \"#utility.yul\":12296:12297   */\n      0x00\n        /* \"#utility.yul\":12288:12294   */\n      dup3\n        /* \"#utility.yul\":12284:12298   */\n      add\n        /* \"#utility.yul\":12277:12335   */\n      mstore\n        /* \"#utility.yul\":12369:12375   */\n      0x696f6e2e00000000000000000000000000000000000000000000000000000000\n        /* \"#utility.yul\":12364:12366   */\n      0x20\n        /* \"#utility.yul\":12356:12362   */\n      dup3\n        /* \"#utility.yul\":12352:12367   */\n      add\n        /* \"#utility.yul\":12345:12376   */\n      mstore\n        /* \"#utility.yul\":12160:12383   */\n      pop\n      jump\t// out\n        /* \"#utility.yul\":12389:12570   */\n    tag_186:\n        /* \"#utility.yul\":12529:12562   */\n      0x596f7520617265206e6f7420656c656769626c6520666f7220726566756e6400\n        /* \"#utility.yul\":12525:12526   */\n      0x00\n        /* \"#utility.yul\":12517:12523   */\n      dup3\n        /* \"#utility.yul\":12513:12527   */\n      add\n        /* \"#utility.yul\":12506:12563   */\n      mstore\n        /* \"#utility.yul\":12389:12570   */\n      pop\n      jump\t// out\n        /* \"#utility.yul\":12576:12758   */\n    tag_191:\n        /* \"#utility.yul\":12716:12750   */\n      0x4d696e696d756d20636f6e747269627574696f6e206973206e6f74206d65742e\n        /* \"#utility.yul\":12712:12713   */\n      0x00\n        /* \"#utility.yul\":12704:12710   */\n      dup3\n        /* \"#utility.yul\":12700:12714   */\n      add\n        /* \"#utility.yul\":12693:12751   */\n      mstore\n        /* \"#utility.yul\":12576:12758   */\n      pop\n      jump\t// out\n        /* \"#utility.yul\":12764:12943   */\n    tag_196:\n        /* \"#utility.yul\":12904:12935   */\n      0x446561646c696e652068617320616c7265616479207265616368656421000000\n        /* \"#utility.yul\":12900:12901   */\n      0x00\n        /* \"#utility.yul\":12892:12898   */\n      dup3\n        /* \"#utility.yul\":12888:12902   */\n      add\n        /* \"#utility.yul\":12881:12936   */\n      mstore\n        /* \"#utility.yul\":12764:12943   */\n      pop\n      jump\t// out\n        /* \"#utility.yul\":12949:13071   */\n    tag_122:\n        /* \"#utility.yul\":13022:13046   */\n      tag_278\n        /* \"#utility.yul\":13040:13045   */\n      dup2\n        /* \"#utility.yul\":13022:13046   */\n      tag_162\n      jump\t// in\n    tag_278:\n        /* \"#utility.yul\":13015:13020   */\n      dup2\n        /* \"#utility.yul\":13012:13047   */\n      eq\n        /* \"#utility.yul\":13002:13065   */\n      tag_279\n      jumpi\n        /* \"#utility.yul\":13061:13062   */\n      0x00\n        /* \"#utility.yul\":13058:13059   */\n      dup1\n        /* \"#utility.yul\":13051:13063   */\n      revert\n        /* \"#utility.yul\":13002:13065   */\n    tag_279:\n        /* \"#utility.yul\":12949:13071   */\n      pop\n      jump\t// out\n        /* \"#utility.yul\":13077:13215   */\n    tag_126:\n        /* \"#utility.yul\":13158:13190   */\n      tag_281\n        /* \"#utility.yul\":13184:13189   */\n      dup2\n        /* \"#utility.yul\":13158:13190   */\n      tag_158\n      jump\t// in\n    tag_281:\n        /* \"#utility.yul\":13151:13156   */\n      dup2\n        /* \"#utility.yul\":13148:13191   */\n      eq\n        /* \"#utility.yul\":13138:13209   */\n      tag_282\n      jumpi\n        /* \"#utility.yul\":13205:13206   */\n      0x00\n        /* \"#utility.yul\":13202:13203   */\n      dup1\n        /* \"#utility.yul\":13195:13207   */\n      revert\n        /* \"#utility.yul\":13138:13209   */\n    tag_282:\n        /* \"#utility.yul\":13077:13215   */\n      pop\n      jump\t// out\n        /* \"#utility.yul\":13221:13343   */\n    tag_136:\n        /* \"#utility.yul\":13294:13318   */\n      tag_284\n        /* \"#utility.yul\":13312:13317   */\n      dup2\n        /* \"#utility.yul\":13294:13318   */\n      tag_200\n      jump\t// in\n    tag_284:\n        /* \"#utility.yul\":13287:13292   */\n      dup2\n        /* \"#utility.yul\":13284:13319   */\n      eq\n        /* \"#utility.yul\":13274:13337   */\n      tag_285\n      jumpi\n        /* \"#utility.yul\":13333:13334   */\n      0x00\n        /* \"#utility.yul\":13330:13331   */\n      dup1\n        /* \"#utility.yul\":13323:13335   */\n      revert\n        /* \"#utility.yul\":13274:13337   */\n    tag_285:\n        /* \"#utility.yul\":13221:13343   */\n      pop\n      jump\t// out\n\n    auxdata: 0xa26469706673582212201bfca15ae17a97561cf54953dc0fe910666acd1386a162bf14c7f685eebc19fd64736f6c63430008070033\n}\n",
				"bytecode": {
					"linkReferences": {},
					"object": "60806040523480156200001157600080fd5b5060405162001109380380620011098339818101604052810190620000379190620000ba565b8160048190555080426200004c919062000101565b600381905550606460028190555033600160006101000a81548173ffffffffffffffffffffffffffffffffffffffff021916908373ffffffffffffffffffffffffffffffffffffffff1602179055505050620001b6565b600081519050620000b4816200019c565b92915050565b60008060408385031215620000d457620000d362000197565b5b6000620000e485828601620000a3565b9250506020620000f785828601620000a3565b9150509250929050565b60006200010e826200015e565b91506200011b836200015e565b9250827fffffffffffffffffffffffffffffffffffffffffffffffffffffffffffffffff0382111562000153576200015262000168565b5b828201905092915050565b6000819050919050565b7f4e487b7100000000000000000000000000000000000000000000000000000000600052601160045260246000fd5b600080fd5b620001a7816200015e565b8114620001b357600080fd5b50565b610f4380620001c66000396000f3fe6080604052600436106100c25760003560e01c8063590e1ae31161007f578063937e09b111610059578063937e09b11461023b5780639fb42b1f14610266578063c59ee1dc14610291578063d4b83992146102bc576100c2565b8063590e1ae3146101b85780636f9fb98a146101cf57806381d12c58146101fa576100c2565b806306e99fef146100c75780631f6d4942146100d157806329dcb0cf1461010e5780633eb7647b14610139578063481c6a75146101625780634e260f6f1461018d575b600080fd5b6100cf6102e7565b005b3480156100dd57600080fd5b506100f860048036038101906100f39190610862565b610440565b6040516101059190610b21565b60405180910390f35b34801561011a57600080fd5b50610123610458565b6040516101309190610b21565b60405180910390f35b34801561014557600080fd5b50610160600480360381019061015b919061088f565b61045e565b005b34801561016e57600080fd5b5061017761050d565b6040516101849190610a2c565b60405180910390f35b34801561019957600080fd5b506101a2610533565b6040516101af9190610b21565b60405180910390f35b3480156101c457600080fd5b506101cd610539565b005b3480156101db57600080fd5b506101e46106a8565b6040516101f19190610b21565b60405180910390f35b34801561020657600080fd5b50610221600480360381019061021c91906108fe565b6106b0565b604051610232959493929190610a47565b60405180910390f35b34801561024757600080fd5b5061025061079b565b60405161025d9190610b21565b60405180910390f35b34801561027257600080fd5b5061027b6107a1565b6040516102889190610b21565b60405180910390f35b34801561029d57600080fd5b506102a66107a7565b6040516102b39190610b21565b60405180910390f35b3480156102c857600080fd5b506102d16107ad565b6040516102de9190610b21565b60405180910390f35b600354421061032b576040517f08c379a000000000000000000000000000000000000000000000000000000000815260040161032290610b01565b60405180910390fd5b600254341015610370576040517f08c379a000000000000000000000000000000000000000000000000000000000815260040161036790610ae1565b60405180910390fd5b60008060003373ffffffffffffffffffffffffffffffffffffffff1673ffffffffffffffffffffffffffffffffffffffff1681526020019081526020016000205414156103d057600660008154809291906103ca90610d03565b91905055505b346000803373ffffffffffffffffffffffffffffffffffffffff1673ffffffffffffffffffffffffffffffffffffffff168152602001908152602001600020600082825461041e9190610bae565b9250508190555034600560008282546104379190610bae565b92505081905550565b60006020528060005260406000206000915090505481565b60035481565b600160009054906101000a900473ffffffffffffffffffffffffffffffffffffffff1673ffffffffffffffffffffffffffffffffffffffff163373ffffffffffffffffffffffffffffffffffffffff16146104ee576040517f08c379a00000000000000000000000000000000000000000000000000000000081526004016104e590610aa1565b60405180910390fd5b6000600760006008548152602001908152602001600020905050505050565b600160009054906101000a900473ffffffffffffffffffffffffffffffffffffffff1681565b60065481565b6003544211801561054d5750600454600554105b61058c576040517f08c379a000000000000000000000000000000000000000000000000000000000815260040161058390610ac1565b60405180910390fd5b60008060003373ffffffffffffffffffffffffffffffffffffffff1673ffffffffffffffffffffffffffffffffffffffff16815260200190815260200160002054116105d757600080fd5b60003390508073ffffffffffffffffffffffffffffffffffffffff166108fc6000803373ffffffffffffffffffffffffffffffffffffffff1673ffffffffffffffffffffffffffffffffffffffff168152602001908152602001600020549081150290604051600060405180830381858888f19350505050158015610660573d6000803e3d6000fd5b5060008060003373ffffffffffffffffffffffffffffffffffffffff1673ffffffffffffffffffffffffffffffffffffffff1681526020019081526020016000208190555050565b600047905090565b60076020528060005260406000206000915090508060000180546106d390610ca0565b80601f01602080910402602001604051908101604052809291908181526020018280546106ff90610ca0565b801561074c5780601f106107215761010080835404028352916020019161074c565b820191906000526020600020905b81548152906001019060200180831161072f57829003601f168201915b5050505050908060010160009054906101000a900473ffffffffffffffffffffffffffffffffffffffff16908060020154908060030160009054906101000a900460ff16908060040154905085565b60025481565b60085481565b60055481565b60045481565b60006107c66107c184610b61565b610b3c565b9050828152602081018484840111156107e2576107e1610dde565b5b6107ed848285610c5e565b509392505050565b60008135905061080481610ec8565b92915050565b60008135905061081981610edf565b92915050565b600082601f83011261083457610833610dd9565b5b81356108448482602086016107b3565b91505092915050565b60008135905061085c81610ef6565b92915050565b60006020828403121561087857610877610de8565b5b6000610886848285016107f5565b91505092915050565b6000806000606084860312156108a8576108a7610de8565b5b600084013567ffffffffffffffff8111156108c6576108c5610de3565b5b6108d28682870161081f565b93505060206108e38682870161080a565b92505060406108f48682870161084d565b9150509250925092565b60006020828403121561091457610913610de8565b5b60006109228482850161084d565b91505092915050565b61093481610c16565b82525050565b61094381610c04565b82525050565b61095281610c28565b82525050565b600061096382610b92565b61096d8185610b9d565b935061097d818560208601610c6d565b61098681610ded565b840191505092915050565b600061099e602483610b9d565b91506109a982610dfe565b604082019050919050565b60006109c1601f83610b9d565b91506109cc82610e4d565b602082019050919050565b60006109e4602083610b9d565b91506109ef82610e76565b602082019050919050565b6000610a07601d83610b9d565b9150610a1282610e9f565b602082019050919050565b610a2681610c54565b82525050565b6000602082019050610a41600083018461093a565b92915050565b600060a0820190508181036000830152610a618188610958565b9050610a70602083018761092b565b610a7d6040830186610a1d565b610a8a6060830185610949565b610a976080830184610a1d565b9695505050505050565b60006020820190508181036000830152610aba81610991565b9050919050565b60006020820190508181036000830152610ada816109b4565b9050919050565b60006020820190508181036000830152610afa816109d7565b9050919050565b60006020820190508181036000830152610b1a816109fa565b9050919050565b6000602082019050610b366000830184610a1d565b92915050565b6000610b46610b57565b9050610b528282610cd2565b919050565b6000604051905090565b600067ffffffffffffffff821115610b7c57610b7b610daa565b5b610b8582610ded565b9050602081019050919050565b600081519050919050565b600082825260208201905092915050565b6000610bb982610c54565b9150610bc483610c54565b9250827fffffffffffffffffffffffffffffffffffffffffffffffffffffffffffffffff03821115610bf957610bf8610d4c565b5b828201905092915050565b6000610c0f82610c34565b9050919050565b6000610c2182610c34565b9050919050565b60008115159050919050565b600073ffffffffffffffffffffffffffffffffffffffff82169050919050565b6000819050919050565b82818337600083830152505050565b60005b83811015610c8b578082015181840152602081019050610c70565b83811115610c9a576000848401525b50505050565b60006002820490506001821680610cb857607f821691505b60208210811415610ccc57610ccb610d7b565b5b50919050565b610cdb82610ded565b810181811067ffffffffffffffff82111715610cfa57610cf9610daa565b5b80604052505050565b6000610d0e82610c54565b91507fffffffffffffffffffffffffffffffffffffffffffffffffffffffffffffffff821415610d4157610d40610d4c565b5b600182019050919050565b7f4e487b7100000000000000000000000000000000000000000000000000000000600052601160045260246000fd5b7f4e487b7100000000000000000000000000000000000000000000000000000000600052602260045260246000fd5b7f4e487b7100000000000000000000000000000000000000000000000000000000600052604160045260246000fd5b600080fd5b600080fd5b600080fd5b600080fd5b6000601f19601f8301169050919050565b7f4f6e6c79206d616e616765722063616e2063616c6c20746869732066756e637460008201527f696f6e2e00000000000000000000000000000000000000000000000000000000602082015250565b7f596f7520617265206e6f7420656c656769626c6520666f7220726566756e6400600082015250565b7f4d696e696d756d20636f6e747269627574696f6e206973206e6f74206d65742e600082015250565b7f446561646c696e652068617320616c7265616479207265616368656421000000600082015250565b610ed181610c04565b8114610edc57600080fd5b50565b610ee881610c16565b8114610ef357600080fd5b50565b610eff81610c54565b8114610f0a57600080fd5b5056fea26469706673582212201bfca15ae17a97561cf54953dc0fe910666acd1386a162bf14c7f685eebc19fd64736f6c63430008070033",
					"opcodes": "PUSH1 0x80 PUSH1 0x40 MSTORE CALLVALUE DUP1 ISZERO PUSH3 0x11 JUMPI PUSH1 0x0 DUP1 REVERT JUMPDEST POP PUSH1 0x40 MLOAD PUSH3 0x1109 CODESIZE SUB DUP1 PUSH3 0x1109 DUP4 CODECOPY DUP2 DUP2 ADD PUSH1 0x40 MSTORE DUP2 ADD SWAP1 PUSH3 0x37 SWAP2 SWAP1 PUSH3 0xBA JUMP JUMPDEST DUP2 PUSH1 0x4 DUP2 SWAP1 SSTORE POP DUP1 TIMESTAMP PUSH3 0x4C SWAP2 SWAP1 PUSH3 0x101 JUMP JUMPDEST PUSH1 0x3 DUP2 SWAP1 SSTORE POP PUSH1 0x64 PUSH1 0x2 DUP2 SWAP1 SSTORE POP CALLER PUSH1 0x1 PUSH1 0x0 PUSH2 0x100 EXP DUP2 SLOAD DUP2 PUSH20 0xFFFFFFFFFFFFFFFFFFFFFFFFFFFFFFFFFFFFFFFF MUL NOT AND SWAP1 DUP4 PUSH20 0xFFFFFFFFFFFFFFFFFFFFFFFFFFFFFFFFFFFFFFFF AND MUL OR SWAP1 SSTORE POP POP POP PUSH3 0x1B6 JUMP JUMPDEST PUSH1 0x0 DUP2 MLOAD SWAP1 POP PUSH3 0xB4 DUP2 PUSH3 0x19C JUMP JUMPDEST SWAP3 SWAP2 POP POP JUMP JUMPDEST PUSH1 0x0 DUP1 PUSH1 0x40 DUP4 DUP6 SUB SLT ISZERO PUSH3 0xD4 JUMPI PUSH3 0xD3 PUSH3 0x197 JUMP JUMPDEST JUMPDEST PUSH1 0x0 PUSH3 0xE4 DUP6 DUP3 DUP7 ADD PUSH3 0xA3 JUMP JUMPDEST SWAP3 POP POP PUSH1 0x20 PUSH3 0xF7 DUP6 DUP3 DUP7 ADD PUSH3 0xA3 JUMP JUMPDEST SWAP2 POP POP SWAP3 POP SWAP3 SWAP1 POP JUMP JUMPDEST PUSH1 0x0 PUSH3 0x10E DUP3 PUSH3 0x15E JUMP JUMPDEST SWAP2 POP PUSH3 0x11B DUP4 PUSH3 0x15E JUMP JUMPDEST SWAP3 POP DUP3 PUSH32 0xFFFFFFFFFFFFFFFFFFFFFFFFFFFFFFFFFFFFFFFFFFFFFFFFFFFFFFFFFFFFFFFF SUB DUP3 GT ISZERO PUSH3 0x153 JUMPI PUSH3 0x152 PUSH3 0x168 JUMP JUMPDEST JUMPDEST DUP3 DUP3 ADD SWAP1 POP SWAP3 SWAP2 POP POP JUMP JUMPDEST PUSH1 0x0 DUP2 SWAP1 POP SWAP2 SWAP1 POP JUMP JUMPDEST PUSH32 0x4E487B7100000000000000000000000000000000000000000000000000000000 PUSH1 0x0 MSTORE PUSH1 0x11 PUSH1 0x4 MSTORE PUSH1 0x24 PUSH1 0x0 REVERT JUMPDEST PUSH1 0x0 DUP1 REVERT JUMPDEST PUSH3 0x1A7 DUP2 PUSH3 0x15E JUMP JUMPDEST DUP2 EQ PUSH3 0x1B3 JUMPI PUSH1 0x0 DUP1 REVERT JUMPDEST POP JUMP JUMPDEST PUSH2 0xF43 DUP1 PUSH3 0x1C6 PUSH1 0x0 CODECOPY PUSH1 0x0 RETURN INVALID PUSH1 0x80 PUSH1 0x40 MSTORE PUSH1 0x4 CALLDATASIZE LT PUSH2 0xC2 JUMPI PUSH1 0x0 CALLDATALOAD PUSH1 0xE0 SHR DUP1 PUSH4 0x590E1AE3 GT PUSH2 0x7F JUMPI DUP1 PUSH4 0x937E09B1 GT PUSH2 0x59 JUMPI DUP1 PUSH4 0x937E09B1 EQ PUSH2 0x23B JUMPI DUP1 PUSH4 0x9FB42B1F EQ PUSH2 0x266 JUMPI DUP1 PUSH4 0xC59EE1DC EQ PUSH2 0x291 JUMPI DUP1 PUSH4 0xD4B83992 EQ PUSH2 0x2BC JUMPI PUSH2 0xC2 JUMP JUMPDEST DUP1 PUSH4 0x590E1AE3 EQ PUSH2 0x1B8 JUMPI DUP1 PUSH4 0x6F9FB98A EQ PUSH2 0x1CF JUMPI DUP1 PUSH4 0x81D12C58 EQ PUSH2 0x1FA JUMPI PUSH2 0xC2 JUMP JUMPDEST DUP1 PUSH4 0x6E99FEF EQ PUSH2 0xC7 JUMPI DUP1 PUSH4 0x1F6D4942 EQ PUSH2 0xD1 JUMPI DUP1 PUSH4 0x29DCB0CF EQ PUSH2 0x10E JUMPI DUP1 PUSH4 0x3EB7647B EQ PUSH2 0x139 JUMPI DUP1 PUSH4 0x481C6A75 EQ PUSH2 0x162 JUMPI DUP1 PUSH4 0x4E260F6F EQ PUSH2 0x18D JUMPI JUMPDEST PUSH1 0x0 DUP1 REVERT JUMPDEST PUSH2 0xCF PUSH2 0x2E7 JUMP JUMPDEST STOP JUMPDEST CALLVALUE DUP1 ISZERO PUSH2 0xDD JUMPI PUSH1 0x0 DUP1 REVERT JUMPDEST POP PUSH2 0xF8 PUSH1 0x4 DUP1 CALLDATASIZE SUB DUP2 ADD SWAP1 PUSH2 0xF3 SWAP2 SWAP1 PUSH2 0x862 JUMP JUMPDEST PUSH2 0x440 JUMP JUMPDEST PUSH1 0x40 MLOAD PUSH2 0x105 SWAP2 SWAP1 PUSH2 0xB21 JUMP JUMPDEST PUSH1 0x40 MLOAD DUP1 SWAP2 SUB SWAP1 RETURN JUMPDEST CALLVALUE DUP1 ISZERO PUSH2 0x11A JUMPI PUSH1 0x0 DUP1 REVERT JUMPDEST POP PUSH2 0x123 PUSH2 0x458 JUMP JUMPDEST PUSH1 0x40 MLOAD PUSH2 0x130 SWAP2 SWAP1 PUSH2 0xB21 JUMP JUMPDEST PUSH1 0x40 MLOAD DUP1 SWAP2 SUB SWAP1 RETURN JUMPDEST CALLVALUE DUP1 ISZERO PUSH2 0x145 JUMPI PUSH1 0x0 DUP1 REVERT JUMPDEST POP PUSH2 0x160 PUSH1 0x4 DUP1 CALLDATASIZE SUB DUP2 ADD SWAP1 PUSH2 0x15B SWAP2 SWAP1 PUSH2 0x88F JUMP JUMPDEST PUSH2 0x45E JUMP JUMPDEST STOP JUMPDEST CALLVALUE DUP1 ISZERO PUSH2 0x16E JUMPI PUSH1 0x0 DUP1 REVERT JUMPDEST POP PUSH2 0x177 PUSH2 0x50D JUMP JUMPDEST PUSH1 0x40 MLOAD PUSH2 0x184 SWAP2 SWAP1 PUSH2 0xA2C JUMP JUMPDEST PUSH1 0x40 MLOAD DUP1 SWAP2 SUB SWAP1 RETURN JUMPDEST CALLVALUE DUP1 ISZERO PUSH2 0x199 JUMPI PUSH1 0x0 DUP1 REVERT JUMPDEST POP PUSH2 0x1A2 PUSH2 0x533 JUMP JUMPDEST PUSH1 0x40 MLOAD PUSH2 0x1AF SWAP2 SWAP1 PUSH2 0xB21 JUMP JUMPDEST PUSH1 0x40 MLOAD DUP1 SWAP2 SUB SWAP1 RETURN JUMPDEST CALLVALUE DUP1 ISZERO PUSH2 0x1C4 JUMPI PUSH1 0x0 DUP1 REVERT JUMPDEST POP PUSH2 0x1CD PUSH2 0x539 JUMP JUMPDEST STOP JUMPDEST CALLVALUE DUP1 ISZERO PUSH2 0x1DB JUMPI PUSH1 0x0 DUP1 REVERT JUMPDEST POP PUSH2 0x1E4 PUSH2 0x6A8 JUMP JUMPDEST PUSH1 0x40 MLOAD PUSH2 0x1F1 SWAP2 SWAP1 PUSH2 0xB21 JUMP JUMPDEST PUSH1 0x40 MLOAD DUP1 SWAP2 SUB SWAP1 RETURN JUMPDEST CALLVALUE DUP1 ISZERO PUSH2 0x206 JUMPI PUSH1 0x0 DUP1 REVERT JUMPDEST POP PUSH2 0x221 PUSH1 0x4 DUP1 CALLDATASIZE SUB DUP2 ADD SWAP1 PUSH2 0x21C SWAP2 SWAP1 PUSH2 0x8FE JUMP JUMPDEST PUSH2 0x6B0 JUMP JUMPDEST PUSH1 0x40 MLOAD PUSH2 0x232 SWAP6 SWAP5 SWAP4 SWAP3 SWAP2 SWAP1 PUSH2 0xA47 JUMP JUMPDEST PUSH1 0x40 MLOAD DUP1 SWAP2 SUB SWAP1 RETURN JUMPDEST CALLVALUE DUP1 ISZERO PUSH2 0x247 JUMPI PUSH1 0x0 DUP1 REVERT JUMPDEST POP PUSH2 0x250 PUSH2 0x79B JUMP JUMPDEST PUSH1 0x40 MLOAD PUSH2 0x25D SWAP2 SWAP1 PUSH2 0xB21 JUMP JUMPDEST PUSH1 0x40 MLOAD DUP1 SWAP2 SUB SWAP1 RETURN JUMPDEST CALLVALUE DUP1 ISZERO PUSH2 0x272 JUMPI PUSH1 0x0 DUP1 REVERT JUMPDEST POP PUSH2 0x27B PUSH2 0x7A1 JUMP JUMPDEST PUSH1 0x40 MLOAD PUSH2 0x288 SWAP2 SWAP1 PUSH2 0xB21 JUMP JUMPDEST PUSH1 0x40 MLOAD DUP1 SWAP2 SUB SWAP1 RETURN JUMPDEST CALLVALUE DUP1 ISZERO PUSH2 0x29D JUMPI PUSH1 0x0 DUP1 REVERT JUMPDEST POP PUSH2 0x2A6 PUSH2 0x7A7 JUMP JUMPDEST PUSH1 0x40 MLOAD PUSH2 0x2B3 SWAP2 SWAP1 PUSH2 0xB21 JUMP JUMPDEST PUSH1 0x40 MLOAD DUP1 SWAP2 SUB SWAP1 RETURN JUMPDEST CALLVALUE DUP1 ISZERO PUSH2 0x2C8 JUMPI PUSH1 0x0 DUP1 REVERT JUMPDEST POP PUSH2 0x2D1 PUSH2 0x7AD JUMP JUMPDEST PUSH1 0x40 MLOAD PUSH2 0x2DE SWAP2 SWAP1 PUSH2 0xB21 JUMP JUMPDEST PUSH1 0x40 MLOAD DUP1 SWAP2 SUB SWAP1 RETURN JUMPDEST PUSH1 0x3 SLOAD TIMESTAMP LT PUSH2 0x32B JUMPI PUSH1 0x40 MLOAD PUSH32 0x8C379A000000000000000000000000000000000000000000000000000000000 DUP2 MSTORE PUSH1 0x4 ADD PUSH2 0x322 SWAP1 PUSH2 0xB01 JUMP JUMPDEST PUSH1 0x40 MLOAD DUP1 SWAP2 SUB SWAP1 REVERT JUMPDEST PUSH1 0x2 SLOAD CALLVALUE LT ISZERO PUSH2 0x370 JUMPI PUSH1 0x40 MLOAD PUSH32 0x8C379A000000000000000000000000000000000000000000000000000000000 DUP2 MSTORE PUSH1 0x4 ADD PUSH2 0x367 SWAP1 PUSH2 0xAE1 JUMP JUMPDEST PUSH1 0x40 MLOAD DUP1 SWAP2 SUB SWAP1 REVERT JUMPDEST PUSH1 0x0 DUP1 PUSH1 0x0 CALLER PUSH20 0xFFFFFFFFFFFFFFFFFFFFFFFFFFFFFFFFFFFFFFFF AND PUSH20 0xFFFFFFFFFFFFFFFFFFFFFFFFFFFFFFFFFFFFFFFF AND DUP2 MSTORE PUSH1 0x20 ADD SWAP1 DUP2 MSTORE PUSH1 0x20 ADD PUSH1 0x0 KECCAK256 SLOAD EQ ISZERO PUSH2 0x3D0 JUMPI PUSH1 0x6 PUSH1 0x0 DUP2 SLOAD DUP1 SWAP3 SWAP2 SWAP1 PUSH2 0x3CA SWAP1 PUSH2 0xD03 JUMP JUMPDEST SWAP2 SWAP1 POP SSTORE POP JUMPDEST CALLVALUE PUSH1 0x0 DUP1 CALLER PUSH20 0xFFFFFFFFFFFFFFFFFFFFFFFFFFFFFFFFFFFFFFFF AND PUSH20 0xFFFFFFFFFFFFFFFFFFFFFFFFFFFFFFFFFFFFFFFF AND DUP2 MSTORE PUSH1 0x20 ADD SWAP1 DUP2 MSTORE PUSH1 0x20 ADD PUSH1 0x0 KECCAK256 PUSH1 0x0 DUP3 DUP3 SLOAD PUSH2 0x41E SWAP2 SWAP1 PUSH2 0xBAE JUMP JUMPDEST SWAP3 POP POP DUP2 SWAP1 SSTORE POP CALLVALUE PUSH1 0x5 PUSH1 0x0 DUP3 DUP3 SLOAD PUSH2 0x437 SWAP2 SWAP1 PUSH2 0xBAE JUMP JUMPDEST SWAP3 POP POP DUP2 SWAP1 SSTORE POP JUMP JUMPDEST PUSH1 0x0 PUSH1 0x20 MSTORE DUP1 PUSH1 0x0 MSTORE PUSH1 0x40 PUSH1 0x0 KECCAK256 PUSH1 0x0 SWAP2 POP SWAP1 POP SLOAD DUP2 JUMP JUMPDEST PUSH1 0x3 SLOAD DUP2 JUMP JUMPDEST PUSH1 0x1 PUSH1 0x0 SWAP1 SLOAD SWAP1 PUSH2 0x100 EXP SWAP1 DIV PUSH20 0xFFFFFFFFFFFFFFFFFFFFFFFFFFFFFFFFFFFFFFFF AND PUSH20 0xFFFFFFFFFFFFFFFFFFFFFFFFFFFFFFFFFFFFFFFF AND CALLER PUSH20 0xFFFFFFFFFFFFFFFFFFFFFFFFFFFFFFFFFFFFFFFF AND EQ PUSH2 0x4EE JUMPI PUSH1 0x40 MLOAD PUSH32 0x8C379A000000000000000000000000000000000000000000000000000000000 DUP2 MSTORE PUSH1 0x4 ADD PUSH2 0x4E5 SWAP1 PUSH2 0xAA1 JUMP JUMPDEST PUSH1 0x40 MLOAD DUP1 SWAP2 SUB SWAP1 REVERT JUMPDEST PUSH1 0x0 PUSH1 0x7 PUSH1 0x0 PUSH1 0x8 SLOAD DUP2 MSTORE PUSH1 0x20 ADD SWAP1 DUP2 MSTORE PUSH1 0x20 ADD PUSH1 0x0 KECCAK256 SWAP1 POP POP POP POP POP JUMP JUMPDEST PUSH1 0x1 PUSH1 0x0 SWAP1 SLOAD SWAP1 PUSH2 0x100 EXP SWAP1 DIV PUSH20 0xFFFFFFFFFFFFFFFFFFFFFFFFFFFFFFFFFFFFFFFF AND DUP2 JUMP JUMPDEST PUSH1 0x6 SLOAD DUP2 JUMP JUMPDEST PUSH1 0x3 SLOAD TIMESTAMP GT DUP1 ISZERO PUSH2 0x54D JUMPI POP PUSH1 0x4 SLOAD PUSH1 0x5 SLOAD LT JUMPDEST PUSH2 0x58C JUMPI PUSH1 0x40 MLOAD PUSH32 0x8C379A000000000000000000000000000000000000000000000000000000000 DUP2 MSTORE PUSH1 0x4 ADD PUSH2 0x583 SWAP1 PUSH2 0xAC1 JUMP JUMPDEST PUSH1 0x40 MLOAD DUP1 SWAP2 SUB SWAP1 REVERT JUMPDEST PUSH1 0x0 DUP1 PUSH1 0x0 CALLER PUSH20 0xFFFFFFFFFFFFFFFFFFFFFFFFFFFFFFFFFFFFFFFF AND PUSH20 0xFFFFFFFFFFFFFFFFFFFFFFFFFFFFFFFFFFFFFFFF AND DUP2 MSTORE PUSH1 0x20 ADD SWAP1 DUP2 MSTORE PUSH1 0x20 ADD PUSH1 0x0 KECCAK256 SLOAD GT PUSH2 0x5D7 JUMPI PUSH1 0x0 DUP1 REVERT JUMPDEST PUSH1 0x0 CALLER SWAP1 POP DUP1 PUSH20 0xFFFFFFFFFFFFFFFFFFFFFFFFFFFFFFFFFFFFFFFF AND PUSH2 0x8FC PUSH1 0x0 DUP1 CALLER PUSH20 0xFFFFFFFFFFFFFFFFFFFFFFFFFFFFFFFFFFFFFFFF AND PUSH20 0xFFFFFFFFFFFFFFFFFFFFFFFFFFFFFFFFFFFFFFFF AND DUP2 MSTORE PUSH1 0x20 ADD SWAP1 DUP2 MSTORE PUSH1 0x20 ADD PUSH1 0x0 KECCAK256 SLOAD SWAP1 DUP2 ISZERO MUL SWAP1 PUSH1 0x40 MLOAD PUSH1 0x0 PUSH1 0x40 MLOAD DUP1 DUP4 SUB DUP2 DUP6 DUP9 DUP9 CALL SWAP4 POP POP POP POP ISZERO DUP1 ISZERO PUSH2 0x660 JUMPI RETURNDATASIZE PUSH1 0x0 DUP1 RETURNDATACOPY RETURNDATASIZE PUSH1 0x0 REVERT JUMPDEST POP PUSH1 0x0 DUP1 PUSH1 0x0 CALLER PUSH20 0xFFFFFFFFFFFFFFFFFFFFFFFFFFFFFFFFFFFFFFFF AND PUSH20 0xFFFFFFFFFFFFFFFFFFFFFFFFFFFFFFFFFFFFFFFF AND DUP2 MSTORE PUSH1 0x20 ADD SWAP1 DUP2 MSTORE PUSH1 0x20 ADD PUSH1 0x0 KECCAK256 DUP2 SWAP1 SSTORE POP POP JUMP JUMPDEST PUSH1 0x0 SELFBALANCE SWAP1 POP SWAP1 JUMP JUMPDEST PUSH1 0x7 PUSH1 0x20 MSTORE DUP1 PUSH1 0x0 MSTORE PUSH1 0x40 PUSH1 0x0 KECCAK256 PUSH1 0x0 SWAP2 POP SWAP1 POP DUP1 PUSH1 0x0 ADD DUP1 SLOAD PUSH2 0x6D3 SWAP1 PUSH2 0xCA0 JUMP JUMPDEST DUP1 PUSH1 0x1F ADD PUSH1 0x20 DUP1 SWAP2 DIV MUL PUSH1 0x20 ADD PUSH1 0x40 MLOAD SWAP1 DUP2 ADD PUSH1 0x40 MSTORE DUP1 SWAP3 SWAP2 SWAP1 DUP2 DUP2 MSTORE PUSH1 0x20 ADD DUP3 DUP1 SLOAD PUSH2 0x6FF SWAP1 PUSH2 0xCA0 JUMP JUMPDEST DUP1 ISZERO PUSH2 0x74C JUMPI DUP1 PUSH1 0x1F LT PUSH2 0x721 JUMPI PUSH2 0x100 DUP1 DUP4 SLOAD DIV MUL DUP4 MSTORE SWAP2 PUSH1 0x20 ADD SWAP2 PUSH2 0x74C JUMP JUMPDEST DUP3 ADD SWAP2 SWAP1 PUSH1 0x0 MSTORE PUSH1 0x20 PUSH1 0x0 KECCAK256 SWAP1 JUMPDEST DUP2 SLOAD DUP2 MSTORE SWAP1 PUSH1 0x1 ADD SWAP1 PUSH1 0x20 ADD DUP1 DUP4 GT PUSH2 0x72F JUMPI DUP3 SWAP1 SUB PUSH1 0x1F AND DUP3 ADD SWAP2 JUMPDEST POP POP POP POP POP SWAP1 DUP1 PUSH1 0x1 ADD PUSH1 0x0 SWAP1 SLOAD SWAP1 PUSH2 0x100 EXP SWAP1 DIV PUSH20 0xFFFFFFFFFFFFFFFFFFFFFFFFFFFFFFFFFFFFFFFF AND SWAP1 DUP1 PUSH1 0x2 ADD SLOAD SWAP1 DUP1 PUSH1 0x3 ADD PUSH1 0x0 SWAP1 SLOAD SWAP1 PUSH2 0x100 EXP SWAP1 DIV PUSH1 0xFF AND SWAP1 DUP1 PUSH1 0x4 ADD SLOAD SWAP1 POP DUP6 JUMP JUMPDEST PUSH1 0x2 SLOAD DUP2 JUMP JUMPDEST PUSH1 0x8 SLOAD DUP2 JUMP JUMPDEST PUSH1 0x5 SLOAD DUP2 JUMP JUMPDEST PUSH1 0x4 SLOAD DUP2 JUMP JUMPDEST PUSH1 0x0 PUSH2 0x7C6 PUSH2 0x7C1 DUP5 PUSH2 0xB61 JUMP JUMPDEST PUSH2 0xB3C JUMP JUMPDEST SWAP1 POP DUP3 DUP2 MSTORE PUSH1 0x20 DUP2 ADD DUP5 DUP5 DUP5 ADD GT ISZERO PUSH2 0x7E2 JUMPI PUSH2 0x7E1 PUSH2 0xDDE JUMP JUMPDEST JUMPDEST PUSH2 0x7ED DUP5 DUP3 DUP6 PUSH2 0xC5E JUMP JUMPDEST POP SWAP4 SWAP3 POP POP POP JUMP JUMPDEST PUSH1 0x0 DUP2 CALLDATALOAD SWAP1 POP PUSH2 0x804 DUP2 PUSH2 0xEC8 JUMP JUMPDEST SWAP3 SWAP2 POP POP JUMP JUMPDEST PUSH1 0x0 DUP2 CALLDATALOAD SWAP1 POP PUSH2 0x819 DUP2 PUSH2 0xEDF JUMP JUMPDEST SWAP3 SWAP2 POP POP JUMP JUMPDEST PUSH1 0x0 DUP3 PUSH1 0x1F DUP4 ADD SLT PUSH2 0x834 JUMPI PUSH2 0x833 PUSH2 0xDD9 JUMP JUMPDEST JUMPDEST DUP2 CALLDATALOAD PUSH2 0x844 DUP5 DUP3 PUSH1 0x20 DUP7 ADD PUSH2 0x7B3 JUMP JUMPDEST SWAP2 POP POP SWAP3 SWAP2 POP POP JUMP JUMPDEST PUSH1 0x0 DUP2 CALLDATALOAD SWAP1 POP PUSH2 0x85C DUP2 PUSH2 0xEF6 JUMP JUMPDEST SWAP3 SWAP2 POP POP JUMP JUMPDEST PUSH1 0x0 PUSH1 0x20 DUP3 DUP5 SUB SLT ISZERO PUSH2 0x878 JUMPI PUSH2 0x877 PUSH2 0xDE8 JUMP JUMPDEST JUMPDEST PUSH1 0x0 PUSH2 0x886 DUP5 DUP3 DUP6 ADD PUSH2 0x7F5 JUMP JUMPDEST SWAP2 POP POP SWAP3 SWAP2 POP POP JUMP JUMPDEST PUSH1 0x0 DUP1 PUSH1 0x0 PUSH1 0x60 DUP5 DUP7 SUB SLT ISZERO PUSH2 0x8A8 JUMPI PUSH2 0x8A7 PUSH2 0xDE8 JUMP JUMPDEST JUMPDEST PUSH1 0x0 DUP5 ADD CALLDATALOAD PUSH8 0xFFFFFFFFFFFFFFFF DUP2 GT ISZERO PUSH2 0x8C6 JUMPI PUSH2 0x8C5 PUSH2 0xDE3 JUMP JUMPDEST JUMPDEST PUSH2 0x8D2 DUP7 DUP3 DUP8 ADD PUSH2 0x81F JUMP JUMPDEST SWAP4 POP POP PUSH1 0x20 PUSH2 0x8E3 DUP7 DUP3 DUP8 ADD PUSH2 0x80A JUMP JUMPDEST SWAP3 POP POP PUSH1 0x40 PUSH2 0x8F4 DUP7 DUP3 DUP8 ADD PUSH2 0x84D JUMP JUMPDEST SWAP2 POP POP SWAP3 POP SWAP3 POP SWAP3 JUMP JUMPDEST PUSH1 0x0 PUSH1 0x20 DUP3 DUP5 SUB SLT ISZERO PUSH2 0x914 JUMPI PUSH2 0x913 PUSH2 0xDE8 JUMP JUMPDEST JUMPDEST PUSH1 0x0 PUSH2 0x922 DUP5 DUP3 DUP6 ADD PUSH2 0x84D JUMP JUMPDEST SWAP2 POP POP SWAP3 SWAP2 POP POP JUMP JUMPDEST PUSH2 0x934 DUP2 PUSH2 0xC16 JUMP JUMPDEST DUP3 MSTORE POP POP JUMP JUMPDEST PUSH2 0x943 DUP2 PUSH2 0xC04 JUMP JUMPDEST DUP3 MSTORE POP POP JUMP JUMPDEST PUSH2 0x952 DUP2 PUSH2 0xC28 JUMP JUMPDEST DUP3 MSTORE POP POP JUMP JUMPDEST PUSH1 0x0 PUSH2 0x963 DUP3 PUSH2 0xB92 JUMP JUMPDEST PUSH2 0x96D DUP2 DUP6 PUSH2 0xB9D JUMP JUMPDEST SWAP4 POP PUSH2 0x97D DUP2 DUP6 PUSH1 0x20 DUP7 ADD PUSH2 0xC6D JUMP JUMPDEST PUSH2 0x986 DUP2 PUSH2 0xDED JUMP JUMPDEST DUP5 ADD SWAP2 POP POP SWAP3 SWAP2 POP POP JUMP JUMPDEST PUSH1 0x0 PUSH2 0x99E PUSH1 0x24 DUP4 PUSH2 0xB9D JUMP JUMPDEST SWAP2 POP PUSH2 0x9A9 DUP3 PUSH2 0xDFE JUMP JUMPDEST PUSH1 0x40 DUP3 ADD SWAP1 POP SWAP2 SWAP1 POP JUMP JUMPDEST PUSH1 0x0 PUSH2 0x9C1 PUSH1 0x1F DUP4 PUSH2 0xB9D JUMP JUMPDEST SWAP2 POP PUSH2 0x9CC DUP3 PUSH2 0xE4D JUMP JUMPDEST PUSH1 0x20 DUP3 ADD SWAP1 POP SWAP2 SWAP1 POP JUMP JUMPDEST PUSH1 0x0 PUSH2 0x9E4 PUSH1 0x20 DUP4 PUSH2 0xB9D JUMP JUMPDEST SWAP2 POP PUSH2 0x9EF DUP3 PUSH2 0xE76 JUMP JUMPDEST PUSH1 0x20 DUP3 ADD SWAP1 POP SWAP2 SWAP1 POP JUMP JUMPDEST PUSH1 0x0 PUSH2 0xA07 PUSH1 0x1D DUP4 PUSH2 0xB9D JUMP JUMPDEST SWAP2 POP PUSH2 0xA12 DUP3 PUSH2 0xE9F JUMP JUMPDEST PUSH1 0x20 DUP3 ADD SWAP1 POP SWAP2 SWAP1 POP JUMP JUMPDEST PUSH2 0xA26 DUP2 PUSH2 0xC54 JUMP JUMPDEST DUP3 MSTORE POP POP JUMP JUMPDEST PUSH1 0x0 PUSH1 0x20 DUP3 ADD SWAP1 POP PUSH2 0xA41 PUSH1 0x0 DUP4 ADD DUP5 PUSH2 0x93A JUMP JUMPDEST SWAP3 SWAP2 POP POP JUMP JUMPDEST PUSH1 0x0 PUSH1 0xA0 DUP3 ADD SWAP1 POP DUP2 DUP2 SUB PUSH1 0x0 DUP4 ADD MSTORE PUSH2 0xA61 DUP2 DUP9 PUSH2 0x958 JUMP JUMPDEST SWAP1 POP PUSH2 0xA70 PUSH1 0x20 DUP4 ADD DUP8 PUSH2 0x92B JUMP JUMPDEST PUSH2 0xA7D PUSH1 0x40 DUP4 ADD DUP7 PUSH2 0xA1D JUMP JUMPDEST PUSH2 0xA8A PUSH1 0x60 DUP4 ADD DUP6 PUSH2 0x949 JUMP JUMPDEST PUSH2 0xA97 PUSH1 0x80 DUP4 ADD DUP5 PUSH2 0xA1D JUMP JUMPDEST SWAP7 SWAP6 POP POP POP POP POP POP JUMP JUMPDEST PUSH1 0x0 PUSH1 0x20 DUP3 ADD SWAP1 POP DUP2 DUP2 SUB PUSH1 0x0 DUP4 ADD MSTORE PUSH2 0xABA DUP2 PUSH2 0x991 JUMP JUMPDEST SWAP1 POP SWAP2 SWAP1 POP JUMP JUMPDEST PUSH1 0x0 PUSH1 0x20 DUP3 ADD SWAP1 POP DUP2 DUP2 SUB PUSH1 0x0 DUP4 ADD MSTORE PUSH2 0xADA DUP2 PUSH2 0x9B4 JUMP JUMPDEST SWAP1 POP SWAP2 SWAP1 POP JUMP JUMPDEST PUSH1 0x0 PUSH1 0x20 DUP3 ADD SWAP1 POP DUP2 DUP2 SUB PUSH1 0x0 DUP4 ADD MSTORE PUSH2 0xAFA DUP2 PUSH2 0x9D7 JUMP JUMPDEST SWAP1 POP SWAP2 SWAP1 POP JUMP JUMPDEST PUSH1 0x0 PUSH1 0x20 DUP3 ADD SWAP1 POP DUP2 DUP2 SUB PUSH1 0x0 DUP4 ADD MSTORE PUSH2 0xB1A DUP2 PUSH2 0x9FA JUMP JUMPDEST SWAP1 POP SWAP2 SWAP1 POP JUMP JUMPDEST PUSH1 0x0 PUSH1 0x20 DUP3 ADD SWAP1 POP PUSH2 0xB36 PUSH1 0x0 DUP4 ADD DUP5 PUSH2 0xA1D JUMP JUMPDEST SWAP3 SWAP2 POP POP JUMP JUMPDEST PUSH1 0x0 PUSH2 0xB46 PUSH2 0xB57 JUMP JUMPDEST SWAP1 POP PUSH2 0xB52 DUP3 DUP3 PUSH2 0xCD2 JUMP JUMPDEST SWAP2 SWAP1 POP JUMP JUMPDEST PUSH1 0x0 PUSH1 0x40 MLOAD SWAP1 POP SWAP1 JUMP JUMPDEST PUSH1 0x0 PUSH8 0xFFFFFFFFFFFFFFFF DUP3 GT ISZERO PUSH2 0xB7C JUMPI PUSH2 0xB7B PUSH2 0xDAA JUMP JUMPDEST JUMPDEST PUSH2 0xB85 DUP3 PUSH2 0xDED JUMP JUMPDEST SWAP1 POP PUSH1 0x20 DUP2 ADD SWAP1 POP SWAP2 SWAP1 POP JUMP JUMPDEST PUSH1 0x0 DUP2 MLOAD SWAP1 POP SWAP2 SWAP1 POP JUMP JUMPDEST PUSH1 0x0 DUP3 DUP3 MSTORE PUSH1 0x20 DUP3 ADD SWAP1 POP SWAP3 SWAP2 POP POP JUMP JUMPDEST PUSH1 0x0 PUSH2 0xBB9 DUP3 PUSH2 0xC54 JUMP JUMPDEST SWAP2 POP PUSH2 0xBC4 DUP4 PUSH2 0xC54 JUMP JUMPDEST SWAP3 POP DUP3 PUSH32 0xFFFFFFFFFFFFFFFFFFFFFFFFFFFFFFFFFFFFFFFFFFFFFFFFFFFFFFFFFFFFFFFF SUB DUP3 GT ISZERO PUSH2 0xBF9 JUMPI PUSH2 0xBF8 PUSH2 0xD4C JUMP JUMPDEST JUMPDEST DUP3 DUP3 ADD SWAP1 POP SWAP3 SWAP2 POP POP JUMP JUMPDEST PUSH1 0x0 PUSH2 0xC0F DUP3 PUSH2 0xC34 JUMP JUMPDEST SWAP1 POP SWAP2 SWAP1 POP JUMP JUMPDEST PUSH1 0x0 PUSH2 0xC21 DUP3 PUSH2 0xC34 JUMP JUMPDEST SWAP1 POP SWAP2 SWAP1 POP JUMP JUMPDEST PUSH1 0x0 DUP2 ISZERO ISZERO SWAP1 POP SWAP2 SWAP1 POP JUMP JUMPDEST PUSH1 0x0 PUSH20 0xFFFFFFFFFFFFFFFFFFFFFFFFFFFFFFFFFFFFFFFF DUP3 AND SWAP1 POP SWAP2 SWAP1 POP JUMP JUMPDEST PUSH1 0x0 DUP2 SWAP1 POP SWAP2 SWAP1 POP JUMP JUMPDEST DUP3 DUP2 DUP4 CALLDATACOPY PUSH1 0x0 DUP4 DUP4 ADD MSTORE POP POP POP JUMP JUMPDEST PUSH1 0x0 JUMPDEST DUP4 DUP2 LT ISZERO PUSH2 0xC8B JUMPI DUP1 DUP3 ADD MLOAD DUP2 DUP5 ADD MSTORE PUSH1 0x20 DUP2 ADD SWAP1 POP PUSH2 0xC70 JUMP JUMPDEST DUP4 DUP2 GT ISZERO PUSH2 0xC9A JUMPI PUSH1 0x0 DUP5 DUP5 ADD MSTORE JUMPDEST POP POP POP POP JUMP JUMPDEST PUSH1 0x0 PUSH1 0x2 DUP3 DIV SWAP1 POP PUSH1 0x1 DUP3 AND DUP1 PUSH2 0xCB8 JUMPI PUSH1 0x7F DUP3 AND SWAP2 POP JUMPDEST PUSH1 0x20 DUP3 LT DUP2 EQ ISZERO PUSH2 0xCCC JUMPI PUSH2 0xCCB PUSH2 0xD7B JUMP JUMPDEST JUMPDEST POP SWAP2 SWAP1 POP JUMP JUMPDEST PUSH2 0xCDB DUP3 PUSH2 0xDED JUMP JUMPDEST DUP2 ADD DUP2 DUP2 LT PUSH8 0xFFFFFFFFFFFFFFFF DUP3 GT OR ISZERO PUSH2 0xCFA JUMPI PUSH2 0xCF9 PUSH2 0xDAA JUMP JUMPDEST JUMPDEST DUP1 PUSH1 0x40 MSTORE POP POP POP JUMP JUMPDEST PUSH1 0x0 PUSH2 0xD0E DUP3 PUSH2 0xC54 JUMP JUMPDEST SWAP2 POP PUSH32 0xFFFFFFFFFFFFFFFFFFFFFFFFFFFFFFFFFFFFFFFFFFFFFFFFFFFFFFFFFFFFFFFF DUP3 EQ ISZERO PUSH2 0xD41 JUMPI PUSH2 0xD40 PUSH2 0xD4C JUMP JUMPDEST JUMPDEST PUSH1 0x1 DUP3 ADD SWAP1 POP SWAP2 SWAP1 POP JUMP JUMPDEST PUSH32 0x4E487B7100000000000000000000000000000000000000000000000000000000 PUSH1 0x0 MSTORE PUSH1 0x11 PUSH1 0x4 MSTORE PUSH1 0x24 PUSH1 0x0 REVERT JUMPDEST PUSH32 0x4E487B7100000000000000000000000000000000000000000000000000000000 PUSH1 0x0 MSTORE PUSH1 0x22 PUSH1 0x4 MSTORE PUSH1 0x24 PUSH1 0x0 REVERT JUMPDEST PUSH32 0x4E487B7100000000000000000000000000000000000000000000000000000000 PUSH1 0x0 MSTORE PUSH1 0x41 PUSH1 0x4 MSTORE PUSH1 0x24 PUSH1 0x0 REVERT JUMPDEST PUSH1 0x0 DUP1 REVERT JUMPDEST PUSH1 0x0 DUP1 REVERT JUMPDEST PUSH1 0x0 DUP1 REVERT JUMPDEST PUSH1 0x0 DUP1 REVERT JUMPDEST PUSH1 0x0 PUSH1 0x1F NOT PUSH1 0x1F DUP4 ADD AND SWAP1 POP SWAP2 SWAP1 POP JUMP JUMPDEST PUSH32 0x4F6E6C79206D616E616765722063616E2063616C6C20746869732066756E6374 PUSH1 0x0 DUP3 ADD MSTORE PUSH32 0x696F6E2E00000000000000000000000000000000000000000000000000000000 PUSH1 0x20 DUP3 ADD MSTORE POP JUMP JUMPDEST PUSH32 0x596F7520617265206E6F7420656C656769626C6520666F7220726566756E6400 PUSH1 0x0 DUP3 ADD MSTORE POP JUMP JUMPDEST PUSH32 0x4D696E696D756D20636F6E747269627574696F6E206973206E6F74206D65742E PUSH1 0x0 DUP3 ADD MSTORE POP JUMP JUMPDEST PUSH32 0x446561646C696E652068617320616C7265616479207265616368656421000000 PUSH1 0x0 DUP3 ADD MSTORE POP JUMP JUMPDEST PUSH2 0xED1 DUP2 PUSH2 0xC04 JUMP JUMPDEST DUP2 EQ PUSH2 0xEDC JUMPI PUSH1 0x0 DUP1 REVERT JUMPDEST POP JUMP JUMPDEST PUSH2 0xEE8 DUP2 PUSH2 0xC16 JUMP JUMPDEST DUP2 EQ PUSH2 0xEF3 JUMPI PUSH1 0x0 DUP1 REVERT JUMPDEST POP JUMP JUMPDEST PUSH2 0xEFF DUP2 PUSH2 0xC54 JUMP JUMPDEST DUP2 EQ PUSH2 0xF0A JUMPI PUSH1 0x0 DUP1 REVERT JUMPDEST POP JUMP INVALID LOG2 PUSH5 0x6970667358 0x22 SLT KECCAK256 SHL 0xFC LOG1 GAS 0xE1 PUSH27 0x97561CF54953DC0FE910666ACD1386A162BF14C7F685EEBC19FD64 PUSH20 0x6F6C634300080700330000000000000000000000 "
				},
				"gasEstimates": {
					"creation": {
						"codeDepositCost": "781400",
						"executionCost": "infinite",
						"totalCost": "infinite"
					},
					"external": {
						"contributors(address)": "2837",
						"createRequests(string,address,uint256)": "infinite",
						"deadline()": "2474",
						"getContractBalance()": "384",
						"manager()": "2603",
						"minimumContribution()": "2451",
						"noOfContributors()": "2540",
						"numRequests()": "2473",
						"raisedAmount()": "2495",
						"refund()": "infinite",
						"requests(uint256)": "infinite",
						"sendEth()": "infinite",
						"target()": "2517"
					}
				},
				"methodIdentifiers": {
					"contributors(address)": "1f6d4942",
					"createRequests(string,address,uint256)": "3eb7647b",
					"deadline()": "29dcb0cf",
					"getContractBalance()": "6f9fb98a",
					"manager()": "481c6a75",
					"minimumContribution()": "937e09b1",
					"noOfContributors()": "4e260f6f",
					"numRequests()": "9fb42b1f",
					"raisedAmount()": "c59ee1dc",
					"refund()": "590e1ae3",
					"requests(uint256)": "81d12c58",
					"sendEth()": "06e99fef",
					"target()": "d4b83992"
				}
			},
			"storageLayout": {
				"storage": [
					{
						"astId": 5,
						"contract": "CrowdFunding.sol:CrowdFunding",
						"label": "contributors",
						"offset": 0,
						"slot": "0",
						"type": "t_mapping(t_address,t_uint256)"
					},
					{
						"astId": 7,
						"contract": "CrowdFunding.sol:CrowdFunding",
						"label": "manager",
						"offset": 0,
						"slot": "1",
						"type": "t_address"
					},
					{
						"astId": 9,
						"contract": "CrowdFunding.sol:CrowdFunding",
						"label": "minimumContribution",
						"offset": 0,
						"slot": "2",
						"type": "t_uint256"
					},
					{
						"astId": 11,
						"contract": "CrowdFunding.sol:CrowdFunding",
						"label": "deadline",
						"offset": 0,
						"slot": "3",
						"type": "t_uint256"
					},
					{
						"astId": 13,
						"contract": "CrowdFunding.sol:CrowdFunding",
						"label": "target",
						"offset": 0,
						"slot": "4",
						"type": "t_uint256"
					},
					{
						"astId": 15,
						"contract": "CrowdFunding.sol:CrowdFunding",
						"label": "raisedAmount",
						"offset": 0,
						"slot": "5",
						"type": "t_uint256"
					},
					{
						"astId": 17,
						"contract": "CrowdFunding.sol:CrowdFunding",
						"label": "noOfContributors",
						"offset": 0,
						"slot": "6",
						"type": "t_uint256"
					},
					{
						"astId": 37,
						"contract": "CrowdFunding.sol:CrowdFunding",
						"label": "requests",
						"offset": 0,
						"slot": "7",
						"type": "t_mapping(t_uint256,t_struct(Request)32_storage)"
					},
					{
						"astId": 39,
						"contract": "CrowdFunding.sol:CrowdFunding",
						"label": "numRequests",
						"offset": 0,
						"slot": "8",
						"type": "t_uint256"
					}
				],
				"types": {
					"t_address": {
						"encoding": "inplace",
						"label": "address",
						"numberOfBytes": "20"
					},
					"t_address_payable": {
						"encoding": "inplace",
						"label": "address payable",
						"numberOfBytes": "20"
					},
					"t_bool": {
						"encoding": "inplace",
						"label": "bool",
						"numberOfBytes": "1"
					},
					"t_mapping(t_address,t_bool)": {
						"encoding": "mapping",
						"key": "t_address",
						"label": "mapping(address => bool)",
						"numberOfBytes": "32",
						"value": "t_bool"
					},
					"t_mapping(t_address,t_uint256)": {
						"encoding": "mapping",
						"key": "t_address",
						"label": "mapping(address => uint256)",
						"numberOfBytes": "32",
						"value": "t_uint256"
					},
					"t_mapping(t_uint256,t_struct(Request)32_storage)": {
						"encoding": "mapping",
						"key": "t_uint256",
						"label": "mapping(uint256 => struct CrowdFunding.Request)",
						"numberOfBytes": "32",
						"value": "t_struct(Request)32_storage"
					},
					"t_string_storage": {
						"encoding": "bytes",
						"label": "string",
						"numberOfBytes": "32"
					},
					"t_struct(Request)32_storage": {
						"encoding": "inplace",
						"label": "struct CrowdFunding.Request",
						"members": [
							{
								"astId": 19,
								"contract": "CrowdFunding.sol:CrowdFunding",
								"label": "description",
								"offset": 0,
								"slot": "0",
								"type": "t_string_storage"
							},
							{
								"astId": 21,
								"contract": "CrowdFunding.sol:CrowdFunding",
								"label": "recipient",
								"offset": 0,
								"slot": "1",
								"type": "t_address_payable"
							},
							{
								"astId": 23,
								"contract": "CrowdFunding.sol:CrowdFunding",
								"label": "value",
								"offset": 0,
								"slot": "2",
								"type": "t_uint256"
							},
							{
								"astId": 25,
								"contract": "CrowdFunding.sol:CrowdFunding",
								"label": "completed",
								"offset": 0,
								"slot": "3",
								"type": "t_bool"
							},
							{
								"astId": 27,
								"contract": "CrowdFunding.sol:CrowdFunding",
								"label": "noOfVoters",
								"offset": 0,
								"slot": "4",
								"type": "t_uint256"
							},
							{
								"astId": 31,
								"contract": "CrowdFunding.sol:CrowdFunding",
								"label": "voters",
								"offset": 0,
								"slot": "5",
								"type": "t_mapping(t_address,t_bool)"
							}
						],
						"numberOfBytes": "192"
					},
					"t_uint256": {
						"encoding": "inplace",
						"label": "uint256",
						"numberOfBytes": "32"
					}
				}
			},
			"userdoc": {
				"kind": "user",
				"methods": {},
				"version": 1
			}
		}
	}
}